:020000040800F2
:1000000000400020C1000008DF010108EF130108D3
:1000100000000000000000000000000000000000E0
:10002000000000000000000000000000DF010108E7
:100030000000000000000000DF0101084105000889
:10004000DF010108DF010108DF010108DF0101080C
:10005000DF010108DF010108FD000008DF010108E0
:10006000DF010108DF010108DF010108DF010108EC
:10007000DF010108DF010108DF010108DF010108DC
:10008000DF010108DF010108DF010108DF010108CC
:10009000DF01010855050008DF010108DF01010843
:1000A000DF010108DF010108DF010108DF010108AC
:1000B000DF010108DF010108DF010108DD0A000896
:1000C00010F090F8084809490022814201D004C08C
:1000D000FBE707480749084A814202D008CA08C01E
:1000E000FAE70FF0DCFE00DEF0060020500B0020E7
:1000F00000000020F006002008300108F0B503AF32
:1001000093B009AEE6484169490700D40AE20422E7
:1001100042614923E34DE95C022900D102E2016812
:10012000914301604524295D002900D19EE0012909
:1001300000D0F7E104960193089202200290059402
:100140002855002420460EF0D3FB0122110307910D
:10015000039212078006D44ED44BD54D284600D5C5
:10016000AEE106920498401C049009A8252110F0E5
:1001700014FB28463168090603D5411C00280846AF
:10018000F8D1CA4B069A1A6000BF00BF28463168F2
:10019000090603D5411C00280846F8D128463168D5
:1001A000890703D4411C00280846F8D1F02030719B
:1001B00028463168C90703D1411C00280846F8D1F8
:1001C000307928463168090603D5411C00280846C5
:1001D000F8D100BF00BF0798186000BF00BF2846D5
:1001E0003168090603D5411C00280846F8D11A6079
:1001F00000BF00BF28463168090603D5411C00280E
:100200000846F8D128463168890703D4411C0028E4
:100210000846F8D10598307128463168C90703D1DE
:10022000411C00280846F8D13079252C284630D0CA
:100230003168090603D5411C00280846F8D1284634
:100240003168890703D4411C00280846F8D10020F2
:10025000307128463168C90703D1411C002808467F
:10026000F8D1307909A90855641CDEE7089201220B
:100270002A5547216B5CAE49002B3BD0AE4B0B603F
:100280004323EC5C042C37D2032C00D0621CEA54CC
:1002900032E028463168090603D5411C002808468B
:1002A000F8D100BF00BF0798186000BF00BF47200B
:1002B0009D49095C09A8007800295AD009A9BC28E1
:1002C00000D0FBE0487A012800D0F7E0442000216C
:1002D000954C2154432008992154049A107951795E
:1002E0000902081891790904D279120651180818E0
:1002F0006061E3E0914A0A608C4A8E4B1C461568A7
:100300002D0603D5651C002C2C46F8D101242507A9
:100310000D6000BF00BF1D461668360603D56E1C73
:10032000002D3546F8D11D461668B60703D46E1C5D
:10033000002D3546F8D1C02515711D461668F60703
:1003400003D16E1C002D3546F8D1157915682D06A0
:1003500003D55D1C002B2B46F8D100BF00BF220344
:100360000A6000BF00BF089A426101681143016042
:10037000D8E0AA2802D0AC2800D09FE0049B1978CE
:100380005A78120251189A781204DB781B069A18D0
:10039000674B5118644A1269914200D08EE062495D
:1003A0004B695A1C022A01D30021039108931A0CAD
:1003B000531E5A425A4103990A4304990B794C79C6
:1003C0002402E3188C792404C97909060919CB1889
:1003D000591E029CE443A14208D8002A06D00121FC
:1003E000514A019C11555361514B06E00899591A25
:1003F0004B424B4113434E4B60D0482101244A4AA3
:100400005454AA2807D109A8407AFC2852D0FD28C4
:1004100001D1029A4FE03F2043490C5440200894F8
:1004200000240C52886B401C88631D200EF060FA7B
:10043000C0B2C000052110F033FE08990902091A64
:10044000C8178143642900DB64213E20364A1154D9
:10045000374B21460A31212930D809A90A19117BC5
:10046000537B1B025918927AFE2A0ED0032A07D01A
:10047000002A2F4B11D10A224A432B498A870CE0CC
:100480000A224A4328498A8706E089B26422511A1F
:1004900000D20021244A1154254B241DD9E7C0461F
:1004A00000040140000000200830014018100048FE
:1004B000F0D8FFFF224646201B490A542846069AD8
:1004C0003168090603D5411C00280846F8D11A6096
:1004D00000BF00BF28463168090603D5411C00282B
:1004E0000846F8D128463168890703D4411C002802
:1004F0000846F8D1A020307128463168C90703D1D9
:10050000411C00280846F8D130793068000603D530
:10051000681C002D0546F8D100BF00BF0798186081
:1005200000BF00BF13B0F0BD000000200830014044
:1005300018100048F0D8FFFF00030003000200037A
:1005400080B500AF02480168491C016080BDC0460B
:10055000000B0020F0B503AF91B0CF480024046039
:10056000CE4D2878C00700D0A9E24920CC4E305C9F
:10057000022800D1A3E230461830CA4962311C2259
:1005800010F05AF94021705A401CC74A904200D3DB
:1005900010467052C54A11680423049399431160B0
:1005A000716B0591491C7163352801D30020F087D8
:1005B00006A8262110F0F1F84720305C012815D15B
:1005C00006AC01250522204629460FF0EDFB3269D5
:1005D000109210AA04230FF066FC00200290A07273
:1005E0000598C00712D07320C04310E04220315C50
:1005F0004A1C0F231A4032541940705C03900F2993
:100600003DD02879002834D1A94933E00D2003904A
:100610004321A3480591405C0128019500D1A5E044
:1006200002280FD0032800D0B8E006AEBC203070FE
:100630000521092230460FF0B7FBFF2210F06AFEB9
:1006400075720CE006AEBC203070052109223046E0
:100650000FF0AAFBFF2210F05DFE029870720B21D2
:100660001B2230460FF0A0FB8D4A10230FF01BFC1D
:10067000ADE09049904A116001214840287146251B
:10068000705D022800D1D7E0012837D1059506AD6D
:10069000AA202870012102910524884B2846224671
:1006A00098473269109210AA042633460FF0FBFBDC
:1006B000092228462146814B9847794A526910926F
:1006C00010AA33460FF0EFFB0026AE730298A88104
:1006D0007B486881FD2068720F2125242846224628
:1006E000764B9847FF2210F015FE2E556C48059961
:1006F00046547448A88274486882EFE0706B73496E
:1007000010F064FE002900D194E006AD5820287056
:1007100001210526284632460FF046FBE94A1269B8
:10072000109210AA042305930FF0BDFB092228465E
:100730003146E44D0FF038FB6A69109210AA059B10
:100740000FF0B1FB1C2C70D02819008B7D21CA0042
:10075000904200D810460901884200D3084606A9F5
:1007600009194872000A8872A41CEBE72C4606ADF2
:10077000BB2028700521092228460FF015FBFF2217
:1007800010F0C8FD6C720B211B24284622460FF086
:100790000BFBCC4A10230FF086FB1CE006AEBC20FE
:1007A00030700521092230460FF0FEFAC54A526921
:1007B000109210AA04230FF076FB022070720B2116
:1007C0001B2230460FF0F0FAFF2210F0A3FD80202C
:1007D0003077F5761D2406AD25262846214632467B
:1007E0000FF0E2FAFF24224610F094FD0298A8557B
:1007F000B44A0598105C042870D14420115C491C4F
:10080000FF2900D3214611540429019966D3029B84
:1008100013544620135242201152FF200230482127
:1008200050521F200EF0C2F858E0252006A90022E1
:100830000A5453E002207055059506AD56202870E5
:1008400001210526284632460FF0AEFA9D4A12696C
:10085000109210AA042423460FF025FB09222846F3
:100860003146984D0FF0A0FA6A69109210AA2346FB
:100870000FF019FB0320C143182929D0002904D007
:1008800006AA5218FF23937302E006AA9073E82386
:100890005373891CF0E7C04610440140080B002048
:1008A0000000002070060020FFFF0000000401404F
:1008B000000400080008000418100048A9FD000802
:1008C000FF90000005DE000005DC000021060000AE
:1008D000002005996854252106AA50547C4C7D4D72
:1008E00028462168090603D5411C00280846F8D18E
:1008F00001200207754905920A6000BF00BF294622
:100900002268120603D54A1C00291146F8D129464F
:100910002268920703D44A1C00291146F8D1A0216D
:10092000217129462268D20703D14A1C00291146A9
:10093000F8D1217929462268120603D54A1C0029DC
:100940001146F8D100BF00BF060360490E6000BF2A
:1009500000BF6148086028462168090603D5411C8C
:1009600000280846F8D159480599016000BF00BF2A
:1009700028462168090603D5411C00280846F8D1FD
:1009800028462168890703D4411C00280846F8D16D
:10099000E020207128462168C90703D1411C0028A6
:1009A0000846F8D1207928462168090603D5411C5C
:1009B00000280846F8D128462168890703D4411C3D
:1009C00000280846F8D10520207128462168C9076B
:1009D00003D1411C00280846F8D10020217926289F
:1009E0001CD006A9095C2A4623681B0603D5531CA4
:1009F000002A1A46F8D12A4623689B0703D4531CC1
:100A0000002A1A46F8D1217129462268D20703D15B
:100A10004A1C00291146F8D1401CDFE7284621680E
:100A2000090603D5411C00280846F8D100BF00BFC5
:100A30002648066000BF00BF0F2003990DF0BEFFDF
:100A400028462168090603D5411C00280846F8D12C
:100A50001E480599016000BF00BF284621680906AD
:100A600003D5411C00280846F8D12846216889078B
:100A700003D4411C00280846F8D1D0202071284614
:100A80002168C90703D1411C00280846F8D1207904
:100A90002068000603D5681C002D0546F8D100BF6C
:100AA00000BF0A48066000BF00BF45200021054A7C
:100AB00011540549049A4A6108681043086011B04E
:100AC000F0BDC0460000002000040140181000489E
:100AD00008300140F0D8FFFF00010003F0B503AF7C
:100AE00085B021480088214988423BD00225224C0C
:100AF000204E002D36D01E488078C04678440079BC
:100B0000400087442F010E17207802282AD01C4865
:100B10000290019401A8012107F0ECFB002821D0EC
:100B20001EE03068401C1DD014480290019601A8B8
:100B300001210DE02078022814D03068401C11D02B
:100B40000E48049003960E480290019401A80221D9
:100B500007F0D0FB044600F0D9FE002C064C01D073
:100B60006D1EC6E705B0F0BD2C030020FFFF00009E
:100B7000080B00204C000020C0050020781F010851
:100B80003C1F0108F0B503AF87B005468068012817
:100B900047D106916C69E868A04246D22A69115C87
:100BA000491C1154AB69981C0226A0423AD8012175
:100BB000090205935918A14200D321460492234605
:100BC0000FF05DFD05292DD30246069B9879107024
:100BD000988802900391597A187A019208F0A0FC43
:100BE000029B190A019AD1709370C0B25070069896
:100BF000C0791071114605200690039A0EF0F5FE9B
:100C00000598C11DA1420DD8A0420ED20723049A17
:100C10001354401CA04208D2069B1354A961FF261E
:100C200000E00726304607B0F0BD21460FF0C2FABB
:100C3000F0B503AF85B01C4603920E460546084644
:100C400008300CF061FC0491B968029400940C46E1
:100C500001918021039A0B460EF01EFFC00702D0BF
:100C60002970FF2006E0F868E871A971AC80F436BD
:100C70002E600298287204990868401C086005B02C
:100C8000F0BDF0B503AF87B01C4605920E46054691
:100C9000084608300CF038FC0691B96804940094BA
:100CA0000391019100242146059A23460EF0F4FE9B
:100CB000C00702D02970FF2006E0EC71A9710398EB
:100CC000A880F4362E600498287206990868401CA3
:100CD000086007B0F0BDD4D4B0B502AF86B004460A
:100CE000009101920748011D03AD0022062328460A
:100CF000FFF79EFF0F222046294607F0EDF906B0C8
:100D0000B0BDC04630070020F0B503AFF9B01446BF
:100D10000C910890052081010EAD28460FF03DFD95
:100D2000002108262846099132460FF022F8FB4A96
:100D300033460FF0B8F8A0B20D907D21CD002946C2
:100D400010F0AEF907950B904543651BA8B26426D9
:100D5000314610F0A5F904460A964643A81BC0B2D6
:100D60000A26314610F09CF9ED490D9A8A421ED9A7
:100D700076AA2E2191703025284310712C43D4700F
:100D800014460B98C0B20A2110F020FB2943617071
:100D9000E4490D9810F084F92843207025460EA8E8
:100DA00008210D2422460EF0E4FF052311E0DE4960
:100DB00076913021084376ADE8700C43AC700B9807
:100DC000303028700EA808210C2422460EF0D1FFE6
:100DD00004232A460FF067F8254608350EA8214659
:100DE0002A460EF0C6FFD14A08230FF05CF85EA831
:100DF000099901815F915E91FF203A3006900C982D
:100E00002246847A002C2CD00D950925002C11D077
:100E10000A2D01D300F064FD2046314610F040F960
:100E200031464143611A30220A435EA94A556D1E7C
:100E30000446EBE7691C5EA80EF061FF04460D4610
:100E40000D996E1806980830864216D20EA83246C2
:100E50000EF08FFF22462B460FF025F8079D3446F3
:100E60000DE009320EA8294614460EF082FFB04A62
:100E700001230FF018F8079D04E00C46079D069823
:100E8000844209D2214608340EA822460EF071FF92
:100E9000A84A08230FF007F80B940C9804890594CE
:100EA0002046294610F0FCF807904543651BA8B280
:100EB0000A9E314610F0F4F804464643A81BC0B21F
:100EC0000A210D9110F0ECF8059A95498A4221D932
:100ED00076AD2E21A9703026304328713443EC7052
:100EE0009049104610F0DCF8304328700798C0B2E3
:100EF0000A2110F06BFA314369700698C01C0B99F7
:100F0000814221D24E1D0EA832460EF032FF76AA43
:100F1000052316E0844976913021084376AAD070E3
:100F20000C4394700798303010700698001D0B9990
:100F3000814209D20E1D0EA832460EF01AFF76AA83
:100F400004230EF0B0FF00E00E460698801C0790C8
:100F500086420AD2B21D0EA831460A920EF009FF4F
:100F6000754A06230EF09FFF00E00A9661A80999D2
:100F70000181629161910C980468002C0B9427D038
:100F80000926002C11D00A2E01D300F0A9FC20461E
:100F90000D9D294610F084F84543611B30220A4319
:100FA00061A98A55761E0446EBE7711C61A80EF014
:100FB000A6FE05460C460A99661806980830864231
:100FC00015D20EA832460EF0D4FE2A4623460BE078
:100FD0000698C51D0A99A9421BD24E1C0EA832467E
:100FE0000EF0C7FE524A01230EF05DFF00E00E46F0
:100FF000B51D06980830854209D20EA831462A460A
:101000000EF0B7FE4D4A06230EF04DFF00E03546C8
:101010000B9C64A809990181659164910C984668BC
:10102000002E2CD00A95354609260C95002D11D09E
:101030000A2E01D300F054FC28460D9C214610F0E6
:101040002FF84443291B30220A4364A98A55761E8F
:101050000546EBE7711C64A80EF051FE04460E46EF
:101060000A99751806980830854217D20EA82A46A4
:101070000EF07FFE224633460EF015FF0FE0069875
:10108000C01D85420DD229466D1C0EA82A460EF0C1
:1010900070FE274A01230EF006FF02E00D460B9C6E
:1010A0000C9EEA1D069808300A90824209D20EA8CA
:1010B00029460C920EF05DFE214A07230EF0F3FE46
:1010C00000E00C9567A8099D058168956795B44275
:1010D00015D9A51B0926002D34D00A2E01D300F006
:1010E00001FC28460D9C21460FF0DAFF4443291BE2
:1010F00030220A4367A98A55761E0546EBE7069813
:10110000C01D0C99814231D24A1C0EA814460EF023
:1011100030FE074A01230EF0C6FE2BE0061601083A
:101120000F27000010270000302E30307E150108F8
:101130006C180108CE1501086D1801087318010814
:1011400079180108711C67A80EF0D9FD05460E46F6
:101150000C9972180A9882420AD20EA814460EF010
:1011600008FE2A4633460EF09EFE02E00C4601E0E1
:101170000C46099DF848C17800292FD0014630312E
:1011800011228A560B920E228A560592428F038FA5
:101190000393006B00904E7DC87C0190887C049086
:1011A0000D7C214610340A988442029208D20EA87F
:1011B00022460EF0DEFDF14A10230EF074FE2146A9
:1011C000F0070DD00698001D814224D20E1D0EA8F6
:1011D00032460EF0CEFDEA4A04230CE02146EFE24F
:1011E0000698C01C814216D24E1D0EA832460EF043
:1011F000C0FDE44A05230EF056FE079886420CD245
:10120000B21D0EA8314607920EF0B3FDDE4A06234A
:101210000EF049FE02E0079100E007966AA800215F
:1012200001816B910C916A91002D25D00926002D2A
:1012300010D00A2E00D351E328460D9C21460FF012
:101240002FFF4443291B30220A436AA98A55761E80
:101250000546ECE7711C6AA80EF051FD04460D46E8
:1012600007996E180A98864215D20EA832460EF0DB
:1012700080FD22462B460BE00698C01D079981424F
:1012800009D24E1C0EA832460EF073FDBF4A012350
:101290000EF009FE00E00E46059C31460C310A981E
:1012A00081420AD20EA80A46314607920EF061FD2D
:1012B000B74A0C230EF0F7FD00E00796002C2FD460
:1012C00076A80C99018177917691002C37D0092668
:1012D000002C10D00A2E00D300E320460D9D294695
:1012E0000FF0DEFE4543611B30220A4376A98A5582
:1012F000761E0446ECE7711C76A80EF000FD04464D
:101300000E46079975180A98854254D20EA82A46A7
:101310000EF02FFD224633460EF0C5FD2E464BE063
:101320000698C01D0799814216D24A1C0EA8079242
:101330000EF01FFD974A01230EF0B5FD0DE0069853
:10134000C01D0799814236D24E1C0EA832460EF0BF
:1013500010FD8E4A01232BE0079176A80C9901819C
:101360007791769164420925002C10D00A2D00D384
:10137000B4E220460D9E31460FF092FE4643A11B7B
:1013800030220A4376A94A556D1E0446ECE7691CD3
:1013900076A80EF0B4FC04460D4607996E180A981C
:1013A000864208D20EA832460EF0E3FC22462B46B7
:1013B0000EF079FD00E00E4635460A350A98854262
:1013C00009D20EA831462A460EF0D3FC724A0A23EF
:1013D0000EF069FD00E035460B9C002C23D476A866
:1013E0000C99018177917691002C2CD00B950925D1
:1013F000002C10D00A2D00D370E220460D9E3146FD
:101400000FF04EFE4643A11B30220A4376A94A55EF
:101410006D1E0446ECE7691C76A80EF070FC0446CD
:101420000E460B993EE00698C01D854218D26A1CF4
:101430000EA8294607920EF09CFC564A01230EF096
:1014400032FD0B9C0DE00698C01D854238D229461E
:101450006D1C0EA82A460EF08CFC4C4A01232BE092
:10146000079576A80C9901817791769164420925B8
:10147000002C10D00A2D00D330E220460D9E3146BC
:101480000FF00EFE4643A11B30220A4376A94A55AF
:101490006D1E0446ECE7691C76A80EF030FC04468D
:1014A0000E46079975180A98854208D20EA82A4652
:1014B0000EF05FFC224633460EF0F5FC00E00D46D0
:1014C000EA1D0A98824209D20EA829460B920EF014
:1014D00050FC324A07230EF0E6FC00E00B956DA8A5
:1014E0000C9901816E916D91049C002C25D00925E9
:1014F000002C10D00A2D00D3F0E120460D9E31467D
:101500000FF0CEFD4643A11B30220A436DA94A5578
:101510006D1E0446ECE7691C6DA80EF0F0FB044656
:101520000E460B9975180A98854217D20EA82A46BE
:101530000EF01FFC224633460BE00698C01D0B99A7
:1015400081420BD24D1C0EA82A460EF012FCE64A30
:1015500001230EF0A8FC02E0080B00200D462A46ED
:101560000A320A9882421BD20EA829460B920EF02C
:1015700000FCDE4A0A230EF096FC12E0C0180108B7
:10158000F8140108E0180108E51801086C180108B2
:10159000EB180108F7180108F818010802190108EA
:1015A0000B95039870AA0C99118171917091002884
:1015B00024D0092500280FD00A2D00D38EE10D9EDE
:1015C000314604460FF06CFD4643A11B30220A430E
:1015D00070A94A556D1EEDE7691C70A80EF08FFBCF
:1015E00004460E460B9975180A98854215D20EA826
:1015F0002A460EF0BEFB224633460BE00698C01D7D
:101600000B99814209D24D1C0EA82A460EF0B1FB5F
:10161000B54A01230EF047FC00E00D462C460C3481
:101620000A98844209D20EA8294622460EF0A1FB50
:10163000AF4A0C230EF037FC00E02C4601980DF069
:101640004DFE02460D190A9885420BD20E460EA891
:10165000214614462A460EF08CFB224633460EF0F5
:1016600022FC00E025462A460F320A98824209D21F
:101670000EA829460B920EF07CFB9E4A0F230EF01B
:1016800012FC00E00B95029873AA0C9911817491D9
:101690007391002824D0092500280FD00A2D00D3EB
:1016A0001CE10D9E314604460FF0FAFC4643A11B97
:1016B00030220A4373A94A556D1EEDE7691C73A8D1
:1016C0000EF01DFB04460E460B9975180A988542CC
:1016D00015D20EA82A460EF04CFB224633460BE0EC
:1016E0000698C01D0B99814209D24D1C0EA82A46AE
:1016F0000EF03FFB7C4A01230EF0D5FB00E00D46C7
:1017000029460E310A9881420AD20EA80A46294675
:101710000B920EF02EFB784A0E230EF0C4FB00E075
:101720000B9576A80C99018177917691009C002CFD
:1017300025D00925002C10D00A2D00D3CEE020465C
:101740000D9E31460FF0ACFC4643A11B30220A43EC
:1017500076A94A556D1E0446ECE7691C76A80EF082
:10176000CEFA04460E460B9975180A98854215D292
:101770000EA82A460EF0FDFA224633460BE00698E4
:10178000C01D0B99814209D24D1C0EA82A460EF0AD
:10179000F0FA554A01230EF086FB00E00D466A1C64
:1017A0000A9882420AD20EA8294614460EF0E1FA9F
:1017B000524A01230EF077FB214600E02946099D9D
:1017C000CC1D0A98844208D20EA822460EF0D1FA07
:1017D0004B4A07230EF067FB00E00C460C951C2DCE
:1017E0005AD00898465B0C9800280DD0621C0A98C5
:1017F000824209D20EA821460B920EF0BAFA0123BA
:10180000404A0EF050FB00E00B9476A800210181C5
:1018100077917691002E28D0079109950925002E01
:101820000FD00A2D51D230460D9C21460FF038FCC6
:101830004443311B30220A4376A94A556D1E0646A1
:10184000EDE7691C76A80EF05AFA05460E460B998C
:1018500074180A98844216D20EA822460EF089FA0D
:101860002A4633460EF01FFB0EE00B994C1C0A98DB
:1018700084420BD20EA822460EF07BFA01231A4AAC
:101880000EF011FB03E00C46099D00E00C460C989D
:10189000401C0C90AD1CA2E7251D0A98854209D278
:1018A0000EA821462A460EF064FA174A04230EF0C9
:1018B000FAFA04E00698C21D94420BD825460EA8F9
:1018C000294600F011F979B0F0BD0798C0430A210C
:1018D0000EF070FC002021460EF064FC0C98F5E739
:1018E0000998F3E70020F1E76C18010809190108CD
:1018F000131901081F1901082E1901083C190108C4
:101900003D190108A51401084C150108F0B503AFF5
:1019100097B005A8402101910EF03FFF4D4DD42214
:101920004B4B98588026311A1C8FA14229D204961D
:10193000D02103915E58311A8031A14201D2324642
:1019400040E0802E029203D1049E009603990FE09E
:1019500031467F2E049E77D8421A184650304118DF
:101960000FF00DFB3A4B0298185803995A58009201
:1019700000225A500099401A029A9850311AA142F6
:101980005BD3164601191A4650321C4680230EF0CE
:1019900076FE02460B462146343115AC204607F050
:1019A00045FF2078012804D16178002901D1002069
:1019B00002E000283AD11698254B995908189851F9
:1019C000D0215A58904231D0861A402E00D3019E21
:1019D000B1182DD281292BD2039105A9049140245D
:1019E0003046029222461C460DF0EBFF029AA218E6
:1019F000503233460EF057FAD02003992150049804
:101A000031460EF05BF9002989D0C023EA58561CF4
:101A10007F243440C426AE59B44204D07F2A0FD864
:101A20000678AE54EC50401C491EECE717B0F0BDF0
:101A3000802310461A460EF0B5FB45200EF0B6FB8B
:101A4000802110460EF0B6FB084680210EF0B2FB56
:101A50004C0000202C08002080B500AFEFF310816F
:101A600072B60248006881F3108880BD000B002028
:101A7000FEB506AF02460368406883422AD0581C70
:101A8000106019784CB20120002C2BD59C1C1460DE
:101A90005E783F24019426401F240C40E0291BD38C
:101AA0000094DD1C15609C780294019D029C2C40E2
:101AB0000294B601029C3619F02910D3191D116049
:101AC000D978019A1140B2015118009A5207D20AEE
:101AD000891807E0002005E0A101891902E00099BA
:101AE0000903711803B0F0BDF0B503AF89B00A4621
:101AF000069001200290400208900026059196422F
:101B000057D2304606990DF065FF07900C46B72076
:101B100085002B4B585908990A1A94422AD95B21FF
:101B2000C90004915958029B5B02994204D00029D4
:101B3000089B07D1224B1DE0089903912946204DAF
:101B4000049B0EE00195994235D2421A1C4D28465D
:101B5000D83041180FF013FA01996858049BEA58DD
:101B600003920022EA50039A801A6850089A121AC7
:101B70002B460D46944200D31446002C0DD021185C
:101B8000D8331A46089B0EF07AFD079A23460EF0CA
:101B90008AF90B4B585900195851184607F062FF43
:101BA000002C059A05D0A619401EC0B240087E2818
:101BB000A5D809B0F0BD084608990EF0FBFAC0465A
:101BC0004C000020F8B504AF0091456801220021C7
:101BD000402D164600D30E460368802B144600D3D2
:101BE0000C463440382129400901009E711807260F
:101BF0002E40B240D5430095057A2846EDB2022D1D
:101C00000BD00225002CF8D0CE5CC00702D1009882
:101C1000064000E01643CE54EFE7F8BDF0B503AF41
:101C2000E1B01F914268E7498A420C92079200D3C3
:101C30000791417C0691017C0E9101680B91017A1C
:101C400012914EA90A461C320A922431149140A9DD
:101C500024310391C1682291C17C1E91817C16912F
:101C6000417A119141691B9181691891C169109163
:101C7000006A1D9007200F90C0010D9000260120E2
:101C800020901C9615961598C00700D002E3189C6A
:101C90001C9819968442054666D31B984019611B0F
:101CA000072907D80023994258D0C25C0A2A44D099
:101CB0005B1CF8E7C21C03239A43121A05D11C953A
:101CC0001A9108392191002210E00023C45C0A2CEB
:101CD00007D05B1C9A42F9D11C951A9108392191C1
:101CE00002E0189C199E28E08A4213D88418646880
:101CF000B5494C40B54B1D1B2543845826464E40E4
:101D00009E1B2643B2490E402E408E4202D108321D
:101D10002199E9E71A99914229D080181899891ACE
:101D20001C9D4B1B0021199E445C0A2C03D0491CAE
:101D30008B42F9D11CE08B18189CED180020691C0F
:101D4000A8D0A1420846A5D81B98405D0A2808469D
:101D5000A0D10020159017911C910EE017961C94AD
:101D600020981590254608E01C951796F8E7199ECF
:101D70001796189D1C95209815901B9880191A90FD
:101D8000AE1B129800281D9C109829D0129801288B
:101D900016D10096119801904EA822990E9A1A9B7E
:101DA0000DF033FF5398C10F401840101D990C1AC5
:101DB0005298401EC10F401840101099081A0FE0A9
:101DC0000096119801904EA822990E9A1A9B0DF038
:101DD0001CFF53981D990C1A52981099081A401C10
:101DE00021902298C0690C99484364210FF058F95A
:101DF00001460B98002800D1079919988542139144
:101E000001D1002505E0751E1A98405D0D2800D00F
:101E100035462298119907F019FA201A1990169848
:101E200002280FD11E98022800D099E022998869D3
:101E3000096A0C181A9841190DF0D9FA60432199D2
:101E40004518EAE11E98022800D031E12298026A82
:101E50008169199800901A980190029540A8219BD9
:101E600007F0D7F95EA840A90DF0DCFA609A501C83
:101E700000D1D1E15748101A00D200205E9D002801
:101E800002D00128EED0C8E15F981A9033A82299B9
:101E90000EF0ABF9369C60426041379E002E2099CF
:101EA00000D001460029DDD134980028DAD4359BD2
:101EB000002BD7D4339A0119099292680892914263
:101EC000D0D89A190999C9688A42CBD8099A116859
:101ED0000491516805910899C91D0F9A91430A1BF5
:101EE0004B43181800960190029223A80990049978
:101EF000059A234607F05CFC319630941A982F908F
:101F00002E952BAC169820704EA82EAA09990DF08C
:101F100049FA5C943AAC4EA920460DF059FE207A5D
:101F20000028F7D002289DD03A997F29F2D83B9B10
:101F30003F2BEFD818010F9A134001229A400D9BB6
:101F4000184008435C990978002904D01F9B195C4C
:101F500011431954DEE71F9B195C91431954D9E7CB
:101F60002298026A8169199800901A980190029546
:101F700040A8219B07F04DF95EA840A90DF052FA48
:101F8000609A501C00D147E1C348101A00D20020CB
:101F90005F995E9D00281FD0012800D03DE1229866
:101FA000006A0028E8D050904F914E952298C06961
:101FB000519001221E9802404EA91F980DF03FFF3C
:101FC000DAE7C046FFFFFF7F0A0A0A0A00010101A3
:101FD00080808080FFFF10001A9133A822990EF0B4
:101FE00004F9369C60426041379E002E209900D053
:101FF00001460029C0D134980028BDD4359B002B60
:10200000BAD4339A01190992926808929142B3D8CE
:102010009A190999C9688A42AED8099A1168049137
:10202000516805910899C91D0F9A91430A1B4B43AA
:10203000181800960190029223A809900499059A15
:10204000234607F0B5FB319630941A982F902E95C1
:102050002BAC1E9820704EA82EAA09990DF0A2F95B
:102060005C943AAC4EA920460DF0B2FD207A0028CF
:1020700002D00228F5D17FE73A997F29F1D83B9B1E
:102080003F2BEED818010F9A134001229A400D9B66
:10209000184008435C990978002904D01F9B195CFB
:1020A00011431954DDE71F9B195C91431954D8E77C
:1020B0002298026A8169199800901A9801900295F5
:1020C00023A8219B07F0A5F82BA823A90DF0AAF9B6
:1020D0002D9A501C00D19FE06F48101A00D20020AA
:1020E0002C992B9D002814D0012800D095E022982F
:1020F000006A0028E8D050904F914E952298C06910
:10210000519001221E9802404EA91F980DF097FE93
:10211000DAE71A912EA822990EF067F8319C6042F6
:102120006041329E002E209900D001460029CBD17B
:102130002F980028C8D4309B002BC5D42E9A0119A3
:102140000992926808929142BED89A190999C96871
:102150008A42B9D8099A1168049151680591089981
:10216000C91D0F9A91430A1B4B4318180096019002
:10217000029233A809900499059A234607F018FBA8
:102180003D963C941A983B903A953EAD169828702F
:102190003FAE1E9830703AA903980EF04BFA40AC4F
:1021A0001C22204609990EF047FB489547964EA8F9
:1021B000382221460EF040FB00205D905C905EA826
:1021C00014990DF04CFD5E98012800D07CE7609DCD
:1021D0005F9C4EA80DF0CCFBC1B2022900D173E781
:1021E0007F2CECD83F2DEAD828010F9A1540012208
:1021F000AA400D9B1840204389000A9B5958097832
:10220000002904D01F9B195C11431954D7E71F9B69
:10221000195C91431954D2E7219D179E139A1D987A
:1022200010181D902198854200DC2CE52C1A069888
:10223000169905F05CFFC2B2022A0FD05094219883
:102240004E902299886AC96A5191199940184F9005
:10225000012002404EA91F980DF0F1FD0E9816992D
:1022600005F045FFC2B2022A179D2E46219800D1E3
:1022700009E550944E902299086B496B5191199938
:1022800040184F90012002404EA91F980DF0D7FD35
:102290002E46F8E461B0F0BDFFFF1000F0B503AFCB
:1022A000D5B00191036842688568C46821460A92E6
:1022B00051402A465A400A430B9310940F9501D07F
:1022C000064600E08A4E417D0D91046931A83146F1
:1022D0000DF0BAFF32687068B368F1681646529024
:1022E00051921193D21A121854920D1AA8195390A0
:1022F00012A851A90DF0A8FF0B980F99081AC11741
:102300004840411A0A98109A101AC2175040801A71
:10231000884200DC0846002C01D102210D91119A5F
:1023200074498C4200D30C46401C0E90640012ABE2
:10233000743338A86030089001201090C00702D094
:1023400064430020FAE7961B1098C00702D076433A
:102350000020FAE71098C00702D06D430020FAE78A
:102360003598079036980690329804901598059005
:10237000149803903198029038A80C9031A91C222F
:1023800011920F930EF058FA0C981C3012A9119A62
:102390000EF052FA01201190089B987000200990CD
:1023A0001870029840420399484004994942059A9E
:1023B00051400143484248415870A819444347944A
:1023C000079806994018C10F401840104690099D83
:1023D0004F954E950A9E4D960B9C4C944B954A9565
:1023E0004996489451A80C992A460DF055FF169528
:1023F0000E98159014951396129412A81430642216
:102400000E900C990EF0C0FD2B460F9A0D9911718C
:1024100028460D91C9B2022967D000282FD12598EE
:102420001099C90702D040430021FAE72699884253
:102430005BDC927831A80E990DF02EFF3198C10720
:1024400001D1442100E0402112AA5158259A511887
:102450002591349B339E329C0F9A1178002905D127
:1024600091781D46119B59402B46917014931396F9
:102470001294119908401599081A1690CDE7401E3C
:1024800016901D998B4206DD1C995B1A1A997118DA
:10249000199AA51801E0314625461A46189B5E1880
:1024A0001396179B5C1912941B9BD31814937F2DC2
:1024B00018D8402916D209930B9407240C40119B7D
:1024C000A34038240C40210129430D9AD20703D0A0
:1024D000019C625C1A4302E0019C625C9A43625474
:1024E0000B9C099B0F9A117993E755B0F0BDC0463C
:1024F000A0180108FFFFFF7FF0B503AF9DB00D46A8
:102500000646847D002C08D0012C0CD13069401C7B
:1025100001D30020C043400806E030693F498842AB
:1025200002D3084600E00020424205A831460DF0E3
:10253000BAFF327D022A05D00120024005A92846B3
:102540000DF07DFC707D022865D03169002962D0D4
:10255000002C03910495029008D0022C05D12F483D
:1025600081420C4602D3044600E04C0809A83146DB
:1025700022460DF098FF0B9C0F940A9E0E96099B25
:102580000D930C984508039AAA4200D81546109559
:1025900013941193411B914200D31146009401936F
:1025A0001491401A00D20020801912900120029C40
:1025B00004400DA90296049E304622460DF03FFCD1
:1025C00011A93046264622460DF039FC089800280D
:1025D00021D01890029969181691039A5300009C13
:1025E000621C9A4200D31A4652081792019B159317
:1025F0001C901B921A91A01A049C00D20020C018B3
:10260000199015A9204632460DF019FC19A920464B
:1026100032460DF014FC1DB0F0BDC046FFFFFF7F39
:10262000F0B503AF8C4EB5448C48684456908C4846
:10263000684458908B4868446C908B486844769006
:102640008A4868445F900B205D90C004884A5169B5
:10265000014351613F2065900003864B1968814317
:10266000152210030818186001207590000272905E
:10267000C0309861804B1868804908401860D8685D
:102680000840552109064018D8607D490868302463
:10269000A0430860C8681023749318432023309324
:1026A0009843C86077496944084640306A908C3145
:1026B000639175486844283045907448002802D0DA
:1026C00000BF401EFAE754927D206D900001789083
:1026D00000263546052E0ED00BF058FD78990029BE
:1026E00002D000BF491EFAE7C0434221084200D190
:1026F0006D1C761CEEE7032D01DB0BF0ABFD64488F
:10270000401C5B4B19680143196075984204614E87
:10271000314608461968114202D1411C0028F8D1FF
:1027200062920028554D28D05B48112101605868FD
:102730005A4A0240080410185860681C196801437E
:10274000196030461968890103D4411C00280846E5
:10275000F8D1586802210143759881435960304689
:1027600059680C220A40082A03D0411C0028084658
:10277000F6D1186B8021014319634948016829404B
:1027800003226792920789180160464846494160D2
:1027900000258560072157910160759881027CA80A
:1027A0000DF0FBFF1F208004314A51690143516144
:1027B0003E4A10683E4908403E49401810603E4B72
:1027C00018683E4908403E4940185E3018602A4A61
:1027D00010683C4901403C480818106028490868C6
:1027E00040227B92104380226F92904308603748CA
:1027F00021498861364898613648401C9861729832
:10280000F430002802D000BF401EFAE774982A492D
:1028100088617298F430002802D000BF401EFAE7A9
:10282000759BD804329024498861204A5069E2217E
:1028300001431D200D90814351616F980E498861BD
:1028400000BFD8056E90886123480146002945D015
:1028500000BF491EFAE7C04624E4FFFFA01B0000AA
:10286000201B00000C1100008C100000F00500007F
:102870000010024000080048000C0048FFFFFF0065
:1028800000140048FC050000081B0000409C0000EC
:10289000FFFF00006079FEFF00200240FCFFC0FF48
:1028A00020ED00E010E000E07FBB000000100048D9
:1028B0000000FFFF55550000000400483FF0FFFFF7
:1028C000E2040000CF3FFFFF104000008000040042
:1028D00018002000FFFF0F0010270000329BE14985
:1028E0008B61E1494969AE227A92114351229143A9
:1028F000DD4A5161DD496F9A8A6100BF6E9A8A6133
:10290000D8498B61D84B5969A4220A435B218A4379
:102910005A616F99D54A916100BF6E9B936132995C
:10292000D04A9161D0494969A3220A435C212A9186
:102930008A43CD494A616F99CC4A916100BF936146
:102940003299C84A9161C84B5969C02253921143C8
:10295000659A914359616F9BC44A936100BF6E9918
:1029600091613299BF4A9161BF494969A1220A43E5
:102970005E218A43BC494A61BC498B6100BF6E9AA3
:102980008A61B849329B8B61B74949692F226B92A2
:102990001143D02233929143B34A51616F99B34AA4
:1029A000916100BF6E999161AE498B61AE4B5969DF
:1029B00023223E921143DC2291435961AB496F9B24
:1029C0008B6100BF6E9B8B61A649329A8A61A649D2
:1029D00049698122559211437E229143A24A516155
:1029E0006F99A24A916100BF93619E49329B8B61AE
:1029F0009D4B596925220A43DA218A435A619B4932
:102A00006F9B8B6100BF6E9A8A619649329A8A6188
:102A1000954949697B9A1143BF229143924A51617A
:102A2000924A936100BF6E999161329B8D498B618F
:102A30008D494969B0220A434F218A438A494A6134
:102A40008A496F9A8A6100BF6E9A8A6185498B6153
:102A5000854B5969042224921143FB229143596109
:102A600082496F9B8B6100BF6E9B8B6132997D4A5F
:102A700091617D494969749A1143EF2291437A4AE1
:102A800051616F99794A916100BF93613299754A9A
:102A9000916175494969AF225192114350225C926C
:102AA0009143714A51616F99704A916100BF93617E
:102AB000002802D000BF401EFAE76D4AD06902210B
:102AC0000143D161679880046A4A11688143329852
:102AD00001431160506AF02188435062664B6B9845
:102AE0009862C520599080006490D330D8621864F1
:102AF0000D210B91C902D96175990A03196A739264
:102B000011431962759959615599196008225B49F9
:102B10000A928A611864564A5069594901435161C1
:102B2000759B580291690143916109202890C20662
:102B30001068544908431060D068534908406092B7
:102B4000D060484801680F2211430160C168799242
:102B50009143C160474A1168679801431160D16889
:102B60008143D160DA0749490A610B608B600A68CA
:102B7000D20703D1721C002E1646F8D1789A2F3254
:102B80008A62579A4A617598C860414A95600B46B7
:102B9000403313613F4B183353615D9BD3603E4814
:102BA00090608E68249B1E438E603C4E13689B078A
:102BB00003D4731C002E1E46F8D14C263848622ED2
:102BC00006D0344B9B19343B1B888353B61CF6E765
:102BD0007998506018202F90086095605D98D060BB
:102BE0002D4890608868249A104388602D480168B9
:102BF00040682D4E2D4A914268D1C01E022865D2F0
:102C00002B4C6C44204641303F210EF015FB002038
:102C10007B9960545F9C2749E162274921632749DA
:102C20006163274AA263274AE26326646264A6645A
:102C3000254E759A120404231C4DE56023616261E0
:102C4000A661E1611E4921621A4961621A49A162C5
:102C5000802800D196E013490958154A6A4411505A
:102C6000001DF5E70004004800100048000C004873
:102C70000010024000080048000400400014004812
:102C800001000E00FFFF00000000FFFF00240140D4
:102C900000000240080B002081250000C0F2FCFF6C
:102CA0007006002000F001089E0F0000594B5346AB
:102CB000FC050000D40100082C0E00007A01000879
:102CC000860E0000620000080A2C2500EC4801680E
:102CD000799140687790EB4E6E44304641303F2109
:102CE0000EF0AAFA7B9835545F9AE748D062E7481D
:102CF0001063E7485063E7489063E748D063E749CB
:102D000011645064916475980104E548D060249B77
:102D10001361779B5161E3499161DD49D161DD49DF
:102D20001162D9495162D94991627999814229D177
:102D3000581E012826D81036202D08D0D04840191A
:102D4000C16871517119006948600835F4E7CC4ACF
:102D5000402C0AD01019001F0068CA496944085164
:102D60000819115941600834F2E7022B0AD1CE4804
:102D70000178C44A6A445172417891728178D17263
:102D8000C0781073BF4868440BF0FEFB00257B95AC
:102D900028462E46102D17D07990C44C6C442046FE
:102DA0000AF0A4FCC248431CE28861882088002BFA
:102DB00002D000BF5B1EFAE77B9B9B187B937618C3
:102DC000799908186D1CE5E70309BA48181884B208
:102DD0003109E1205E90800077906530B64A8442E8
:102DE00001D2B64C63817B9B1B098C18A4B2844230
:102DF00001D2B24CE182991889B2814202D24620B6
:102E0000AE490B5200205F99C86008614861AC4927
:102E10000C2805D0425C9B4B6B441A54401CF7E7CE
:102E200098486844C47A817A7B91417A7091017A9A
:102E30007991C17968918179669141795B91017944
:102E40006191C1785A918178509141784F9105787C
:102E50000BF09CF96990289880049A4A51690143C3
:102E600051619069984901439161984A106880B214
:102E700097494018106065988006916801439160F9
:102E8000506A944908409449401850627398906180
:102E90009248906192489061924A106830214C911A
:102EA00088431060D0687499084330998843D06093
:102EB0008D4AC0328D4801681140729A11430160F9
:102EC0008B480168249A114301608260894E002179
:102ED0003160649830601722529212020992726037
:102EE000403030606B98C04371902030B268D20798
:102EF00004D0002802D0327B401CF7E74F98000234
:102F00004019509A120480185A9A120680185B9A37
:102F10001202619BD218669B1B04D218689B1B0689
:102F2000D218424070980002799BC0187B9B1B040A
:102F3000C0182306C0185040689058486230699AFB
:102F4000419002404792759800077990052900D179
:102F5000D6E00C46684B1846B168090603D5411CFB
:102F600000280846F8D159487999816100BF00BF0F
:102F70001846B168090603D5411C00280846F8D157
:102F80001846B168890703D4411C00280846F8D1C7
:102F9000A02535731846B168C90703D1411C002824
:102FA0000846F8D1307B1846B168090603D5411CA4
:102FB00000280846F8D100BF00BF444873998161DA
:102FC00000BF00BF7898002802D000BF401EFAE77B
:102FD000002001460BF0F2FC6D98C001002802D0E1
:102FE00000BF401EFAE70B2019210BF0E7FC0C2074
:102FF00001210BF0E3FC35483849816110200BF0CA
:1030000077FC3E4948713C4B1946B268120603D51D
:103010004A1C00291146F8D12C49799A8A6100BFCF
:1030200000BF1946B268120603D54A1C0029114692
:10303000F8D11946B268920703D44A1C00291146F8
:10304000F8D135731946B268D20703D14A1C00295A
:103050001146F8D1317B1946B268120603D54A1CD5
:1030600000291146F8D100BF00BF1849739A8A6140
:1030700000BF00BF611CC0B29E2842D066E7C046B8
:1030800000F80108FC050000D40100082C0E000027
:103090007A010008860E0000620000089E0F000002
:1030A000594B53460A2C25003CF801080811000032
:1030B000B70B000024FAFFFF24FA0000700600207E
:1030C000ACF7FF1F00100240011002000010004882
:1030D000000055A9FFFF0F000000101100030003BE
:1030E00000040008000400483FF0FFFF0800014012
:1030F0000C04014000300140F0D8FFFF080B002015
:103100000524E048B168090603D5411C002808469B
:10311000F8D1DD487999816100BF00BFD948B16815
:10312000090603D5411C00280846F8D1D548B168E6
:10313000890703D4411C00280846F8D106201090C6
:103140003073D048B168C90703D1411C0028084634
:10315000F8D1307BCB48B168090603D5411C002863
:103160000846F8D1C748B168890703D4411C002834
:103170000846F8D1542008903073C248B168C90796
:1031800003D1411C00280846F8D1307BBD48B16806
:10319000090603D5411C00280846F8D1B948B16892
:1031A000890703D4411C00280846F8D175203073E4
:1031B000B448B168C90703D1411C00280846F8D1BA
:1031C000307BB048B168090603D5411C0028084689
:1031D000F8D1AC48B168890703D4411C00280846DF
:1031E000F8D159983073A748B168C90703D1411C79
:1031F00000280846F8D1307BA248B168090603D5FB
:10320000411C00280846F8D19E48B168890703D4BC
:10321000411C00280846F8D12A203D903073994877
:10322000B168C90703D1411C00280846F8D14F9462
:10323000307B944A1046B168090603D5411C00282A
:103240000846F8D100BF00BF8F487399816100BF65
:1032500000BF00248D4D322C08D0295DFF2903D0FA
:1032600020460BF0ABFB874A641CF4E71046B168BC
:10327000090603D5411C00280846F8D182487999EF
:10328000816100BF00BF1046B168090603D5411C2B
:1032900000280846F8D11046B168890703D4411CBC
:1032A00000280846F8D1A02030731046B168C9073D
:1032B00003D1411C00280846F8D1307B1046B16884
:1032C000090603D5411C00280846F8D100BF00BFFD
:1032D0006D487399816100BF00BF022001214991AF
:1032E0000BF06CFB674C02200BF002FBC00703D015
:1032F000601C002C0446F6D124201321644C3C9021
:103300004D91A04726203B213B902691A0470F20BE
:1033100000217B91A04702200146A047594C022082
:103320000BF0E6FA800703D5601C002C0446F6D1AA
:103330000F20A025619029460BF040FB022001469A
:103340000BF03CFB4F4C022075900BF0D1FA80073C
:1033500003D5601C002C0446F5D125200A213A90A3
:103360005A910BF02BFB4B48474988611F2017905F
:103370000BF01CFB434A1046B168090603D5411CFB
:1033800000280846F8D140487999816100BF00BF04
:103390001046B168090603D5411C00280846F8D13B
:1033A0001046B168890703D4411C00280846F8D1AB
:1033B00035731046B168C90703D1411C002808467F
:1033C000F8D1307BB068000603D5501C002A0246B5
:1033D000F8D100BF00BF2C487399816100BF00BFC6
:1033E00010202D900BF084FA01462B484E9141712C
:1033F00076987B9AC2676C98026042608260689B94
:10340000190E709115466800A907C90F0818709920
:10341000401867990840292166914843401C7490E0
:103420000F2D41D8521CC82A01D8052400E00324DE
:103430007298F43082427B9200D9012417484343AA
:10344000174818187990E84029210DF0BFFF7498AB
:103450000818C1B2002295420DD0124B6B449B5C00
:10346000CB1ADE1773409B1BDBB2521C9C42F2D975
:103470007B9A799BD4E70B49694448556D1C7B9A2C
:10348000799BC0E7F0D8FFFF0010004844200108F6
:10349000BDE9000800010003080B00200D661900BB
:1034A0005FF36E3C08110000FC4801684068FC4A6C
:1034B0009142FC4B11D1C01E02280ED2F748007A6F
:1034C000132800D31320C001F44908186F994458F9
:1034D000601E0121C943884210D3719C2F341968A2
:1034E000586891420AD1401E0228499806D2C0432A
:1034F0009C68611E814201D3719C2F340020EA4AEE
:103500001C2804D0E94969440A52801CF8E7E848BD
:1035100068447B94E74C21466CC86CC16898206174
:103520007B9D656120461830E04969441C225B920E
:103530000DF082F92046343011212E910DF02DF935
:103540004921002050916054691C4A1E9141482233
:103550000692A154462179916052452275990792AD
:10356000A154D549086088606B9A8A62739AF73AC9
:10357000CA620861499ACA60FF2227921304CF4A9F
:1035800014689C436E9B1C431460CD4CFF3413693C
:103590002340499CE40323431361CA4B2833CA4A9E
:1035A0001360499D0D604F99052900D305464E983B
:1035B000C0B29E384142414115914798002802D03F
:1035C00049980AF03BF8159828431590BF4A50696E
:1035D000629B184350617898303091690143916142
:1035E000679A1004609D2968814319432960686ABD
:1035F000759908430B9988436862B5496B9888624E
:10360000682088610A624C64002501206B900006E6
:103610005F990D604D608860AE486844294605F0AA
:10362000CFFFA34C6C441426002E08D0A94969444E
:10363000802220460DF0A8FC761E8034F4E75F98C7
:10364000A54BC362A54A0263A54B4363A54E86639F
:10365000A54CC463A5490164446481646B990A0460
:103660008F4CC4602499016174924261A049024662
:1036700018324AC2984941629849816240216A9849
:1036800013910DF08AF8894868447B9080300521B9
:1036900025914A028649694448900DF075FC5E9870
:1036A000C00073907D4908684968A04211D1C81EC6
:1036B00001280ED868915498C0017090002070992C
:1036C00081427CD075490958784A6A441150001DDE
:1036D000F5E77B9810307B907248016870914068E4
:1036E0007A905F987C4BC3627C4901637C4E466351
:1036F0007C4C84637C4AC2637C490164426481647B
:103700006749C16024990161749941617849816177
:10371000C661046243627149816240216A980DF07A
:103720003CF8489C142D0DD0614E6E44304629461D
:1037300005F046FF8022204631460DF025FC8034FE
:103740006D1CEFE7564870998142739E00D0ECE102
:103750007A98401E022800D3E7E17598C143514B87
:103760009868421E8A4201D86399086000204C9CE8
:103770007B9D202811D019180A69C9682950291879
:103780004A600830F5E718591919091F0968474AAE
:103790006A441151111948600834402CF3D17A98C9
:1037A000022800D0BDE153480178404A6A44517272
:1037B000417891728178D172C0781073B1E10420A0
:1037C0005F99374ACA60086138486844407B2328BB
:1037D00001D33C2803D9354868442C214173334830
:1037E0006844007A132803D93048684400210172E4
:1037F0002E486844007B002801D00B2803D32B48B7
:1038000068440A21017329486844807B0F2801D34A
:10381000372803D925486844252181732348684403
:10382000C07B032803D9214868440021C1736A98EA
:103830000078022802D300206A99087000201B4AF1
:103840006A4420285AD02C49C93118280B4601D087
:10385000154BC833002800D019461218134B6B447F
:103860001B185E8A148AB4420BD2104D6D442D1879
:10387000AD8AAE4205D2322C03D31C4C3434A5425F
:1038800009D9739CF8345C82631A1382074A6A442C
:1038900012180C4394820830D1E7C04600F00108AA
:1038A000594B534600F80108DC050000FC050000F8
:1038B00008110000000000200044014004E400E082
:1038C0000000FFFF1800200000E100E000100240AF
:1038D000002C0140081B0000D40100082C0E000041
:1038E0007A010008860E0000620000089E0F0000AA
:1038F0000A2C25003CF80108AF0400007198203024
:10390000739EF2496944002825D009184031EF4AD6
:103910006A4412184223D55A0B88AB420DD2EB4CA5
:103920006C4424184426A45B739EA54205D2322B16
:1039300003D3E74B34339C420BD94232E34B6B4405
:103940001B184424E24D1D5362230B803146F8318D
:1039500011800830D5E70020DC4E6E447490803032
:103960000246DA4969447098824200D1D5E06F92EC
:103970008D187221695C022903D329467231002215
:103980000A707321695C042903D32946733100222C
:103990000A707498401C6E9071992D3100292BD0BB
:1039A0007218A520135C1E2B01D3652B03D3104680
:1039B000A53064230370A820135C1E2B01D3652B54
:1039C00003D31046A830799B0370AB2014566320B4
:1039D000C3439C4201DB652C03DB1046AB30002463
:1039E00004707A9814569C4201DB652C02DBAE32DF
:1039F00000201070491CD1E7A97D052901D30021C1
:103A0000A9753E21695C042903D329463E31002271
:103A10000A70659829566322D243914201DB6429DA
:103A200003DD29463F3100220A70698E7798814272
:103A300002D3A848814202D9779964316986298FD7
:103A40006A6B0A430CD12946343135220823AB5422
:103A50000022AA87A048A863A048E8865798087063
:103A6000B421BE2906D0725C192A01D900207054F5
:103A7000491CF6E77198002822D033181A46F03214
:103A800014780E2C0BD8F1241C5D192C07D8F524C2
:103A90001C5D022C03D8F4241C5D0B2C0ED3F424E3
:103AA0007B9000201853F22431462E4664251D5386
:103AB00035460E46F124185510707B98801DDAE7C4
:103AC000E97D09290AD0052908D0002129848448E4
:103AD000E8618448688369760521E9752978491E7B
:103AE000FE2915D3804828818048A8808048286016
:103AF0007498401C7B90C0B20A2421460DF0D0FA85
:103B000044433030A8717B98001B30210143E97198
:103B100080366E9874906F9821E768980328739E9A
:103B200003D16A4868440AF08DFE684D6D44A97A55
:103B3000481E81416F486844C17205F059FBE87B1B
:103B400009F07AFE00246C4884716A98007841423A
:103B500041416A4A51700B994904694B5A690A43B9
:103B60005A6167998906674A12688A436B9B99066E
:103B70005118644A11606449002802D00846C130D7
:103B800000E058075F4988616048684444810481C7
:103B9000C4808480697A4A1E91410173297A13296D
:103BA00000D34D99C901489A51180A8A02804A8A5D
:103BB0004280C86809F07AFD5F9880695A99484345
:103BC00005F092FBA87B05F067FB0C2C06D0304675
:103BD000F8304F4969440853A41CF6E700203C4BD9
:103BE0000C2806D0194661314A4A6A441152801C99
:103BF000F6E7002445980470589884604460046097
:103C0000434868447B904448684401467B9E2CCEE0
:103C10002CC1239001460C313E48684422912CC8A7
:103C20002CC1459844703D495898C1603C4868444F
:103C300004777698046044608460C46001614461E4
:103C4000846177987C3039906999014205D0324877
:103C500068442849694405F03BFA239818302390BA
:103C6000E0434490279A739D0C2C06D02846F830E8
:103C70002C4969440853A41CF6E74B2034904001BA
:103C80005E9045980078002800D0E5E1002074900F
:103C90007A90FDF7E1FE7B901E4C6C4420460AF0C2
:103CA000A1FCF8350AF072FA2840217865782E4692
:103CB0006F910E43A3781E43E27816430821645E99
:103CC00019498C4232DD002836D0BDE1FC050000E8
:103CD0009E0F000034080000090A000005060000DD
:103CE0004B64000019320000202000004C2000002E
:103CF0004D4F4445F0050000080B002070060020E1
:103D000000100240000800483F1F00007C10000027
:103D1000B810000008110000081B0000FFFF0000A1
:103D20008C100000AC1000007CFCFFFF002800D0CD
:103D30008AE1002E00D187E1709468956A936E92B3
:103D4000AF4809F0EFFBAF4C6C44204609F04EFC45
:103D50006C98C0680090AC4A6A447B9D2846A8498C
:103D6000234609F0E5FE7498281A64990B318842BD
:103D70001FD9A6486844322101815C99C180022183
:103D800081725E99C83181805F99A14A0A60C07AC8
:103D9000012874950DD172987F309E4AD062539954
:103DA0005163516A814201D90020506255981060D8
:103DB00074957A98291A212900D21FE16420642978
:103DC00000D3014669909148684405F0E1F96B9C85
:103DD000A1027CA862900CF0E0FC0320010289485B
:103DE00068447A91018109211022769D8A4BAB6348
:103DF0008A4BEB638A4B2B64619B6B64AA64E96416
:103E0000EC6269992963629C2146FDF707FF7F21D7
:103E100000206990E8625D98286363916963A863F4
:103E20006B98E8637F482864764868442146FEF72B
:103E300035FA7D487099814217DD724868447A9955
:103E40000181022164220123769CE3622263724A8B
:103E5000A263724AE263754A2264549A6264A1645E
:103E60005299E1647CA9FDF7D9FE002E769D00D120
:103E700098E0644868447A990181222102246422EE
:103E800001236293EB6270922A63634AAA63634AD6
:103E9000EA63674A2A64619A6A646094AC64E9647C
:103EA0007CA9FDF7BBFE56986249016041605898B5
:103EB0008167C1676F980028699C0ED05E4C6C4486
:103EC0000021042520462A460BF036FF5B4A2B468C
:103ED0000BF0E9FF202020710524689800280ED0FF
:103EE000251D554E6E44304621462A460BF024FFD0
:103EF0000423534A0BF0D7FF20207055641D6A98A5
:103F000000280ED0251D4C4E6E44304621462A46D0
:103F10000BF012FF04234B4A0BF0C5FF2020705515
:103F2000641D6E9800280DD00D2C0BD2251D424823
:103F3000684421462A460BF0FFFE0423FC4A0BF09E
:103F4000B2FF00E025463C48684429460BF0A4FE39
:103F500002460B462B48684411461A460CF066F898
:103F6000769DEC6A296B6A6B264868447A9B0381CC
:103F7000294BAB63294BEB632C23609EAE64EB644F
:103F80000E23002C00D11346769A5364ED4A00D1DB
:103F90000A46769D2A646299E962709929637CA930
:103FA000FDF73CFE37206999E962286363996963EC
:103FB000A8636B9EEE631B482864124868447CAC7F
:103FC0002146FEF76BF90F4868447A9901813E213A
:103FD0000222DD4BAB63114BEB63DC4B2B645B9B31
:103FE0006B64AA64E9646421EE6229632146FDF7EB
:103FF00015FE204605F096F97B987A90739D48E669
:10400000E81D0108B810000008110000F0050000CC
:1040100050003200002C0140581C0108020201022D
:10402000041E0108020101007CFCFFFF131E0108B1
:10403000281E010820202020981B0000B814010829
:1040400038150108A8140108C5496431C5486844F9
:10405000282205F0D7F8279A4799481E81414791B1
:10406000F848401C4290F848684420301B90F748BC
:104070006844C01D2990F5486844C01D1E90F3484F
:104080006844C01D0F90F7486844C01D1A90F54859
:10409000684410300C90F4486844801C3190F34818
:1040A000684412303790F2486844801D389090324E
:1040B0003592519800017A90002164201490ED48C7
:1040C0005C91629160915B912B911D90449812904C
:1040D000219116910C4669914691439140913F91EF
:1040E0001C91369169985190FDF7B6FC0546DF4862
:1040F00068440AF077FA6995281B642800D3642085
:1041000053900AF043F863906998A042529456D0B5
:10411000CB486844539905F03BF8D54868448088FB
:1041200000280ED053998DB2421BD1496944002317
:10413000A84200D21A468A8003D8CD48684400219C
:10414000C172639AD0434221084231D010062FD069
:10415000C7486844807AD1B2884200D0CCE05398F6
:1041600080B2C34A6A44D1880918F64B994200D3F9
:10417000F449D180359A323A92B29142699952917A
:104180001DD9BB4969440A891018EE4A904200D3F0
:10419000EC4808815A286998529010D3B448684472
:1041A000002101816399002900D0B5E02020BAE008
:1041B0000020389908714880088069985290E24838
:1041C00068440188A94A6A44508A411ACB17594069
:1041D000CB1A918A1F2B03D3A44A6A44D28A2EE0B9
:1041E000D94A6A4452888A1AD3175A40D31A9F4A26
:1041F0006A44D28A1E2B22D8D34B6B449B88D31A95
:10420000DD176B405B1B1E2B19D8CF4B6B44DB8833
:10421000964D6D442D8BEB1ADD176B405B1B1E2BEF
:104220000DD8C94B6B441B89904D6D44ED8BEB1A37
:10423000DD176B405B1B282B01D801F0BBF9499EB1
:104240003346C14D6D44AA80698028807699486CB8
:10425000E880C86C688185496944C88B28810878E2
:104260005C9A90423046324611D14878629DA8420D
:1042700010460CD1887860998842104607D15B9827
:10428000C0B27A496944C978081A411E88416399C5
:104290000904114600D119460029114600D10146F2
:1042A000F4486844C07A769AD66A002912D0401E33
:1042B000C0B200210328469102D28000EE4909587D
:1042C00042910A215F988069484305F00DF84698AD
:1042D000439068E0002808D06998A04263D04299D2
:1042E000539A914240D9891A44E06998A0425AD021
:1042F00042994398539A3EE011468143080601D102
:1043000001F066F95A48684400220281C280639A2B
:1043100082720029309806D048420840E04948435C
:10432000C00EE0A1085C03A14000085A4000874489
:10433000E81401080F00140A080A0C0A040A180AF3
:104340001D0A100A371E0108B01D0108451E01088C
:104350004748684401213A4B6B440A4601F00CFA85
:1043600034080000F0050000D64832998161002130
:10437000D5480164439884180025844200D2EC4358
:10438000D248844242910DD934484699814207D996
:104390002B486844FA22739904F034FF469501E0F3
:1043A000501846904394B34868447490007A132898
:1043B00000D31320C10148987B9140186890027E79
:1043C000501E82417698406B77990918643188B203
:1043D000C00B081800B240106D9BDB00984200D360
:1043E0001846330C3446350A09B2449EB14200DA0D
:1043F0000020749E210E5B91E1B25C91D9B2609174
:10440000E9B26291689DE97D2B46193309F0B6FF48
:1044100084B2A87D401E727A14496944CB896E9398
:104420008B896A934B89CD888E8803284F92749428
:1044300070936F954E962AD805A1085C400087447A
:10444000F00500002F750000081B00000811000097
:10445000091B0B0F5C9810E060980EE02F750000B0
:104460005B980AE008110000981B0000B8100000DB
:104470007C100000581B00006298002807D02D22F5
:104480002C232B204D9027253A993B9806E0282095
:104490004D9022213E983C9D669B3D9A689CA25C73
:1044A0004C92625D4B92E25C4A92265C4D98225C93
:1044B000615C4E98864CA04705466F9831464A9AF3
:1044C000A0472346044670984B994C9A9847064655
:1044D00080486844C680749949007F4A5118491C35
:1044E000709181806F9444802C4605807B4868449D
:1044F00038214D910CF051F93E206899085C749078
:10450000042801D30020749069985199401A4E9064
:10451000734A7B9B7498800003A1085821B234B27F
:104520006F9D2EB28746C04639450008D549000820
:104530004D450008874500086C980660709D4560F1
:1045400084604FE0FFFF0000AC1000006C98709A90
:1045500042607698C167311B6248814200DC614944
:104560006D98C000814200DB01466C9A9160A119F0
:104570005C4A914200DC5B498142594A00DB0146BA
:104580006C98016030E035200D466899085C53490D
:10459000694401915449694400914E4969446A9AB9
:1045A0006E9B0AF0FDF86C990E60709A4A608C6000
:1045B000C10F401841102C464A1B4A48824200DC79
:1045C000484A6D98C000824200DB02466C9B1A612B
:1045D0000919444A914200DC42498142404A7B9B8E
:1045E00000DB01467698C16722486844C018709085
:1045F0000021B424BE2C20D04D1C0E1D0E2E19D22D
:104600007098005D7499032902D1052E759912D016
:10461000324969446F9101913349694400912D49B0
:1046200069446A9A6E9B0AF0BBF87B9B2C4AB100E6
:104630006F9E70502946641CDCE730260D486844A4
:10464000002E00D1C1E0C018C0300478002C01D089
:104650000E2C02D99B1DB61FF0E706486844C0180F
:10466000C421405C401E09284DD804A1085C4000CC
:104670008744C046FC050000202F0108093C0F11AB
:104680000B404213460D5C983BE062982FE05B982C
:104690002DE0629835E062982FE0609827E0C046F0
:1046A00031B57C0700011C021D0E18031E16140FE5
:1046B000191104081F1B0D17151310071A0C1206E9
:1046C0000B050A090014004800040040BF27090038
:1046D00019E70008881B000017FCFFFF0811000005
:1046E000DC05000018FCFFFFB81000005C980228F1
:1046F000B0D108E0609804E060980128AAD102E0F7
:104700005B980028A6D1CF4868447B93C518C12088
:10471000285CCD4969440191CC4969440091CC4958
:1047200069446A9A6E9B0AF03BF8C2216956484375
:1047300064210CF0DDFDC32169565A9A514340189B
:1047400059996A5C611EC9B2002A2CD0012A13D083
:10475000022AC04A7B9B00D07CE7BF4A904200DC23
:10476000BD486D9AD200904200DB10468900B64ADF
:104770006A445050B74A6DE78900B34D6D44749157
:10478000695848436D99CC0021460CF0B1FDB249FF
:10479000884200DCB048A042AE4A7B9B00DB20464A
:1047A0007499685056E78900A74A6A445358181804
:1047B000A94B984200DCA8486D9BDB00984200DBC7
:1047C00018465050A34A7B9B44E700206D9E1C284E
:1047D00004D0A24969440A52801CF8E700209F498E
:1047E0006944382815D0984A6A441358DA0F9A1841
:1047F00052109B4CA218FA323401A24200D3224636
:10480000984CA34201DA779A64320A80891C001D11
:10481000E7E700249448684401578900589A926F4A
:1048200089180DB2F1008D4200DC0D46320195422F
:1048300000DB1546894B6B441D8001257B95455750
:10484000AD005E88AD192DB28D4200DC0D4695425B
:1048500000DB15465D809D88807840B24F99012924
:104860006D9E0CD0022925D18000401905B2F000C0
:10487000854200DC05463001854222DA22E0794992
:1048800049194A1CF1008A1A00D20022779B64332E
:104890009D4201D2649AD432424390000CF028FD2C
:1048A00045197798854200DC779D7048854209DB81
:1048B0006E4D07E0F000854200D805463001854284
:1048C00000D3054665486844858067496944679A0E
:1048D00089568900C288891809B2F200914200DC29
:1048E00011463201914200DB1146C1806898808AEE
:1048F0002146619D1C290FD022462A400346D34001
:10490000DA0706D0554A6A44535A7A9EF31AC833D6
:104910005352641C891CEDE7554868444F4969446B
:104920001C220BF089FF7220689E7490355C08F0A1
:104930000DFF0446012D2CD17320315C012220464D
:104940007092504009F0BCFC002C01D000F01AFC21
:104950004848C078012801D000F014FC454800699F
:104960006999081A0A2800D2FAE042486999016157
:104970003A496944162088703F48088000204876EC
:10498000202842D077995C312F4A6A441152801C0A
:10499000F6E70020014609F093FC204608F0D2FD1E
:1049A000002C03D13248684408F0BCFD3348684409
:1049B00008F01CFEEFF3108072B64721304A515CBC
:1049C000509BD25C80F31088951E681E85410D4077
:1049D0007698E9E36C98709A426084600C4671188E
:1049E0001D48814200DC1C496D98C000814200DBFB
:1049F00001466C9A1160311B174A914200DC16493E
:104A00008142144A00DBECE5ECE500241C2C3DD08F
:104A100017486844005BF7218900884200D808469F
:104A20001849884200D31748C0001749401800B2FF
:104A300005210CF05DFCAC30034969440853A41C0B
:104A4000E4E7C046FC05000008110000B8100000B3
:104A5000881B0000DC05000018FCFFFF981B00000D
:104A6000E204000017FCFFFF7C1000003408000087
:104A7000E0100000080B0020EE180000FC10000001
:104A800000000020DC070000C0E0FFFFFE4D6D4489
:104A90007698C46FEC70FD48684483889908A971C2
:104AA00042895108A972C1896F91CE086E73240A98
:104AB0004688F1002143297171099C010C436C71F6
:104AC000990AC3885C000C43EC716C9E71680C0100
:104AD000DB0923432B720909D3010B436B72B168C5
:104AE0008B00520A1A43EA7289096F9A52010A43EB
:104AF0002A73F468AC73838A99086974428B5108ED
:104B00006975C18B6F91CE082E76240A468AF10012
:104B10002143E97371099C010C432C74990AC08AE2
:104B200043000B43AB74C0096C9C61690B010343E8
:104B3000EB740809D10101432975500AA1698A0063
:104B40000243AA7588096F9949010143E975172144
:104B500031980AF015FC68761A2128460AF042FBC3
:104B60000026D14A1068010701D50821516080064E
:104B700000D4B7E29068C0B2CC494C69002C09D08F
:104B8000012C11D1811E3D2900D385E0C849487010
:104B9000022382E0C82803D0EE2801D0EA287ED183
:104BA000C3490870012378E0C1494D78A91C00234E
:104BB0008C4272D23F2C01D903F0C4F9BC4A105583
:104BC000601CBA4A5061B84A884268D16F93B848AD
:104BD0000BF074F84F918C4201D303F0BBF9015DE7
:104BE0006E9168902946851C6A91491E28460AF0F4
:104BF000C7FBC0B26E99814200D065E26E952978FC
:104C00000829AA48A84A6F9B09D02E294CD02929E7
:104C100000D180E02B296A9D4FD014293ED10D464A
:104C20004F9903293AD068984478A01C884234D818
:104C3000022C32D36898001940786A90611E6E98F1
:104C40000AF09EFBC0B26A99814200D03CE2082D76
:104C5000964800D136E1142D00D036E20B2C924A52
:104C60006F9B1BD93030689B5979017499794174D5
:104C7000D9798174197AC174D978494281731979C3
:104C80004942C173587A401EC0B2072800D91FE2BA
:104C900040008849085A1CE2002384484361761C7E
:104CA000412E00D05EE71DE2452001217F4A1154CC
:104CB0007D4A7E4869994163F0E7022C01D103F0F7
:104CC00033F9072DEAD3689988794F9048796E9027
:104CD000C91CAA1E042420460AF07CFE02466D98D8
:104CE00083000329279D00D29DE17348C0580828FE
:104CF00000D398E14A9450787F240440209415789A
:104D0000022419954C926891A1427FD0105D002831
:104D10007DD0641CF8E7022C6A9D01D103F004F9F0
:104D2000052DBBD3689AD01C4C90AC1E7F2083000D
:104D300010796149C854281F551D00214F936F9465
:104D4000884205D06A5C002A01D0491CF8E78C1C17
:104D50006E94A41E584900D200241422142C00D3AF
:104D6000144661984001091820460AF02AFEA21C48
:104D70006F9B9A4201D903F0DCF82A461D46234670
:104D80000BF091F8279A1046FE304B4B1C546E994D
:104D90000D31A94210D24C98405C51005854002863
:104DA00019460DD16D98800000230B500120400260
:104DB0000A460421115426E050000A2119541946CC
:104DC00000243E480C546D9880000C5001206F90D8
:104DD00040020D461146043129526598C000699978
:104DE000295009211E980CF027FA4F98285C2D4D68
:104DF0006D446F9922462B460AF099FA08212846FD
:104E00000AF0F0F923462948274A47E70C460020D4
:104E100058998866C86608674867A51E00D2054687
:104E20006A93102D00D310252548684429460AF0BE
:104E30008DFFAA1C689B9A4201D903F07AF84C9A1C
:104E4000921C18952B460BF02EF815486844242127
:104E50001F910BF0A2FC641C689D0022AC421AD288
:104E600020990D2914486E9B4FD0092951D14B929E
:104E7000709A11944C99AC424ED2085D3B2807D0F1
:104E800000284AD005E0C046981B00000811000029
:104E9000521C641CEFE71F922C9207486E9B65E042
:104EA000981B0000081100001C440040080B002063
:104EB000F0060020B0180108FC080020FF010000E7
:104EC000881B0000092C00D8FFE003463030689AA8
:104ED000917A0175D0790004117A09020818517A83
:104EE00040181863D07811790902081800BA000C2C
:104EF000642148435887507992791202101800BAF9
:104F0000000C48439887DD4AE5E01F922C924C99AB
:104F10002BE01F922C9229E02C460E921198201A19
:104F200024281F9A00D310462C90D54969440AF0D2
:104F300048FD2C9B1F9011981A18AA4201D903F022
:104F400005F84C9D2A181F980AF0ADFF0E98C0B2C4
:104F5000411E02468A412946801A1F90641C6898A7
:104F60008442C8486E9B4B9A00D20A5D05466A98F7
:104F70002958092901D302F0E1FF4B923C20484314
:104F80002C183C3D002816D07022AA5C3C383C35D9
:104F90009A42F7D14D984B99295428461030B84978
:104FA000694424220BF048FC3A202C9929543920DA
:104FB0001F99295434E0082932D0B34868444C90F2
:104FC000B2496944689111944C9C2DCC2DC1AC49D7
:104FD000694424220C980BF02FFC3425119C2046A8
:104FE00068992A460BF028FC0020269960543A2044
:104FF0002C99215439201F9921544D984B992154B3
:105000003720189921543620209921543520199998
:1050100021546E9860559B496A9A8858401C885064
:10502000279D4A9C6A9B4F9800281CD0954D984913
:10503000685C441C6C5409211A980CF0FDF87F2020
:105040008000285C914D6D446E9922462B460AF0F3
:105050006EF9082128460AF0C5F86598C0006999DC
:10506000884A115030E068008649085C6E9A824296
:1050700027D2C858082824D2002485480C54521C32
:105080006F9284480A54709840020D4603212954B7
:1050900009210F980CF0D0F87F208000285C7B4D10
:1050A0006D446F9922462B460AF041F908212846A3
:1050B0000AF098F823466598C0006999714A115022
:1050C000A1E6709840020C5473486C4A6F9BE5E56A
:1050D0000020714B188745200121195469985863A5
:1050E0001846F3E745206C4B195C002908D0596B32
:1050F000699A511A649AD432914201D90021195403
:10510000012040025F49085C03281AD0012839D1E8
:105110006598C0000958699A511A729A2B329142C7
:1051200030D95849699A0A5000206C9908607699DC
:10513000C867564C6C4420460AF0E6F80621204623
:105140001EE06598C0000958699A511A729A5D323A
:10515000914217D94B4D699929504E482C5C092131
:1051600029980CF069F84A482A5C7F208000285C66
:10517000464D6D4421462B460AF0D9F808212846B1
:105180000AF030F8499808F0DDF9434B1846303002
:10519000417D424A6A44D172007C9072588F1081DE
:1051A0000025769805674567C06B00903C496944C7
:1051B0003C4A6A44394B6B44699808F0B9FC639ADD
:1051C000104641990840411E04468C4100280BD0EE
:1051D000002D17D07398F830104041424141479854
:1051E000084207D0499864E0002D0BD07398F8303E
:1051F00002425DD0002008F021FA2B48684403F0F9
:10520000F7FF38E029496944097E459A1278D2B2FD
:105210000A430021002A16D1002817D03F9A53983C
:105220001218499801D30021CA436499D4313F929E
:105230008A42409A00D30246014600D34099C907EA
:105240000FD0409235E040913F9114E04098C00764
:10525000002100283F9800D147E13F9140914791BC
:1052600028E0044608F0EAF90F48684496225E995F
:1052700003F0C8FF409447941CE0C0461C44004023
:10528000981B0000FC080020881B0000081100008B
:10529000FF01000001020000080B0020FC100000CC
:1052A000E0100000B8100000F00500008C100000B5
:1052B00000204790E248EFF3108172B6509A825C6A
:1052C0007B98024004D00020F94B509C1855586937
:1052D00081F31088002A32D0411E0122D24391422C
:1052E0002DD2F4496944097A132900D31321C90145
:1052F000489A5118CA68824221D0C860ED48684473
:1053000009F0A0FAEC4AED4868443221018179990C
:10531000C1805E998180022181725F99E84B0B60A8
:10532000C07A01280BD172989F30D06233995163B3
:10533000516A814201D90020506255981060E148BD
:105340006844007E00283AD0639A4E98202800D8FE
:10535000C7E0DA4868440390DB4868440290379815
:105360000190DA4868440090D64C6C447CA9D14B3B
:105370006B44204604F03AFCA07E002809D0D448B3
:105380006844CE49694403F0A3FECE486844002136
:105390008176CC486844C07E002801D102F08FFDA0
:1053A000499808F04BF9C74868440021C176C348C2
:1053B000684496225E9903F025FF02F080FD45982F
:1053C00000780028639935D04E992029539900D848
:1053D00087E08CB2142C00D8142445994978399A66
:1053E000639B1342709404D1CA0702D00021459AEE
:1053F0005170589AD2687492B54B6B44639A9A84F0
:10540000B44B6B441D8CB44C6C444E956581DD8B64
:105410004D952581769E356C766CE680DE8AA68079
:1054200065805B8A2380CD072FD174998A43739955
:1054300016462CE03998014253984BD080B23699E9
:1054400089B20918A5488142084600D3A3480146FD
:10545000A348369181423FD99A4C6C447B9A22777B
:1054600000216182449820827698016041608160C9
:10547000C1603691416182619048684403F0B8FE92
:10548000639A207E002827D05FE700267399F831C1
:105490003140399A164001283DD0022847D10029D1
:1054A0003CD171982430002800D1A2E08849694499
:1054B00009180B8B884A6A44121892899A4214463A
:1054C00000D31C460C838B8C9A4200D81A468A84DF
:1054D000801CE8E7002036904E98202801D900F083
:1054E0006DFC5198699002F0EDFC0021282870486D
:1054F0000DD37C496431714868441E2203F082FE5A
:105500002B99491C679801402B91694800213F91D4
:1055100040914791CFE6002900D1F5E00020459960
:1055200008706648684403F063FE02F0C8FC7B988C
:1055300081027CA874900BF030F9679801026F919A
:1055400069486844018112216C9C684AA260684ADB
:10555000E260684A226161615A99A1612F99E16113
:1055600064262660769D7B99E9677499FCF756FB63
:105570005D4868446F99018126210E225B4BA36030
:105580005B4BE3605C4B23612D9B6361A261E16136
:1055900026607B99E9677499FCF740FB4C486844A6
:1055A000C08C709988421BD9401A49496944C88403
:1055B00002F085FC514B6B445B89464D6D442D8C4C
:1055C000EB1ADD176B405B1B282B0ED800230DE078
:1055D0003E48684400210181C1808272FEF7EDFDE2
:1055E00000204599087002F06AFC0123499EFEF7ED
:1055F00028FE0021569841624C914800344A6A4482
:1056000010184B1E032B1DD019460488058B2A1B2E
:105610000023A54200D21A468589641B00D21C468D
:10562000801C4B1CFA2CEDD392B2FA2AEAD3891CC7
:10563000334868447B9AC2544C98401C4C90DCE739
:1056400000000020002E00D19AE04C98C0B204283F
:1056500000D040E35F982B49C160249901611C4848
:1056600068442D99302900D13CE385890288541B78
:105670000023AA4200D21C46659D6C43A409141B5A
:1056800000D21C46150425430A4C6C446550058B1A
:10569000AD1A00D21D46659B5D43AB09D2180F4B76
:1056A0009A4200D30D4A63185A600831801CD9E72A
:1056B00000000020FC050000002C0140F005000067
:1056C000460032008C100000E01000007C1000004A
:1056D000081B0000B8100000881B0000FFFF00003E
:1056E000AF0400003408000008110000581C010835
:1056F00002020102291F0108D0180108AC100000A5
:10570000C41B0000594B5346002E00D13CE2BD485B
:105710006844BD496944024638CA38C10146229AE4
:1057200038C938C223991CC81CC1559840004599F6
:105730000880B648684432223CE6B54868440321F4
:1057400017E0B3486844022113E0B14868440221DD
:105750000AE0AF486844042106E0AD4868440121EE
:1057600002E0AB4868440321FF2203E0A8486844F4
:1057700004210122A54B6B4403F05EFCFEF71DFDE6
:105780007B9CA1027CA874900BF007F8679801023B
:10579000A04868446A9101810C216C9D9E4AAA60D0
:1057A0009E4AEA609E4A2A612E9A6A61A9612899F6
:1057B000E961642168912960769EF4677499FCF729
:1057C0002DFA7F215D9828604B916960A8606B98E5
:1057D000E8609448286100205190F0678D48684443
:1057E0007499FCF75BFD56988F4912C08F49016090
:1057F00044608F498160C46058988E498167C4674E
:105800001326814969447F48684474908A486844F3
:105810007090332E00D119E17E4868446F916A99E7
:10582000018135466C9E7C49B160F561022153913E
:10583000B161689931607B99769AD1677749F16057
:105840007E49694449190A460F3A12687261133950
:10585000096831617CA96E91FCF7E0F9A81F63909B
:105860003060659870605798B0606B9CF4606D48CC
:1058700030615A987699C867664868446E99FCF713
:105880003BFE63983060669870606395B560F46025
:10589000644931617699C8675E4868446E99FCF73F
:1058A000FDFC6F990A88088B831A00D2519B644DC6
:1058B0006435639E2B2E284600D06148132E00D0FD
:1058C00005468889101A00D251981E2460438542EB
:1058D0006E921BD84F93F11E6C9A91606B9BD360B4
:1058E000504B1361116029460BF0DAFB1E2800D3E0
:1058F00020466C99669A4A60101A7699C86745489E
:1059000068447CA9FCF7CAFC6E9A4F9B98B21E248F
:105910006043854219D87699669ACA67F11E6C9AD7
:1059200091606B9BD3603F4B1361116029460BF074
:10593000B7FB1E2800D3204629306C9948603548B3
:1059400068447CA9FCF7AAFC6E9A74980088801AB7
:1059500009D41E24604329460BF0A2FB1E2800D365
:10596000204629300BE071991231414308462946FF
:105970000BF096FB1E2800D31E206699081A769D10
:10598000E867711E721F6C9C22606060A1606B985A
:10599000E060244820611F4868447CA9FCF77EFC35
:1059A0007098007800280DD01A4868446A990181DF
:1059B000689921607B99E9671749A1601749E160FF
:1059C00020490CE0134868446A9901816899216074
:1059D0007B99E9671049A1601049E1601A4921618A
:1059E000539961613499A161E6617CA9FCF716F9CC
:1059F0007098401C70907498801C74906F99891CEA
:105A0000083606E7881B0000081B0000F0050000B0
:105A10007C10000008110000581C0108020201025D
:105A2000D51E010802010100E71E0108E81E010859
:105A3000E91E0108E61E0108C41B0000981B0000B7
:105A4000E2040000271F0108251F0108CA48684416
:105A5000018C838A0689C94868446A9A02816C9AD3
:105A6000C74C9460C74CD4601325259C54612A9C74
:105A700094615195D561689C1460769A7B9CD4673B
:105A8000F41A00229E4200D214467496891B549E3A
:105A900000D211466F916E94091989B2359A9142DC
:105AA000B94900D8B9496C9D29617CAC2146FCF705
:105AB000B5F82E603E9868605798A8606B98E860CB
:105AC000B3482861769E2A98F067AC48684421461E
:105AD000FCF712FD1B206D21549A2A606960A860B2
