:020000040800F2
:1000000000400020C1000008A70301089B1501085B
:1000100000000000000000000000000000000000E0
:10002000000000000000000000000000A70301081D
:100030000000000000000000A703010841050008BF
:10004000A7030108A7030108A7030108A7030108E4
:10005000A7030108A7030108FD000008A703010882
:10006000A7030108A7030108A7030108A7030108C4
:10007000A7030108A7030108A7030108A7030108B4
:10008000A7030108A7030108A7030108A7030108A4
:10009000A703010855050008A7030108A7030108E5
:1000A000A7030108A7030108A7030108A703010884
:1000B000A7030108A7030108A7030108DD0A000838
:1000C00010F074F9084809490022814201D004C0A7
:1000D000FBE707480749084A814202D008CA08C01E
:1000E000FAE70FF0C0FF00DEF0060020500B002002
:1000F00000000020F00600208C320108F0B503AFAC
:1001000093B009AEE6484169490700D40AE20422E7
:1001100042614923E34DE95C022900D102E2016812
:10012000914301604524295D002900D19EE0012909
:1001300000D0F7E104960193089202200290059402
:100140002855002420460EF0A9FC01221103079136
:10015000039212078006D44ED44BD54D284600D5C5
:10016000AEE106920498401C049009A8252110F0E5
:10017000EBFB28463168090603D5411C00280846D8
:10018000F8D1CA4B069A1A6000BF00BF28463168F2
:10019000090603D5411C00280846F8D128463168D5
:1001A000890703D4411C00280846F8D1F02030719B
:1001B00028463168C90703D1411C00280846F8D1F8
:1001C000307928463168090603D5411C00280846C5
:1001D000F8D100BF00BF0798186000BF00BF2846D5
:1001E0003168090603D5411C00280846F8D11A6079
:1001F00000BF00BF28463168090603D5411C00280E
:100200000846F8D128463168890703D4411C0028E4
:100210000846F8D10598307128463168C90703D1DE
:10022000411C00280846F8D13079252C284630D0CA
:100230003168090603D5411C00280846F8D1284634
:100240003168890703D4411C00280846F8D10020F2
:10025000307128463168C90703D1411C002808467F
:10026000F8D1307909A90855641CDEE7089201220B
:100270002A5547216B5CAE49002B3BD0AE4B0B603F
:100280004323EC5C042C37D2032C00D0621CEA54CC
:1002900032E028463168090603D5411C002808468B
:1002A000F8D100BF00BF0798186000BF00BF47200B
:1002B0009D49095C09A8007800295AD009A9BC28E1
:1002C00000D0FBE0487A012800D0F7E0442000216C
:1002D000954C2154432008992154049A107951795E
:1002E0000902081891790904D279120651180818E0
:1002F0006061E3E0914A0A608C4A8E4B1C461568A7
:100300002D0603D5651C002C2C46F8D101242507A9
:100310000D6000BF00BF1D461668360603D56E1C73
:10032000002D3546F8D11D461668B60703D46E1C5D
:10033000002D3546F8D1C02515711D461668F60703
:1003400003D16E1C002D3546F8D1157915682D06A0
:1003500003D55D1C002B2B46F8D100BF00BF220344
:100360000A6000BF00BF089A426101681143016042
:10037000D8E0AA2802D0AC2800D09FE0049B1978CE
:100380005A78120251189A781204DB781B069A18D0
:10039000674B5118644A1269914200D08EE062495D
:1003A0004B695A1C022A01D30021039108931A0CAD
:1003B000531E5A425A4103990A4304990B794C79C6
:1003C0002402E3188C792404C97909060919CB1889
:1003D000591E029CE443A14208D8002A06D00121FC
:1003E000514A019C11555361514B06E00899591A25
:1003F0004B424B4113434E4B60D0482101244A4AA3
:100400005454AA2807D109A8407AFC2852D0FD28C4
:1004100001D1029A4FE03F2043490C5440200894F8
:1004200000240C52886B401C88631D200EF036FBA4
:10043000C0B2C000052110F009FF08990902091A8D
:10044000C8178143642900DB64213E20364A1154D9
:10045000374B21460A31212930D809A90A19117BC5
:10046000537B1B025918927AFE2A0ED0032A07D01A
:10047000002A2F4B11D10A224A432B498A870CE0CC
:100480000A224A4328498A8706E089B26422511A1F
:1004900000D20021244A1154254B241DD9E7C0461F
:1004A00000040140000000200830014018100048FE
:1004B000F0D8FFFF224646201B490A542846069AD8
:1004C0003168090603D5411C00280846F8D11A6096
:1004D00000BF00BF28463168090603D5411C00282B
:1004E0000846F8D128463168890703D4411C002802
:1004F0000846F8D1A020307128463168C90703D1D9
:10050000411C00280846F8D130793068000603D530
:10051000681C002D0546F8D100BF00BF0798186081
:1005200000BF00BF13B0F0BD000000200830014044
:1005300018100048F0D8FFFF00030003000200037A
:1005400080B500AF02480168491C016080BDC0460B
:10055000000B0020F0B503AF91B0CF480024046039
:10056000CE4D2878C00700D0A9E24920CC4E305C9F
:10057000022800D1A3E230461830CA4962311C2259
:1005800010F031FA4021705A401CC74A904200D303
:1005900010467052C54A11680423049399431160B0
:1005A000716B0591491C7163352801D30020F087D8
:1005B00006A8262110F0C8F94720305C012815D183
:1005C00006AC01250522204629460FF0D1FC3269F0
:1005D000109210AA04230FF04AFD00200290A0728E
:1005E0000598C00712D07320C04310E04220315C50
:1005F0004A1C0F231A4032541940705C03900F2993
:100600003DD02879002834D1A94933E00D2003904A
:100610004321A3480591405C0128019500D1A5E044
:1006200002280FD0032800D0B8E006AEBC203070FE
:100630000521092230460FF09BFCFF2210F040FFFD
:1006400075720CE006AEBC203070052109223046E0
:100650000FF08EFCFF2210F033FF029870720B2116
:100660001B2230460FF084FC8D4A10230FF0FFFC54
:10067000ADE09049904A116001214840287146251B
:10068000705D022800D1D7E0012837D1059506AD6D
:10069000AA202870012102910524884B2846224671
:1006A00098473269109210AA042633460FF0DFFCF7
:1006B000092228462146814B9847794A526910926F
:1006C00010AA33460FF0D3FC0026AE730298A8811F
:1006D0007B486881FD2068720F2125242846224628
:1006E000764B9847FF2210F0EBFE2E556C4805998B
:1006F00046547448A88274486882EFE0706B73496E
:1007000010F03AFF002900D194E006AD582028707F
:1007100001210526284632460FF02AFCE94A1269D3
:10072000109210AA042305930FF0A1FC0922284679
:100730003146E44D0FF01CFC6A69109210AA059B2B
:100740000FF095FC1C2C70D02819008B7D21CA005D
:10075000904200D810460901884200D3084606A9F5
:1007600009194872000A8872A41CEBE72C4606ADF2
:10077000BB2028700521092228460FF0F9FBFF2233
:1007800010F09EFE6C720B211B24284622460FF0AF
:10079000EFFBCC4A10230FF06AFC1CE006AEBC2035
:1007A00030700521092230460FF0E2FBC54A52693C
:1007B000109210AA04230FF05AFC022070720B2131
:1007C0001B2230460FF0D4FBFF2210F079FE802070
:1007D0003077F5761D2406AD25262846214632467B
:1007E0000FF0C6FBFF24224610F06AFE0298A855BF
:1007F000B44A0598105C042870D14420115C491C4F
:10080000FF2900D3214611540429019966D3029B84
:1008100013544620135242201152FF200230482127
:1008200050521F200EF098F958E0252006A900220A
:100830000A5453E002207055059506AD56202870E5
:1008400001210526284632460FF092FB9D4A126987
:10085000109210AA042423460FF009FC092228460E
:100860003146984D0FF084FB6A69109210AA234616
:100870000FF0FDFB0320C143182929D0002904D023
:1008800006AA5218FF23937302E006AA9073E82386
:100890005373891CF0E7C04610440140080B002048
:1008A0000000002070060020FFFF0000000401404F
:1008B00000040008000800041810004871FF000838
:1008C000FF90000005DE000005DC000021060000AE
:1008D000002005996854252106AA50547C4C7D4D72
:1008E00028462168090603D5411C00280846F8D18E
:1008F00001200207754905920A6000BF00BF294622
:100900002268120603D54A1C00291146F8D129464F
:100910002268920703D44A1C00291146F8D1A0216D
:10092000217129462268D20703D14A1C00291146A9
:10093000F8D1217929462268120603D54A1C0029DC
:100940001146F8D100BF00BF060360490E6000BF2A
:1009500000BF6148086028462168090603D5411C8C
:1009600000280846F8D159480599016000BF00BF2A
:1009700028462168090603D5411C00280846F8D1FD
:1009800028462168890703D4411C00280846F8D16D
:10099000E020207128462168C90703D1411C0028A6
:1009A0000846F8D1207928462168090603D5411C5C
:1009B00000280846F8D128462168890703D4411C3D
:1009C00000280846F8D10520207128462168C9076B
:1009D00003D1411C00280846F8D10020217926289F
:1009E0001CD006A9095C2A4623681B0603D5531CA4
:1009F000002A1A46F8D12A4623689B0703D4531CC1
:100A0000002A1A46F8D1217129462268D20703D15B
:100A10004A1C00291146F8D1401CDFE7284621680E
:100A2000090603D5411C00280846F8D100BF00BFC5
:100A30002648066000BF00BF0F2003990EF094F80F
:100A400028462168090603D5411C00280846F8D12C
:100A50001E480599016000BF00BF284621680906AD
:100A600003D5411C00280846F8D12846216889078B
:100A700003D4411C00280846F8D1D0202071284614
:100A80002168C90703D1411C00280846F8D1207904
:100A90002068000603D5681C002D0546F8D100BF6C
:100AA00000BF0A48066000BF00BF45200021054A7C
:100AB00011540549049A4A6108681043086011B04E
:100AC000F0BDC0460000002000040140181000489E
:100AD00008300140F0D8FFFF00010003F0B503AF7C
:100AE00085B021480088214988423BD00225224C0C
:100AF000204E002D36D01E488078C04678440079BC
:100B0000400087442F010E17207802282AD01C4865
:100B10000290019401A8012107F056FD002821D080
:100B20001EE03068401C1DD014480290019601A8B8
:100B300001210DE02078022814D03068401C11D02B
:100B40000E48049003960E480290019401A80221D9
:100B500007F03AFD044600F0D9FE002C064C01D007
:100B60006D1EC6E705B0F0BD2C030020FFFF00009E
:100B7000080B00204C000020C0050020E8210108DF
:100B8000AC210108F0B503AF87B0054680680128A5
:100B900047D106916C69E868A04246D22A69115C87
:100BA000491C1154AB69981C0226A0423AD8012175
:100BB000090205935918A14200D321460492234605
:100BC0000EF07CFF05292DD30246069B9879107004
:100BD000988802900391597A187A019208F0F8FDEA
:100BE000029B190A019AD1709370C0B25070069896
:100BF000C0791071114605200690039A0EF0D9FFB6
:100C00000598C11DA1420DD8A0420ED20723049A17
:100C10001354401CA04208D2069B1354A961FF261E
:100C200000E00726304607B0F0BD21460FF0A6FBD6
:100C3000F0B503AF85B01C4603920E460546084644
:100C400008300CF00FFD0491B968029400940C4632
:100C500001918021039A0B460FF002F8C00702D0E1
:100C60002970FF2006E0F868E871A971AC80F436BD
:100C70002E600298287204990868401C086005B02C
:100C8000F0BDF0B503AF87B01C4605920E46054691
:100C9000084608300CF0E6FC0691B968049400940C
:100CA0000391019100242146059A23460EF0D8FFB6
:100CB000C00702D02970FF2006E0EC71A9710398EB
:100CC000A880F4362E600498287206990868401CA3
:100CD000086007B0F0BDD4D4B0B502AF86B004460A
:100CE000009101920748011D03AD0022062328460A
:100CF000FFF79EFF0F222046294607F057FB06B05C
:100D0000B0BDC04630070020F0B503AFF9B01446BF
:100D10000C910890052081010EAD28460FF014FEBD
:100D2000002108262846099132460FF006F9FB4AB1
:100D300033460FF09CF9A0B20D907D21CD002946DD
:100D400010F084FA07950B904543651BA8B2642602
:100D5000314610F07BFA04460A964643A81BC0B2FF
:100D60000A26314610F072FAED490D9A8A421ED9D0
:100D700076AA2E2191703025284310712C43D4700F
:100D800014460B98C0B20A2110F0F6FB294361709B
:100D9000E4490D9810F05AFA2843207025460EA811
:100DA00008210D2422460FF0C8F8052311E0DE4982
:100DB00076913021084376ADE8700C43AC700B9807
:100DC000303028700EA808210C2422460FF0B5F808
:100DD00004232A460FF04BF9254608350EA8214674
:100DE0002A460FF0AAF8D14A08230FF040F95EA86E
:100DF000099901815F915E91FF203A3006900C982D
:100E00002246847A002C2CD00D950925002C11D077
:100E10000A2D01D300F064FD2046314610F016FA89
:100E200031464143611A30220A435EA94A556D1E7C
:100E30000446EBE7691C5EA80FF045F804460D4632
:100E40000D996E1806980830864216D20EA83246C2
:100E50000FF073F822462B460FF009F9079D344630
:100E60000DE009320EA8294614460FF066F8B04A84
:100E700001230FF0FCF8079D04E00C46079D06983F
:100E8000844209D2214608340EA822460FF055F8B4
:100E9000A84A08230FF0EBF80B940C9804890594EA
:100EA0002046294610F0D2F907904543651BA8B2A9
:100EB0000A9E314610F0CAF904464643A81BC0B248
:100EC0000A210D9110F0C2F9059A95498A4221D95B
:100ED00076AD2E21A9703026304328713443EC7052
:100EE0009049104610F0B2F9304328700798C0B20C
:100EF0000A2110F041FB314369700698C01C0B9920
:100F0000814221D24E1D0EA832460FF016F876AA65
:100F1000052316E0844976913021084376AAD070E3
:100F20000C4394700798303010700698001D0B9990
:100F3000814209D20E1D0EA832460EF0FEFF76AA9F
:100F400004230FF094F800E00E460698801C0790EA
:100F500086420AD2B21D0EA831460A920EF0EDFF6B
:100F6000754A06230FF083F800E00A9661A80999F4
:100F70000181629161910C980468002C0B9427D038
:100F80000926002C11D00A2E01D300F0A9FC20461E
:100F90000D9D294610F05AF94543611B30220A4342
:100FA00061A98A55761E0446EBE7711C61A80EF014
:100FB0008AFF05460C460A9966180698083086424C
:100FC00015D20EA832460EF0B8FF2A4623460BE093
:100FD0000698C51D0A99A9421BD24E1C0EA832467E
:100FE0000EF0ABFF524A01230FF041F800E00E462D
:100FF000B51D06980830854209D20EA831462A460A
:101000000EF09BFF4D4A06230FF031F800E0354605
:101010000B9C64A809990181659164910C984668BC
:10102000002E2CD00A95354609260C95002D11D09E
:101030000A2E01D300F054FC28460D9C214610F0E6
:1010400005F94443291B30220A4364A98A55761EB8
:101050000546EBE7711C64A80EF035FF04460E460A
:101060000A99751806980830854217D20EA82A46A4
:101070000EF063FF224633460EF0F9FF0FE00698AC
:10108000C01D85420DD229466D1C0EA82A460EF0C1
:1010900054FF274A01230EF0EAFF02E00D460B9CA5
:1010A0000C9EEA1D069808300A90824209D20EA8CA
:1010B00029460C920EF041FF214A07230EF0D7FF7C
:1010C00000E00C9567A8099D058168956795B44275
:1010D00015D9A51B0926002D34D00A2E01D300F006
:1010E00001FC28460D9C214610F0B0F84443291B12
:1010F00030220A4367A98A55761E0546EBE7069813
:10110000C01D0C99814231D24A1C0EA814460EF023
:1011100014FF074A01230EF0AAFF2BE0BA170108BB
:101120000F27000010270000302E30303217010842
:10113000201A010882170108211A0108271A01083C
:101140002D1A0108711C67A80EF0BDFE05460E465B
:101150000C9972180A9882420AD20EA814460EF010
:10116000ECFE2A4633460EF082FF02E00C4601E018
:101170000C46099DF848C17800292FD0014630312E
:1011800011228A560B920E228A560592428F038FA5
:101190000393006B00904E7DC87C0190887C049086
:1011A0000D7C214610340A988442029208D20EA87F
:1011B00022460EF0C2FEF14A10230EF058FF2146DF
:1011C000F0070DD00698001D814224D20E1D0EA8F6
:1011D00032460EF0B2FEEA4A04230CE02146EFE26A
:1011E0000698C01C814216D24E1D0EA832460EF043
:1011F000A4FEE44A05230EF03AFF079886420CD27B
:10120000B21D0EA8314607920EF097FEDE4A062365
:101210000EF02DFF02E0079100E007966AA800217A
:1012200001816B910C916A91002D25D00926002D2A
:1012300010D00A2E00D351E328460D9C214610F011
:1012400005F84443291B30220A436AA98A55761EB1
:101250000546ECE7711C6AA80EF035FE04460D4603
:1012600007996E180A98864215D20EA832460EF0DB
:1012700064FE22462B460BE00698C01D079981426A
:1012800009D24E1C0EA832460EF057FEBF4A01236B
:101290000EF0EDFE00E00E46059C31460C310A983A
:1012A00081420AD20EA80A46314607920EF045FE48
:1012B000B74A0C230EF0DBFE00E00796002C2FD47B
:1012C00076A80C99018177917691002C37D0092668
:1012D000002C10D00A2E00D300E320460D9D294695
:1012E0000FF0B4FF4543611B30220A4376A98A55AB
:1012F000761E0446ECE7711C76A80EF0E4FD044669
:101300000E46079975180A98854254D20EA82A46A7
:101310000EF013FE224633460EF0A9FE2E464BE099
:101320000698C01D0799814216D24A1C0EA8079242
:101330000EF003FE974A01230EF099FE0DE0069889
:10134000C01D0799814236D24E1C0EA832460EF0BF
:10135000F4FD8E4A01232BE0079176A80C990181B8
:101360007791769164420925002C10D00A2D00D384
:10137000B4E220460D9E31460FF068FF4643A11BA4
:1013800030220A4376A94A556D1E0446ECE7691CD3
:1013900076A80EF098FD04460D4607996E180A9837
:1013A000864208D20EA832460EF0C7FD22462B46D2
:1013B0000EF05DFE00E00E4635460A350A9885427D
:1013C00009D20EA831462A460EF0B7FD724A0A230A
:1013D0000EF04DFE00E035460B9C002C23D476A881
:1013E0000C99018177917691002C2CD00B950925D1
:1013F000002C10D00A2D00D370E220460D9E3146FD
:101400000FF024FF4643A11B30220A4376A94A5518
:101410006D1E0446ECE7691C76A80EF054FD0446E8
:101420000E460B993EE00698C01D854218D26A1CF4
:101430000EA8294607920EF080FD564A01230EF0B1
:1014400016FE0B9C0DE00698C01D854238D2294639
:101450006D1C0EA82A460EF070FD4C4A01232BE0AD
:10146000079576A80C9901817791769164420925B8
:10147000002C10D00A2D00D330E220460D9E3146BC
:101480000FF0E4FE4643A11B30220A4376A94A55D9
:101490006D1E0446ECE7691C76A80EF014FD0446A8
:1014A0000E46079975180A98854208D20EA82A4652
:1014B0000EF043FD224633460EF0D9FD00E00D4606
:1014C000EA1D0A98824209D20EA829460B920EF014
:1014D00034FD324A07230EF0CAFD00E00B956DA8DB
:1014E0000C9901816E916D91049C002C25D00925E9
:1014F000002C10D00A2D00D3F0E120460D9E31467D
:101500000FF0A4FE4643A11B30220A436DA94A55A1
:101510006D1E0446ECE7691C6DA80EF0D4FC044671
:101520000E460B9975180A98854217D20EA82A46BE
:101530000EF003FD224633460BE00698C01D0B99C2
:1015400081420BD24D1C0EA82A460EF0F6FCE64A4C
:1015500001230EF08CFD02E0080B00200D462A4608
:101560000A320A9882421BD20EA829460B920EF02C
:10157000E4FCDE4A0A230EF07AFD12E0741A010838
:10158000A8160108941A0108991A0108201A0108DE
:101590009F1A0108AB1A0108AC1A0108B61A010813
:1015A0000B95039870AA0C99118171917091002884
:1015B00024D0092500280FD00A2D00D38EE10D9EDE
:1015C000314604460FF042FE4643A11B30220A4337
:1015D00070A94A556D1EEDE7691C70A80EF073FCEA
:1015E00004460E460B9975180A98854215D20EA826
:1015F0002A460EF0A2FC224633460BE00698C01D98
:101600000B99814209D24D1C0EA82A460EF095FC7A
:10161000B54A01230EF02BFD00E00D462C460C349C
:101620000A98844209D20EA8294622460EF085FC6B
:10163000AF4A0C230EF01BFD00E02C4601980DF084
:1016400023FF02460D190A9885420BD20E460EA8BA
:10165000214614462A460EF070FC224633460EF010
:1016600006FD00E025462A460F320A98824209D23A
:101670000EA829460B920EF060FC9E4A0F230EF036
:10168000F6FC00E00B95029873AA0C9911817491F5
:101690007391002824D0092500280FD00A2D00D3EB
:1016A0001CE10D9E314604460FF0D0FD4643A11BC0
:1016B00030220A4373A94A556D1EEDE7691C73A8D1
:1016C0000EF001FC04460E460B9975180A988542E7
:1016D00015D20EA82A460EF030FC224633460BE007
:1016E0000698C01D0B99814209D24D1C0EA82A46AE
:1016F0000EF023FC7C4A01230EF0B9FC00E00D46FD
:1017000029460E310A9881420AD20EA80A46294675
:101710000B920EF012FC784A0E230EF0A8FC00E0AB
:101720000B9576A80C99018177917691009C002CFD
:1017300025D00925002C10D00A2D00D3CEE020465C
:101740000D9E31460FF082FD4643A11B30220A4315
:1017500076A94A556D1E0446ECE7691C76A80EF082
:10176000B2FB04460E460B9975180A98854215D2AD
:101770000EA82A460EF0E1FB224633460BE00698FF
:10178000C01D0B99814209D24D1C0EA82A460EF0AD
:10179000D4FB554A01230EF06AFC00E00D466A1C9A
:1017A0000A9882420AD20EA8294614460EF0C5FBBA
:1017B000524A01230EF05BFC214600E02946099DB8
:1017C000CC1D0A98844208D20EA822460EF0B5FB22
:1017D0004B4A07230EF04BFC00E00C460C951C2DE9
:1017E0005AD00898465B0C9800280DD0621C0A98C5
:1017F000824209D20EA821460B920EF09EFB0123D5
:10180000404A0EF034FC00E00B9476A800210181E0
:1018100077917691002E28D0079109950925002E01
:101820000FD00A2D51D230460D9C21460FF00EFDEF
:101830004443311B30220A4376A94A556D1E0646A1
:10184000EDE7691C76A80EF03EFB05460E460B99A7
:1018500074180A98844216D20EA822460EF06DFB28
:101860002A4633460EF003FC0EE00B994C1C0A98F6
:1018700084420BD20EA822460EF05FFB01231A4AC7
:101880000EF0F5FB03E00C46099D00E00C460C98B9
:10189000401C0C90AD1CA2E7251D0A98854209D278
:1018A0000EA821462A460EF048FB174A04230EF0E4
:1018B000DEFB04E00698C21D94420BD825460EA814
:1018C000294600F0D5F879B0F0BD0798C0430A2149
:1018D0000EF054FD002021460EF048FD0C98F5E76F
:1018E0000998F3E70020F1E7201A0108BD1A010862
:1018F000C71A0108D31A0108E21A0108F01A0108F0
:10190000F11A01085116010800170108F0B503AFDC
:1019100097B005A8402101910FF016F84D4DD42243
:101920004B4B98588026311A1C8FA14229D204961D
:10193000D02103915E58311A8031A14201D2324642
:1019400040E0802E029203D1049E009603990FE09E
:1019500031467F2E049E77D8421A184650304118DF
:101960000FF0E4FB3A4B0298185803995A5800922A
:1019700000225A500099401A029A9850311AA142F6
:101980005BD3164601191A4650321C4680230EF0CE
:1019900095F802460B462146343115AC204608F036
:1019A000A1F82078012804D16178002901D1002014
:1019B00002E000283AD11698254B995908189851F9
:1019C000D0215A58904231D0861A402E00D3019E21
:1019D000B1182DD281292BD2039105A9049140245D
:1019E0003046029222461C460EF0CFF8029AA21808
:1019F000503233460EF03BFBD0200399215004981F
:101A000031460EF03FFA002989D0C023EA58561C0F
:101A10007F243440C426AE59B44204D07F2A0FD864
:101A20000678AE54EC50401C491EECE717B0F0BDF0
:101A3000802310461A460EF099FC45200EF09AFCC1
:101A4000802110460EF09AFC084680210EF096FC8C
:101A50004C0000202C08002080B500AFEFF310816F
:101A600072B60248006881F3108880BD000B002028
:101A7000F0B503AF89B00A460690012002904002FB
:101A8000089000260591964257D2304606990EF0EE
:101A900085F807900C46B72085002B4B58590899BC
:101AA0000A1A94422AD95B21C90004915958029B11
:101AB0005B02994204D00029089B07D1224B1DE00C
:101AC000089903912946204D049B0EE00195994207
:101AD00035D2421A1C4D2846D83041180FF026FB4B
:101AE00001996858049BEA5803920022EA50039A2D
:101AF000801A6850089A121A2B460D46944200D359
:101B00001446002C0DD02118D8331A46089B0DF02E
:101B1000D5FF079A23460EF0AAFA0B4B5859001925
:101B20005851184608F03CF9002C059A05D0A61922
:101B3000401EC0B240087E28A5D809B0F0BD0846B6
:101B400008990EF01BFCC0464C000020FEB506AF05
:101B500002460368406883422AD0581C10601978F6
:101B60004CB20120002C2BD59C1C14605E783F24C5
:101B7000019426401F240C40E0291BD30094DD1C57
:101B800015609C780294019D029C2C400294B60141
:101B9000029C3619F02910D3191D1160D978019AC9
:101BA0001140B2015118009A5207D20A891807E071
:101BB000002005E0A101891902E0009909037118CC
:101BC00003B0F0BDF8B504AF0091456801220021D3
:101BD000402D164600D30E460368802B144600D3D2
:101BE0000C463440382129400901009E711807260F
:101BF0002E40B240D5430095057A2846EDB2022D1D
:101C00000BD00225002CF8D0CE5CC00702D1009882
:101C1000064000E01643CE54EFE7F8BDF0B503AF41
:101C2000E1B01F914268E7498A420C92079200D3C3
:101C30000791417C0691017C0E9101680B91017A1C
:101C400012914EA90A461C320A922431149140A9DD
:101C500024310391C1682291C17C1E91817C16912F
:101C6000417A119141691B9181691891C169109163
:101C7000006A1D9007200F90C0010D9000260120E2
:101C800020901C9615961598C00700D002E3189C6A
:101C90001C9819968442054666D31B984019611B0F
:101CA000072907D80023994258D0C25C0A2A44D099
:101CB0005B1CF8E7C21C03239A43121A05D11C953A
:101CC0001A9108392191002210E00023C45C0A2CEB
:101CD00007D05B1C9A42F9D11C951A9108392191C1
:101CE00002E0189C199E28E08A4213D88418646880
:101CF000B5494C40B54B1D1B2543845826464E40E4
:101D00009E1B2643B2490E402E408E4202D108321D
:101D10002199E9E71A99914229D080181899891ACE
:101D20001C9D4B1B0021199E445C0A2C03D0491CAE
:101D30008B42F9D11CE08B18189CED180020691C0F
:101D4000A8D0A1420846A5D81B98405D0A2808469D
:101D5000A0D10020159017911C910EE017961C94AD
:101D600020981590254608E01C951796F8E7199ECF
:101D70001796189D1C95209815901B9880191A90FD
:101D8000AE1B129800281D9C109829D0129801288B
:101D900016D10096119801904EA822990E9A1A9B7E
:101DA0000EF017F85398C10F401840101D990C1AE7
:101DB0005298401EC10F401840101099081A0FE0A9
:101DC0000096119801904EA822990E9A1A9B0EF037
:101DD00000F853981D990C1A52981099081A401C33
:101DE00021902298C0690C99484364210FF02EFA83
:101DF00001460B98002800D1079919988542139144
:101E000001D1002505E0751E1A98405D0D2800D00F
:101E100035462298119907F00FFB201A1990169851
:101E200002280FD11E98022800D099E022998869D3
:101E3000096A0C181A9841190DF0AFFB60432199FB
:101E40004518EAE11E98022800D031E12298026A82
:101E50008169199800901A980190029540A8219BD9
:101E600007F0CEFA5EA840A90DF0B2FB609A501CB4
:101E700000D1D1E15748101A00D200205E9D002801
:101E800002D00128EED0C8E15F981A9033A82299B9
:101E90000EF08FFA369C60426041379E002E2099EA
:101EA00000D001460029DDD134980028DAD4359BD2
:101EB000002BD7D4339A0119099292680892914263
:101EC000D0D89A190999C9688A42CBD8099A116859
:101ED0000491516805910899C91D0F9A91430A1BF5
:101EE0004B43181800960190029223A80990049978
:101EF000059A234607F0B8FD319630941A982F9032
:101F00002E952BAC169820704EA82EAA09990DF08C
:101F10001FFB5C943AAC4EA920460DF03DFF207AA1
:101F20000028F7D002289DD03A997F29F2D83B9B10
:101F30003F2BEFD818010F9A134001229A400D9BB6
:101F4000184008435C990978002904D01F9B195C4C
:101F500011431954DEE71F9B195C91431954D9E7CB
:101F60002298026A8169199800901A980190029546
:101F700040A8219B07F044FA5EA840A90DF028FB79
:101F8000609A501C00D147E1C348101A00D20020CB
:101F90005F995E9D00281FD0012800D03DE1229866
:101FA000006A0028E8D050904F914E952298C06961
:101FB000519001221E9802404EA91F980EF023F85E
:101FC000DAE7C046FFFFFF7F0A0A0A0A00010101A3
:101FD00080808080FFFF10001A9133A822990EF0B4
:101FE000E8F9369C60426041379E002E209900D06F
:101FF00001460029C0D134980028BDD4359B002B60
:10200000BAD4339A01190992926808929142B3D8CE
:102010009A190999C9688A42AED8099A1168049137
:10202000516805910899C91D0F9A91430A1B4B43AA
:10203000181800960190029223A809900499059A15
:10204000234607F011FD319630941A982F902E9563
:102050002BAC1E9820704EA82EAA09990DF078FA84
:102060005C943AAC4EA920460DF096FE207A0028EA
:1020700002D00228F5D17FE73A997F29F1D83B9B1E
:102080003F2BEED818010F9A134001229A400D9B66
:10209000184008435C990978002904D01F9B195CFB
:1020A00011431954DDE71F9B195C91431954D8E77C
:1020B0002298026A8169199800901A9801900295F5
:1020C00023A8219B07F09CF92BA823A90DF080FAE7
:1020D0002D9A501C00D19FE06F48101A00D20020AA
:1020E0002C992B9D002814D0012800D095E022982F
:1020F000006A0028E8D050904F914E952298C06910
:10210000519001221E9802404EA91F980DF07BFFAE
:10211000DAE71A912EA822990EF04BF9319C604211
:102120006041329E002E209900D001460029CBD17B
:102130002F980028C8D4309B002BC5D42E9A0119A3
:102140000992926808929142BED89A190999C96871
:102150008A42B9D8099A1168049151680591089981
:10216000C91D0F9A91430A1B4B4318180096019002
:10217000029233A809900499059A234607F074FC4B
:102180003D963C941A983B903A953EAD169828702F
:102190003FAE1E9830703AA903980EF02FFB40AC6A
:1021A0001C22204609990EF01EFC489547964EA821
:1021B000382221460EF017FC00205D905C905EA84E
:1021C00014990DF030FE5E98012800D07CE7609DE8
:1021D0005F9C4EA80DF0B0FCC1B2022900D173E79C
:1021E0007F2CECD83F2DEAD828010F9A1540012208
:1021F000AA400D9B1840204389000A9B5958097832
:10220000002904D01F9B195C11431954D7E71F9B69
:10221000195C91431954D2E7219D179E139A1D987A
:1022200010181D902198854200DC2CE52C1A069888
:10223000169906F0C6F8C2B2022A0FD0509421981F
:102240004E902299886AC96A5191199940184F9005
:10225000012002404EA91F980DF0D5FE0E98169948
:1022600006F0AFF8C2B2022A179D2E46219800D17F
:1022700009E550944E902299086B496B5191199938
:1022800040184F90012002404EA91F980DF0BBFE50
:102290002E46F8E461B0F0BDFFFF1000F0B503AFCB
:1022A000D5B00191036842688568C46821460A92E6
:1022B00051402A465A400A430B9310940F9501D07F
:1022C000064600E08A4E417D0D91046931A83146F1
:1022D0000EF09EF832687068B368F1681646529046
:1022E00051921193D21A121854920D1AA8195390A0
:1022F00012A851A90EF08CF80B980F99081AC11763
:102300004840411A0A98109A101AC2175040801A71
:10231000884200DC0846002C01D102210D91119A5F
:1023200074498C4200D30C46401C0E90640012ABE2
:10233000743338A86030089001201090C00702D094
:1023400064430020FAE7961B1098C00702D076433A
:102350000020FAE71098C00702D06D430020FAE78A
:102360003598079036980690329804901598059005
:10237000149803903198029038A80C9031A91C222F
:1023800011920F930EF02FFB0C981C3012A9119A8A
:102390000EF029FB01201190089B987000200990F5
:1023A0001870029840420399484004994942059A9E
:1023B00051400143484248415870A819444347944A
:1023C000079806994018C10F401840104690099D83
:1023D0004F954E950A9E4D960B9C4C944B954A9565
:1023E0004996489451A80C992A460EF039F816954A
:1023F0000E98159014951396129412A81430642216
:102400000E900C990EF097FE2B460F9A0D991171B4
:1024100028460D91C9B2022967D000282FD12598EE
:102420001099C90702D040430021FAE72699884253
:102430005BDC927831A80E990EF012F83198C10742
:1024400001D1442100E0402112AA5158259A511887
:102450002591349B339E329C0F9A1178002905D127
:1024600091781D46119B59402B46917014931396F9
:102470001294119908401599081A1690CDE7401E3C
:1024800016901D998B4206DD1C995B1A1A997118DA
:10249000199AA51801E0314625461A46189B5E1880
:1024A0001396179B5C1912941B9BD31814937F2DC2
:1024B00018D8402916D209930B9407240C40119B7D
:1024C000A34038240C40210129430D9AD20703D0A0
:1024D000019C625C1A4302E0019C625C9A43625474
:1024E0000B9C099B0F9A117993E755B0F0BDC0463C
:1024F000541A0108FFFFFF7FF0B503AF9DB00D46F2
:102500000646847D002C08D0012C0CD13069401C7B
:1025100001D30020C043400806E030693F498842AB
:1025200002D3084600E00020424205A831460EF0E2
:102530009EF8327D022A05D00120024005A92846D6
:102540000DF061FD707D022865D03169002962D0EF
:10255000002C03910495029008D0022C05D12F483D
:1025600081420C4602D3044600E04C0809A83146DB
:1025700022460EF07CF80B9C0F940A9E0E96099B47
:102580000D930C984508039AAA4200D81546109559
:1025900013941193411B914200D31146009401936F
:1025A0001491401A00D20020801912900120029C40
:1025B00004400DA90296049E304622460DF023FDEC
:1025C00011A93046264622460DF01DFD0898002828
:1025D00021D01890029969181691039A5300009C13
:1025E000621C9A4200D31A4652081792019B159317
:1025F0001C901B921A91A01A049C00D20020C018B3
:10260000199015A9204632460DF0FDFC19A9204667
:1026100032460DF0F8FC1DB0F0BDC046FFFFFF7F55
:10262000F0B503AF904EB544904868442990904867
:1026300068444A908F48684472908F4A6A448F4831
:1026400068445C900B206190C0048D4B5969014334
:1026500059613F20689000038A4B19688143152017
:102660005B9000030818186001207B9000027890AE
:10267000C0309861844B1868844908401860D86855
:102680000840552109064018D8608149086830245F
:10269000A0430860C86810237A931843202330931E
:1026A0009843C8607B4868443A3062907A496944EC
:1026B000084640306D908C316691784868442830E7
:1026C000579075486844403080907548002802D083
:1026D00000BF401EFAE76E927D20769000017D904B
:1026E00000252E46052D0ED00BF0FCFD7D9900290E
:1026F00002D000BF491EFAE7C0434221084200D180
:10270000761C6D1CEEE7032E01DB0BF04FFE7B9970
:102710000A045B4B18687E92104318604A04614EAD
:10272000314608461968114202D1411C0028F8D1EF
:102730006592002829D05C481121016058685B4AE5
:1027400002400804101858605048401C19680143A2
:10275000196030461968890103D4411C00280846D5
:10276000F8D15868022101437B9881435960304673
:1027700059680C220A40082A03D0411C0028084648
:10278000F6D1186B802101431963494801683F4A1B
:10279000114003226A929207891801604548464910
:1027A00041600025856007215D9101607B98810271
:1027B00081A80EF0C9F81F208004314A51690143F5
:1027C00051613E4A10683E4908403E494018106039
:1027D0003D4B18683D4908403D4940185E3018603F
:1027E000294A10683B4901403B48081810602849B5
:1027F000086840221292104380227392904308602E
:10280000364821498861364898613648401C9861AD
:102810007898F430002802D000BF401EFAE77A987A
:10282000294988617898F430002802D000BF401E02
:10283000FAE77B9BD8043290234988611F4A50698C
:10284000E22101431D200C908143516173980E4990
:10285000886100BFD805719088612348014600292E
:1028600044D000BF491EFAE7B4E3FFFF101C00008C
:10287000901B00006C110000D41000003406000012
:102880000010024000080048000C0048FFFFFF0055
:10289000001400480406000044060000781B0000F5
:1028A000409C00006079FEFF00200240FCFFC0FF5A
:1028B00020ED00E010E000E07FBB000000100048C9
:1028C0000000FFFF55550000000400483FF0FFFFE7
:1028D000E2040000CF3FFFFF104000008000040032
:1028E00018002000FFFF0F0010270000329BE24974
:1028F0008B61E2494969AE227F9211435122914393
:10290000DE4A5161DE49739A8A6100BF719A8A6119
:10291000D9498B61D94B5969A4220A435B218A4367
:102920005A617399D64A916100BF719B9361329944
:10293000D14A9161D1494969A3220A435C212A9174
:102940008A43CE494A617399CD4A916100BF936130
:102950003299C94A9161C94B5969C02255921143B4
:10296000689A91435961739BC54A936100BF7199FD
:1029700091613299C04A9161C0494969A1220A43D3
:102980005E218A43BD494A61BD498B6100BF719A8E
:102990008A61B949329B8B61B84949692F226C928F
:1029A0001143D02233929143B44A51617399B44A8E
:1029B000916100BF71999161AF498B61AF4B5969CA
:1029C000232241921143DC2291435961AC49739B0C
:1029D0008B6100BF719B8B61A749329A8A61A749BD
:1029E000496981224B9211437E229143A34A51614E
:1029F0007399A34A916100BF93619F49329B8B6198
:102A00009E4B596925220A43DA218A435A619C491F
:102A1000739B8B6100BF719A8A619749329A8A6170
:102A200096494969129A1143BF229143934A5161D1
:102A3000934A936100BF71999161329B8E498B617A
:102A40008E494969B0220A434F218A438B494A6122
:102A50008B49739A8A6100BF719A8A6186498B613A
:102A6000864B5969042224921143FB2291435961F8
:102A70008349739B8B6100BF719B8B6132997E4A46
:102A800091617E4949697A9A1143EF2291437B4AC9
:102A9000516173997A4A916100BF93613299764A84
:102AA000916176494969AF2254921143502258925C
:102AB0009143724A51617399714A916100BF936168
:102AC000002802D000BF401EFAE76E4AD0690221FA
:102AD0000143D1616A9880046B4A1168814332983E
:102AE00001431160506AF02188435062674B6C9833
:102AF0009862C5205E9080006790D330D8621864D9
:102B00000D210A91C902D9617B990A03196A799248
:102B1000114319627B9959614B99196008225C49EC
:102B200009928A611864574A50695A4901435161B0
:102B30007B984002916901439161FF210A020920BB
:102B40002790C306186836921043239108431860F3
:102B5000D868514908406393D860474801680F22FC
:102B600011430160C1687C929143C160464A11687B
:102B70006A9801431160D1688143D1607B98C20794
:102B800046490A61086088600A68D20703D1721C4E
:102B9000002E1646F8D17D9A2F328A625D9A4A61DC
:102BA0007B98C8603E4A95600B46403313613D4BAD
:102BB00018335361619BD3603B4890608E68249BBF
:102BC0001E438E60394E13689B0703D4731C002E7E
:102BD0001E46F8D14C263648622E06D0314B9B1942
:102BE000343B1B888353B61CF6E77C985060182052
:102BF0002F90086095606198D0602B48906088683D
:102C0000249A104388602B48016840682A4E2B4A5A
:102C1000914263D1C01E022860D2294868444230E4
:102C20003E210EF0DFFB7898809908805C9A254D54
:102C30001563254C5463254C94632548D06325497E
:102C4000116456649164D664234E04211B4B1361B6
:102C500051617E999161D6611462506295621A4801
:102C6000D0620020802800D193E012490958144A0C
:102C70006A441150001DF5E70004004800100048A8
:102C8000000C00480010024000080048000400400A
:102C90000014004801000E000000FFFF0024014066
:102CA00000000240080B002081250000C0F2FCFF5C
:102CB0007006002000F001089E0F0000594B53469B
:102CC00044060000D40100082C0E00007A01000820
:102CD000860E0000620000080A2C2500EB480168FF
:102CE000779140687C90EA4E6E44304642303E21F7
:102CF0000EF078FB7898809908805C99E548086325
:102D0000E5484863E5488863E54ACA63E54A0A64DA
:102D1000E54B4B648A64CB64E44B0B61249A4A61B3
:102D20007E9A8A61E24ACA610862DD484862D948EF
:102D30008862D948C862779898427C9B29D1581EEE
:102D4000012826D81036202D08D0D0484019C16857
:102D500071517119006948600835F4E7CB4A402C7D
:102D60000AD01019001F0068C949694408510819A0
:102D7000115941600834F2E7022B0AD1CD4801789D
:102D8000C34A6A445172417891728178D172C07895
:102D90001073BF4868440BF0A3FC002580952846BB
:102DA0002E46102D17D07E90C34C6C4420460AF05E
:102DB0004BFDC248431CE28861882088002B02D06A
:102DC00000BF5B1EFAE7809B9B18809376187E9964
:102DD00008186D1CE5E70309B948181884B23109D1
:102DE000E120599080007C906530B64A844201D23F
:102DF000B54C6381809B1B098C18A4B2844201D21C
:102E0000B14CE182991889B2814202D24620AE4982
:102E10000B5200205C99086148618861AB490C281D
:102E200005D0425C9A4B6B441A54401CF7E7984813
:102E30006844C17A8091817A7E91417A7491017A55
:102E40007591C179709181796F914179649101791E
:102E50006991C178609181785F91457804780BF031
:102E600041FA6B9027988004994A51690143516156
:102E70009069984901439161974A106880B29749D7
:102E80004018106068988006916801439160506A0C
:102E9000934908409349401850627998906192484C
:102EA000906192489061924A106830218843106086
:102EB000D0687A99084330998843D0608D4AC032EF
:102EC0008D4801681140789A114301608B48016870
:102ED000249A114301608260894E00213160679815
:102EE000306017225A9212020892726040303060AD
:102EF0006C98C04377902030B268D20704D0002885
:102F000002D0327B401CF7E7280200195F9A1204B6
:102F10008018609A12068018649A1202699BD2186F
:102F20006F9B1B04D218709B1B06D21842407498EA
:102F30000002759BC0187E9B1B04C018809B1B065B
:102F4000C01850407090584862306B9A44900240CC
:102F50004D927B9800077E906A4D052900D1D5E0FF
:102F60000A462846B168090603D5411C00280846D0
:102F7000F8D159487E99816100BF00BF2846B168E9
:102F8000090603D5411C00280846F8D17592284649
:102F9000B168890703D4411C00280846F8D1A02451
:102FA00034732846B168C90703D1411C002808467C
:102FB000F8D1307B2846B168090603D5411C0028AA
:102FC0000846F8D100BF00BF43487999816100BF2E
:102FD00000BF7D98002802D000BF401EFAE7002005
:102FE00001460BF0C1FD7698C001002802D000BF59
:102FF000401EFAE70B2019210BF0B6FD0C20012131
:103000000BF0B2FD34483849816110200BF046FDC9
:103010003D4948712946B268120603D54A1C002969
:103020001146F8D12C497E9A8A6100BF00BF29461B
:10303000B268120603D54A1C00291146F8D1294668
:10304000B268920703D44A1C00291146F8D13473A0
:103050002946B268D20703D14A1C00291146F8D18B
:10306000317B2946759BB268120603D54A1C00299C
:103070001146F8D100BF00BF1749799A8A6100BF95
:1030800000BF591CC0B29E2841D066E700F8010875
:1030900044060000D40100082C0E00007A0100084C
:1030A000860E0000620000089E0F0000594B534638
:1030B0000A2C25003CF8010878110000B70B00002D
:1030C00024FAFFFF24FA000070060020ACF7FF1F6F
:1030D000001002400110020000100048000055A935
:1030E000FFFF0F00000010110003000300040008A0
:1030F000000400483FF0FFFF080001400C040140BD
:1031000000300140F0D8FFFF080B002005232846BF
:10311000B168090603D5411C00280846F8D1DB48F0
:103120007E99816100BF00BF2846B168090603D5BA
:10313000411C00280846F8D12846B168890703D405
:10314000411C00280846F8D106200F90307328460D
:10315000B168C90703D1411C00280846F8D1307B6B
:103160002846B168090603D5411C00280846F8D155
:103170002846B168890703D4411C00280846F8D1C5
:103180005420079030732846B168C90703D1411C09
:1031900000280846F8D1307B2846B168090603D5D7
:1031A000411C00280846F8D12846B168890703D495
:1031B000411C00280846F8D1752030732846B168B4
:1031C000C90703D1411C00280846F8D1307B2846A6
:1031D000B168090603D5411C00280846F8D12846E5
:1031E000B168890703D4411C00280846F8D15E98CD
:1031F00030732846B168C90703D1411C002808462E
:10320000F8D1307B2846B168090603D5411C002857
:103210000846F8D12846B168890703D4411C002824
:103220000846F8D12A20409030732846B168C90773
:1032300003D1411C00280846F8D17593307B2846FD
:10324000B168090603D5411C00280846F8D100BF23
:1032500000BF8E487999816100BF00BF0024322CE5
:1032600008D08B48015DFF2902D020460BF07CFC82
:10327000641CF4E72846B168090603D5411C002800
:103280000846F8D181487E99816100BF00BF284679
:10329000B168090603D5411C00280846F8D1284624
:1032A000B168890703D4411C00280846F8D1A02042
:1032B00030732846B168C90703D1411C002808466D
:1032C000F8D1307B2846B168090603D5411C002897
:1032D0000846F8D100BF00BF6C487999816100BFF2
:1032E00000BF022001216F910BF03EFC2C46022012
:1032F0000BF0D4FBC00703D0601C002C0446F6D1B1
:1033000024201321634C3F905291A04726203B215B
:103310003D902691A0470F2000218091A0470220D8
:103320000146A0472C4602200BF0B8FB800703D5CE
:10333000601C002C0446F6D10F20A02164907A91E5
:103340000BF012FC022001460BF00EFC2C46022072
:103350007B900BF0A3FB800703D5601C002C044678
:10336000F5D125200A213C905F910BF0FDFB4A48E6
:10337000464988611F2017900BF0EEFB2846B16884
:10338000090603D5411C00280846F8D13F487E991C
:10339000816100BF00BF2846B168090603D5411C02
:1033A00000280846F8D12846B168890703D4411C93
:1033B00000280846F8D17A9830732846B168C907C2
:1033C00003D1411C00280846F8D1307BB0680006C4
:1033D00003D5681C002D0546F8D100BF00BF2B485F
:1033E0007999816100BF00BF10202D900BF056FB32
:1033F00001462A48539141717298809AC2600261D5
:1034000042618261709B190E749114466000A1079D
:10341000C90F0818749940186A99084029216991C0
:103420004843401C7A900F2C40D8521CC82A01D81F
:10343000052600E003267898F4308242809200D975
:10344000012617484343174818187E90E040292169
:103450000EF092F87A980818C1B2002294420DD06A
:10346000114B6B449B5CCB1ADD176B405B1BDBB2D3
:10347000521C9E42F2D9809A7E9BD4E70A49694445
:103480000855641C809A7E9BC0E7C0460010004827
:10349000B422010869EB000800010003080B0020BA
:1034A0000D6619005FF36E3C78110000D848016882
:1034B0004068D84A914211D1C01E02280ED2D44889
:1034C000007A132800D31320C001D149081873993A
:1034D0004358581E0121C943884212D3779B2F338A
:1034E000CD480168406891420BD1401E02286F9878
:1034F00007D2C043C8498B68591E814201D3779BCC
:103500002F330020C54A1C2804D0C54969440A52FB
:10351000801CF8E7C3486844C34C214680936CC8BC
:103520006CC170982061809D656120461830BC494F
:1035300069441C2260920DF056FA20463430112165
:103540002E910DF001FA4921002056916054691C1A
:103550004A1E914148220592A15446217E91605213
:1035600045227B990692A154B049086088606C9A04
:103570008A62799AF73ACA6208616F9ACA60239A96
:103580001304AB4A14689C43719B1C431460A94C00
:10359000FF34136923406F9CE40323431361A64B5C
:1035A0002833A64A13606F9D0D607599052900D3D5
:1035B00005465398C0B29E384142414114914D98FE
:1035C000002802D06F980AF0E7F814982843149066
:1035D0000020302808D09249694400220A52091874
:1035E0008A804A80801DF4E70120629D28717090D6
:1035F000E8709348684400260687014630318E7291
:103600005C990E604E6086496944302275920DF0D7
:10361000EAF9AE706E708B4A5069659B1843506131
:103620007D9830309169014391616A9A1004639DDD
:103630002968814319432960686A7B9908430A997C
:103640008843686280496C988862682088610A6251
:103650004C647E486844314606F0CCF8714D6D44A8
:103660001424002C08D079496944802228460DF0A2
:1036700062FD641E8035F4E770990A026D988092AD
:1036800002805C98724D0563724B4363724C846395
:10369000724DC563724B0364724A42648364C264B0
:1036A0000A045C49016124994161799282616E4901
:1036B00002461C3232C2664981626649C162584C78
:1036C0006C44254642353E21284671910DF08AFE14
:1036D00020468030052125914A0252496944509084
:1036E0000DF029FD5998C0007A9049490868496849
:1036F000484A904212D1C81E01280FD86C915B989D
:10370000C001759000207599814200D1B0E0404918
:103710000958434A6A441150001DF4E71034739469
:103720003D480168749140687F906D988099018050
:103730005C984749016347494163474B8363474C62
:10374000C463474A0264474941648264C1643149A1
:1037500001612499416179998161434902461C3292
:103760001AC23B4981623B49C1623E2128460DF0A5
:1037700039FE509D142E0DD02A4C6C442046314603
:1037800006F038F88022284621460DF0D4FC80351A
:10379000761CEFE71F48749981427A9E7F9D00D086
:1037A000EBE1681E022800D3E7E17B98C1431A4889
:1037B0008068421E8A4201D8669908600020759B85
:1037C000739C202813D0144909180A69C96821502C
:1037D00021184A600830F4E70F49C858C918091F72
:1037E00009680F4A6A44D150D11848600833402B09
:1037F000F2D1022D00D0BCE11C480178084A6A448D
:103800005172417891728178D172C0781073B0E1B1
:1038100000F00108594B534600F80108DC05000090
:103820004406000078110000000000200044014020
:1038300004E400E00000FFFF1800200000E100E0C9
:103840000406000000100240002C0140781B00001C
:10385000D40100082C0E00007A010008860E00003A
:10386000620000089E0F00000A2C25003CF80108A9
:1038700004205C99FC4A0A614861FC486844407B2A
:10388000232801D33C2803D9F84868442C214173EC
:10389000F6486844007A132803D9F44868440021A4
:1038A0000172F2486844007B002801D00B2803D342
:1038B000EE4868440A210173EC486844807B0F2875
:1038C00001D3372803D9E948684425218173E748A3
:1038D0006844C07B032803D9E44868440021C173CD
:1038E0006D980078022802D300206D99087000209E
:1038F000DE4A6A44202829D0DD49C93118280B4600
:1039000001D0DC4BC833002800D019461218D74B21
:103910006B441B185E8A148AB4420BD2D34D6D449B
:103920002D18AD8AAE4205D2322C03D3D24C34349A
:10393000A54209D97A9CF8345C82631A1382CB4A77
:103940006A4412180C4394820830D1E777982030EB
:103950007A9EC6496944002825D009184031C34AD7
:103960006A4412184223D55A0B88AB420DD2BF4C81
:103970006C4424184426A45B7A9EA54205D2322BBF
:1039800003D3BD4B34339C420BD94232B74B6B440B
:103990001B184424B84D1D5362230B803146F83167
:1039A00011800830D5E70020B04E6E447990803009
:1039B0000246AE4969447598824200D1D5E07492BE
:1039C0008D187221695C022903D3294672310022C5
:1039D0000A707321695C042903D3294673310022DC
:1039E0000A707998401C739077992D3100292BD05B
:1039F0007218A520135C1E2B01D3652B03D3104630
:103A0000A53064230370A820135C1E2B01D3652B03
:103A100003D31046A8307E9B0370AB20145663205E
:103A2000C3439C4201DB652C03DB1046AB30002412
:103A300004707F9814569C4201DB652C02DBAE3289
:103A400000201070491CD1E7A97D052901D3002170
:103A5000A9757198295C042903D329463E310022B7
:103A60000A70689829566322D243914201DB642987
:103A700003DD29463F3100220A70698E7C9881421D
:103A800002D37E48814202D97C9964316986298FAC
:103A90006A6B0A430CD12946343135220823AB54D2
:103AA0000022AA877648A8637648E8865D98087061
:103AB000B421BE2906D0725C192A01D900207054A5
:103AC000491CF6E77798002822D033181A46F032BE
:103AD00014780E2C0BD8F1241C5D192C07D8F52472
:103AE0001C5D022C03D8F4241C5D0B2C0ED3F42493
:103AF000809000201853F22431462E4664251D5331
:103B000035460E46F124185510708098801DDAE76E
:103B1000E97D09290AD0052908D0002129845A48BD
:103B2000E8615A48688369760521E9752978491E54
:103B3000FE2915D3564828815648A8805648286043
:103B40007998401C8090C0B20A2421460DF07EFB7B
:103B500044433030A8718098001B30210143E97143
:103B6000803673987990749821E76C9803287A9E30
:103B700003D13E4868440AF03BFF3C486844807AE1
:103B8000411E8841629BD8706D984078411E024664
:103B90008A411A71002806D04048684440490422EE
:103BA00005F0B4FC03E03D48684405F033FD2F4DBB
:103BB0006D44E87B09F0ECFE00243A4884716D986E
:103BC000007841424141384A51700A994904374BC3
:103BD0005A690A435A616A998906354A12688A43C2
:103BE000709B99065118324A11603249002802D060
:103BF0000846C13000E058072D4988612E486844C6
:103C000044810481C4808480697A4A1E9141017391
:103C1000297A132900D35299C901509A51180A8A56
:103C200002804A8A4280C86809F0EEFD5C98C0694B
:103C30005F99484305F092FBA87B05F067FB0C2CCD
:103C400006D03046F8301D4969440853A41CF6E7F5
:103C50000020094B0C2835D019466131184A6A44B6
:103C60001152801CF6E7C046594B534644060000EB
:103C7000AF040000DC0500009E0F000034080000C7
:103C8000090A0000050600004B640000193200001C
:103C9000202000004C2000004D4F44450406000049
:103CA00026210108080B00207006002000100240A9
:103CB000000800483F1F0000C41000002811000049
:103CC000781100000024579804704A98846044607A
:103CD0000460ED4868448090EC4868440146809E4A
:103CE0002CCE2CC1229001460C31FE486844219113
:103CF0002CC82CC157984470FB494A98C160FB48B6
:103D0000684404776E9D2C606C60AC60EC60296147
:103D10006C61AC617C987C303B906B99014205D022
:103D2000EF486844F249694404F06EFA229818306A
:103D30002290E04349907A9E0C2C06D03046F83011
:103D4000EC4969440853A41CF6E7EB486844007A40
:103D50004F904B203590400159905798007800289B
:103D600000D09FE100257F957995FDF775FE809045
:103D7000DC4C6C4420460AF0E1FCF8360AF0B2FA5A
:103D8000304021786678749673910E43A3781E4371
:103D9000E27816430821645ED8498C4202DD00288F
:103DA00006D075E1002800D072E1002E00D16FE14D
:103DB00075946C936D92D24D284609F061FCC74C06
:103DC0006C44204609F0C0FC7298C0690090C54A56
:103DD0006A44809829462346044609F055FF79989D
:103DE000201A67990B3188422BD9629B18790028D9
:103DF00006D0BF4868440322C24905F087FB1FE094
:103E00000020987002211980B949694432220A873A
:103E1000589ACA86599AC8328A865C99BA4A0A6000
:103E2000D978012979940CD178997F31B74BD9622F
:103E3000559A5A635A6A8A4200D958624B98186058
:103E400079947F98211A212900D219E164206429EC
:103E500000D301466B90A648684405F087FB709C30
:103E6000A10281A865900CF06FFD032001029B4820
:103E700068447F910181092110226E9DA44B2B661D
:103E8000A44B6B66A44BAB66649BEB662A676967C1
:103E90006C656B99A965659C2146FDF7BFFE7F2186
:103EA00000206B9068656198A8656691E965286651
:103EB000709868669948A866884868442146FEF765
:103EC000EDF98E487599814216DD844868447F99E2
:103ED00001810221642201236B65AA658C4A2A664E
:103EE0008C4A6A668E4AAA665B9AEA6629675A997C
:103EF000696781A9FDF792FE002E00D194E0774812
:103F000068447F9901812221022464220123659360
:103F10006B657592AA657E4A2A667E4A6A66814A00
:103F2000AA66649AEA6663942C67696781A9FDF7BB
:103F300075FE7D48E86228636863A863739800286B
:103F40006B9D0ED0794C6C440021042520462A46F6
:103F50000BF0D6FF764A2B460CF089F82020207112
:103F60000525749800280ED02C1D704E6E443046E6
:103F7000294622460BF0C4FF04236E4A0CF077F862
:103F8000202030556D1D6C9800280ED02C1D674EDA
:103F90006E443046294622460BF0B2FF0423664A9F
:103FA0000CF065F8202030556D1D6D9800280DD05F
:103FB0000D2D0BD22C1D5D486844294622460BF07E
:103FC0009FFF04235D4A0CF052F800E02C4657484E
:103FD000684421460BF044FF02460B463F486844C4
:103FE00011461A460CF006F96E9D6C6DA96DEA6DCE
:103FF0003A4868447F9B0381454B2B66454B6B6673
:104000002C23639E2E676B670E23002C00D1134672
:10401000EB664B4A00D10A46AA66659969657599AF
:10402000A96581A9FDF7FAFD37206B996965A86537
:104030006699E9652866709E6E663848A8662748C6
:10404000684481AC2146FEF729F9244868447F99E9
:10405000018102213B4A2A662E4A6A663A4AAA66CA
:10406000609AEA6629677199696764216E65A96536
:104070002146FDF7D3FD204605F08EF980987F900C
:104080006F9D7A9E71E6C04628110000781B0000E3
:10409000E80706D02D49643115486844282205F008
:1040A000C3FA6E9D214868440AF048FB12486844F0
:1040B000007A132800D31320C001509908187421E6
:1040C0004791405C411EC9B2EA6A0A2963923FD215
:1040D000164969440AF062FC3BE0C0462811000022
:1040E000781B000078110000FFFF0000D4100000D2
:1040F00004060000F4100000440600007CFCFFFFF2
:104100009C1F01085621010850003200002C01407C
:104110000C1E010802020102B81F01080201010081
:10412000C71F0108DC1F010820202020001100000B
:1041300064160108EC1601085416010898160108C7
:10414000EB1F0108641F0108F91F01083408000073
:10415000002023994E904D9A501E82414D92FA486C
:10416000401C4690F948684420301B90F848684449
:10417000C01D2890F6486844C01D1E90F44868444D
:10418000C01D0E90F2486844C01D1A90F048684463
:1041900010300B90EF486844801C3190EE48684422
:1041A00012303990ED486844801D3A909031379133
:1041B00054980001489000206421E94A16903E91ED
:1041C00013912090499911911C901D922B905A9017
:1041D0006D904C904590429043903890349066900A
:1041E000669E6D9858905A9CFDF736FC0546DA4855
:1041F00068440AF0A3FA6D95281B642800D33E9802
:1042000060900AF06FF805466D98A0425A9455D018
:10421000F6486844609905F0A9F9D0486844808858
:1042200000280DD060998BB2C21ACC4969449842DB
:1042300000D2349A8A8003D8C84868440021C172E9
:10424000E8434221084232D0280630D0C3486844AF
:10425000807AE9B2884200D0D5E0609880B2BF4A47
:104260006A44D1880918E24B994200D3E049D180D1
:10427000379A323A92B291426D995A911ED9B74902
:1042800069440A891018DA4A904200D3D848088154
:104290005A286D985A9011D3B04868440021018182
:1042A000002D01D101F0E7FA68422840BEE000206D
:1042B0003A990871488008806D985A90FB48684484
:1042C0000188A54A6A44508A411ACB175940CB1A33
:1042D000918A1F2B6B957F9603D39F4A6A44D28A9B
:1042E0002EE0F74A6A4452888A1AD3175A40D31AE2
:1042F000994A6A44D28A1E2B22D8F14B6B449B8880
:10430000D31ADD176B405B1B1E2B19D8EC4B6B448B
:10431000DB88914D6D442D8BEB1ADD176B405B1BD9
:104320001E2B0DD8E64B6B441B898B4D6D44ED8BDA
:10433000EB1ADD176B405B1B282B01D801F0E1F96C
:104340006F9E3346DE4D6D44AA80698028806E9949
:10435000C86EE880486F68817F496944C88B2881AE
:10436000639DE8B20A7882423046324613D1280A69
:104370004A78C0B282426F9A10460CD1280C8978D4
:10438000C0B28142104606D1280E73496944C978EB
:10439000081A411E88416B990904114600D119463B
:1043A000002911466E9A00D10146C6486844C07A79
:1043B000536D0029639313D0401EC0B2002103281F
:1043C0004C9102D28000C049095846910A215C985C
:1043D000C069484304F0C2FF4C9845906F9A53E07F
:1043E000002809D06D98A0426F9A4DD046996098E8
:1043F000814222D9091A26E06D98A0426F9A43D0D3
:104400006298469920E029468143080601D101F0CF
:1044100086F95248684400220281C28085720029D0
:10442000309801D101F028FA48420840A749484392
:10443000C00EA7A1085C01F01FFAAD483299816156
:104440000021AC4801646298459E609C34190025A7
:10445000B44200D2EC434691A7498C4213D93A4961
:104460004C9E8E420CD90079002801D101F05FF9F1
:104470005E4868440222A14905F048F801F05DF960
:10448000609886194C96459457980078411E88414B
:104490009B496944097E0029669200D1669089484B
:1044A0006844057A132D284600D313200126C10144
:1044B00080915098411847986C910C5C601E4F9900
:1044C000C9B28D420AD17F9A724066990A43D107D8
:1044D00004D0C0B20A286E9D0BD34BE0C0B20928AD
:1044E0001AD81D49694420460AF058FA4E904F9553
:1044F0006E9D1949694420460AF050FA4E9B1A46AF
:104500004240D107014600D11946D243669B1A4367
:10451000D20706D04E912DE000204E904F956E9D13
:1045200028E0002805D03148684404F0BFFF6F98A8
:104530001FE062980079002814D02C4868440222B9
:10454000704904F0E3FF13E02F750000781B0000B2
:1045500078110000081C000028110000C4100000A1
:10456000581B00002148684450227A9905F05CF8F5
:1045700000204E90E86D7C990918643188B2C00B18
:10458000081800B24010769AD200904200D310462C
:1045900009B2499A91426C9C00DA0020227E511E99
:1045A0008A41E17D2346193309F094FF83B24548DF
:1045B0006844427A54486844C189759181897491EC
:1045C0004589C188739180885490A07D401E03283E
:1045D000659655927F93799520D8400078448088DD
:1045E000400087440700D6020B00160004060000B6
:1045F000FFFF00006398000604D10FE063980002FB
:10460000000E0BD02D222C232B2027243C993D9DDE
:104610000AE03E48401C63998142F3D228202221BF
:10462000419D3F9C699B409A6C9EB25C5392325D67
:104630005292F25C5192755D325C715C5498344CCC
:10464000A047034673982946519A1D46A047234622
:10465000044679985299539A98472E4B6B4473901D
:10466000D8807F9949002C4A5118491C7F91998024
:1046700079945C802C461D802848684438215391E9
:104680000CF062F97198325C042A00D300226D9814
:104690005899401A5490809B900005A1085826B262
:1046A00073990CB279990DB273928746F410000099
:1046B00021470008BF4700082F4700086747000848
:1046C000F410000044060000A431010831B57C0755
:1046D00000011C021D0E18031E16140F19110408E8
:1046E0001F1B0D17151310071A0C12060B050A09CC
:1046F0000014004800040040BF2709006821010899
:10470000D41000004A21010828110000FFFFFF001B
:1047100071E80008F81B000017FCFFFF781100008B
:104720007298C66005617F994161846163E0729807
:104730007F994161C660291BF648814200DCF5493A
:104740007698C000814200DB0146729A916161193E
:10475000F04A914200DCEF498142739A00DB014646
:104760007298016147E035206C99085CEA49694418
:104770000191EA4969440091E9496944749A759B39
:104780000AF0BAF872990D617F9A4A618C61C10F83
:104790004018411034468A1BDE48824200DCDD4A64
:1047A0007698C000824200DB0246729B1A620919A9
:1047B000D84A914200DCD7498142809B16E072982A
:1047C0007F99416184613446A919D248814200DC55
:1047D000D0497698C000814200DB0146729A11618F
:1047E000291BCC4A914200DCCA498142739A00DB02
:1047F00001467298C160CB486844C0187F90002180
:10480000B424BE2C1FD04E1C0D1D0E2D18D27F9827
:10481000005D032A02D1052D7B9912D0BE4969445F
:1048200079910191BD4969440091BD496944749AE7
:10483000759B0AF061F8739A809BA900799D685076
:104840003146641CDDE73025B74EB6486844002D7C
:1048500074D0C018C0300478002C6CD00E2C6AD8EC
:10486000B0486844C018C421405CAC496944809396
:104870000AF094F8809B00285DD0AA486844C618C6
:10488000C120305CA44969440191A4496944009164
:10489000A3496944749A759B0AF02EF8C221715697
:1048A000484364210CF0FAFDC32171565F9A5143CD
:1048B00040185E99725C611EC9B2002A2AD0012A92
:1048C00011D0022A984E809B35D1924A904200DC4A
:1048D0009048769AD200904200DB104689008E4ABA
:1048E0006A44505027E089008B4E6E447F91715886
:1048F00048437699CC0021460CF0D0FD854988428A
:1049000000DC8448A042809B00DB20467F997050E9
:10491000854E10E08900804A6A44535818187D4B30
:10492000984200DC7B48769BDB0098427E4E00DBA1
:1049300018465050809B9B1DAD1F86E70020769D3A
:104940001C2805D079496944794A0A52801CF7E746
:10495000002076496944382814D06F4A6A441358B5
:10496000DA0F9A185210B218FA322C01A24200D370
:104970002246704CA34201DA7C9A64320A80891C78
:10498000001DE8E700246C486844015789004A9AF2
:10499000926F89182A460DB2D1008D4200DC0D4677
:1049A000769A12019542659E00DB15465F4B6B447B
:1049B0001D808557AD005E88AD192DB28D4200DC9B
:1049C0000D469542649E00DB15465D809D8880788B
:1049D00040B2559901290ED0022928D180004019F2
:1049E00005B27698C000854200DC05467698000145
:1049F000854225DA25E04F4949194A1C7699C900B4
:104A00008A1A00D200227C9B64339D4201D2679AAD
:104A1000D432424390000CF041FD45197C98854208
:104A200000DC7C9D454885420BDB444D09E07698CF
:104A3000C000854200D8054676980001854200D323
:104A400005463A48684485803B4969446A9A8956D4
:104A50008900C288891809B2769BDA00914200DC8D
:104A600011461A019142489D00DB1146C1806C98A5
:104A7000808A21461C290ED0224632400346D3406C
:104A8000DA0705D0294A6A44535AEB1AC8335352FD
:104A9000641C891CEEE72A486844244969441C22A6
:104AA0000BF0A1FF722080906C9E355C08F0FCFE3C
:104AB0000446012D4AD17320315C012220467F92A9
:104AC000504009F0A9FC002C6E9D7A9E01D000F0A8
:104AD0000EFC1C48C078012801D000F008FC1948E1
:104AE00000696D99081A0A2800D2DFE015486D990F
:104AF00001610E496944162088701348088000201F
:104B0000487620284BD07C995C31034A6A44115284
:104B1000801CF6E718FCFFFF781100002811000048
:104B2000F81B000044060000E2040000081C00001E
:104B3000DC05000017FCFFFFC41000003408000073
:104B400050110000080B0020EE1800000020014664
:104B500009F062FC204608F0A3FD002C6E9D7A9EB1
:104B600003D1EB48684408F08BFDEA48684408F03C
:104B7000EBFDEFF3108072B64721FD4A515C569B66
:104B8000D25C80F31088921E501E82410A407992B6
:104B9000C0E336986399014200D033E53EE5002436
:104BA0001C2C18D0F1486844005BF721890088422A
:104BB00000D80846EF49884200D3EE48C000EE49CD
:104BC000401800B205210CF069FCAC30EB49694497
:104BD0000853A41CE4E7EA4C6C447298C568E5707D
:104BE000E648684483889908A17142895108A172F6
:104BF000C1897991CE0866732D0A4688F100294350
:104C0000217171099D010D436571990AC3885D0089
:104C10000D43E571729E71690D01DB092B4323720F
:104C20000909D3010B436372B1698B00520A1A431D
:104C3000E2728909799A52010A432273F569A573D0
:104C4000838A99086174428B51086175C18B79918F
:104C5000CE0826762D0A468AF1002943E1737109B0
:104C60009D010D4325746E9D990AC08A43000B4334
:104C7000A374C009729E716A0B010343E3740809AF
:104C8000D10101432175500AB16A8A000243A2751D
:104C90008809799949010143E175172131980AF092
:104CA00045FC60761A2120460AF072FB0026B54AC0
:104CB0001068010701D508215160800600D4C5E2C3
:104CC0009068C0B2B0494D69002D09D0012D11D1B5
:104CD000811E3D2900D385E0AC494870022382E063
:104CE000C82803D0EE2801D0EA287ED1A749087051
:104CF000012378E0A5494C78A11C00238D4272D293
:104D00003F2D01D903F0EDF9A04A5055681C9E4A89
:104D100050619C4A884268D179939C480BF0B2F864
:104D20006C918D4201D303F0E4F9415D759173906C
:104D30002146841C7491491E20460AF0F7FBC0B23C
:104D40007599814200D073E27594217808298E48C4
:104D50008C4A799B09D02E294DD0292900D183E096
:104D60002B29749C50D014293ED10D466C990329EF
:104D70003AD073984478A01C884234D8022C32D39D
:104D80007398001940787490611E75980AF0CEFBF4
:104D9000C0B27499814200D04AE2082D7A4800D10D
:104DA00043E1142D00D044E20B2C764A799B1BD9A9
:104DB0003030739B5979017499794174D979817430
:104DC000197AC174D9784942817319794942C173FA
:104DD000587A401EC0B2072800D92DE240006C4925
:104DE000085A2AE2002368484361761C412E6E9DD2
:104DF00000D05DE72AE245200121634A1154614A4F
:104E000061486D994163EFE7022D01D103F05BF931
:104E1000072CE9D3739988796C9048797590C91CEF
:104E2000A21E042528460AF0B9FE02460C467698D2
:104E300083000329574900D2A7E1C858082800D3A6
:104E4000A3E1529550787F2101401F9111780225EE
:104E5000199155927394AC4200D19FE0505D0028A7
:104E600000D19CE06D1CF6E7022D749C01D103F08B
:104E70002AF9052CB8D3739AD01C5590A51E7F2013
:104E80008300107943496C93C8542B46201F551D4D
:104E90000021884204D06A5C002A03D0491CF8E74C
:104EA000184600E0881C7590841E3A4900D2002400
:104EB00079931422142C00D31446649840010918E5
:104EC00020460AF062FEA21C799B9A4201D903F0A7
:104ED000FFF82A461D4623460BF0C9F8239A1046D0
:104EE000FE302C4B1C5475990D31A94214D25598A3
:104EF000405C5100585400287698194611D1800022
:104F000000230B50012040020A46042111542AE0DC
:104F1000501100006C11000050000A2119547698BD
:104F2000194600241C4BCC5480000C500120799071
:104F300040020D461146043129526898C0006D990F
:104F4000295009211E980CF04DFA6C98285C0B4DE5
:104F50006D44799922462B460AF0BFFA082128466B
:104F60000AF016FA23460848064A3DE750110000A9
:104F700000000020DC070000C0E0FFFF7811000007
:104F8000081C00001C440040080B0020F006002014
:104F9000641A0108FC080020FF01000025460020DB
:104FA0004A998866C86608674867AC1E00D20446FE
:104FB0007493102C00D31024EF48684421460AF063
:104FC000A9FFA21C739B9A4201D903F081F8559A5C
:104FD000921C189423460BF04AF8E84868442421B0
:104FE00015910BF0B1FC6D1C739CA54216D20022EA
:104FF0001F990D29E248759B3AD009292C923BD183
:105000007F9A10955599A54239D2485D3B2802D028
:10501000002835D000E0521C6D1CF4E70020044647
:105020002C905190D648759B52E0092C00D800E195
:1050300003463030739A917A0175D0790004117A61
:1050400009020818517A40181863D07811790902BA
:10505000081800BA000C64214843588750799279A7
:105060001202101800BA000C48439887C54AE6E0BF
:1050700014465192559929E01446519228E025464C
:105080000D921098281A2428159A00D31046519092
:10509000BA4969440AF079FD519B159010981A1885
:1050A000A24201D903F021F8559C221815980AF064
:1050B000DEFF0D98C0B2411E02468A412146841A85
:1050C0006D1C73988542AE48759B01D2495D2C9149
:1050D000054674982958092901D302F0FEFF7394FC
:1050E0003C2048432C183C3D002816D07022AA5C76
:1050F0003C383C359A42F7D153982C99295428468C
:1051000010309E49694424220BF06DFC3A205199DD
:10511000295439207399295434E0082932D096480B
:10512000684415909849694455911094159C2DCC6C
:105130002DC19249694424220B980BF054FC34256C
:10514000109C204655992A460BF04DFC00202699CC
:1051500060543A205199215439207399215453981D
:105160002C99215437201899215436201F99215405
:10517000352019992154759860558149749A885839
:10518000401C88507E49529D749B6C9800281CD00E
:105190007E4A885C441C8C540D4609211A980CF0F8
:1051A00021F97F208000285C774D6D447599224657
:1051B0002B460AF092F9082128460AF0E9F8689887
:1051C000C0006D996E4A115032E023984000085C8F
:1051D000759A824229D2C858082826D2002379938A
:1051E0006A480B54521C759269480A547F984002D1
:1051F0000C460321215409210E980CF0F3F87F206E
:105200008000205C604D6D447599799C22462B4648
:105210000AF063F9082128460AF0BAF8234668988C
:10522000C0006D99564A11509DE67F9840020D547A
:105230005848544A799BD7E50020564B188745209B
:10524000012119546D9858631846F3E74520514BD6
:10525000195C002908D0596B6D9A511A679AD4329B
:10526000914201D900211954012040024449085CAF
:1052700003287A9E19D0012839D16898C0000958AE
:105280006D9A511A789A2B32914230D93C496D9AD5
:105290000A5000207299C86008613B4C6C4420465B
:1052A0000AF008F9062120461FE06898C000095856
:1052B0006D9A511A789A5D32914218D9304D6D9994
:1052C000295033482C5C092128980CF08BF82F4882
:1052D0002A5C7F208000285C2B4D6D4421462B46A4
:1052E0000AF0FBF8082128466E9D0AF051F86F98E5
:1052F00008F0D6F9274B18463030417D264A6A44DB
:10530000D172007C9072588F1081002172980160D8
:1053100079914160686E009020496944204A6A444E
:105320001D4B6B446D9808F0AFFC6B984499084096
:10533000411E04468C4100280DD07999002933D0B4
:105340003046F8306B990840414241414D9808423F
:1053500009D06F986EE07999002925D03046F83051
:105360006B99014265D0002008F016FA0D48684498
:1053700004F050F94D945EE0F81B0000081C00009A
:10538000FC0800201C44004078110000FF010000D0
:1053900001020000080B00206C11000050110000F9
:1053A0002811000004060000F3496944097E579A59
:1053B0001278D2B20A430021002A659E19D1002832
:1053C000EE4B1BD0439A609812186F98429C01D301
:1053D0000021CA436799D43143928A42224600D3BE
:1053E0000246014600D32146C90715D042924D908E
:1053F00023E0429143914D94E04B1EE04298C00758
:1054000000210028439803D10021282800D3A1E1DE
:10541000439142914D9110E0044608F0BDF9D848FF
:1054200068449622599904F0FFF8D44B42944D9465
:1054300003E000204D90D14B659EEFF3108172B6D2
:1054400056981A5C324003D00020569C1855586973
:1054500081F31088002A34D0411E0122D2439142A8
:105460002FD2C8496944097A132900D31321C901ED
:10547000509A5118CA68824223D0C860C148684413
:1054800009F0B6FA0020629B987002211980BC498D
:10549000694432220A877E9ACA86599A8A865C991A
:1054A000F84A0A60D978F84B01290AD178999F31D6
:1054B000D962339A5A635A6A8A4200D958624B9821
:1054C0001860AD486844007E00283AD054982028DF
:1054D00000D8C5E0AA4868440390EE4868440290AA
:1054E00039980190EC4868440090A34C6C4481A921
:1054F000E34B6B4420466B9A04F0D4FCA07E00285A
:1055000009D0E64868449E49694402F07DFE9A4805
:1055100068440021817698486844C07E002801D103
:1055200002F096FD6F9808F037F99348684400211F
:10553000C176934868449622599904F075F802F0B0
:1055400087FD57980378002B32D05498202800D834
:1055500086E0609880B2142800D8142057994978C2
:105560003B9A6B9E164280907F9304D1CA0702D06B
:105570000021579A51704A9AD268C84B6B449E8456
:10558000C74B6B44188CC74C6C4458906081D88BC7
:105590005590208130462E46AD6EF66EE680DE8A4E
:1055A000A68065805B8A2380CD072AD1904329E0BD
:1055B0003B986B9901424CD0609880B2389989B27F
:1055C0000918B9488142084600D3B7480146B74890
:1055D000389181423FD9684C6C4426770021618222
:1055E0004998208229606960A960E9603891696101
:1055F000AE616348684404F00DF8207E00282AD08C
:1056000064E700207A99659E7F9BF83101403B9AC0
:1056100010406B90012B27D0022B31D1002926D1CD
:1056200077982430002800D1AEE09C4969440918DD
:105630000B8B9C4A6A44121892899A42144600D3F2
:105640001C460C838B8C9A4200D81A468A84801C94
:10565000E8E7002038905498202801D900F070FC29
:1056600058986D90FEF7BCFD002900D1E9E00020BC
:10567000579908704248684403F0CCFF02F0E8FCF8
:10568000B10281AD28460BF05FF96A9801027F9163
:105690008748684401811221729C864AA261864A29
:1056A000E261864A226261625F99A1622F99E1629A
:1056B00064217991E66021612946FCF7AFFA7C48C4
:1056C00068447F99018126210E227A4BA3617A4B8F
:1056D000E3617B4B23622D9B6362A262E162E66021
:1056E000799921612946FCF799FA6C486844C08C85
:1056F0008099884225D9401A68496944C88402F0D3
:10570000A7FC704B6B445B89654D6D442D8CEB1A87
:10571000DD176B405B1B282B18D8002317E05E4871
:10572000684400210181C1808572FEF7C5FD1448DF
:105730006844FA227A9903F077FF4C954594FEF776
:105740004DFE00205799087002F082FC01236F9EE5
:10575000FEF7F8FD5C496431094868441E2203F0F5
:1057600063FF064B2B99491C6A9801402B9100203E
:10577000439042903BE6C046D41000000000002059
:10578000040600004406000000212998416254915B
:105790004800424A6A4410184B1E032B1AD019467F
:1057A0000488058B2A1B0023A54200D21A4685894E
:1057B000641B00D21C46801C4B1CFA2CEDD392B209
:1057C000FA2AEAD3891C41486844C6545498401CBC
:1057D0005490DDE76B98002800D1A7E05498C0B240
:1057E000042800D03EE35C98394901612499416165
:1057F0002A4868442D99302900D13AE385890288E6
:10580000541B0023AA4200D21C46689D6C43A40985
:10581000141B00D21C4615042543194C6C446550DA
:10582000058BAD1A00D21D46689B5D43AB09D218AB
:105830001D4B9A4200D31C4A63185A600831801CE1
:10584000D9E76B98002800D16CE2164868441349E8
:105850006944024638CA38C12199024638CA38C15B
:1058600022991CC81CC14B984000579908801948C0
:105870006844322260E6202004A1085C400087448E
:105880004406000046003200002C01402B42363A0C
:1058900032464B3E50110000C4100000781B00003F
:1058A00028110000F81B0000FFFF0000AF040000FB
:1058B000781100000C1E010802020102DD2001081F
:1058C000841A0108F410000034080000341C0000A1
:1058D000594B534604060000B24868440121B24BBC
:1058E0006B440A461EE0AF486844032117E0AD4808
:1058F0006844022113E0AB48684402210AE0A94849
:105900006844042106E0A7486844012102E0A54854
:1059100068440321FF2203E0A248684404210122D5
:10592000A14B6B4402F018FCFEF7C6FCB10281AC3F
:1059300020460BF009F86A9801029C48684473916C
:1059400001810C21729D9A4AAA619A4AEA619A4A97
:105950002A622E9A6A62A9622799E9626421EE603E
:105960006C9129612146FCF759F97F210020609054
:10597000E8606198286153916961A8617098E86155
:105980008E482862894868442146FCF787FC29989C
:105990008B4942C08B49016046608B498160C6607B
:1059A0004A988A498167C6671325894B6B448948A1
:1059B00068447F90884868447990332D00D115E180
:1059C0007A486844739901813246729E7849B16180
:1059D000F56202216B91B162F2606C993161754997
:1059E000F1617E49694449190A460F3A12687262A8
:1059F00013390968316281A974917593FCF70EF926
:105A0000A91F80915F98F0603161689870615D981E
:105A1000B061709CF461694830626448684474996C
:105A2000FCF76AFD6998F06080993161706180953A
:105A3000B561F461614830625C4868447499FCF770
:105A40002DFC759B1D88188B461B00D2609E6449F7
:105A50000C466434809A2B2A204600D00846132A2C
:105A600000D0044698897495281A00D260981E25A3
:105A70006843844218D88099C91E729A9161709BBC
:105A8000D3614E4B1362116121460BF0DFFB1E28E0
:105A900000D328467299699A4A61101AC86043482F
:105AA000684481A9FCF7FAFBB0B21E256843844222
:105AB00018D88099C91E729A9161709BD3613F4B2F
:105AC0001362699BD360116121460BF0BFFB1E2856
:105AD00000D328462930729948613448684481A926
