:020000040800F2
:1000000000400020C10000087B1701088B2901086F
:1000100000000000000000000000000000000000E0
:100020000000000000000000000000007B17010835
:1000300000000000000000007B17010841050008D7
:100040007B1701087B1701087B1701087B17010844
:100050007B1701087B170108FD0000087B170108CA
:100060007B1701087B1701087B1701087B17010824
:100070007B1701087B1701087B1701087B17010814
:100080007B1701087B1701087B1701087B17010804
:100090007B170108550500087B1701087B1701082D
:1000A0007B1701087B1701087B1701087B170108E4
:1000B0007B1701087B1701087B170108DD0A000880
:1000C00011F05EFB084809490022814201D004C0BA
:1000D000FBE707480749084A814202D008CA08C01E
:1000E000FAE711F0AAF900DEF0060020500B00201C
:1000F00000000020F006002074460108F0B503AFB0
:1001000093B009AEE6484169490700D40AE20422E7
:1001100042614923E34DE95C022900D102E2016812
:10012000914301604524295D002900D19EE0012909
:1001300000D0F7E104960193089202200290059402
:1001400028550024204610F057FA01221103079188
:10015000039212078006D44ED44BD54D284600D5C5
:10016000AEE106920498401C049009A8252111F0E4
:10017000E2FD28463168090603D5411C00280846DF
:10018000F8D1CA4B069A1A6000BF00BF28463168F2
:10019000090603D5411C00280846F8D128463168D5
:1001A000890703D4411C00280846F8D1F02030719B
:1001B00028463168C90703D1411C00280846F8D1F8
:1001C000307928463168090603D5411C00280846C5
:1001D000F8D100BF00BF0798186000BF00BF2846D5
:1001E0003168090603D5411C00280846F8D11A6079
:1001F00000BF00BF28463168090603D5411C00280E
:100200000846F8D128463168890703D4411C0028E4
:100210000846F8D10598307128463168C90703D1DE
:10022000411C00280846F8D13079252C284630D0CA
:100230003168090603D5411C00280846F8D1284634
:100240003168890703D4411C00280846F8D10020F2
:10025000307128463168C90703D1411C002808467F
:10026000F8D1307909A90855641CDEE7089201220B
:100270002A5547216B5CAE49002B3BD0AE4B0B603F
:100280004323EC5C042C37D2032C00D0621CEA54CC
:1002900032E028463168090603D5411C002808468B
:1002A000F8D100BF00BF0798186000BF00BF47200B
:1002B0009D49095C09A8007800295AD009A9BC28E1
:1002C00000D0FBE0487A012800D0F7E0442000216C
:1002D000954C2154432008992154049A107951795E
:1002E0000902081891790904D279120651180818E0
:1002F0006061E3E0914A0A608C4A8E4B1C461568A7
:100300002D0603D5651C002C2C46F8D101242507A9
:100310000D6000BF00BF1D461668360603D56E1C73
:10032000002D3546F8D11D461668B60703D46E1C5D
:10033000002D3546F8D1C02515711D461668F60703
:1003400003D16E1C002D3546F8D1157915682D06A0
:1003500003D55D1C002B2B46F8D100BF00BF220344
:100360000A6000BF00BF089A426101681143016042
:10037000D8E0AA2802D0AC2800D09FE0049B1978CE
:100380005A78120251189A781204DB781B069A18D0
:10039000674B5118644A1269914200D08EE062495D
:1003A0004B695A1C022A01D30021039108931A0CAD
:1003B000531E5A425A4103990A4304990B794C79C6
:1003C0002402E3188C792404C97909060919CB1889
:1003D000591E029CE443A14208D8002A06D00121FC
:1003E000514A019C11555361514B06E00899591A25
:1003F0004B424B4113434E4B60D0482101244A4AA3
:100400005454AA2807D109A8407AFC2852D0FD28C4
:1004100001D1029A4FE03F2043490C5440200894F8
:1004200000240C52886B401C88631D2010F0E4F8F7
:10043000C0B2C000052112F001F908990902091A99
:10044000C8178143642900DB64213E20364A1154D9
:10045000374B21460A31212930D809A90A19117BC5
:10046000537B1B025918927AFE2A0ED0032A07D01A
:10047000002A2F4B11D10A224A432B498A870CE0CC
:100480000A224A4328498A8706E089B26422511A1F
:1004900000D20021244A1154254B241DD9E7C0461F
:1004A00000040140000000200830014018100048FE
:1004B000F0D8FFFF224646201B490A542846069AD8
:1004C0003168090603D5411C00280846F8D11A6096
:1004D00000BF00BF28463168090603D5411C00282B
:1004E0000846F8D128463168890703D4411C002802
:1004F0000846F8D1A020307128463168C90703D1D9
:10050000411C00280846F8D130793068000603D530
:10051000681C002D0546F8D100BF00BF0798186081
:1005200000BF00BF13B0F0BD000000200830014044
:1005300018100048F0D8FFFF00030003000200037A
:1005400080B500AF02480168491C016080BDC0460B
:10055000000B0020F0B503AF91B0CF480024046039
:10056000CE4D2878C00700D0A9E24920CC4E305C9F
:10057000022800D1A3E230461830CA4962311C2259
:1005800011F028FC4021705A401CC74A904200D309
:1005900010467052C54A11680423049399431160B0
:1005A000716B0591491C7163352801D30020F087D8
:1005B00006A8262111F0BFFB4720305C012815D189
:1005C00006AC012505222046294610F0BBFE326903
:1005D000109210AA042310F034FF00200290A072A1
:1005E0000598C00712D07320C04310E04220315C50
:1005F0004A1C0F231A4032541940705C03900F2993
:100600003DD02879002834D1A94933E00D2003904A
:100610004321A3480591405C0128019500D1A5E044
:1006200002280FD0032800D0B8E006AEBC203070FE
:1006300005210922304610F085FEFF2212F038F91C
:1006400075720CE006AEBC203070052109223046E0
:1006500010F078FEFF2212F02BF9029870720B2135
:100660001B22304610F06EFE8D4A102310F0E9FE7A
:10067000ADE09049904A116001214840287146251B
:10068000705D022800D1D7E0012837D1059506AD6D
:10069000AA202870012102910524884B2846224671
:1006A00098473269109210AA0426334610F0C9FE0A
:1006B000092228462146814B9847794A526910926F
:1006C00010AA334610F0BDFE0026AE730298A88132
:1006D0007B486881FD2068720F2125242846224628
:1006E000764B9847FF2212F0E3F82E556C48059997
:1006F00046547448A88274486882EFE0706B73496E
:1007000012F032F9002900D194E006AD582028708B
:10071000012105262846324610F014FEE94A1269E6
:10072000109210AA0423059310F08BFE092228468C
:100730003146E44D10F006FE6A69109210AA059B3E
:1007400010F07FFE1C2C70D02819008B7D21CA0070
:10075000904200D810460901884200D3084606A9F5
:1007600009194872000A8872A41CEBE72C4606ADF2
:10077000BB20287005210922284610F0E3FDFF2246
:1007800012F096F86C720B211B242846224610F0BA
:10079000D9FDCC4A102310F054FE1CE006AEBC205C
:1007A000307005210922304610F0CCFDC54A52694F
:1007B000109210AA042310F044FE022070720B2144
:1007C0001B22304610F0BEFDFF2212F071F880208F
:1007D0003077F5761D2406AD25262846214632467B
:1007E00010F0B0FDFF24224612F062F80298A855DE
:1007F000B44A0598105C042870D14420115C491C4F
:10080000FF2900D3214611540429019966D3029B84
:1008100013544620135242201152FF200230482127
:1008200050521F200FF046FF58E0252006A9002255
:100830000A5453E002207055059506AD56202870E5
:10084000012105262846324610F07CFD9D4A12699A
:10085000109210AA0424234610F0F3FD0922284622
:100860003146984D10F06EFD6A69109210AA234629
:1008700010F0E7FD0320C143182929D0002904D036
:1008800006AA5218FF23937302E006AA9073E82386
:100890005373891CF0E7C04610440140080B002048
:1008A0000000002070060020FFFF0000000401404F
:1008B000000400080008000418100048451301084F
:1008C000FF90000005DE000005DC000021060000AE
:1008D000002005996854252106AA50547C4C7D4D72
:1008E00028462168090603D5411C00280846F8D18E
:1008F00001200207754905920A6000BF00BF294622
:100900002268120603D54A1C00291146F8D129464F
:100910002268920703D44A1C00291146F8D1A0216D
:10092000217129462268D20703D14A1C00291146A9
:10093000F8D1217929462268120603D54A1C0029DC
:100940001146F8D100BF00BF060360490E6000BF2A
:1009500000BF6148086028462168090603D5411C8C
:1009600000280846F8D159480599016000BF00BF2A
:1009700028462168090603D5411C00280846F8D1FD
:1009800028462168890703D4411C00280846F8D16D
:10099000E020207128462168C90703D1411C0028A6
:1009A0000846F8D1207928462168090603D5411C5C
:1009B00000280846F8D128462168890703D4411C3D
:1009C00000280846F8D10520207128462168C9076B
:1009D00003D1411C00280846F8D10020217926289F
:1009E0001CD006A9095C2A4623681B0603D5531CA4
:1009F000002A1A46F8D12A4623689B0703D4531CC1
:100A0000002A1A46F8D1217129462268D20703D15B
:100A10004A1C00291146F8D1401CDFE7284621680E
:100A2000090603D5411C00280846F8D100BF00BFC5
:100A30002648066000BF00BF0F2003990FF042FE5A
:100A400028462168090603D5411C00280846F8D12C
:100A50001E480599016000BF00BF284621680906AD
:100A600003D5411C00280846F8D12846216889078B
:100A700003D4411C00280846F8D1D0202071284614
:100A80002168C90703D1411C00280846F8D1207904
:100A90002068000603D5681C002D0546F8D100BF6C
:100AA00000BF0A48066000BF00BF45200021054A7C
:100AB00011540549049A4A6108681043086011B04E
:100AC000F0BDC0460000002000040140181000489E
:100AD00008300140F0D8FFFF00010003F0B503AF7C
:100AE00085B021480088214988423BD00225224C0C
:100AF000204E002D36D01E488078C04678440079BC
:100B0000400087442F010E17207802282AD01C4865
:100B10000290019401A8012108F020F8002821D0BA
:100B20001EE03068401C1DD014480290019601A8B8
:100B300001210DE02078022814D03068401C11D02B
:100B40000E48049003960E480290019401A80221D9
:100B500008F004F8044600F0D9FE002C064C01D041
:100B60006D1EC6E705B0F0BD2C030020FFFF00009E
:100B7000080B00204C000020C0050020584101084F
:100B80001C410108F0B503AF87B005468068012815
:100B900047D106916C69E868A04246D22A69115C87
:100BA000491C1154AB69981C0226A0423AD8012175
:100BB000090205935918A14200D321460492234605
:100BC00011F02BF805292DD30246069B9879107059
:100BD000988802900391597A187A01920DF0E8FDF5
:100BE000029B190A019AD1709370C0B25070069896
:100BF000C0791071114605200690039A10F0C3F9D0
:100C00000598C11DA1420DD8A0420ED20723049A17
:100C10001354401CA04208D2069B1354A961FF261E
:100C200000E00726304607B0F0BD214610F090FDE9
:100C3000F0B503AF85B01C4603920E460546084644
:100C400008300EF0FDF90491B968029400940C4646
:100C500001918021039A0B4610F0ECF9C00702D0F5
:100C60002970FF2006E0F868E871A971AC80F436BD
:100C70002E600298287204990868401C086005B02C
:100C8000F0BDF0B503AF87B01C4605920E46054691
:100C9000084608300EF0D4F90691B968049400941F
:100CA0000391019100242146059A234610F0C2F9D0
:100CB000C00702D02970FF2006E0EC71A9710398EB
:100CC000A880F4362E600498287206990868401CA3
:100CD000086007B0F0BDD4D4B0B502AF86B004460A
:100CE000009101920748011D03AD0022062328460A
:100CF000FFF79EFF0F222046294607F021FE06B08F
:100D0000B0BDC04630070020F0B503AFF9B01446BF
:100D10000C910890052081010EAD284611F00BF8CA
:100D20000021082628460991324610F0F0FAFB4AC5
:100D3000334610F086FBA0B20D907D21CD002946F0
:100D400011F07CFC07950B904543651BA8B2642607
:100D5000314611F073FC04460A964643A81BC0B204
:100D60000A26314611F06AFCED490D9A8A421ED9D5
:100D700076AA2E2191703025284310712C43D4700F
:100D800014460B98C0B20A2111F0EEFD29436170A0
:100D9000E4490D9811F052FC2843207025460EA816
:100DA00008210D24224610F0B2FA052311E0DE4995
:100DB00076913021084376ADE8700C43AC700B9807
:100DC000303028700EA808210C24224610F09FFA1B
:100DD00004232A4610F035FB254608350EA8214687
:100DE0002A4610F094FAD14A082310F02AFB5EA894
:100DF000099901815F915E91FF203A3006900C982D
:100E00002246847A002C2CD00D950925002C11D077
:100E10000A2D01D300F064FD2046314611F00EFC8E
:100E200031464143611A30220A435EA94A556D1E7C
:100E30000446EBE7691C5EA810F02FFA04460D4645
:100E40000D996E1806980830864216D20EA83246C2
:100E500010F05DFA22462B4610F0F3FA079D344657
:100E60000DE009320EA82946144610F050FAB04A97
:100E7000012310F0E6FA079D04E00C46079D069852
:100E8000844209D2214608340EA8224610F03FFAC7
:100E9000A84A082310F0D5FA0B940C9804890594FD
:100EA0002046294611F0CAFB07904543651BA8B2AE
:100EB0000A9E314611F0C2FB04464643A81BC0B24D
:100EC0000A210D9111F0BAFB059A95498A4221D960
:100ED00076AD2E21A9703026304328713443EC7052
:100EE0009049104611F0AAFB304328700798C0B211
:100EF0000A2111F039FD314369700698C01C0B9925
:100F0000814221D24E1D0EA8324610F000FA76AA78
:100F1000052316E0844976913021084376AAD070E3
:100F20000C4394700798303010700698001D0B9990
:100F3000814209D20E1D0EA8324610F0E8F976AAB9
:100F4000042310F07EFA00E00E460698801C0790FD
:100F500086420AD2B21D0EA831460A9210F0D7F985
:100F6000754A062310F06DFA00E00A9661A8099907
:100F70000181629161910C980468002C0B9427D038
:100F80000926002C11D00A2E01D300F0A9FC20461E
:100F90000D9D294611F052FB4543611B30220A4347
:100FA00061A98A55761E0446EBE7711C61A810F012
:100FB00074F905460C460A99661806980830864268
:100FC00015D20EA8324610F0A2F92A4623460BE0AD
:100FD0000698C51D0A99A9421BD24E1C0EA832467E
:100FE00010F095F9524A012310F02BFA00E00E465A
:100FF000B51D06980830854209D20EA831462A460A
:1010000010F085F94D4A062310F01BFA00E0354632
:101010000B9C64A809990181659164910C984668BC
:10102000002E2CD00A95354609260C95002D11D09E
:101030000A2E01D300F054FC28460D9C214611F0E5
:10104000FDFA4443291B30220A4364A98A55761EBF
:101050000546EBE7711C64A810F01FF904460E4624
:101060000A99751806980830854217D20EA82A46A4
:1010700010F04DF92246334610F0E3F90FE00698E0
:10108000C01D85420DD229466D1C0EA82A4610F0BF
:101090003EF9274A012310F0D4F902E00D460B9CDB
:1010A0000C9EEA1D069808300A90824209D20EA8CA
:1010B00029460C9210F02BF9214A072310F0C1F9B0
:1010C00000E00C9567A8099D058168956795B44275
:1010D00015D9A51B0926002D34D00A2E01D300F006
:1010E00001FC28460D9C214611F0A8FA4443291B17
:1010F00030220A4367A98A55761E0546EBE7069813
:10110000C01D0C99814231D24A1C0EA8144610F021
:10111000FEF8074A012310F094F92BE0AA2B0108EE
:101120000F27000010270000302E3030222B01083E
:10113000102E0108722B0108112E0108172E01082C
:101140001D2E0108711C67A810F0A7F805460E4671
:101150000C9972180A9882420AD20EA8144610F00E
:10116000D6F82A46334610F06CF902E00C4601E04E
:101170000C46099DF848C17800292FD0014630312E
:1011800011228A560B920E228A560592428F038FA5
:101190000393006B00904E7DC87C0190887C049086
:1011A0000D7C214610340A988442029208D20EA87F
:1011B000224610F0ACF8F14A102310F042F9214613
:1011C000F0070DD00698001D814224D20E1D0EA8F6
:1011D000324610F09CF8EA4A04230CE02146EFE284
:1011E0000698C01C814216D24E1D0EA8324610F041
:1011F0008EF8E44A052310F024F9079886420CD2B1
:10120000B21D0EA83146079210F081F8DE4A06237F
:1012100010F017F902E0079100E007966AA8002194
:1012200001816B910C916A91002D25D00926002D2A
:1012300010D00A2E00D351E328460D9C214611F010
:10124000FDF94443291B30220A436AA98A55761EB8
:101250000546ECE7711C6AA810F01FF804460D461D
:1012600007996E180A98864215D20EA8324610F0D9
:101270004EF822462B460BE00698C01D0799814286
:1012800009D24E1C0EA8324610F041F8BF4A012385
:1012900010F0D7F800E00E46059C31460C310A9854
:1012A00081420AD20EA80A463146079210F02FF862
:1012B000B74A0C2310F0C5F800E00796002C2FD495
:1012C00076A80C99018177917691002C37D0092668
:1012D000002C10D00A2E00D300E320460D9D294695
:1012E00011F0ACF94543611B30220A4376A98A55B7
:1012F000761E0446ECE7711C76A80FF0CEFF04467C
:101300000E46079975180A98854254D20EA82A46A7
:101310000FF0FDFF2246334610F093F82E464BE0C7
:101320000698C01D0799814216D24A1C0EA8079242
:101330000FF0EDFF974A012310F083F80DE00698B7
:10134000C01D0799814236D24E1C0EA832460FF0BE
:10135000DEFF8E4A01232BE0079176A80C990181CC
:101360007791769164420925002C10D00A2D00D384
:10137000B4E220460D9E314611F060F94643A11BB0
:1013800030220A4376A94A556D1E0446ECE7691CD3
:1013900076A80FF082FF04460D4607996E180A984A
:1013A000864208D20EA832460FF0B1FF22462B46E5
:1013B00010F047F800E00E4635460A350A98854297
:1013C00009D20EA831462A460FF0A1FF724A0A231D
:1013D00010F037F800E035460B9C002C23D476A89B
:1013E0000C99018177917691002C2CD00B950925D1
:1013F000002C10D00A2D00D370E220460D9E3146FD
:1014000011F01CF94643A11B30220A4376A94A5524
:101410006D1E0446ECE7691C76A80FF03EFF0446FB
:101420000E460B993EE00698C01D854218D26A1CF4
:101430000EA8294607920FF06AFF564A012310F0C2
:1014400000F80B9C0DE00698C01D854238D2294655
:101450006D1C0EA82A460FF05AFF4C4A01232BE0C0
:10146000079576A80C9901817791769164420925B8
:10147000002C10D00A2D00D330E220460D9E3146BC
:1014800011F0DCF84643A11B30220A4376A94A55E5
:101490006D1E0446ECE7691C76A80FF0FEFE0446BC
:1014A0000E46079975180A98854208D20EA82A4652
:1014B0000FF02DFF224633460FF0C3FF00E00D462C
:1014C000EA1D0A98824209D20EA829460B920FF013
:1014D0001EFF324A07230FF0B4FF00E00B956DA802
:1014E0000C9901816E916D91049C002C25D00925E9
:1014F000002C10D00A2D00D3F0E120460D9E31467D
:1015000011F09CF84643A11B30220A436DA94A55AD
:101510006D1E0446ECE7691C6DA80FF0BEFE044684
:101520000E460B9975180A98854217D20EA82A46BE
:101530000FF0EDFE224633460BE00698C01D0B99D6
:1015400081420BD24D1C0EA82A460FF0E0FEE64A5F
:1015500001230FF076FF02E0080B00200D462A461B
:101560000A320A9882421BD20EA829460B920FF02B
:10157000CEFEDE4A0A230FF064FF12E0642E01085B
:10158000982A0108842E0108892E0108102E0108CE
:101590008F2E01089B2E01089C2E0108A62E010803
:1015A0000B95039870AA0C99118171917091002884
:1015B00024D0092500280FD00A2D00D38EE10D9EDE
:1015C0003146044611F03AF84643A11B30220A4343
:1015D00070A94A556D1EEDE7691C70A80FF05DFEFD
:1015E00004460E460B9975180A98854215D20EA826
:1015F0002A460FF08CFE224633460BE00698C01DAB
:101600000B99814209D24D1C0EA82A460FF07FFE8D
:10161000B54A01230FF015FF00E00D462C460C34AF
:101620000A98844209D20EA8294622460FF06FFE7E
:10163000AF4A0C230FF005FF00E02C4601980FF095
:101640001BF902460D190A9885420BD20E460EA8C8
:10165000214614462A460FF05AFE224633460FF022
:10166000F0FE00E025462A460F320A98824209D24F
:101670000EA829460B920FF04AFE9E4A0F230FF048
:10168000E0FE00E00B95029873AA0C991181749109
:101690007391002824D0092500280FD00A2D00D3EB
:1016A0001CE10D9E3146044610F0C8FF4643A11BC5
:1016B00030220A4373A94A556D1EEDE7691C73A8D1
:1016C0000FF0EBFD04460E460B9975180A988542FB
:1016D00015D20EA82A460FF01AFE224633460BE01A
:1016E0000698C01D0B99814209D24D1C0EA82A46AE
:1016F0000FF00DFE7C4A01230FF0A3FE00E00D4623
:1017000029460E310A9881420AD20EA80A46294675
:101710000B920FF0FCFD784A0E230FF092FE00E0D2
:101720000B9576A80C99018177917691009C002CFD
:1017300025D00925002C10D00A2D00D3CEE020465C
:101740000D9E314610F07AFF4643A11B30220A431A
:1017500076A94A556D1E0446ECE7691C76A80FF081
:101760009CFD04460E460B9975180A98854215D2C1
:101770000EA82A460FF0CBFD224633460BE0069812
:10178000C01D0B99814209D24D1C0EA82A460FF0AC
:10179000BEFD554A01230FF054FE00E00D466A1CC1
:1017A0000A9882420AD20EA8294614460FF0AFFDCD
:1017B000524A01230FF045FE214600E02946099DCB
:1017C000CC1D0A98844208D20EA822460FF09FFD35
:1017D0004B4A07230FF035FE00E00C460C951C2DFC
:1017E0005AD00898465B0C9800280DD0621C0A98C5
:1017F000824209D20EA821460B920FF088FD0123E8
:10180000404A0FF01EFE00E00B9476A800210181F3
:1018100077917691002E28D0079109950925002E01
:101820000FD00A2D51D230460D9C214610F006FFF4
:101830004443311B30220A4376A94A556D1E0646A1
:10184000EDE7691C76A80FF028FD05460E460B99BA
:1018500074180A98844216D20EA822460FF057FD3B
:101860002A4633460FF0EDFD0EE00B994C1C0A980A
:1018700084420BD20EA822460FF049FD01231A4ADA
:101880000FF0DFFD03E00C46099D00E00C460C98CC
:10189000401C0C90AD1CA2E7251D0A98854209D278
:1018A0000EA821462A460FF032FD174A04230FF0F6
:1018B000C8FD04E00698C21D94420BD825460EA828
:1018C000294600F011F979B0F0BD0798C0430A210C
:1018D0000FF03EFF002021460FF032FF0C98F5E795
:1018E0000998F3E70020F1E7102E0108AD2E01085A
:1018F000B72E0108C32E0108D22E0108E02E0108E0
:10190000E12E0108412A0108F02A0108F0B503AFD1
:1019100097B005A84021019110F00DFA4D4DD42249
:101920004B4B98588026311A1C8FA14229D204961D
:10193000D02103915E58311A8031A14201D2324642
:1019400040E0802E029203D1049E009603990FE09E
:1019500031467F2E049E77D8421A184650304118DF
:1019600010F0DBFD3A4B0298185803995A58009230
:1019700000225A500099401A029A9850311AA142F6
:101980005BD3164601191A4650321C46802310F0CC
:1019900044F902460B462146343115AC20460DF081
:1019A0006FF92078012804D16178002901D1002045
:1019B00002E000283AD11698254B995908189851F9
:1019C000D0215A58904231D0861A402E00D3019E21
:1019D000B1182DD281292BD2039105A9049140245D
:1019E0003046029222461C460FF0B9FA029AA2181B
:1019F000503233460FF025FDD02003992150049832
:101A000031460FF029FC002989D0C023EA58561C22
:101A10007F243440C426AE59B44204D07F2A0FD864
:101A20000678AE54EC50401C491EECE717B0F0BDF0
:101A3000802310461A460FF083FE45200FF084FEE7
:101A4000802110460FF084FE084680210FF080FEB2
:101A50004C0000202C08002080B500AFEFF310816F
:101A600072B60248006881F3108880BD000B002028
:101A7000FEB506AF02460368406883422AD0581C70
:101A8000106019784CB20120002C2BD59C1C1460DE
:101A90005E783F24019426401F240C40E0291BD38C
:101AA0000094DD1C15609C780294019D029C2C40E2
:101AB0000294B601029C3619F02910D3191D116049
:101AC000D978019A1140B2015118009A5207D20AEE
:101AD000891807E0002005E0A101891902E00099BA
:101AE0000903711803B0F0BDF0B503AF89B00A4621
:101AF000069001200290400208900026059196422F
:101B000057D2304606990FF033FA07900C46B720AB
:101B100085002B4B585908990A1A94422AD95B21FF
:101B2000C90004915958029B5B02994204D00029D4
:101B3000089B07D1224B1DE0089903912946204DAF
:101B4000049B0EE00195994235D2421A1C4D28465D
:101B5000D830411810F0E1FC01996858049BEA580C
:101B600003920022EA50039A801A6850089A121AC7
:101B70002B460D46944200D31446002C0DD021185C
:101B8000D8331A46089B10F048F8079A23460FF0FE
:101B900058FC0B4B58590019585118460DF08CF948
:101BA000002C059A05D0A619401EC0B240087E2818
:101BB000A5D809B0F0BD084608990FF0C9FDC04688
:101BC0004C000020F8B504AF0091456801220021C7
:101BD000402D164600D30E460368802B144600D3D2
:101BE0000C463440382129400901009E711807260F
:101BF0002E40B240D5430095057A2846EDB2022D1D
:101C00000BD00225002CF8D0CE5CC00702D1009882
:101C1000064000E01643CE54EFE7F8BDF0B503AF41
:101C2000E1B01F914268E7498A420C92079200D3C3
:101C30000791417C0691017C0E9101680B91017A1C
:101C400012914EA90A461C320A922431149140A9DD
:101C500024310391C1682291C17C1E91817C16912F
:101C6000417A119141691B9181691891C169109163
:101C7000006A1D9007200F90C0010D9000260120E2
:101C800020901C9615961598C00700D002E3189C6A
:101C90001C9819968442054666D31B984019611B0F
:101CA000072907D80023994258D0C25C0A2A44D099
:101CB0005B1CF8E7C21C03239A43121A05D11C953A
:101CC0001A9108392191002210E00023C45C0A2CEB
:101CD00007D05B1C9A42F9D11C951A9108392191C1
:101CE00002E0189C199E28E08A4213D88418646880
:101CF000B5494C40B54B1D1B2543845826464E40E4
:101D00009E1B2643B2490E402E408E4202D108321D
:101D10002199E9E71A99914229D080181899891ACE
:101D20001C9D4B1B0021199E445C0A2C03D0491CAE
:101D30008B42F9D11CE08B18189CED180020691C0F
:101D4000A8D0A1420846A5D81B98405D0A2808469D
:101D5000A0D10020159017911C910EE017961C94AD
:101D600020981590254608E01C951796F8E7199ECF
:101D70001796189D1C95209815901B9880191A90FD
:101D8000AE1B129800281D9C109829D0129801288B
:101D900016D10096119801904EA822990E9A1A9B7E
:101DA0000FF001FA5398C10F401840101D990C1AFA
:101DB0005298401EC10F401840101099081A0FE0A9
:101DC0000096119801904EA822990E9A1A9B0FF036
:101DD000EAF953981D990C1A52981099081A401C48
:101DE00021902298C0690C994843642110F026FC88
:101DF00001460B98002800D1079919988542139144
:101E000001D1002505E0751E1A98405D0D2800D00F
:101E10003546229811990CF063FB201A19901698F8
:101E200002280FD11E98022800D099E022998869D3
:101E3000096A0C181A9841190EF0A7FD6043219900
:101E40004518EAE11E98022800D031E12298026A82
:101E50008169199800901A980190029540A8219BD9
:101E60000CF022FB5EA840A90EF0AAFD609A501C5F
:101E700000D1D1E15748101A00D200205E9D002801
:101E800002D00128EED0C8E15F981A9033A82299B9
:101E90000FF079FC369C60426041379E002E2099FD
:101EA00000D001460029DDD134980028DAD4359BD2
:101EB000002BD7D4339A0119099292680892914263
:101EC000D0D89A190999C9688A42CBD8099A116859
:101ED0000491516805910899C91D0F9A91430A1BF5
:101EE0004B43181800960190029223A80990049978
:101EF000059A23460CF086FE319630941A982F905E
:101F00002E952BAC169820704EA82EAA09990EF08B
:101F100017FD5C943AAC4EA920460FF027F9207AC1
:101F20000028F7D002289DD03A997F29F2D83B9B10
:101F30003F2BEFD818010F9A134001229A400D9BB6
:101F4000184008435C990978002904D01F9B195C4C
:101F500011431954DEE71F9B195C91431954D9E7CB
:101F60002298026A8169199800901A980190029546
:101F700040A8219B0CF098FA5EA840A90EF020FD25
:101F8000609A501C00D147E1C348101A00D20020CB
:101F90005F995E9D00281FD0012800D03DE1229866
:101FA000006A0028E8D050904F914E952298C06961
:101FB000519001221E9802404EA91F980FF00DFA71
:101FC000DAE7C046FFFFFF7F0A0A0A0A00010101A3
:101FD00080808080FFFF10001A9133A822990FF0B3
:101FE000D2FB369C60426041379E002E209900D083
:101FF00001460029C0D134980028BDD4359B002B60
:10200000BAD4339A01190992926808929142B3D8CE
:102010009A190999C9688A42AED8099A1168049137
:10202000516805910899C91D0F9A91430A1B4B43AA
:10203000181800960190029223A809900499059A15
:1020400023460CF0DFFD319630941A982F902E9590
:102050002BAC1E9820704EA82EAA09990EF070FC89
:102060005C943AAC4EA920460FF080F8207A002804
:1020700002D00228F5D17FE73A997F29F1D83B9B1E
:102080003F2BEED818010F9A134001229A400D9B66
:10209000184008435C990978002904D01F9B195CFB
:1020A00011431954DDE71F9B195C91431954D8E77C
:1020B0002298026A8169199800901A9801900295F5
:1020C00023A8219B0CF0F0F92BA823A90EF078FC93
:1020D0002D9A501C00D19FE06F48101A00D20020AA
:1020E0002C992B9D002814D0012800D095E022982F
:1020F000006A0028E8D050904F914E952298C06910
:10210000519001221E9802404EA91F980FF065F9C8
:10211000DAE71A912EA822990FF035FB319C604224
:102120006041329E002E209900D001460029CBD17B
:102130002F980028C8D4309B002BC5D42E9A0119A3
:102140000992926808929142BED89A190999C96871
:102150008A42B9D8099A1168049151680591089981
:10216000C91D0F9A91430A1B4B4318180096019002
:10217000029233A809900499059A23460CF042FD77
:102180003D963C941A983B903A953EAD169828702F
:102190003FAE1E9830703AA903980FF019FD40AC7D
:1021A0001C22204609990FF015FE489547964EA827
:1021B000382221460FF00EFE00205D905C905EA854
:1021C00014990FF01AF85E98012800D07CE7609D02
:1021D0005F9C4EA80EF09AFEC1B2022900D173E7AF
:1021E0007F2CECD83F2DEAD828010F9A1540012208
:1021F000AA400D9B1840204389000A9B5958097832
:10220000002904D01F9B195C11431954D7E71F9B69
:10221000195C91431954D2E7219D179E139A1D987A
:1022200010181D902198854200DC2CE52C1A069888
:10223000169906F090FBC2B2022A0FD05094219852
:102240004E902299886AC96A5191199940184F9005
:10225000012002404EA91F980FF0BFF80E98169962
:1022600006F079FBC2B2022A179D2E46219800D1B2
:1022700009E550944E902299086B496B5191199938
:1022800040184F90012002404EA91F980FF0A5F86A
:102290002E46F8E461B0F0BDFFFF1000F0B503AFCB
:1022A000D5B00191036842688568C46821460A92E6
:1022B00051402A465A400A430B9310940F9501D07F
:1022C000064600E08A4E417D0D91046931A83146F1
:1022D0000FF088FA32687068B368F1681646529059
:1022E00051921193D21A121854920D1AA8195390A0
:1022F00012A851A90FF076FA0B980F99081AC11776
:102300004840411A0A98109A101AC2175040801A71
:10231000884200DC0846002C01D102210D91119A5F
:1023200074498C4200D30C46401C0E90640012ABE2
:10233000743338A86030089001201090C00702D094
:1023400064430020FAE7961B1098C00702D076433A
:102350000020FAE71098C00702D06D430020FAE78A
:102360003598079036980690329804901598059005
:10237000149803903198029038A80C9031A91C222F
:1023800011920F930FF026FD0C981C3012A9119A90
:102390000FF020FD01201190089B987000200990FB
:1023A0001870029840420399484004994942059A9E
:1023B00051400143484248415870A819444347944A
:1023C000079806994018C10F401840104690099D83
:1023D0004F954E950A9E4D960B9C4C944B954A9565
:1023E0004996489451A80C992A460FF023FA16955D
:1023F0000E98159014951396129412A81430642216
:102400000E900C9910F08EF82B460F9A0D991171C1
:1024100028460D91C9B2022967D000282FD12598EE
:102420001099C90702D040430021FAE72699884253
:102430005BDC927831A80E990FF0FCF93198C10756
:1024400001D1442100E0402112AA5158259A511887
:102450002591349B339E329C0F9A1178002905D127
:1024600091781D46119B59402B46917014931396F9
:102470001294119908401599081A1690CDE7401E3C
:1024800016901D998B4206DD1C995B1A1A997118DA
:10249000199AA51801E0314625461A46189B5E1880
:1024A0001396179B5C1912941B9BD31814937F2DC2
:1024B00018D8402916D209930B9407240C40119B7D
:1024C000A34038240C40210129430D9AD20703D0A0
:1024D000019C625C1A4302E0019C625C9A43625474
:1024E0000B9C099B0F9A117993E755B0F0BDC0463C
:1024F000442E0108FFFFFF7FF0B503AF9DB00D46EE
:102500000646847D002C08D0012C0CD13069401C7B
:1025100001D30020C043400806E030693F498842AB
:1025200002D3084600E00020424205A831460FF0E1
:1025300088FA327D022A05D00120024005A92846EA
:102540000EF04BFF707D022865D03169002962D002
:10255000002C03910495029008D0022C05D12F483D
:1025600081420C4602D3044600E04C0809A83146DB
:1025700022460FF066FA0B9C0F940A9E0E96099B5A
:102580000D930C984508039AAA4200D81546109559
:1025900013941193411B914200D31146009401936F
:1025A0001491401A00D20020801912900120029C40
:1025B00004400DA90296049E304622460EF00DFFFF
:1025C00011A93046264622460EF007FF089800283B
:1025D00021D01890029969181691039A5300009C13
:1025E000621C9A4200D31A4652081792019B159317
:1025F0001C901B921A91A01A049C00D20020C018B3
:10260000199015A9204632460EF0E7FE19A920467A
:1026100032460EF0E2FE1DB0F0BDC046FFFFFF7F68
:10262000F0B503AF87B00291054680B203907D21DB
:10263000CE00314610F002F801904643AC1BA0B228
:10264000642631460FF0FAFF05464643A01BC0B290
:102650000A210FF0F3FF2049039A8A421DD956211F
:10266000029C61712E21A1703026304320713543C8
:10267000E5700198C0B20A2110F076F9314361701B
:10268000174903980FF0DAFF3043207004A80622A0
:1026900021460EF099FF052511E0562202990A7194
:1026A0002E224A7030221043C87015438D70019855
:1026B0003030087004A805252A460EF085FF0498DE
:1026C000002802D1059802D002E0044800D1069DFE
:1026D000294607B0F0BDC0460F2700000A2F0108A9
:1026E00010270000F0B503AF85B0049104462849D7
:1026F000884200D30846039026490FF09FFF3026FA
:10270000202225498C4201940296009201D810465D
:1027100000E03043049D28700A24039E3046214681
:102720000FF08CFF21464143711A029E31432971FB
:10273000214610F019F9019D092D02D8009E31465D
:1027400001E03143009E0498C170642103980FF0AA
:1027500075FF214610F008F9632D01D8314601E0DC
:1027600002980143049881707D20C10003980FF006
:1027700065FF214610F0F8F8E8087C2801D83146BA
:1027800001E0029801430498417005B0F0BDC046D5
:102790009F860100102700000F270000FEB506AF3E
:1027A0000C4600B2092801DC202100E02B21082280
:1027B000D243904200DA2D2121700A25294610F0DB
:1027C00065F801B2C9134840461AB1B2632907D966
:1027D000252020713020E070A0703120607017E05B
:1027E0002020607009290DD925202071F0B22946DA
:1027F0000FF024FF302145430843A070701B0843AD
:10280000E07005E025212171A07030200643E670BC
:102810006846052221460EF0D7FE032100980028C5
:1028200002D1019802D002E0024800D1029903B01F
:10283000F0BDC0460F2F0108F0B503AF904EB54470
:10284000904868441C909048684454908F4868446D
:102850007D908F48684478908E48684467900B203C
:102860006B90C0048C4A5169014351613F207290C2
:1028700000038A4B19688143152210030818186059
:102880000120859000028290C0309861844B1868C6
:10289000844908401860D868084055210906401846
:1028A000D860814908683024A0430860C8681023B4
:1028B00084931843202332939843C8607B4868442C
:1028C0003A306C907A4969440846403077908C31B0
:1028D0007091784868442830629075486844403068
:1028E0008A907548002802D000BF401EFAE7669221
:1028F0007D207C900001879000252E46052D0ED06E
:102900000DF0E0F98799002902D000BF491EFAE7CF
:10291000C0434221084200D1761C6D1CEEE7032E15
:1029200001DB0DF033FA85990A045B4B1868889235
:10293000104318604A04614E314608461968114236
:1029400002D1411C0028F8D16F92002829D05C48A0
:102950001121016058685B4A024008041018586051
:102960005048401C196801431960304619688901B4
:1029700003D4411C00280846F8D1586802210143BD
:10298000859881435960304659680C220A40082ACC
:1029900003D0411C00280846F6D1186B8021014362
:1029A0001963494801683F4A114003227492920713
:1029B0008918016045484649416000258560072126
:1029C00039910160859881028BA80FF0B4F91F201E
:1029D0008004314A5169014351613E4A10683E49C1
:1029E00008403E49401810603D4B18683D4908407A
:1029F0003D4940185E301860294A10683B49014043
:102A00003B4808181060284908684022119210437A
:102A100080227E929043086036482149886136487A
:102A200098613648401C98618298F430002802D0A2
:102A300000BF401EFAE78498294988618298F430E3
:102A4000002802D000BF401EFAE7859BD8043490CE
:102A5000234988611F4A5069E22101431D200B90E0
:102A6000814351617E980E49886100BFD8057B90F3
:102A7000886123480146002944D000BF491EFAE777
:102A80007CE3FFFF601C0000E01B000094110000CD
:102A9000FC1000005C060000001002400008004826
:102AA000000C0048FFFFFF00001400482C06000047
:102AB0006C060000C81B0000409C00006079FEFF0F
:102AC00000200240FCFFC0FF20ED00E010E000E02D
:102AD0007FBB0000001000480000FFFF55550000BC
:102AE000000400483FF0FFFFE2040000CF3FFFFF7B
:102AF000104000008000040018002000FFFF0F00BD
:102B000010270000349BE3498B61E3494969AE22F9
:102B10008992114351229143DF4A5161DF497E9AE4
:102B20008A6100BF7B9A8A61DA498B61DA4B596905
:102B3000A4220A435B218A435A617E99D74A916154
:102B400000BF7B9B93613499D24A9161D249496914
:102B5000A3220A435C212D918A43CF494A617E9981
:102B6000CE4A916100BF93613499CA4A9161CA4BC0
:102B70005969C02261921143729A914359617E9BB7
:102B8000C64A936100BF7B9991613499C14A9161B2
:102B9000C1494969A1220A435E218A43BE494A616B
:102BA000BE498B6100BF7B9A8A61BA49349B8B61B5
:102BB000B94949692F227A921143D0223592914323
:102BC000B54A51617E99B54A916100BF7B99916187
:102BD000B0498B61B04B5969232247921143DC22E3
:102BE00091435961AD497E9B8B6100BF7B9B8B619B
:102BF000A849349A8A61A8494969812255921143AA
:102C00007E229143A44A51617E99A44A916100BFFA
:102C10009361A049349B8B619F4B596925220A43DC
:102C2000DA218A435A619D497E9B8B6100BF7B9A62
:102C30008A619849349A8A6197494969119A11437E
:102C4000BF229143944A5161944A936100BF7B999A
:102C50009161349B8F498B618F494969B0220A4346
:102C60004F218A438C494A618C497E9A8A6100BF10
:102C70007B9A8A6187498B61874B59690422299223
:102C80001143FB229143596184497E9B8B6100BFB4
:102C90007B9B8B6134997F4A91617F494969849A12
:102CA0001143EF2291437C4A51617E997B4A9161A5
:102CB00000BF93613499774A916177494969AF229E
:102CC00060921143502263929143734A51617E99FD
:102CD000724A916100BF9361002802D000BF401E7C
:102CE000FAE76F4AD06902210143D16174988004E8
:102CF0006C4A11688143349801431160506AF02195
:102D00008843506268497A988862C5206890830039
:102D10007193D333CB620B640D200990C002C8615C
:102D200085980203086A8392104308628598486177
:102D30005598086008225D484E92826136930B6474
:102D4000574A50695A490143516185984002916937
:102D500001439161FF210A0209202B90C3061868E4
:102D60003C921043279108431860D86851490840A5
:102D70006D93D860474801680F2211430160C16814
:102D800086929143C160474A11687498014311606B
:102D9000D1688143D1608598C20747490A610860BC
:102DA00088600A68D20703D1721C002E1646F8D13B
:102DB000879A2F328A62399A4A618598C8603F4A59
:102DC00095600B46403313613D4B183353616B9B49
:102DD000D3603C4890608E68299B1E438E603A4EBB
:102DE00013689B0703D4731C002E1E46F8D14C2693
:102DF0003648622E06D0324B9B19343B1B888353D6
:102E0000B61CF6E7869850601820319008609560EF
:102E10006B98D0602B4890608868299A104388602E
:102E20002B48016840682B4E2B4A914264D1C01E4A
:102E3000022861D22948684442303E210FF0CAFC82
:102E400082988A990880679A254D1563254C5463AA
:102E5000254C94632548D0632549116456649164D8
:102E6000D664244E04211C4B1361516188999161F1
:102E7000D6611462506295621A48D06200208028A0
:102E800000D194E012490958144A6A441150001DB7
:102E9000F5E7C0460004004800100048000C004858
:102EA00000100240000800480004004000140048E0
:102EB00001000E000000FFFF00240140000002405E
:102EC000080B002081250000C0F2FCFF70060020E6
:102ED00000F001089E0F0000594B53466C0600009D
:102EE000D40100082C0E00007A010008860E0000B4
:102EF000620000080A2C2500EB48016881914068B7
:102F00008690EA4E6E44304642303E210FF062FC1D
:102F100082988A9908806799E5480863E54848637C
:102F2000E5488863E54ACA63E54A0A64E54B4B64B1
:102F30008A64CB64E44B0B61299A4A61889A8A615E
:102F4000E24ACA610862DD484862D9488862D948C5
:102F5000C86281989842869B29D1581E012826D89C
:102F60001036202D08D0D0484019C1687151711910
:102F7000006948600835F4E7CB4A402C0AD01019A4
:102F8000001F0068C9496944085108191159416076
:102F90000834F2E7022B0AD1CD480178C34A6A44CB
:102FA0005172417891728178D172C0781073BF48A4
:102FB00068440DF043F900258A9528462E46102DC9
:102FC00017D08890C34C6C4420460CF02BF9C248B3
:102FD000431CE28861882088002B02D000BF5B1E62
:102FE000FAE78A9B9B188A937618889908186D1CB3
:102FF000E5E70309B948181884B23109E120649063
:10300000800086906530B64A844201D2B54C638117
:103010008A9B1B098C18A4B2844201D2B14CE18274
:10302000991889B2814202D24620AE490B52002043
:103030006799086148618861AB490C2805D0425CFA
:103040009A4B6B441A54401CF7E798486844C17A7D
:103050008A91817A8891417A7F91017A8091C179B0
:1030600079918179759141796E9101797391C178E6
:103070006A9181786991457804780CF023FE769006
:103080002B988004994A516901435161906998498C
:1030900001439161974A106880B2974940181060C7
:1030A00072988006916801439160506A9349084084
:1030B0009349401850628398906192489061924879
:1030C0009061924A1068302188431060D0688499DA
:1030D000084332998843D0608D4AC0328D480168D8
:1030E0001140829A114301608B480168299A11436B
:1030F00001608260894E0021316071983060172232
:103100006592120208927260403030607A98C04333
:1031100081902030B268D20704D0002802D0327BE0
:10312000401CF7E728020019699A120480186A9A6D
:10313000120680186E9A1202739BD218759B1B049C
:10314000D218799B1B06D21842407F980002809BC0
:10315000C018889B1B04C0188A9B1B06C0185040CF
:10316000759058486230769A4A90024057928598F6
:10317000000788906A4D052900D1D5E00A46284607
:10318000B168090603D5411C00280846F8D1594802
:103190008899816100BF00BF2846B168090603D540
:1031A000411C00280846F8D180922846B16889075A
:1031B00003D4411C00280846F8D1A02434732846C3
:1031C000B168C90703D1411C00280846F8D1307BFB
:1031D0002846B168090603D5411C00280846F8D1E5
:1031E00000BF00BF43488399816100BF00BF87983B
:1031F000002802D000BF401EFAE7002001460DF073
:1032000061FA7C98C001002802D000BF401EFAE796
:103210000B2019210DF056FA0C2001210DF052FA65
:1032200034483849816110200DF0E6F93D49487174
:103230002946B268120603D54A1C00291146F8D166
:103240002C49889A8A6100BF00BF2946B2681206DD
:1032500003D54A1C00291146F8D12946B2689207C5
:1032600003D44A1C00291146F8D134732946B268A8
:10327000D20703D14A1C00291146F8D1317B2946D7
:10328000809BB268120603D54A1C00291146F8D16A
:1032900000BF00BF1749839A8A6100BF00BF591C55
:1032A000C0B29E2841D066E700F801086C06000015
:1032B000D40100082C0E00007A010008860E0000E0
:1032C000620000089E0F0000594B53460A2C25004F
:1032D0003CF80108C8110000B70B000024FAFFFFFA
:1032E00024FA000070060020ACF7FF1F0010024017
:1032F0000110020000100048000055A9FFFF0F0058
:10330000000010110003000300040008000400483E
:103310003FF0FFFF080001400C0401400030014075
:10332000F0D8FFFF080B002005232846B1680906E6
:1033300003D5411C00280846F8D1DA4888998161F4
:1033400000BF00BF2846B168090603D5411C00280C
:103350000846F8D12846B168890703D4411C0028E3
:103360000846F8D106200E9030732846B168C90788
:1033700003D1411C00280846F8D1307B2846B168AB
:10338000090603D5411C00280846F8D12846B16833
:10339000890703D4411C00280846F8D1542007901F
:1033A00030732846B168C90703D1411C002808467C
:1033B000F8D1307B2846B168090603D5411C0028A6
:1033C0000846F8D12846B168890703D4411C002873
:1033D0000846F8D1752030732846B168C90703D173
:1033E000411C00280846F8D1307B2846B168090600
:1033F00003D5411C00280846F8D12846B168890742
:1034000003D4411C00280846F8D168983073284638
:10341000B168C90703D1411C00280846F8D1307BA8
:103420002846B168090603D5411C00280846F8D192
:103430002846B168890703D4411C00280846F8D102
:103440002A20469030732846B168C90703D1411C31
:1034500000280846F8D18093307B2846B1680906D9
:1034600003D5411C00280846F8D100BF00BF8D4895
:103470008399816100BF00BF0024322C08D08A48A4
:10348000015DFF2902D020460DF01CF9641CF4E711
:103490002846B168090603D5411C00280846F8D122
:1034A00080488899816100BF00BF2846B16809063D
:1034B00003D5411C00280846F8D12846B168890781
:1034C00003D4411C00280846F8D1A02030732846B8
:1034D000B168C90703D1411C00280846F8D1307BE8
:1034E0002846B168090603D5411C00280846F8D1D2
:1034F00000BF00BF6B488399816100BF00BF0220FD
:10350000012179910DF0DEF82C4602200DF074F8BF
:10351000C00703D0601C002C0446F6D124201321E0
:10352000624C45905D91A04726203B214390289115
:10353000A0470F2000218A91A04702200146A04702
:103540002C4602200DF058F8800703D5601C002C93
:103550000446F6D10F20A0216E9084910DF0B2F8B0
:10356000022001460DF0AEF82C46022085900DF0A9
:1035700043F8800703D5601C002C0446F5D12520B4
:103580000A21429069910DF09DF8494845498861AA
:103590001F2015900DF08EF82846B168090603D556
:1035A000411C00280846F8D13E488899816100BF37
:1035B00000BF28463F4CB168090603D5411C0028CE
:1035C0000846F8D12846B168890703D4411C002871
:1035D0000846F8D1849830732846B168C90703D1EA
:1035E000411C00280846F8D1307BB068000603D59E
:1035F000681C002D0546F8D100BF00BF29488399FB
:10360000816100BF00BF10202F900CF0F5FF5F908C
:1036100060717D988A9A42638263C2630264759B7B
:10362000190E7F9114466000A107C90F08187F99F1
:10363000401874990840292173914843401C849094
:103640000F2C3FD8521CC82A01D8052600E00326BB
:103650008298F43082428A9200D901261648434368
:10366000164818188890E04029210FF07DF98498B9
:103670000818C1B2002294420DD0114B6B449B5CE0
:10368000CB1ADD176B405B1BDBB2521C9E42F2D99A
:103690008A9A889BD4E70A4969440855641C8A9A27
:1036A000889BC0E70010004829420108C5060108B0
:1036B00000010003080B00200D6619005FF36E3C4B
:1036C000C8110000D84801684068D84A914211D119
:1036D000C01E02280ED2D448007A132800D313202B
:1036E000C001D14908187E994358581E0121C94389
:1036F000884212D3819B2F33CD48016840689142A4
:103700000BD1401E0228799807D2C043C8498B6864
:10371000591E814201D3819B2F330020C54A1C28AA
:1037200004D0C54969440A52801CF8E7C34868447C
:10373000C34C21468A936CC86CC1759820618A9DE0
:10374000656120461830BC4969441C226A920EF01B
:1037500041FB20463430112130910EF0ECFA492122
:1037600000205E916054691C4A1E914148220592D6
:10377000A154462188916052452285990692A15410
:10378000B049086088607A9A8A62839AF73ACA6276
:103790000861799ACA60279A1304AB4A14689C435B
:1037A0007B9B1C431460A94CFF3413692340799C14
:1037B000E40323431361A64B2833A64A1360799D83
:1037C0000D608099052900D305465F98C0B29E38E8
:1037D000414241415798002804D079980E460BF099
:1037E000C9FC314629435F910020302808D0924916
:1037F000694400220A5209188A804A80801DF4E731
:1038000001206C9D28717B90E870934868440026E5
:103810000687014630318E7267990E604E60864988
:103820006944302280920EF0D5FAAE706E708B4AE9
:1038300050696F9B184350618798303091690143FC
:103840009161749A10046D9D296881431943296020
:10385000686A8599084309998843686280497A981B
:103860008862682088610A624C647E4868443146F8
:103870000BF0CCF8714D6D441424002C08D079491C
:103880006944802228460EF04DFE641E8035F4E720
:103890007B990A0277988A9202806798724D056335
:1038A000724B4363724C8463724DC563724B036405
:1038B000724A42648364C2640A045C4901612999C2
:1038C0004161839282616E4902461C3232C266496E
:1038D00081626649C162584C6C44254642353E219E
:1038E00028467A910EF076FF2046803005212A91F5
:1038F0004A02524969445A900EF014FE6498C0007E
:103900008490494908684968484A904212D1C81EC3
:1039100001280FD875916698C00180900020809989
:10392000814200D1B2E040490958434A6A441150EB
:10393000001DF4E710347E943D4801687F91406893
:10394000899077988A990180679847490163474928
:103950004163474B8363474CC463474A026447490A
:1039600041648264C164314901612999416183994B
:103970008161434902461C321AC23B4981623B497C
:10398000C1623E2128460EF025FF5A9D142E0DD00F
:103990002A4C6C44204631460BF038F880222846E9
:1039A00021460EF0BFFD8035761CEFE71F487F995A
:1039B0008142344E899D00D0ECE1681E022800D37C
:1039C000E8E18598C1431A488068421E8A4201D8BE
:1039D000709908600020809B7E9C202813D0144999
:1039E00009180A69C968215021184A600830F4E7AB
:1039F0000F49C858C918091F09680F4A6A44D150AD
:103A0000D11848600833402BF2D1022D00D0BDE11F
:103A10001D480178084A6A44517241789172817850
:103A2000D172C0781073B1E100F00108594B5346D0
:103A300000F80108DC0500006C060000C811000059
:103A4000000000200044014004E400E00000FFFF0B
:103A50001800200000E100E02C06000000100240E9
:103A6000002C0140C81B0000D40100082C0E0000EF
:103A70007A010008860E0000620000089E0F000018
:103A80000A2C2500000800483CF80108042067992A
:103A9000FA4A0A614861FA486844407B232801D306
:103AA0003C2803D9F64868442C214173F448684403
:103AB000007A132803D9F248684400210172F048C3
:103AC0006844007B002801D00B2803D3EC486844ED
:103AD0000A210173EA486844807B0F2801D3372804
:103AE00003D9E748684425218173E5486844C07BD1
:103AF000032803D9E24868440021C173779800780D
:103B0000022802D30020779908700020DC4A6A441A
:103B1000202829D0DB49C93118280B4601D0DA4BBF
:103B2000C833002800D019461218D54B6B441B1817
:103B30005E8A148AB4420BD2D14D6D442D18AD8AE1
:103B4000AE4205D2322C03D3D04C3434A54209D92D
:103B5000849CF8345C82631A1382C94A6A4412183E
:103B60000C4394820830D1E781982030C74EC44975
:103B70006944002824D009184031C14A6A44121807
:103B80004223D55A0B88AB420DD2BD4C6C4424184D
:103B90004426A45BBD4EA54205D2322B03D3334647
:103BA00034339C420AD94232B54B6B441B1844242F
:103BB0001E5362230B808499F83111800830D6E7B8
:103BC0000020AF4E6E44839080300246AC49694479
:103BD0008098824200D1D5E07F928D187221695C75
:103BE000022903D32946723100220A707321695CCD
:103BF000042903D32946733100220A708398401C9C
:103C00007E9081992D3100292BD07218A520135C4C
:103C10001E2B01D3652B03D31046A53064230370FC
:103C2000A820135C1E2B01D3652B03D31046A830AC
:103C3000889B0370AB2014566320C3439C4201DB76
:103C4000652C03DB1046AB300024047089981456B1
:103C50009C4201DB652C02DBAE3200201070491C57
:103C6000D1E7A97D052901D30021A9757A98295C9E
:103C7000042903D329463E3100220A70729829563E
:103C80006322D243914201DB642903DD29463F319F
:103C900000220A70698E8698814202D37C48814254
:103CA00002D9869964316986298F6A6B0A430CD1DF
:103CB0002946343135220823AB540022AA8775489F
:103CC000A8637548E88607220A70B421BE2906D089
:103CD000725C192A01D900207054491CF6E78198BA
:103CE000002822D033181A46F03214780E2C0BD844
:103CF000F1241C5D192C07D8F5241C5D022C03D877
:103D0000F4241C5D0B2C0ED3F4248A90002018534D
:103D1000F22431462E4664251D5335460E46F124C5
:103D2000185510708A98801DDAE7E97D09290AD0B4
:103D3000052908D0002129845848E861584868833B
:103D400069760521E9752978491EFE2915D355485C
:103D500028815548A880554828608398401C8A903F
:103D6000C0B20A2421460EF069FC44433030A871E9
:103D70008A98001B30210143E97180367E98839038
:103D80007F9821E775980328494E03D13C48684441
:103D90000CF0DCFB3A486844807A411E88416C9BF9
:103DA000D87077984078411E02468A411A710028DF
:103DB00006D040486844404904220AF04FFD03E021
:103DC0003C4868440AF0CEFD2D4D6D44E87B0BF075
:103DD000CFFA0024394884717798007841424141F4
:103DE000374A517009994904364B5A690A435A6156
:103DF0007499890632688A437B9B99065118316011
:103E00003149002802D00846C13000E05807B061AF
:103E10002E48684444810481C4808480697A4A1EA3
:103E200091410173297A132900D35D99C9015A9AE6
:103E300051180A8A02804A8A4280C8680BF0D2F977
:103E40006798C069699948430AF098FBA87B0AF013
:103E50006DFB849A0D4B0C2C06D01046F8301C4993
:103E600069440853A41CF6E700200C2834D01946F6
:103E70006131184A6A441152801CF6E7594B534687
:103E80006C060000AF040000DC0500009E0F00007F
:103E900034080000090A0000050600004B64000019
:103EA00019320000202000004C2000004D4F4445F6
:103EB000000800482C06000096400108080B00206E
:103EC00070060020001002403F1F0000EC100000B0
:103ED00050110000C811000000246298047054982A
:103EE000846044600460EF4868448A90EE48684407
:103EF00001468A9E2CCE2CC1269001460C31EB48FF
:103F0000684425912CC82CC162984470E8495498A3
:103F1000C160E8486844047778980460446084602D
:103F2000C46001614461846186987C3041907699D7
:103F3000014205D0DC486844DF4969440AF076FA5A
:103F4000269818302690E0435390849A0C2C06D083
:103F50001046F830D94969440853A41CF6E7D848FC
:103F60006844007A59904B203890400164906298E0
:103F70000078002800D0D6E1002589958395FDF7CB
:103F80006BFD8A90C94C6C4420460CF085F9849EE8
:103F9000F8360BF097FE3040217866787F967E9158
:103FA0000E43A3781E43E27816430821645EC54998
:103FB0008C4202DD002806D0ACE1002800D0A9E147
:103FC000002E00D1A6E1809476937792BE4D2846CC
:103FD0000BF044F8B34C6C4420460BF0A3F87D98EA
:103FE000406C0090B14A6A448A98294623460446A8
:103FF0000BF03AFB8398201A71990B3188422CD927
:104000006C9B1879002806D0AB4868440322AF495E
:104010000AF024FC20E00020987002211980A649B3
:10402000694432220A87639ACA86649AC8328A86A9
:104030006799A74A0A60D978012983940DD182999A
:104040007F31A44BD962619A5A635A6A8A421946EF
:1040500000D948625598086083948998211A2129CB
:1040600000D21CE16420642900D301467590924877
:1040700068440AF023FC7B9DA9028BA86F900DF089
:104080005AFE032001028748684489910181092171
:104090001022789B904C1C66904C5C66904C9C6601
:1040A0006E9CDC661A6759675D65759999651C4653
:1040B0006F9D2946FDF7B2FD7F2100207590606558
:1040C0006B98A0657091E16520667B986066854875
:1040D000A066744868442946FEF7E0F8794880995C
:1040E000814216DD6F48684489990181022164226A
:1040F00001236365A265784A2266784A62667A4A35
:10410000A266669AE2662167659961678BA9FDF7E9
:1041100085FD002E00D195E06248684489990181AF
:1041200022210225642201236F9363658092A26598
:10413000694A2266694A62666C4AA2666E9AE266BB
:104140006D95256761678BA9FDF768FD6848E0629A
:1041500020636063A0637E980028759D0ED0654C37
:104160006C440021042520462A460DF0B3F8624A2B
:104170002B460DF066F92020207105257F98002838
:104180000ED02C1D5B4E6E443046294622460DF063
:10419000A1F80423594A0DF054F9202030556D1D23
:1041A000769800280ED02C1D524E6E44304629467B
:1041B00022460DF08FF80423514A0DF042F92020D9
:1041C00030556D1D779800280DD00D2D0BD22C1D6C
:1041D00048486844294622460DF07CF80423494AA1
:1041E0000DF02FF900E02C464248684421460DF0BE
:1041F00021F802460B462B48684411461A460DF03A
:10420000E3F9789D6C6DA96DEA6D26486844899B39
:104210000381314B2B66314B6B662C236D9E2E67D1
:104220006B670E23002C00D11346789CE366364A58
:1042300000D10A46A2666F9961658099A1658BA934
:10424000FDF7ECFC372075996165A0657099E16513
:1042500020667B9E66662348A06612486844254611
:104260008BAC2146FEF71AF80E4868448999018103
:104270000221264A2A66194A6A66254AAA666A9A65
:10428000EA6629677A99696764216E65A96521469E
:10429000FDF7C4FC20460AF08FF98A988990799D31
:1042A0006DE6C04650110000C81B0000C811000098
:1042B000FFFF0000FC1000002C0600001C11000095
:1042C0006C0600007CFCFFFF94330108C640010827
:1042D00050003200002C01400432010802020102A9
:1042E000B033010802010100BF330108D4330108D3
:1042F0002020202028110000542A0108DC2A01086F
:10430000442A0108882A0108E33301085C330108C4
:10431000F1330108E80706D0F3496431F3486844F3
:1043200028220AF029FBF24868440BF0B5FFF14857
:104330006844007A1328789A00D31320C0015A9950
:10434000081874214D91405C411EC9B2D26A0A29F5
:104350006F9204D2FC4969440CF0CEF800E00020D2
:1043600027995890579A501E82415792F848401CFE
:104370004C90F848684420301990F7486844C01DB4
:104380002C90F5486844C01D1D90F3486844C01D3A
:104390000D90F1486844C01D1890EF4868441030F3
:1043A0000A90EE486844801C3390ED48684412300F
:1043B0003F90EC486844801D409090313D9160985A
:1043C0000001509000206421E74A5F9BDB43139378
:1043D0001B921A9014902490449112915399109129
:1043E00005466A90779056904B90489049902E9051
:1043F00037903E90779865906A9C8995FDF72CFBE5
:104400000546D74868440BF047FF77952E1B642E6E
:1044100000D3449E0BF056FC05467798A0426A9460
:1044200053D0C548684431460AF048FACD4868443C
:10443000808800280CD0B3B2C21ACA496944984295
:1044400000D2379A8A8003D8C64868440021C172D6
:10445000E8434221084231D028062FD0C1486844A1
:10446000807AE9B2884200D0D3E0B0B2BD4A6A4453
:10447000D1880918EA4B994200D3E949D1803D9A85
:10448000323A92B2914277996A911ED9B5496944FC
:104490000A891018E24A904200D3E14808815A285C
:1044A00077986A9011D3AF48684400210181002DAC
:1044B00001D101F0E2FA68422840BDE000204099B5
:1044C00008714880088077986A90D64868440188C7
:1044D000A34A6A44508A411ACB175940CB1A918A91
:1044E0001F2B7595639603D39D4A6A44D28A2EE0AA
:1044F000CC4A6A4452888A1AD3175A40D31A984A27
:104500006A44D28A1E2B22D8C64B6B449B88D31A8E
:10451000DD176B405B1B1E2B19D8C24B6B44DB882D
:104520008F4D6D442D8BEB1ADD176B405B1B1E2BE3
:104530000DD8BC4B6B441B89894D6D44ED8BEB1A38
:10454000DD176B405B1B282B01D801F0C7F9799E62
:104550003346B44D6D44AA80698028807899C86E2E
:10456000E880486F68817E496944C88B28816F9DC7
:10457000E8B20A7882423046324613D1280A4A7895
:10458000C0B28242799A10460CD1280C8978C0B208
:104590008142104606D1280E71496944C978081A2B
:1045A000411E8841759909041146639D00D1194641
:1045B0000029114600D1014664486844C07A789ABF
:1045C000536D00296F9313D0401EC0B20021032801
:1045D000569102D28000C74909584C910A21679828
:1045E000C069484309F0CAFF56984B90799A50E049
:1045F000002808D07798A042799A4AD04C99A942CD
:1046000021D9491B25E07798A042799A41D04C994D
:104610001FE029468143080601D101F06DF9514898
:10462000684400220281C28085720029329801D13B
:1046300001F024FA48420840AF494843C00EAFA1F8
:10464000085C01F01BFAB548349981610021B44837
:1046500001644B984419002584426C9800D2EC43C5
:104660004C91B0498C4213D93949569E8E420CD98F
:104670000079002801D101F047F92F48684402224F
:10468000A9490AF0EBF801F045F9639881195691B0
:104690004B9462980078411E8841A4496944097E80
:1046A000002900D1024629486844067A132E304674
:1046B00000D313200123C1015A988A9141184D98C3
:1046C00076910C5C601E5999C9B28E4270936D92BE
:1046D00012D1899959401143C9070DD0C0B20A2897
:1046E0007C9D769E14D35CE0340800002C0600000C
:1046F000281100006C060000C0B209281ED8184915
:10470000694420460BF0F8FE589059967C9D769EA1
:104710001349694420460BF0EFFE589B1A4642406D
:10472000D107014600D11946D2436D9B1A43D207E7
:104730001CD0589135E0C0462C060000002058904F
:1047400059967C9D769E2CE0281100006C06000096
:104750002F750000C81B0000C81100005C1C000081
:1047600050110000EC100000581B0000002805D07C
:104770006F4868440AF042F8799811E06C98007923
:10478000002806D06A48684402226A490AF066F89E
:1047900005E067486844502284990AF0EDF800204B
:1047A0005890654C6C444E98215E86984F91411804
:1047B000643188B2C00B081800B24010EA00904281
:1047C00000D3104609B2539A914200DA0020327E9B
:1047D000511E8A41F17D334619330BF029FC85B215
:1047E0000E22A05E7F900C205190205E8090534856
:1047F0006844437A60896190E0886090A488B07DC5
:10480000401E032852925F945D93899521D8400001
:1048100078448088400087440700CB020B001700D3
:10482000FFFF00001C1100006F98000604D110E08B
:104830006F980002000E0CD02D212C222B2083908B
:104840002724429B43980BE03D48401C6F998142CE
:10485000F2D22820839022234798459C739A469948
:10486000715C7E91315D5C91B15C5B91345C83984D
:10487000325CF15C5F98334DA8470346609821464F
:104880005B9A1C46A8472B46054661985C997E9A20
:1048900098472D4B6B447E90D880899949002B4ACC
:1048A0005118491C8991998083955D8025461C800B
:1048B0002748684438215B910DF03DFA7A98325CC4
:1048C000042A00D3002277986599401A5C908A9B4D
:1048D000900004A108582DB27E990CB283990EB2B3
:1048E0007E92874655490008F1490008634900084F
:1048F0009B4900088C45010831B57C0700011C026A
:104900001D0E18031E16140F191104081F1B0D1776
:10491000151310071A0C12060B050A09001400489B
:1049200000040040BF270900D8400108FC10000027
:104930002C060000BA400108501100006C0600006F
:10494000FFFFFF00CD030108481C000017FCFFFF1C
:10495000C81100007D98456386638999C16304642A
:1049600061E07D988999C1634563311BF0488142BC
:1049700000DCEF497C98C000814200DB01467D9A53
:104980001164A119EA4A914200DCE94981427E9A08
:1049900000DB01467D98816345E035207699085C0F
:1049A000E44969440191E44969440091E349694457
:1049B000809A7F9B0BF04EFD7D998E63899ACA6326
:1049C0000C64C10F401841104A1BD948824200DCD8
:1049D000D74A7C98C000824200DB02467D9B9A64E5
:1049E0004919D34A914200DCD14981428A9B15E0A2
:1049F0007D988999C16304647119CD48814200DCB6
:104A0000CB497C98C000814200DB01467D9A9163CE
:104A1000711BC74A914200DCC54981427E9A00DB86
:104A200001467D984163C6486844C01889900021BA
:104A3000B424BE2C1FD04D1C0E1D0E2E18D28998EA
:104A4000005D032A02D1052E859912D0B949694427
:104A500083910191B84969440091B8496944809AA9
:104A60007F9B0BF0F7FC7E9A8A9BB100839E70506F
:104A70002946641CDDE73026B1486844002E71D019
:104A8000C018C0300478002C69D00E2C67D8AC4810
:104A90006844C018C421405CA74969448A930BF05C
:104AA0002BFD8A9B00285AD0A5486844C518C12010
:104AB000285CA049694401919F49694400919F493C
:104AC0006944809A7F9B0BF0C5FCC221695648431C
:104AD00064210DF0DBFEC3216956699A51434018E9
:104AE00068996A5C611EC9B2002A28D0012A10D0D8
:104AF000022A8A9B33D18E4A904200DC8C487C9AF1
:104B0000D200904200DB104689008A4A6A44505025
:104B100025E08900874D6D448991695848437C9907
:104B2000CC0021460DF0B2FE8149884200DC80486D
:104B3000A0428A9B00DB2046899968500FE08900DB
:104B40007C4A6A4453581818794B984200DC7848DC
:104B50007C9BDB00984200DB184650508A9B9B1DD3
:104B6000B61F89E700207C9E1C2805D07549694442
:104B7000754A0A52801CF7E70020724969443828B8
:104B800015D06C4A6A441358DA0F9A1852106F4CB9
:104B9000A218FA323401A24200D322466C4CA3423E
:104BA00001DA869A64320A80891C001DE7E7002436
:104BB0006848684401578900549AD26F89180DB229
:104BC000F1008D4200DC0D463201954200DB1546B6
:104BD0005C4B6B441D80709D4557AD005E88AD19E0
:104BE0002DB28D4200DC0D46954200DB15465D80FE
:104BF0009D88807840B25D9901297C9E0CD0022965
:104C000025D18000401905B2F000854200DC054640
:104C10003001854222DA22E04D4949194A1CF1004F
:104C20008A1A00D20022869B64339D4201D2719A77
:104C3000D432424390000DF029FE451986988542F2
:104C400000DC869D4448854209DB434D07E0F000C7
:104C5000854200D805463001854200D305463948D3
:104C6000684485803B496944749A89568900C288A2
:104C7000891809B2F200914200DC114632019142DA
:104C80006E9D00DB1146C1807698808A2146509E39
:104C90001C290ED022462A400346D340DA0705D00D
:104CA000284A6A44535AF31AC8335352641C891C65
:104CB000EEE72A486844234969441C2283920DF098
:104CC00089F87220769E355C0AF0DCFA04468A95F3
:104CD000012D4DD17320315C012220468992504034
:104CE0000BF08AF8002C1E4C1E4D01D000F007FC82
:104CF000E078012801D000F002FC20697799081AB9
:104D00000A2800D2E0E0779820610E496944162015
:104D100088701548088000204876144D20284DD012
:104D200086995C31034A6A441152801CF6E7C046FA
:104D300018FCFFFFC811000050110000481C0000C3
:104D40006C0600005C1C0000DC050000E2040000B2
:104D500017FCFFFFEC100000340800007811000081
:104D6000080B002000000020EE180000DC07000007
:104D7000002001460BF040F820460AF07FF9002C95
:104D8000FC4D03D1FC4868440AF068F9FB486844CC
:104D90000AF0C8F9EFF3108072B64721695C5E9A99
:104DA000AA5C80F31088961E701E86410E40B7E301
:104DB0003C986F99014200D03EE54AE500241C2C46
:104DC00017D0ED486844005BF7218900884200D87D
:104DD0000846A84200D32846C000E949401800B25E
:104DE00005210DF053FDAC30E64969440853A41C7D
:104DF000E5E7E54C6C447D98456BE570E148684417
:104E000083889908A17142895108A172C1897E9154
:104E1000CE0866732D0A4688F10029432171710975
:104E20009D010D436571990AC3885D000D43E571CD
:104E30007D9EF16B0D01DB092B4323720909D30120
:104E40000B436372316C8B00520A1A43E272890978
:104E50007E9A52010A432273756CA573838A99085E
:104E60006174428B51086175C18B7E91CE082676A4
:104E70002D0A468AF1002943E17371099D010D4312
:104E80002574990AC08A43000B43A374C0097D9D11
:104E9000E96C0B010343E3740809D1010143217557
:104EA000500A296D8A000243A27588097E9949013A
:104EB0000143E175172133980BF030FD60761A211C
:104EC00020460BF05DFCB14C0025B14A106801078B
:104ED00001D508215160800600D4BEE29068C0B2BE
:104EE0006669002E09D0012E12D1811E3D2900D302
:104EF0008BE0A84948700223A0E2C82804D0EE281D
:104F000002D0EA2800D09BE2A2490870012395E272
:104F1000A0494C78A11C00238E4200D38EE23F2E84
:104F200001D903F0DAFB9B4A9055701C974A5061F7
:104F3000974A884200D083E27E9396480CF08CF921
:104F40003A918E4201D303F0D0FB815D76913B9084
:104F5000801C611E5D900BF0E1FCC0B2769981422D
:104F600000D069E25D9908780828894A7E9B09D0BB
:104F70002E284CD0292800D181E02B284ED014288F
:104F800000D05BE20E463A99032900D156E27690B2
:104F90003B984478A01C884200D94FE2022C00D2F2
:104FA0004CE23B98001940783A90611E30460BF075
:104FB000B5FCC0B23A99814200D03DE2769E082EFF
:104FC00000D134E1142E00D036E20B2C704A00D808
:104FD00033E26E4B184630303B9C61790174A17905
:104FE0004174E1798174217AC174E1784942817315
:104FF00021794942C173607A401EC0B2072800D9A6
:1050000023E240006449085A20E2002316E24520CA
:1050100001215E4A115477985063A8E0022E01D115
:1050200003F04DFB072C00D208E23B9988795D9094
:1050300048797690C91CA21E042420460BF098FFE4
:1050400002460E467C9883000329544900D2A0E111
:10505000C858082800D39CE1219450787F21014052
:105060001F9111780224179123923A96A64200D1FB
:1050700098E0105D002800D195E0641CF6E7022E50
:1050800001D103F01CFB052C00D2D7E13B9AD01CC8
:105090003A90A61E7F208300107940495D93C85442
:1050A000201F541D00217E96884205D0625C002A94
:1050B00001D0491CF8E78E1C7696B61E374900D2FF
:1050C00000261422142E00D316466E9840010918AB
:1050D00030460BF044FFB21C7E9B9A4201D903F08C
:1050E000F3FA22461C4633460CF0ABF9279A1046D9
:1050F000FE302A4B1E5476990D31A14210D23A98B7
:10510000405C5100585400287C9819460DD180000D
:1051100000230B50012040020A460421115426E0CE
:1051200050000A2119547C98194600241C4BCC5479
:1051300080000C5001207E9040020E461146043142
:1051400031527298C0007799315009211D980DF0A5
:1051500041FB5D98305C0B4E6E447E99224633468F
:105160000BF0B3FB082130460BF00AFB2346084A3C
:1051700064E1C04600000020781100009411000096
:10518000C0E0FFFFC81100005C1C0000080B0020FD
:105190001C440040F0060020542E0108FC080020AA
:1051A000FF0100003446002054998866C8660867ED
:1051B0004867A61E00D206463B93102E00D3102649
:1051C000EF48684431460CF08FF8B21C3A9B9A4283
:1051D00001D903F079FA239A921C169633460CF003
:1051E00030F9E848684424211E910CF0A4FD641CA9
:1051F0003A9E0022B44215D21F990D29E248769BAF
:1052000039D009293BD12292899A0F942399B4422B
:1052100038D2085D3B2802D0002834D000E0521C70
:10522000641CF4E71E922092D748769B54E0092C28
:1052300000D801E1D54B184630303B9A917A017580
:10524000D0790004117A09020818517A40181863BD
:10525000D07811790902081800BA000C642148437B
:105260005887507992791202101800BA000C4843FE
:105270009887C74AEBE01E92209223992BE01E925A
:10528000209229E034460C920F98201A24281E9A66
:1052900000D310462090BB4969440BF060FE209B70
:1052A0001E900F981A18B24201D903F01AFA239EE1
:1052B00032181E980CF0C5F80C98C0B2411E024678
:1052C0008A413146801A1E90641C3A988442AE4846
:1052D000769B229A00D20A5D06463B9831580929EE
:1052E00001D303F0F6F922923C20484334183C3EA7
:1052F000002816D07022B25C3C383C369A42F7D176
:105300005B9822993154304610309E4969442422DA
:105310000CF060FD3A202099315439201E99315407
:1053200034E0082932D0964868442390994969446A
:105330003A910F94239C4DCC4DC19249694424224B
:105340000A980CF047FD34260F9C20463A993246C5
:105350000CF040FD0020289960543A2020992154F7
:1053600039201E9921545B9822992154372016998F
:10537000215436201F9921543520179921547698AD
:10538000A05581493B9A8858401C88507E49219CF1
:105390003B9B5D9800281CD07F4A885C441C8C5441
:1053A0000E46092118980DF015FA7F208000305C18
:1053B000784E6E447699224633460BF086FA0821E1
:1053C00030460BF0DDF97298C00077996E4A1150A3
:1053D00032E027984000085C769A824229D2C85869
:1053E000082826D200237E936B480B54521C7692D9
:1053F0006A480A54899840020C4603212154092125
:105400000D980DF0E7F97F208000205C614E6E441E
:1054100076997E9C224633460BF057FA0821304697
:105420000BF0AEF923467298C0007799564A115096
:105430009DE6899840020C54554A7E9B534843612F
:105440006D1C412D514C08D040E5002018874520A7
:105450000121195477985863EFE74520215C002912
:1054600008D0616B779A511A719AD432914201D95E
:1054700000212154012040024349085C0328484D83
:105480001AD001283BD17298C0000958779A511A56
:10549000829A2B32914232D93B49779A0A500020A6
:1054A0007D99486388633B4C6C4420460BF0FAF9C5
:1054B00006212046354C20E07298C0000958779AA2
:1054C000511A829A5D32914219D92F4D77992950FC
:1054D00032482C5C09212C980DF07CF92E482A5C6E
:1054E0007F208000285C2B4D6D442146274C2B46A5
:1054F0000BF0EBF908212846294D0BF041F979987A
:1055000009F0BCFD20463030417D264A6A44D17204
:10551000007C9072608F108100267D980660466046
:10552000214A6A44108A89900090204969441D4BA1
:105530006B4477980AF098F875984A990840411E8C
:1055400004468C4100280CD0002E33D08498F830CB
:1055500075990840414241415798084208D07998CE
:1055600061E0002E26D08498F8307599014259D018
:10557000002009F0FFFD0E48684409F0F3F941E00E
:10558000481C00005C1C0000FC080020080B0020E8
:105590001C440040C8110000FF010000010200008F
:1055A000000000209411000050110000781100004C
:1055B0002C060000F2496944097E629A1278D2B240
:1055C0000A430021002A1BD100281DD0499A639864
:1055D0001218799901D30020C24336988242499229
:1055E0001ED94898C0071AD108460C4609F0C2FDDA
:1055F000E44868449622649909F0BEF9489401E0B1
:105600004891499157940FE04898C007002100281D
:10561000499803D10021282800D388E14991489175
:10562000579101E000205790EFF3108172B65E9819
:105630002A5C7098024003D000205E9BE8546869A1
:1056400081F31088002A6D9D35D0411E0122D2437E
:10565000914230D2CC496944097A132900D31321ED
:10566000C9015A9A5118CA68824224D0C860C648F3
:1056700068440AF06BFF00206C9B9870022119802F
:10568000C049694432220A87889ACA86649A8A86FF
:105690006799FC4A0A60D97801290CD182999F3117
:1056A000F94BD962359A5A635A6A8A42194600D927
:1056B000486255980860B2486844007E00283AD095
:1056C0005C98202800D8B7E0AE4868440390F148C1
:1056D000684402903F980190EF4868440090A84CBD
:1056E0006C448BA9A84B6B442046759A04F0D8F8FB
:1056F000A07E002809D0E9486844A249694408F01E
:1057000095FE9F486844002181769D486844C07E8C
:10571000002801D100F04FFF799809F02BFD98483F
:1057200068440021C176974868449622649909F03C
:1057300023F900F040FF62980078002832D05C998D
:10574000202979D963998CB2142C00D81424629939
:105750004978419A759B1342899404D1CA0702D0B3
:105760000021629A5170549AD2688A92CB4B6B4452
:10577000759D9D84CA4B6B441A8CCA4C6C446192D3
:105780006281DA8B60922281789EB26EF66EE6803C
:10579000DE8AA68062805B8A2380CC072DD18A991D
:1057A0008D432BE04198759901423ED0639880B2B9
:1057B0003E9989B20918BC488142084600D3BA48CC
:1057C0000146BA483E91814231D96D4C6C44709A81
:1057D000227700216182539820827898016041608D
:1057E0008160C1603E91416182616648684409F010
:1057F000B9F8207E00281AD062E700258499F83194
:105800002940419A15402E46012819D0022823D15B
:1058100000296D9D00D19AE00020629908705948D6
:10582000684409F09FF800F0C6FE00203E905C98A6
:10583000202801D900F088FC65987790FEF7DAFD02
:10584000002900D1FFE00020629908704D486844AB
:1058500009F088F800F0AEFE709DA9028BAE3046CC
:105860000CF069FA749801028A91914868440181A8
:1058700012217D9C8F4A22648F4A62648F4AA264FF
:10588000E16469992165319961656421839165635A
:10589000A1633146FCF7C2F9854868448A990181C1
:1058A0002621844A2264844A6264854AA2642F9A2B
:1058B000E264529A2265616565638399A16331460A
:1058C000FCF7ACF975486844C08C8999884225D9A1
:1058D000401A72496944C88400F06CFE794B6B44ED
:1058E0005B896F4D6D442D8CEB1ADD176B405B1B94
:1058F000282B18D8002317E067486844002101814D
:10590000C1808572FEF7DFFD1E486844FA22849943
:1059100009F032F856954B94FEF768FE0020629924
:10592000087000F047FE0123799EFEF712FE6649DB
:105930006431144868441E2209F01EF82E99491C4F
:10594000749801402E910020499048906BE6819810
:105950002430709D002819D05049694409180B8BD8
:10596000504A6A44121892899A42144600D31C463F
:105970000C838B8C9A4200D81A468A84801CE9E7F3
:10598000FC1000002C0600006C06000000217D9831
:1059900001625F914800414A6A4410184B1E032B74
:1059A0001BD019460488058B2A1B0023A54200D270
:1059B0001A468589641B00D21C46801C4B1CFA2C9D
:1059C000709DECD392B2FA2AE9D3891C3F4868440F
:1059D000C5545F98401C5F90DCE7002E00D1A7E023
:1059E0005F98C0B2042800D03EE36798384901614F
:1059F00029994161294868442F99302900D13BE316
:105A000085890288541B0023AA4200D21C46729D3D
:105A10006C43A409141B00D21C46150425432D4CCD
:105A20006C446550058BAD1A00D21D46729B5D43D8
:105A3000AB09D2181C4B9A4200D31B4A63185A6018
:105A40000831801CD9E7002E00D16DE2154868446A
:105A500012496944024638CA38C12599024638CAF3
:105A600038C126991CC81CC155984000629908800D
:105A70001948684432226499FBE2202003A1085CA3
:105A80004000874446003200002C01402B42363A49
:105A900032464B3E78110000EC100000C81B00009D
:105AA00050110000481C0000FFFF0000AF04000080
:105AB000C811000004320108020201024E40010830
:105AC000742E01081C11000034080000B4110000FD
:105AD000594B53466C0600002C060000B24868443F
