:020000040800F2
:1000000000400020C10000084B1301085B250108D7
:1000100000000000000000000000000000000000E0
:100020000000000000000000000000004B13010869
:1000300000000000000000004B130108410500080B
:100040004B1301084B1301084B1301084B13010814
:100050004B1301084B130108FD0000084B13010866
:100060004B1301084B1301084B1301084B130108F4
:100070004B1301084B1301084B1301084B130108E4
:100080004B1301084B1301084B1301084B130108D4
:100090004B130108550500084B1301084B130108C9
:1000A0004B1301084B1301084B1301084B130108B4
:1000B0004B1301084B1301084B130108DD0A00081C
:1000C00011F046F9084809490022814201D004C0D4
:1000D000FBE707480749084A814202D008CA08C01E
:1000E000FAE710F092FF00DEF0060020500B00202F
:1000F00000000020F006002070410108F0B503AFB9
:1001000093B009AEE6484169490700D40AE20422E7
:1001100042614923E34DE95C022900D102E2016812
:10012000914301604524295D002900D19EE0012909
:1001300000D0F7E104960193089202200290059402
:1001400028550024204610F045F80122110307919C
:10015000039212078006D44ED44BD54D284600D5C5
:10016000AEE106920498401C049009A8252111F0E4
:10017000CAFB28463168090603D5411C00280846F9
:10018000F8D1CA4B069A1A6000BF00BF28463168F2
:10019000090603D5411C00280846F8D128463168D5
:1001A000890703D4411C00280846F8D1F02030719B
:1001B00028463168C90703D1411C00280846F8D1F8
:1001C000307928463168090603D5411C00280846C5
:1001D000F8D100BF00BF0798186000BF00BF2846D5
:1001E0003168090603D5411C00280846F8D11A6079
:1001F00000BF00BF28463168090603D5411C00280E
:100200000846F8D128463168890703D4411C0028E4
:100210000846F8D10598307128463168C90703D1DE
:10022000411C00280846F8D13079252C284630D0CA
:100230003168090603D5411C00280846F8D1284634
:100240003168890703D4411C00280846F8D10020F2
:10025000307128463168C90703D1411C002808467F
:10026000F8D1307909A90855641CDEE7089201220B
:100270002A5547216B5CAE49002B3BD0AE4B0B603F
:100280004323EC5C042C37D2032C00D0621CEA54CC
:1002900032E028463168090603D5411C002808468B
:1002A000F8D100BF00BF0798186000BF00BF47200B
:1002B0009D49095C09A8007800295AD009A9BC28E1
:1002C00000D0FBE0487A012800D0F7E0442000216C
:1002D000954C2154432008992154049A107951795E
:1002E0000902081891790904D279120651180818E0
:1002F0006061E3E0914A0A608C4A8E4B1C461568A7
:100300002D0603D5651C002C2C46F8D101242507A9
:100310000D6000BF00BF1D461668360603D56E1C73
:10032000002D3546F8D11D461668B60703D46E1C5D
:10033000002D3546F8D1C02515711D461668F60703
:1003400003D16E1C002D3546F8D1157915682D06A0
:1003500003D55D1C002B2B46F8D100BF00BF220344
:100360000A6000BF00BF089A426101681143016042
:10037000D8E0AA2802D0AC2800D09FE0049B1978CE
:100380005A78120251189A781204DB781B069A18D0
:10039000674B5118644A1269914200D08EE062495D
:1003A0004B695A1C022A01D30021039108931A0CAD
:1003B000531E5A425A4103990A4304990B794C79C6
:1003C0002402E3188C792404C97909060919CB1889
:1003D000591E029CE443A14208D8002A06D00121FC
:1003E000514A019C11555361514B06E00899591A25
:1003F0004B424B4113434E4B60D0482101244A4AA3
:100400005454AA2807D109A8407AFC2852D0FD28C4
:1004100001D1029A4FE03F2043490C5440200894F8
:1004200000240C52886B401C88631D200FF0D2FE04
:10043000C0B2C000052111F0E9FE08990902091AAD
:10044000C8178143642900DB64213E20364A1154D9
:10045000374B21460A31212930D809A90A19117BC5
:10046000537B1B025918927AFE2A0ED0032A07D01A
:10047000002A2F4B11D10A224A432B498A870CE0CC
:100480000A224A4328498A8706E089B26422511A1F
:1004900000D20021244A1154254B241DD9E7C0461F
:1004A00000040140000000200830014018100048FE
:1004B000F0D8FFFF224646201B490A542846069AD8
:1004C0003168090603D5411C00280846F8D11A6096
:1004D00000BF00BF28463168090603D5411C00282B
:1004E0000846F8D128463168890703D4411C002802
:1004F0000846F8D1A020307128463168C90703D1D9
:10050000411C00280846F8D130793068000603D530
:10051000681C002D0546F8D100BF00BF0798186081
:1005200000BF00BF13B0F0BD000000200830014044
:1005300018100048F0D8FFFF00030003000200037A
:1005400080B500AF02480168491C016080BDC0460B
:10055000000B0020F0B503AF91B0CF480024046039
:10056000CE4D2878C00700D0A9E24920CC4E305C9F
:10057000022800D1A3E230461830CA4962311C2259
:1005800011F010FA4021705A401CC74A904200D323
:1005900010467052C54A11680423049399431160B0
:1005A000716B0591491C7163352801D30020F087D8
:1005B00006A8262111F0A7F94720305C012815D1A3
:1005C00006AC012505222046294610F0A3FC32691D
:1005D000109210AA042310F01CFD00200290A072BB
:1005E0000598C00712D07320C04310E04220315C50
:1005F0004A1C0F231A4032541940705C03900F2993
:100600003DD02879002834D1A94933E00D2003904A
:100610004321A3480591405C0128019500D1A5E044
:1006200002280FD0032800D0B8E006AEBC203070FE
:1006300005210922304610F06DFCFF2211F020FF49
:1006400075720CE006AEBC203070052109223046E0
:1006500010F060FCFF2211F013FF029870720B2162
:100660001B22304610F056FC8D4A102310F0D1FCAE
:10067000ADE09049904A116001214840287146251B
:10068000705D022800D1D7E0012837D1059506AD6D
:10069000AA202870012102910524884B2846224671
:1006A00098473269109210AA0426334610F0B1FC24
:1006B000092228462146814B9847794A526910926F
:1006C00010AA334610F0A5FC0026AE730298A8814C
:1006D0007B486881FD2068720F2125242846224628
:1006E000764B9847FF2211F0CBFE2E556C480599AA
:1006F00046547448A88274486882EFE0706B73496E
:1007000011F01AFF002900D194E006AD582028709E
:10071000012105262846324610F0FCFBE94A126901
:10072000109210AA0423059310F073FC09222846A6
:100730003146E44D10F0EEFB6A69109210AA059B59
:1007400010F067FC1C2C70D02819008B7D21CA008A
:10075000904200D810460901884200D3084606A9F5
:1007600009194872000A8872A41CEBE72C4606ADF2
:10077000BB20287005210922284610F0CBFBFF2260
:1007800011F07EFE6C720B211B242846224610F0CD
:10079000C1FBCC4A102310F03CFC1CE006AEBC2090
:1007A000307005210922304610F0B4FBC54A526969
:1007B000109210AA042310F02CFC022070720B215E
:1007C0001B22304610F0A6FBFF2211F059FE8020BC
:1007D0003077F5761D2406AD25262846214632467B
:1007E00010F098FBFF24224611F04AFE0298A8550B
:1007F000B44A0598105C042870D14420115C491C4F
:10080000FF2900D3214611540429019966D3029B84
:1008100013544620135242201152FF200230482127
:1008200050521F200FF034FD58E0252006A9002269
:100830000A5453E002207055059506AD56202870E5
:10084000012105262846324610F064FB9D4A1269B4
:10085000109210AA0424234610F0DBFB092228463C
:100860003146984D10F056FB6A69109210AA234643
:1008700010F0CFFB0320C143182929D0002904D050
:1008800006AA5218FF23937302E006AA9073E82386
:100890005373891CF0E7C04610440140080B002048
:1008A0000000002070060020FFFF0000000401404F
:1008B000000400080008000418100048150F010883
:1008C000FF90000005DE000005DC000021060000AE
:1008D000002005996854252106AA50547C4C7D4D72
:1008E00028462168090603D5411C00280846F8D18E
:1008F00001200207754905920A6000BF00BF294622
:100900002268120603D54A1C00291146F8D129464F
:100910002268920703D44A1C00291146F8D1A0216D
:10092000217129462268D20703D14A1C00291146A9
:10093000F8D1217929462268120603D54A1C0029DC
:100940001146F8D100BF00BF060360490E6000BF2A
:1009500000BF6148086028462168090603D5411C8C
:1009600000280846F8D159480599016000BF00BF2A
:1009700028462168090603D5411C00280846F8D1FD
:1009800028462168890703D4411C00280846F8D16D
:10099000E020207128462168C90703D1411C0028A6
:1009A0000846F8D1207928462168090603D5411C5C
:1009B00000280846F8D128462168890703D4411C3D
:1009C00000280846F8D10520207128462168C9076B
:1009D00003D1411C00280846F8D10020217926289F
:1009E0001CD006A9095C2A4623681B0603D5531CA4
:1009F000002A1A46F8D12A4623689B0703D4531CC1
:100A0000002A1A46F8D1217129462268D20703D15B
:100A10004A1C00291146F8D1401CDFE7284621680E
:100A2000090603D5411C00280846F8D100BF00BFC5
:100A30002648066000BF00BF0F2003990FF030FC6E
:100A400028462168090603D5411C00280846F8D12C
:100A50001E480599016000BF00BF284621680906AD
:100A600003D5411C00280846F8D12846216889078B
:100A700003D4411C00280846F8D1D0202071284614
:100A80002168C90703D1411C00280846F8D1207904
:100A90002068000603D5681C002D0546F8D100BF6C
:100AA00000BF0A48066000BF00BF45200021054A7C
:100AB00011540549049A4A6108681043086011B04E
:100AC000F0BDC0460000002000040140181000489E
:100AD00008300140F0D8FFFF00010003F0B503AF7C
:100AE00085B021480088214988423BD00225224C0C
:100AF000204E002D36D01E488078C04678440079BC
:100B0000400087442F010E17207802282AD01C4865
:100B10000290019401A8012107F0F6FE002821D0DF
:100B20001EE03068401C1DD014480290019601A8B8
:100B300001210DE02078022814D03068401C11D02B
:100B40000E48049003960E480290019401A80221D9
:100B500007F0DAFE044600F0D9FE002C064C01D066
:100B60006D1EC6E705B0F0BD2C030020FFFF00009E
:100B7000080B00204C000020C0050020543C010858
:100B8000183C0108F0B503AF87B00546806801281E
:100B900047D106916C69E868A04246D22A69115C87
:100BA000491C1154AB69981C0226A0423AD8012175
:100BB000090205935918A14200D321460492234605
:100BC00010F013FE05292DD30246069B987910706C
:100BD000988802900391597A187A01920DF0E4FCFA
:100BE000029B190A019AD1709370C0B25070069896
:100BF000C0791071114605200690039A0FF0ABFFE3
:100C00000598C11DA1420DD8A0420ED20723049A17
:100C10001354401CA04208D2069B1354A961FF261E
:100C200000E00726304607B0F0BD214610F078FB03
:100C3000F0B503AF85B01C4603920E460546084644
:100C400008300EF017F80491B968029400940C462D
:100C500001918021039A0B460FF0D4FFC00702D008
:100C60002970FF2006E0F868E871A971AC80F436BD
:100C70002E600298287204990868401C086005B02C
:100C8000F0BDF0B503AF87B01C4605920E46054691
:100C9000084608300DF0EEFF0691B9680494009400
:100CA0000391019100242146059A23460FF0AAFFE3
:100CB000C00702D02970FF2006E0EC71A9710398EB
:100CC000A880F4362E600498287206990868401CA3
:100CD000086007B0F0BDD4D4B0B502AF86B004460A
:100CE000009101920748011D03AD0022062328460A
:100CF000FFF79EFF0F222046294607F0F7FC06B0BB
:100D0000B0BDC04630070020F0B503AFF9B01446BF
:100D10000C910890052081010EAD284610F0F3FDDE
:100D20000021082628460991324610F0D8F8FB4ADF
:100D3000334610F06EF9A0B20D907D21CD0029460A
:100D400011F064FA07950B904543651BA8B2642621
:100D5000314611F05BFA04460A964643A81BC0B21E
:100D60000A26314611F052FAED490D9A8A421ED9EF
:100D700076AA2E2191703025284310712C43D4700F
:100D800014460B98C0B20A2111F0D6FB29436170BA
:100D9000E4490D9811F03AFA2843207025460EA830
:100DA00008210D24224610F09AF8052311E0DE49AF
:100DB00076913021084376ADE8700C43AC700B9807
:100DC000303028700EA808210C24224610F087F835
:100DD00004232A4610F01DF9254608350EA82146A1
:100DE0002A4610F07CF8D14A082310F012F95EA8C8
:100DF000099901815F915E91FF203A3006900C982D
:100E00002246847A002C2CD00D950925002C11D077
:100E10000A2D01D300F064FD2046314611F0F6F9A9
:100E200031464143611A30220A435EA94A556D1E7C
:100E30000446EBE7691C5EA810F017F804460D465F
:100E40000D996E1806980830864216D20EA83246C2
:100E500010F045F822462B4610F0DBF8079D34468B
:100E60000DE009320EA82946144610F038F8B04AB1
:100E7000012310F0CEF8079D04E00C46079D06986C
:100E8000844209D2214608340EA8224610F027F8E1
:100E9000A84A082310F0BDF80B940C980489059417
:100EA0002046294611F0B2F907904543651BA8B2C8
:100EB0000A9E314611F0AAF904464643A81BC0B267
:100EC0000A210D9111F0A2F9059A95498A4221D97A
:100ED00076AD2E21A9703026304328713443EC7052
:100EE0009049104611F092F9304328700798C0B22B
:100EF0000A2111F021FB314369700698C01C0B993F
:100F0000814221D24E1D0EA832460FF0E8FF76AA8C
:100F1000052316E0844976913021084376AAD070E3
:100F20000C4394700798303010700698001D0B9990
:100F3000814209D20E1D0EA832460FF0D0FF76AACC
:100F4000042310F066F800E00E460698801C079017
:100F500086420AD2B21D0EA831460A920FF0BFFF98
:100F6000754A062310F055F800E00A9661A8099921
:100F70000181629161910C980468002C0B9427D038
:100F80000926002C11D00A2E01D300F0A9FC20461E
:100F90000D9D294611F03AF94543611B30220A4361
:100FA00061A98A55761E0446EBE7711C61A80FF013
:100FB0005CFF05460C460A9966180698083086427A
:100FC00015D20EA832460FF08AFF2A4623460BE0C0
:100FD0000698C51D0A99A9421BD24E1C0EA832467E
:100FE0000FF07DFF524A012310F013F800E00E4687
:100FF000B51D06980830854209D20EA831462A460A
:101000000FF06DFF4D4A062310F003F800E035465F
:101010000B9C64A809990181659164910C984668BC
:10102000002E2CD00A95354609260C95002D11D09E
:101030000A2E01D300F054FC28460D9C214611F0E5
:10104000E5F84443291B30220A4364A98A55761ED9
:101050000546EBE7711C64A80FF007FF04460E4637
:101060000A99751806980830854217D20EA82A46A4
:101070000FF035FF224633460FF0CBFF0FE0069806
:10108000C01D85420DD229466D1C0EA82A460FF0C0
:1010900026FF274A01230FF0BCFF02E00D460B9C00
:1010A0000C9EEA1D069808300A90824209D20EA8CA
:1010B00029460C920FF013FF214A07230FF0A9FFD6
:1010C00000E00C9567A8099D058168956795B44275
:1010D00015D9A51B0926002D34D00A2E01D300F006
:1010E00001FC28460D9C214611F090F84443291B31
:1010F00030220A4367A98A55761E0546EBE7069813
:10110000C01D0C99814231D24A1C0EA814460FF022
:10111000E6FE074A01230FF07CFF2BE0722701084F
:101120000F27000010270000302E3030EA2601087B
:10113000D82901083A270108D9290108DF2901081F
:10114000E5290108711C67A80FF08FFE05460E46C1
:101150000C9972180A9882420AD20EA814460FF00F
:10116000BEFE2A4633460FF054FF02E00C4601E073
:101170000C46099DF848C17800292FD0014630312E
:1011800011228A560B920E228A560592428F038FA5
:101190000393006B00904E7DC87C0190887C049086
:1011A0000D7C214610340A988442029208D20EA87F
:1011B00022460FF094FEF14A10230FF02AFF214639
:1011C000F0070DD00698001D814224D20E1D0EA8F6
:1011D00032460FF084FEEA4A04230CE02146EFE297
:1011E0000698C01C814216D24E1D0EA832460FF042
:1011F00076FEE44A05230FF00CFF079886420CD2D6
:10120000B21D0EA8314607920FF069FEDE4A062392
:101210000FF0FFFE02E0079100E007966AA80021A8
:1012200001816B910C916A91002D25D00926002D2A
:1012300010D00A2E00D351E328460D9C214610F011
:10124000E5FF4443291B30220A436AA98A55761ECA
:101250000546ECE7711C6AA80FF007FE04460D4630
:1012600007996E180A98864215D20EA832460FF0DA
:1012700036FE22462B460BE00698C01D0799814298
:1012800009D24E1C0EA832460FF029FEBF4A012398
:101290000FF0BFFE00E00E46059C31460C310A9867
:1012A00081420AD20EA80A46314607920FF017FE75
:1012B000B74A0C230FF0ADFE00E00796002C2FD4A8
:1012C00076A80C99018177917691002C37D0092668
:1012D000002C10D00A2E00D300E320460D9D294695
:1012E00010F094FF4543611B30220A4376A98A55CA
:1012F000761E0446ECE7711C76A80FF0B6FD044696
:101300000E46079975180A98854254D20EA82A46A7
:101310000FF0E5FD224633460FF07BFE2E464BE0F4
:101320000698C01D0799814216D24A1C0EA8079242
:101330000FF0D5FD974A01230FF06BFE0DE00698E4
:10134000C01D0799814236D24E1C0EA832460FF0BE
:10135000C6FD8E4A01232BE0079176A80C990181E6
:101360007791769164420925002C10D00A2D00D384
:10137000B4E220460D9E314610F048FF4643A11BC3
:1013800030220A4376A94A556D1E0446ECE7691CD3
:1013900076A80FF06AFD04460D4607996E180A9864
:1013A000864208D20EA832460FF099FD22462B46FF
:1013B0000FF02FFE00E00E4635460A350A988542AA
:1013C00009D20EA831462A460FF089FD724A0A2337
:1013D0000FF01FFE00E035460B9C002C23D476A8AE
:1013E0000C99018177917691002C2CD00B950925D1
:1013F000002C10D00A2D00D370E220460D9E3146FD
:1014000010F004FF4643A11B30220A4376A94A5537
:101410006D1E0446ECE7691C76A80FF026FD044615
:101420000E460B993EE00698C01D854218D26A1CF4
:101430000EA8294607920FF052FD564A01230FF0DD
:10144000E8FD0B9C0DE00698C01D854238D2294668
:101450006D1C0EA82A460FF042FD4C4A01232BE0DA
:10146000079576A80C9901817791769164420925B8
:10147000002C10D00A2D00D330E220460D9E3146BC
:1014800010F0C4FE4643A11B30220A4376A94A55F8
:101490006D1E0446ECE7691C76A80FF0E6FC0446D6
:1014A0000E46079975180A98854208D20EA82A4652
:1014B0000FF015FD224633460FF0ABFD00E00D4660
:1014C000EA1D0A98824209D20EA829460B920FF013
:1014D00006FD324A07230FF09CFD00E00B956DA836
:1014E0000C9901816E916D91049C002C25D00925E9
:1014F000002C10D00A2D00D3F0E120460D9E31467D
:1015000010F084FE4643A11B30220A436DA94A55C0
:101510006D1E0446ECE7691C6DA80FF0A6FC04469E
:101520000E460B9975180A98854217D20EA82A46BE
:101530000FF0D5FC224633460BE00698C01D0B99F0
:1015400081420BD24D1C0EA82A460FF0C8FCE64A79
:1015500001230FF05EFD02E0080B00200D462A4635
:101560000A320A9882421BD20EA829460B920FF02B
:10157000B6FCDE4A0A230FF04CFD12E02C2A0108CB
:10158000642601084C2A0108512A0108D8290108BB
:10159000572A0108632A0108642A01086E2A0108F3
:1015A0000B95039870AA0C99118171917091002884
:1015B00024D0092500280FD00A2D00D38EE10D9EDE
:1015C0003146044610F022FE4643A11B30220A4356
:1015D00070A94A556D1EEDE7691C70A80FF045FC17
:1015E00004460E460B9975180A98854215D20EA826
:1015F0002A460FF074FC224633460BE00698C01DC5
:101600000B99814209D24D1C0EA82A460FF067FCA7
:10161000B54A01230FF0FDFC00E00D462C460C34CA
:101620000A98844209D20EA8294622460FF057FC98
:10163000AF4A0C230FF0EDFC00E02C4601980EF0B1
:1016400009FF02460D190A9885420BD20E460EA8D4
:10165000214614462A460FF042FC224633460FF03C
:10166000D8FC00E025462A460F320A98824209D269
:101670000EA829460B920FF032FC9E4A0F230FF062
:10168000C8FC00E00B95029873AA0C991181749123
:101690007391002824D0092500280FD00A2D00D3EB
:1016A0001CE10D9E3146044610F0B0FD4643A11BDF
:1016B00030220A4373A94A556D1EEDE7691C73A8D1
:1016C0000FF0D3FB04460E460B9975180A98854215
:1016D00015D20EA82A460FF002FC224633460BE034
:1016E0000698C01D0B99814209D24D1C0EA82A46AE
:1016F0000FF0F5FB7C4A01230FF08BFC00E00D4658
:1017000029460E310A9881420AD20EA80A46294675
:101710000B920FF0E4FB784A0E230FF07AFC00E006
:101720000B9576A80C99018177917691009C002CFD
:1017300025D00925002C10D00A2D00D3CEE020465C
:101740000D9E314610F062FD4643A11B30220A4334
:1017500076A94A556D1E0446ECE7691C76A80FF081
:1017600084FB04460E460B9975180A98854215D2DB
:101770000EA82A460FF0B3FB224633460BE006982C
:10178000C01D0B99814209D24D1C0EA82A460FF0AC
:10179000A6FB554A01230FF03CFC00E00D466A1CF5
:1017A0000A9882420AD20EA8294614460FF097FBE7
:1017B000524A01230FF02DFC214600E02946099DE5
:1017C000CC1D0A98844208D20EA822460FF087FB4F
:1017D0004B4A07230FF01DFC00E00C460C951C2D16
:1017E0005AD00898465B0C9800280DD0621C0A98C5
:1017F000824209D20EA821460B920FF070FB012302
:10180000404A0FF006FC00E00B9476A8002101810D
:1018100077917691002E28D0079109950925002E01
:101820000FD00A2D51D230460D9C214610F0EEFC0F
:101830004443311B30220A4376A94A556D1E0646A1
:10184000EDE7691C76A80FF010FB05460E460B99D4
:1018500074180A98844216D20EA822460FF03FFB55
:101860002A4633460FF0D5FB0EE00B994C1C0A9824
:1018700084420BD20EA822460FF031FB01231A4AF4
:101880000FF0C7FB03E00C46099D00E00C460C98E6
:10189000401C0C90AD1CA2E7251D0A98854209D278
:1018A0000EA821462A460FF01AFB174A04230FF010
:1018B000B0FB04E00698C21D94420BD825460EA842
:1018C000294600F011F979B0F0BD0798C0430A210C
:1018D0000FF026FD002021460FF01AFD0C98F5E7C9
:1018E0000998F3E70020F1E7D8290108752A0108D3
:1018F0007F2A01088B2A01089A2A0108A82A0108D0
:10190000A92A010811260108B8260108F0B503AF7D
:1019100097B005A8402101910FF0F5FF4D4DD4225D
:101920004B4B98588026311A1C8FA14229D204961D
:10193000D02103915E58311A8031A14201D2324642
:1019400040E0802E029203D1049E009603990FE09E
:1019500031467F2E049E77D8421A184650304118DF
:1019600010F0C3FB3A4B0298185803995A5800924A
:1019700000225A500099401A029A9850311AA142F6
:101980005BD3164601191A4650321C4680230FF0CD
:101990002CFF02460B462146343115AC20460CF094
:1019A00089FF2078012804D16178002901D1002025
:1019B00002E000283AD11698254B995908189851F9
:1019C000D0215A58904231D0861A402E00D3019E21
:1019D000B1182DD281292BD2039105A9049140245D
:1019E0003046029222461C460FF0A1F8029AA21835
:1019F000503233460FF00DFBD0200399215004984C
:101A000031460FF011FA002989D0C023EA58561C3C
:101A10007F243440C426AE59B44204D07F2A0FD864
:101A20000678AE54EC50401C491EECE717B0F0BDF0
:101A3000802310461A460FF06BFC45200FF06CFC1B
:101A4000802110460FF06CFC084680210FF068FCE6
:101A50004C0000202C08002080B500AFEFF310816F
:101A600072B60248006881F3108880BD000B002028
:101A7000FEB506AF02460368406883422AD0581C70
:101A8000106019784CB20120002C2BD59C1C1460DE
:101A90005E783F24019426401F240C40E0291BD38C
:101AA0000094DD1C15609C780294019D029C2C40E2
:101AB0000294B601029C3619F02910D3191D116049
:101AC000D978019A1140B2015118009A5207D20AEE
:101AD000891807E0002005E0A101891902E00099BA
:101AE0000903711803B0F0BDF0B503AF89B00A4621
:101AF000069001200290400208900026059196422F
:101B000057D2304606990FF01BF807900C46B720C5
:101B100085002B4B585908990A1A94422AD95B21FF
:101B2000C90004915958029B5B02994204D00029D4
:101B3000089B07D1224B1DE0089903912946204DAF
:101B4000049B0EE00195994235D2421A1C4D28465D
:101B5000D830411810F0C9FA01996858049BEA5826
:101B600003920022EA50039A801A6850089A121AC7
:101B70002B460D46944200D31446002C0DD021185C
:101B8000D8331A46089B0FF030FE079A23460FF011
:101B900040FA0B4B58590019585118460CF0A6FF43
:101BA000002C059A05D0A619401EC0B240087E2818
:101BB000A5D809B0F0BD084608990FF0B1FBC046A2
:101BC0004C000020F8B504AF0091456801220021C7
:101BD000402D164600D30E460368802B144600D3D2
:101BE0000C463440382129400901009E711807260F
:101BF0002E40B240D5430095057A2846EDB2022D1D
:101C00000BD00225002CF8D0CE5CC00702D1009882
:101C1000064000E01643CE54EFE7F8BDF0B503AF41
:101C2000E1B01F914268E7498A420C92079200D3C3
:101C30000791417C0691017C0E9101680B91017A1C
:101C400012914EA90A461C320A922431149140A9DD
:101C500024310391C1682291C17C1E91817C16912F
:101C6000417A119141691B9181691891C169109163
:101C7000006A1D9007200F90C0010D9000260120E2
:101C800020901C9615961598C00700D002E3189C6A
:101C90001C9819968442054666D31B984019611B0F
:101CA000072907D80023994258D0C25C0A2A44D099
:101CB0005B1CF8E7C21C03239A43121A05D11C953A
:101CC0001A9108392191002210E00023C45C0A2CEB
:101CD00007D05B1C9A42F9D11C951A9108392191C1
:101CE00002E0189C199E28E08A4213D88418646880
:101CF000B5494C40B54B1D1B2543845826464E40E4
:101D00009E1B2643B2490E402E408E4202D108321D
:101D10002199E9E71A99914229D080181899891ACE
:101D20001C9D4B1B0021199E445C0A2C03D0491CAE
:101D30008B42F9D11CE08B18189CED180020691C0F
:101D4000A8D0A1420846A5D81B98405D0A2808469D
:101D5000A0D10020159017911C910EE017961C94AD
:101D600020981590254608E01C951796F8E7199ECF
:101D70001796189D1C95209815901B9880191A90FD
:101D8000AE1B129800281D9C109829D0129801288B
:101D900016D10096119801904EA822990E9A1A9B7E
:101DA0000EF0E9FF5398C10F401840101D990C1A0E
:101DB0005298401EC10F401840101099081A0FE0A9
:101DC0000096119801904EA822990E9A1A9B0EF037
:101DD000D2FF53981D990C1A52981099081A401C5A
:101DE00021902298C0690C994843642110F00EFAA2
:101DF00001460B98002800D1079919988542139144
:101E000001D1002505E0751E1A98405D0D2800D00F
:101E10003546229811990CF05DFA201A19901698FF
:101E200002280FD11E98022800D099E022998869D3
:101E3000096A0C181A9841190EF08FFB604321991A
:101E40004518EAE11E98022800D031E12298026A82
:101E50008169199800901A980190029540A8219BD9
:101E60000CF01BFA5EA840A90EF092FB609A501C81
:101E700000D1D1E15748101A00D200205E9D002801
:101E800002D00128EED0C8E15F981A9033A82299B9
:101E90000FF061FA369C60426041379E002E209917
:101EA00000D001460029DDD134980028DAD4359BD2
:101EB000002BD7D4339A0119099292680892914263
:101EC000D0D89A190999C9688A42CBD8099A116859
:101ED0000491516805910899C91D0F9A91430A1BF5
:101EE0004B43181800960190029223A80990049978
:101EF000059A23460CF0A0FC319630941A982F9046
:101F00002E952BAC169820704EA82EAA09990EF08B
:101F1000FFFA5C943AAC4EA920460EF00FFF207AEF
:101F20000028F7D002289DD03A997F29F2D83B9B10
:101F30003F2BEFD818010F9A134001229A400D9BB6
:101F4000184008435C990978002904D01F9B195C4C
:101F500011431954DEE71F9B195C91431954D9E7CB
:101F60002298026A8169199800901A980190029546
:101F700040A8219B0CF091F95EA840A90EF008FB47
:101F8000609A501C00D147E1C348101A00D20020CB
:101F90005F995E9D00281FD0012800D03DE1229866
:101FA000006A0028E8D050904F914E952298C06961
:101FB000519001221E9802404EA91F980EF0F5FF85
:101FC000DAE7C046FFFFFF7F0A0A0A0A00010101A3
:101FD00080808080FFFF10001A9133A822990FF0B3
:101FE000BAF9369C60426041379E002E209900D09D
:101FF00001460029C0D134980028BDD4359B002B60
:10200000BAD4339A01190992926808929142B3D8CE
:102010009A190999C9688A42AED8099A1168049137
:10202000516805910899C91D0F9A91430A1B4B43AA
:10203000181800960190029223A809900499059A15
:1020400023460CF0F9FB319630941A982F902E9578
:102050002BAC1E9820704EA82EAA09990EF058FAA3
:102060005C943AAC4EA920460EF068FE207A002817
:1020700002D00228F5D17FE73A997F29F1D83B9B1E
:102080003F2BEED818010F9A134001229A400D9B66
:10209000184008435C990978002904D01F9B195CFB
:1020A00011431954DDE71F9B195C91431954D8E77C
:1020B0002298026A8169199800901A9801900295F5
:1020C00023A8219B0CF0E9F82BA823A90EF060FAB5
:1020D0002D9A501C00D19FE06F48101A00D20020AA
:1020E0002C992B9D002814D0012800D095E022982F
:1020F000006A0028E8D050904F914E952298C06910
:10210000519001221E9802404EA91F980EF04DFFDB
:10211000DAE71A912EA822990FF01DF9319C60423E
:102120006041329E002E209900D001460029CBD17B
:102130002F980028C8D4309B002BC5D42E9A0119A3
:102140000992926808929142BED89A190999C96871
:102150008A42B9D8099A1168049151680591089981
:10216000C91D0F9A91430A1B4B4318180096019002
:10217000029233A809900499059A23460CF05CFB5F
:102180003D963C941A983B903A953EAD169828702F
:102190003FAE1E9830703AA903980FF001FB40AC97
:1021A0001C22204609990FF0FDFB489547964EA842
:1021B000382221460FF0F6FB00205D905C905EA86F
:1021C00014990EF002FE5E98012800D07CE7609D15
:1021D0005F9C4EA80EF082FCC1B2022900D173E7C9
:1021E0007F2CECD83F2DEAD828010F9A1540012208
:1021F000AA400D9B1840204389000A9B5958097832
:10220000002904D01F9B195C11431954D7E71F9B69
:10221000195C91431954D2E7219D179E139A1D987A
:1022200010181D902198854200DC2CE52C1A069888
:10223000169906F066FAC2B2022A0FD0509421987D
:102240004E902299886AC96A5191199940184F9005
:10225000012002404EA91F980EF0A7FE0E98169975
:1022600006F04FFAC2B2022A179D2E46219800D1DD
:1022700009E550944E902299086B496B5191199938
:1022800040184F90012002404EA91F980EF08DFE7D
:102290002E46F8E461B0F0BDFFFF1000F0B503AFCB
:1022A000D5B00191036842688568C46821460A92E6
:1022B00051402A465A400A430B9310940F9501D07F
:1022C000064600E08A4E417D0D91046931A83146F1
:1022D0000FF070F832687068B368F1681646529073
:1022E00051921193D21A121854920D1AA8195390A0
:1022F00012A851A90FF05EF80B980F99081AC11790
:102300004840411A0A98109A101AC2175040801A71
:10231000884200DC0846002C01D102210D91119A5F
:1023200074498C4200D30C46401C0E90640012ABE2
:10233000743338A86030089001201090C00702D094
:1023400064430020FAE7961B1098C00702D076433A
:102350000020FAE71098C00702D06D430020FAE78A
:102360003598079036980690329804901598059005
:10237000149803903198029038A80C9031A91C222F
:1023800011920F930FF00EFB0C981C3012A9119AAA
:102390000FF008FB01201190089B98700020099015
:1023A0001870029840420399484004994942059A9E
:1023B00051400143484248415870A819444347944A
:1023C000079806994018C10F401840104690099D83
:1023D0004F954E950A9E4D960B9C4C944B954A9565
:1023E0004996489451A80C992A460FF00BF8169577
:1023F0000E98159014951396129412A81430642216
:102400000E900C990FF076FE2B460F9A0D991171D4
:1024100028460D91C9B2022967D000282FD12598EE
:102420001099C90702D040430021FAE72699884253
:102430005BDC927831A80E990EF0E4FF3198C10769
:1024400001D1442100E0402112AA5158259A511887
:102450002591349B339E329C0F9A1178002905D127
:1024600091781D46119B59402B46917014931396F9
:102470001294119908401599081A1690CDE7401E3C
:1024800016901D998B4206DD1C995B1A1A997118DA
:10249000199AA51801E0314625461A46189B5E1880
:1024A0001396179B5C1912941B9BD31814937F2DC2
:1024B00018D8402916D209930B9407240C40119B7D
:1024C000A34038240C40210129430D9AD20703D0A0
:1024D000019C625C1A4302E0019C625C9A43625474
:1024E0000B9C099B0F9A117993E755B0F0BDC0463C
:1024F0000C2A0108FFFFFF7FF0B503AF9DB00D462A
:102500000646847D002C08D0012C0CD13069401C7B
:1025100001D30020C043400806E030693F498842AB
:1025200002D3084600E00020424205A831460FF0E1
:1025300070F8327D022A05D00120024005A9284604
:102540000EF033FD707D022865D03169002962D01C
:10255000002C03910495029008D0022C05D12F483D
:1025600081420C4602D3044600E04C0809A83146DB
:1025700022460FF04EF80B9C0F940A9E0E96099B74
:102580000D930C984508039AAA4200D81546109559
:1025900013941193411B914200D31146009401936F
:1025A0001491401A00D20020801912900120029C40
:1025B00004400DA90296049E304622460EF0F5FC1A
:1025C00011A93046264622460EF0EFFC0898002856
:1025D00021D01890029969181691039A5300009C13
:1025E000621C9A4200D31A4652081792019B159317
:1025F0001C901B921A91A01A049C00D20020C018B3
:10260000199015A9204632460EF0CFFC19A9204694
:1026100032460EF0CAFC1DB0F0BDC046FFFFFF7F82
:10262000F0B503AF87B00291054680B203907D21DB
:10263000CE0031460FF0EAFD01904643AC1BA0B23C
:10264000642631460FF0E2FD05464643A01BC0B2AA
:102650000A210FF0DBFD2049039A8A421DD9562139
:10266000029C61712E21A1703026304320713543C8
:10267000E5700198C0B20A210FF05EFF314361702E
:10268000174903980FF0C2FD3043207004A80622BA
:1026900021460EF081FD052511E0562202990A71AE
:1026A0002E224A7030221043C87015438D70019855
:1026B0003030087004A805252A460EF06DFD0498F8
:1026C000002802D1059802D002E0044800D1069DFE
:1026D000294607B0F0BDC0460F270000D22A0108E6
:1026E00010270000F0B503AF85B0049104462849D7
:1026F000884200D30846039026490FF087FD302614
:10270000202225498C4201940296009201D810465D
:1027100000E03043049D28700A24039E3046214681
:102720000FF074FD21464143711A029E3143297115
:1027300021460FF001FF019D092D02D8009E314670
:1027400001E03143009E0498C170642103980FF0AA
:102750005DFD21460FF0F0FE632D01D8314601E00A
:1027600002980143049881707D20C10003980FF006
:102770004DFD21460FF0E0FEE8087C2801D83146E7
:1027800001E0029801430498417005B0F0BDC046D5
:102790009F860100102700000F270000FEB506AF3E
:1027A0000C4600B2092801DC202100E02B21082280
:1027B000D243904200DA2D2121700A2529460FF0DC
:1027C0004DFE01B2C9134840461AB1B2632907D978
:1027D000252020713020E070A0703120607017E05B
:1027E0002020607009290DD925202071F0B22946DA
:1027F0000FF00CFD302145430843A070701B0843C7
:10280000E07005E025212171A07030200643E670BC
:102810006846052221460EF0BFFC032100980028DF
:1028200002D1019802D002E0024800D1029903B01F
:10283000F0BDC046D72A0108F0B503AF8C4EB544B1
:102840008C4868445F908C48684462908B48684428
:1028500075908B4A6A448B48684467900B2065905A
:10286000C004894B5969014359613F206E900003B0
:10287000864B1968814315205D9000030818186085
:1028800001207E9000027B90C0309861804B1868D8
:10289000804908401860D86808405521090640184A
:1028A000D8607D4908683024A0430860C8681023B8
:1028B0007D93184320232F939843C8607749694438
:1028C0000846403073908C316B91754868442830CD
:1028D0004E907448002802D000BF401EFAE76D9267
:1028E0007D2076900001809000263546052E0ED082
:1028F0000DF000F88099002902D000BF491EFAE7C8
:10290000C0434221084200D16D1C761CEEE7032D26
:1029100001DB0DF053F86448401C5B4B1968014320
:1029200019607E984204614E31460846196811428A
:1029300002D1411C0028F8D16A920028554D28D0B8
:102940005B481121016058685A4A02400804101877
:102950005860681C1968014319603046196889017C
:1029600003D4411C00280846F8D1586802210143CD
:102970007E9881435960304659680C220A40082AE3
:1029800003D0411C00280846F6D1186B8021014372
:1029900019634948016829400322709292078918F7
:1029A000016046484649416000258560072136910F
:1029B00001607E98810284A80EF0A5FF1F2080048C
:1029C000314A5169014351613E4A10683E4908400D
:1029D0003E49401810603E4B18683E4908403E4949
:1029E00040185E3018602A4A10683C4901403C4853
:1029F00008181060284908684022839210438022FA
:102A00007892904308603748214988613648986138
:102A10003648401C98617B98F430002802D000BFF3
:102A2000401EFAE77D982A4988617B98F430002897
:102A300002D000BF401EFAE77E9BD80431902449A3
:102A40008861204A5069E22101431D200B90814397
:102A5000516178980E49886100BFD80577908861E8
:102A600023480146002945D000BF491EFAE7C04669
:102A7000F4E3FFFFE81B0000681B000034110000B6
:102A8000AC100000100600000010024000080048D2
:102A9000000C0048FFFFFF00001400481C06000067
:102AA000501B0000409C0000FFFF00006079FEFF0B
:102AB00000200240FCFFC0FF20ED00E010E000E03D
:102AC0007FBB0000001000480000FFFF55550000CC
:102AD000000400483FF0FFFFE2040000CF3FFFFF8B
:102AE000104000008000040018002000FFFF0F00CD
:102AF00010270000319BE2498B61E2494969AE220F
:102B00008292114351229143DE4A5161DE49789A03
:102B10008A6100BF779A8A61D9498B61D94B59691B
:102B2000A4220A435B218A435A617899D64A91616B
:102B300000BF779B93613199D14A9161D14949692D
:102B4000A3220A435C212A918A43CE494A6178999B
:102B5000CD4A916100BF93613199C94A9161C94BD6
:102B60005969C0225C9211436E9A91435961789BD6
:102B7000C54A936100BF779991613199C04A9161CB
:102B8000C0494969A1220A435E218A43BD494A617D
:102B9000BD498B6100BF779A8A61B949319B8B61CE
:102BA000B84949692F2274921143D022329291433D
:102BB000B44A51617899B44A916100BF77999161A3
:102BC000AF498B61AF4B5969232241921143DC22FB
:102BD00091435961AC49789B8B6100BF779B8B61B6
:102BE000A749319A8A61A749496981225E921143B6
:102BF0007E229143A34A51617899A34A916100BF13
:102C000093619F49319B8B619E4B596925220A43F1
:102C1000DA218A435A619C49789B8B6100BF779A7D
:102C20008A619749319A8A6196494969839A114321
:102C3000BF229143934A5161934A936100BF7799B0
:102C40009161319B8E498B618E494969B0220A435B
:102C50004F218A438B494A618B49789A8A6100BF28
:102C6000779A8A6186498B61864B5969042226923C
:102C70001143FB22914359618349789B8B6100BFCB
:102C8000779B8B6131997E4A91617E4949697D9A32
:102C90001143EF2291437B4A516178997A4A9161BD
:102CA00000BF93613199764A916176494969AF22B3
:102CB0005A921143502264929143724A5161789919
:102CC000714A916100BF9361002802D000BF401E8D
:102CD000FAE76E4AD06902210143D16170988004FD
:102CE0006B4A11688143319801431160506AF021A9
:102CF00088435062674974988862C5206090830059
:102D00006C93D333CB620B640D200A90C002C86170
:102D10007E980203086A7C92104308627E9848619C
:102D20005E98086008225C484792826134930B6485
:102D3000564A50695949014351617E9B5802916935
:102D40000143916109202790C20610685449084345
:102D50001060D068534908406892D06048480168C4
:102D60000F2211430160C16881929143C160484ABA
:102D70001168709801431160D1688143D160DA070E
:102D800049490A610B608B600A68D20703D1721C43
:102D9000002E1646F8D1809A2F328A62369A4A61FE
:102DA0007E98C860414A95600B4640331361404BA2
:102DB00018335361659BD3603E4890608E68269BB4
:102DC0001E438E603C4E13689B0703D4731C002E79
:102DD0001E46F8D14C263948622E06D0344B9B193A
:102DE000343B1B888353B61CF6E78198506018204B
:102DF0002E90086095606598D0602E489060886835
:102E0000269A104388602E48016840682D4E2E4A4D
:102E1000914269D1C01E022866D22C4C6C442046D7
:102E200041303F210FF0BEFA002083996054679C27
:102E30002749E1622749216327496163274AA26341
:102E4000274AE26326646264A664264E7E9A1204D0
:102E500004231D4DE56023616261A661E1611F49A4
:102E600021621B4961621B49A162802800D197E061
:102E700013490958154A6A441150001DF5E7C04628
:102E80000004004800100048000C004800100240F8
:102E900000080048000400400014004801000E0033
:102EA000FFFF00000000FFFF00240140000002407F
:102EB000080B002081250000C0F2FCFF70060020F6
:102EC00000F001089E0F0000594B53461C060000FD
:102ED000D40100082C0E00007A010008860E0000C4
:102EE000620000080A2C2500EC48016881914068C6
:102EF0007F90EB4E6E44304641303F210FF052FA46
:102F000083983554679AE748D062E7481063E748EA
:102F10005063E7489063E748D063E7491164506421
:102F200091647E980104E548D060269B13617F9BE5
:102F30005161E3499161DD49D161DD491162D949AE
:102F40005162D94991628199814229D1581E012843
:102F500026D81036202D08D0D0484019C1687151AC
:102F60007119006948600835F4E7CC4A402C0AD052
:102F70001019001F0068CA496944085108191159FD
:102F800041600834F2E7022B0AD1CE480178C44AE6
:102F90006A445172417891728178D172C07810730D
:102FA000BF4868440CF062FF0025839528462E46F2
:102FB000102D17D08190C44C6C4420460BF04CFF70
:102FC000C248431CE28861882088002B02D000BFE1
:102FD0005B1EFAE7839B9B188393761881990818E8
:102FE0006D1CE5E70309BA48181884B23109E120DD
:102FF000669080007F906530B64A844201D2B64C1C
:103000006381839B1B098C18A4B2844201D2B24C09
:10301000E182991889B2814202D24620AE490B5210
:1030200000206799C86008614861AC490C2805D048
:10303000425C9B4B6B441A54401CF7E79848684429
:10304000C47A817A8391417A7991017A8191C179A7
:10305000719181796F914179639101796991C17819
:103060006191817859914178589105780CF042FC32
:103070007290279880049A4A51690143516190697E
:10308000984901439161984A106880B29749401865
:1030900010606E988006916801439160506A94496F
:1030A00008409449401850627C9890619248906121
:1030B00092489061924A106830215591884310607F
:1030C000D0687D9908432F998843D0608D4AC032DB
:1030D0008D48016811407B9A114301608B4801685B
:1030E000269A114301608260894E002131606C98FC
:1030F000306017225B921202099272604030306099
:103100007498C0437A902030B268D20704D0002867
:1031100002D0327B401CF7E7589800024019599AB8
:1031200012048018619A12068018639A1202699B31
:10313000D2186F9B1B04D218719B1B06D2184240F9
:1031400079980002819BC018839B1B04C01823063A
:10315000C0185040719058486230729A44900240B2
:1031600050927E9800078190052900D1D6E00C4648
:10317000684B1846B168090603D5411C002808466B
:10318000F8D159488199816100BF00BF1846B168E4
:10319000090603D5411C00280846F8D11846B16835
:1031A000890703D4411C00280846F8D1A0253573AF
:1031B0001846B168C90703D1411C00280846F8D158
:1031C000307B1846B168090603D5411C0028084623
:1031D000F8D100BF00BF44487C99816100BF00BFA7
:1031E0008098002802D000BF401EFAE70020014668
:1031F0000DF056F87698C001002802D000BF401E9E
:10320000FAE70B2019210DF04BF80C2001210DF0ED
:1032100047F835483849816110200CF0DBFF3E4902
:1032200048713C4B1946B268120603D54A1C002966
:103230001146F8D12C49819A8A6100BF00BF194616
:10324000B268120603D54A1C00291146F8D1194666
:10325000B268920703D44A1C00291146F8D135738D
:103260001946B268D20703D14A1C00291146F8D189
:10327000317B1946B268120603D54A1C0029114653
:10328000F8D100BF00BF18497C9A8A6100BF00BF17
:10329000611CC0B29E2842D066E7C04600F8010813
:1032A0001C060000D40100082C0E00007A01000862
:1032B000860E0000620000089E0F0000594B534626
:1032C0000A2C25003CF8010850110000B70B000043
:1032D00024FAFFFF24FA000070060020ACF7FF1F5D
:1032E000001002400110020000100048000055A923
:1032F000FFFF0F000000101100030003000400088E
:10330000000400483FF0FFFF080001400C040140AA
:1033100000300140F0D8FFFF080B00200524DF48F3
:10332000B168090603D5411C00280846F8D1DC48DD
:103330008199816100BF00BFD848B168090603D5F3
:10334000411C00280846F8D1D448B168890703D445
:10335000411C00280846F8D106200D903073CF4854
:10336000B168C90703D1411C00280846F8D1307B59
:10337000CA48B168090603D5411C00280846F8D19F
:10338000C648B168890703D4411C00280846F8D113
:10339000542008903073C148B168C90703D1411C5B
:1033A00000280846F8D1307BBC48B168090603D52F
:1033B000411C00280846F8D1B848B168890703D4F1
:1033C000411C00280846F8D175203073B348B16815
:1033D000C90703D1411C00280846F8D1307BAF480B
:1033E000B168090603D5411C00280846F8D1AB484E
:1033F000B168890703D4411C00280846F8D16098B9
:103400003073A648B168C90703D1411C002808469B
:10341000F8D1307BA148B168090603D5411C0028CA
:103420000846F8D19D48B168890703D4411C00289B
:103430000846F8D12A20409030739848B168C907EF
:1034400003D1411C00280846F8D15994307B934A97
:103450001046B168090603D5411C00280846F8D17A
:1034600000BF00BF8E487C99816100BF00BF00246F
:103470008C4D322C08D0295DFF2903D020460CF05A
:103480000FFF864A641CF4E71046B168090603D5AD
:10349000411C00280846F8D181488199816100BF0C
:1034A00000BF1046B168090603D5411C0028084634
:1034B000F8D11046B168890703D4411C002808469A
:1034C000F8D1A02030731046B168C90703D1411C60
:1034D00000280846F8D1307B1046B168090603D5AC
:1034E000411C00280846F8D100BF00BF6C487C99F9
:1034F000816100BF00BF0220012152910CF0D0FE7B
:10350000664C02200CF066FEC00703D0601C002C45
:103510000446F6D124201321634C3F905791A047D5
:1035200026203B213E902491A0470F20002183912B
:10353000A04702200146A047584C02200CF04AFE4A
:10354000800703D5601C002C0446F6D10F20A0256F
:10355000699029460CF0A4FE022001460CF0A0FE62
:103560004E4C02207D900CF035FE800703D5601C88
:10357000002C0446F5D125200A213D9061910CF0E4
:103580008FFE4A48464988611F2016900CF080FE45
:10359000424A1046B168090603D5411C0028084676
:1035A000F8D13F488199816100BF00BF1046B168E2
:1035B000090603D5411C00280846F8D11046B16819
:1035C000890703D4411C00280846F8D135731046FA
:1035D000B168C90703D1411C00280846F8D1307BE7
:1035E000334CB068000603D5501C002A0246F8D1BF
:1035F00000BF00BF2A487C99816100BF00BF102036
:103600002C900CF0E7FD589060717598839AC26118
:10361000026242628262719B190E799115466800BE
:10362000A907C90F081879994018709908402921ED
:103630006F914843401C7E900F2D41D8521CC82AE0
:1036400001D8052400E003247B98F4308242839261
:1036500000D9012417484343174818188190E840BF
:1036600029210EF069FF7E980818C1B20022954208
:103670000DD0124B6B449B5CCB1ADE1773409B1B27
:10368000DBB2521C9C42F2D9839A819BD4E70B494E
:10369000694448556D1C839A819BC0E7F0D8FFFFB1
:1036A00000100048253D0108A102010800010003A7
:1036B000080B00200D6619005FF36E3C50110000EE
:1036C000FC4801684068FC4A9142FC4B11D1C01E85
:1036D00002280ED2F748007A132800D31320C00125
:1036E000F449081878994458601E0121C94388425A
:1036F00010D37A9C2F341968586891420AD1401E21
:103700000228529806D2C0439C68611E814201D3B0
:103710007A9C2F340020EA4A1C2804D0E9496944E5
:103720000A52801CF8E7E84868448394E74C214635
:103730006CC86CC171982061839D6561204618300A
:10374000E04969441C2263920EF02CF92046343083
:1037500011212D910EF0D7F8492100205691605487
:10376000691C4A1E914148220692A154462181912A
:10377000605245227D990792A154D549086088601E
:10378000749A8A627C9AF73ACA620861529ACA604D
:10379000FF2228921304CF4A14689C43779B1C4352
:1037A0001460CD4CFF3413692340529CE40323433F
:1037B0001361CA4B2833CA4A1360529D0D60599950
:1037C000052900D305465898C0B29E384142414170
:1037D0005098002804D052980E460BF0E5FA314676
:1037E00029435991BF4A50696A9B18435061809898
:1037F0003030916901439161709A1004689D296885
:10380000814319432960686A7D9908430A9988436E
:103810006862B54974988862682088610A624C645D
:10382000002501207490000667990D604D60886046
:10383000AE48684429460AF007FFA34C6C4414269E
:10384000002E08D0A9496944802220460EF052FC7F
:10385000761E8034F4E76798A54BC362A54A0263DD
:10386000A54B4363A54E8663A54CC463A54901647B
:103870004464816474990A048F4CC4602699016180
:103880007C924261A049024618324AC2984941627C
:10389000984981624021739812910EF034F889485A
:1038A000684483908030052125914A028649694405
:1038B00051900EF01FFC6698C0007E907D4908680C
:1038C0004968A04211D1C81E01280ED871915D9897
:1038D000C00179900020799981427CD075490958BE
:1038E000784A6A441150001DF5E7839810308390A0
:1038F0007248016879914068829067987C4BC362F6
:103900007C4901637C4E46637C4C84637C4AC26381
:103910007C490164426481646749C1602699016100
:103920007C99416178498161C66104624362714951
:103930008162402173980DF0E6FF519C142D0DD04B
:10394000614E6E44304629460AF07EFE80222046B3
:1039500031460EF0CFFB80346D1CEFE75648799965
:1039600081427E9E00D0ECE18298401E022800D366
:10397000E7E17D98C143514B9868421E8A4201D8C5
:103980006B9908600020559C839D202811D0191840
:103990000A69C968295029184A600830F5E718599A
:1039A0001919091F0968474A6A44115111194860D9
:1039B0000834402CF3D18298022800D0BDE153484E
:1039C0000178404A6A445172417891728178D1728B
:1039D000C0781073B1E104206799374ACA60086162
:1039E00038486844407B232801D33C2803D9354814
:1039F00068442C21417333486844007A132803D962
:103A000030486844002101722E486844007B002839
:103A100001D00B2803D32B4868440A21017329489D
:103A20006844807B0F2801D3372803D92548684490
:103A30002521817323486844C07B032803D921488A
:103A400068440021C17373980078022802D30020D3
:103A50007399087000201B4A6A4420285AD02C49C8
:103A6000C93118280B4601D0154BC833002800D0A7
:103A700019461218134B6B441B185E8A148AB44201
:103A80000BD2104D6D442D18AD8AAE4205D2322CAA
:103A900003D31C4C3434A54209D97E9CF8345C8293
:103AA000631A1382074A6A4412180C43948208303E
:103AB000D1E7C04600F00108594B534600F8010811
:103AC000DC0500001C060000501100000000002072
:103AD0000044014004E400E00000FFFF1800200063
:103AE00000E100E000100240002C0140501B0000EB
:103AF000D40100082C0E00007A010008860E000098
:103B0000620000089E0F00000A2C25003CF8010806
:103B1000AF0400007A9820307E9EF2496944002864
:103B200025D009184031EF4A6A4412184223D55A69
:103B30000B88AB420DD2EB4C6C4424184426A45B9A
:103B40007E9EA54205D2322B03D3E74B34339C42F1
:103B50000BD94232E34B6B441B184424E24D1D53F6
:103B600062230B803146F83111800830D5E7002000
:103B7000DC4E6E447C9080300246DA496944799884
:103B8000824200D1D5E078928D187221695C0229B9
:103B900003D32946723100220A707321695C04291B
:103BA00003D32946733100220A707C98401C779019
:103BB0007A992D3100292BD07218A520135C1E2B69
:103BC00001D3652B03D31046A53064230370A820CE
:103BD000135C1E2B01D3652B03D31046A830819BA9
:103BE0000370AB2014566320C3439C4201DB652C59
:103BF00003DB1046AB3000240470829814569C42BC
:103C000001DB652C02DBAE3200201070491CD1E7CD
:103C1000A97D052901D30021A9753E21695C0429EC
:103C200003D329463E3100220A706E98295663223A
:103C3000D243914201DB642903DD29463F31002252
:103C40000A70698E7F98814202D3A848814202D9C6
:103C50007F9964316986298F6A6B0A430CD12946A2
:103C6000343135220823AB540022AA87A048A86328
:103C7000A048E88607220A70B421BE2906D0725CEB
:103C8000192A01D900207054491CF6E77A980028B7
:103C900022D033181A46F03214780E2C0BD8F124A7
:103CA0001C5D192C07D8F5241C5D022C03D8F424C4
:103CB0001C5D0B2C0ED3F424839000201853F224A7
:103CC00031462E4664251D5335460E46F1241855BF
:103CD00010708398801DDAE7E97D09290AD005294B
:103CE00008D0002129848448E86184486883697683
:103CF0000521E9752978491EFE2915D380482881B8
:103D00008048A880804828607C98401C8390C0B27E
:103D10000A2421460EF07AFA44433030A871839881
:103D2000001B30210143E971803677987C907898A8
:103D300021E7719803287E9E03D16A4868440CF0FD
:103D4000F3F9684D6D44A97A481E81416F48684473
:103D5000C1720AF091FAE87B0BF022F900246C485A
:103D6000847173980078414241416A4A51700A99BE
:103D70004904694B5A690A435A6170998906674A2E
:103D800012688A43749B99065118644A1160644909
:103D9000002802D00846C13000E058075F4988611A
:103DA0006048684444810481C4808480697A4A1EE2
:103DB00091410173297A132900D35799C901519A66
:103DC00051180A8A02804A8A4280C8680BF024F897
:103DD00067988069619948430AF0CAFAA87B0AF09B
:103DE0009FFA0C2C06D03046F8304F4969440853EE
:103DF000A41CF6E700203C4B0C2806D01946613184
:103E00004A4A6A441152801CF6E700244E98047016
:103E100062988460446004604348684483904448E6
:103E200068440146839E2CCE2CC1209001460C3163
:103E30003E4868441F912CC82CC14E9844703D499F
:103E40006298C1603C48684404776D98046044609F
:103E50008460C4600161446184617F987C303C90DF
:103E60007299014205D032486844284969440AF0F1
:103E700073F9209818302090E0434D907E9D0C2CD3
:103E800006D02846F8302D4969440853A41CF6E7AB
:103E90004B203590400166904E980078002800D065
:103EA000EBE1002082907C90FDF7D6FD83901F4CC3
:103EB0006C4420460CF008F8F8350BF01BFD284048
:103EC000217865782E4678910E43A3781E43E278D8
:103ED00016430821645E1A498C4233DD002837D02E
:103EE000C4E1C0461C0600009E0F0000340800001C
:103EF000090A0000050600004B64000019320000AA
:103F0000202000004C2000004D4F444510060000CA
:103F1000080B002070060020001002400008004836
:103F20003F1F00009C100000D8100000501100003E
:103F3000501B0000FFFF0000AC100000CC10000080
:103F40007CFCFFFF002800D090E1002E00D18DE125
:103F50007994719573937792AE480AF099FEAE4CBE
:103F60006C4420460AF0F8FE7598C06A0090AB4A8F
:103F70006A44839D2846A74923460BF08DF97C9817
:103F8000281A6C990B3188421FD9A5486844322100
:103F900001816499C180022181726699C831818052
:103FA0006799A04A0A60C07A01287C950DD17B9858
:103FB0007F309D4AD0625C995163516A814201D938
:103FC000002050625E9810607C958298291A212901
:103FD00000D21CE16420642900D30146729090480D
:103FE00068440AF019F9749CA10284A86A900DF043
:103FF0008AFC0320010288486844829101810921DA
:1040000010226D9B894D9D63894DDD63894D1D6433
:10401000699D5D649A64D964DC62729919631D4676
:104020006A9C2146FDF7FAFD7F2100207290E8622C
:10403000659828636B916963A8637498E8637E4808
:104040002864754868442146FEF728F97B48799929
:10405000814216DD70486844829901810221642200
:104060000123EB622A63714AAA63714AEA63744AC4
:104070002A645D9A6A64A9645B99E96484A9FDF77E
:10408000CDFD002E00D196E06348684482990181FD
:1040900022210224642201236A93EB6279922A632B
:1040A000624AAA63624AEA63664A2A64699A6A644F
:1040B0006894AC64E96484A9FDF7B0FD5F98624937
:1040C0000160416081606298C16778980028729CA5
:1040D0000ED05E4C6C440021042520462A460CF08C
:1040E000E1FE5B4A2B460CF094FF20202071052452
:1040F000719800280ED0251D544E6E44304621463E
:104100002A460CF0CFFE0423524A0CF082FF2020F6
:104110007055641D739800280ED0251D4B4E6E44BB
:10412000304621462A460CF0BDFE04234A4A0CF0D4
:1041300070FF20207055641D779800280DD00D2C3D
:104140000BD2251D4148684421462A460CF0AAFEA0
:104150000423424A0CF05DFF00E025463B486844DA
:1041600029460CF04FFE02460B462B486844114688
:104170001A460DF011F86D9DEC6A296B6A6B2648A2
:104180006844829B0381294BAB63294BEB632C234F
:10419000689EAE64EB640E23002C00D113466B6462
:1041A0002F4A00D10A462A646A99E96279992963FB
:1041B00084A9FDF733FD37207299E96228636B9972
:1041C0006963A863749EEE631B48286412486844C0
:1041D00084AC2146FEF762F80F4868448299018159
:1041E0003E2102221F4BAB63114BEB631E4B2B6432
:1041F000639B6B64AA64E9646421EE6229632146CF
:10420000FDF70CFD20460AF0D1F8839882907E9D40
:104210004AE6C0465C2F0108D8100000501100008B
:104220001006000050003200002C0140CC2D010887
:1042300002020102782F0108020101007CFCFFFF4D
:10424000872F01089C2F010820202020E41B00005C
:1042500024260108A4260108142601085426010872
:10426000AB2F0108242F0108B92F0108F34964314D
:10427000F348684428220AF009F85099481E814101
:104280005091F048401C4590EF486844203017900A
:10429000EE486844C01D2990EC486844C01D0E904B
:1042A000EA48684410300C90E9486844801C30901B
:1042B000E848684412303A90E7486844801D3B90D3
:1042C0002898903038905A980001829000256420F8
:1042D0001390E2485999C943149164956B956A9576
:1042E00063954D99119172951E954F95469515952B
:1042F00019951B90429543952B95399572985B9033
:104300002C46FDF7A9FB0546D24868440BF0DCFDBE
:104310007295281B642800D364205C900BF0EAFAA5
:1043200006467298A042254653D0C54868445C9919
:1043300009F072FFC8486844808800280ED05C9954
:104340008DB2421BC44969440023A84200D21A46D8
:104350008A8003D8C04868440021C172F0434221DA
:10436000084230D030062ED0BB486844807AF1B283
:10437000884200D0CEE05C9880B2B74A6A44D188C7
:104380000918E84B994200D3E649D180389A323A6D
:1043900092B29142729D1CD9AF4969440A891018A2
:1043A000E04A904200D3DF4808815A28729D10D31A
:1043B000A948684400210181002E01D101F066FA6C
:1043C00070423040B9E000203B9908714880088075
:1043D000729DD548684401889E4A6A44508A411AB1
:1043E000CB175940CB1A918A1F2B5A95689603D345
:1043F000984A6A44D28A2EE0CB4A6A4452888A1A82
:10440000D3175A40D31A934A6A44D28A1E2B22D811
:10441000C54B6B449B88D31ADD176B405B1B1E2B6F
:1044200019D8C14B6B44DB888A4D6D442D8BEB1A38
:10443000DD176B405B1B1E2B0DD8BB4B6B441B89E0
:10444000844D6D44ED8BEB1ADD176B405B1B282B05
:1044500001D801F078F9529E3346B34D6D44AA80DD
:10446000698028806D99486CE880C86C68817949BA
:104470006944C88B28810878649A90423046324655
:1044800011D148786B9DA84210460CD188786A9962
:104490008842104607D16398C0B26E496944C97812
:1044A000081A411E88416899090411467E9E00D170
:1044B0001946002911466D9A00D10146F148684419
:1044C000C07AD26A7C92002912D0401EC0B200216C
:1044D00003284F9102D28000EB49095845910A21E7
:1044E00067988069484309F043FF4F9846904AE037
:1044F000002808D07298A04245D045995C9A914214
:1045000022D9891A26E07298A0423CD04599469853
:104510005C9A20E031468143080601D101F021F97F
:104520004D48684400220281C280867200292F987B
:1045300001D101F0ACF948420840D4494843C00ECB
:10454000D3A1085C01F0A3F9D94831998161002118
:10455000D8480164469884180025844200D2EC4370
:10456000D548844245910DD936484F99814207D9A3
:1045700033486844FA22314609F088FE4F9501E03D
:1045800050184F904694BF4868447990007A132899
:1045900000D31320C1015198839140187190027E7D
:1045A000501E82412B4D6D444798295E7F9849915A
:1045B0004118643188B2C00B081800B24010769BD5
:1045C000DB00984200D318467C9C230C260A09B2D3
:1045D0004D9CA14200DA00207C9C210E6391E1B247
:1045E0006491D9B26A91F1B26B91719CE17D2346DD
:1045F00019330BF035FB86B2A07D401E0E22A95E5A
:1046000073910C214B91695E779179994B7A698905
:104610005991E9885891AC8803284C925794559346
:104620007C9628D878440079400087440119030516
:10463000649816E06A9814E0639812E03408000069
:10464000100600002F750000501B000050110000E4
:10465000E41B0000D81000009C100000581B000054
:104660006B98002807D02D212C222B20799027240D
:104670003D9B3E9806E028207990222341983F9C5C
:104680006F9A4099719E715C7891315D5491B15CE3
:104690005391345C7998325CF15C5798874DA84708
:1046A000034658982146539A1C46A8472B46054670
:1046B00059985499789A9847814B6B445490D88074
:1046C0007C9949007F4A5118491C799199807895C5
:1046D0005D8025461C807C486844382148910DF057
:1046E00012F93E204A90305C7C90042801D30020CF
:1046F0007C9072985B99401A5390744A839B7C9883
:10470000800004A1085829B2549C25B2789C24B298
:104710008746C0462D470008DD4B00083B47000890
:1047200073470008FFFF0000CC1000007598C161BE
:1047300004627999416285624CE07598799A426287
:10474000C161611B6248814200DC61497698C0000A
:10475000814200DB0146759A916229195C4A9142B7
:1047600000DC5B498142594A00DB014675980162D1
:1047700030E03520719A105C0E465349694401912E
:104780005449694400914E496944779A739B0BF0F0
:1047900079FC75990C62799A4A628D62C10F401852
:1047A000411034468A1B4A48824200DC484A7698C7
:1047B000C000824200DB0246759B1A630919444A15
:1047C000914200DC42498142404A839B00DB014622
:1047D0007598C1612B486844C01879900021B425B0
:1047E000BE2D20D04E1C0C1D0E2C19D27998405D88
:1047F0007C99032902D1052C7D9912D03249694454
:10480000789101913349694400912D496944779A1F
:10481000739B0BF037FC839B2C4AA100789C605063
:1048200031466D1CDCE730252B4E16486844002DC0
:1048300000D1C5E0C018C0300478002C01D00E2C87
:1048400002D99B1DAD1FF0E70E486844C018C42173
:10485000405C401E09284ED87844007940008744C7
:10486000043D0A0C0641430E4708649841E06B98EA
:1048700035E0639833E06B983BE06B9835E06A98DD
:104880002DE0C0461C0600008840010831B57C07B9
:1048900000011C021D0E18031E16140F1911040826
:1048A0001F1B0D17151310071A0C12060B050A090A
:1048B0000014004800040040BF270900FDFF000865
:1048C000D01B000017FCFFFF50110000DC050000AA
:1048D00018FCFFFFD8100000E204000064980228D2
:1048E000AFD108E06A9804E06A980128A9D102E0F3
:1048F00063980028A5D1D44868448393C618C12082
:10490000305CD24969440191D14969440091D1494F
:104910006944779A739B0BF0B5FBC22171564843EB
:1049200064210DF09BFDC3217156619A51434018DB
:104930006099725C611EC9B2002A2ED0012A14D07F
:10494000022AC54EC54A839B00D07AE7C44A9042EA
:1049500000DCC348769AD200904200DB1046890002
:10496000BA4A6A445050BD4A6BE78900B74E6E445C
:104970007C91715848437699CC0021460DF06EFD2C
:10498000B749884200DCB648A042B44A839B00DBAA
:1049900020467C997050B04E53E78900AB4A6A4478
:1049A00053581818AE4B984200DCAD48769BDB009C
:1049B0009842A94E00DB18465050A84A839B40E716
:1049C0000020769D1C2804D0A64969440A52801C08
:1049D000F8E70020A3496944382814D09B4A6A4468
:1049E0001358DA0F9A185210B218FA322C01A24258
:1049F00000D322469C4CA34201DA7F9A64320A809B
:104A0000891C001DE8E70024984868440157890084
:104A1000629AD26F89182A460DB2D1008D4200DC0D
:104A20000D46769A1201954200DB15468D4B6B447C
:104A30001D80012583954557AD005E88AD192DB2C7
:104A40008D4200DC0D469542699E00DB15465D8077
:104A50009D88807840B2559901290ED0022928D12D
:104A60008000401905B27698C000854200DC0546FA
:104A700076980001854225DA25E07B4949194A1CD0
:104A80007699C9008A1A00D200227F9B64339D4226
:104A900001D26C9AD432424390000DF0DFFC4519EC
:104AA0007F98854200DC7F9D714885420BDB704D0D
:104AB00009E07698C000854200D805467698000146
:104AC000854200D305466748684485806749694444
:104AD000709A89568900C288891809B2769BDA00D3
:104AE000914200DC11461A01914200DB1146C1805F
:104AF0007198808A21461C290FD0224632400346F5
:104B0000D340DA0706D0574A6A44535A829DEB1ABB
:104B1000C8335352641C891CEDE756486844514918
:104B200069441C2279920CF03DFF7220719E355C25
:104B30000AF0C2F904467C95012D2DD17320315C19
:104B40000125204668400AF06FFF002C7E9E6D9C78
:104B500000D0CFE34848C078012800D0CAE333959D
:104B6000454800697299081A0A2800D2FBE04248B9
:104B7000729901613B496944162088703F4808805A
:104B8000002048763E4D202843D07F995C312F4A43
:104B90006A441152801CF6E7002001460AF044FFE7
:104BA00020460AF085F8002C7E9E03D131486844E7
:104BB0000AF06EF8334868440AF0CEF8EFF310803C
:104BC00072B64721304A515C569BD25C80F3108804
:104BD000921E501E82410A4078929DE37598799A00
:104BE000426285620D4661181D48814200DC1C4905
:104BF0007698C000814200DB0146759A1162611B04
:104C0000174A914200DC16498142144A00DBDEE576
:104C1000DEE500241C2C3BD016486844005BF721DD
:104C20008900884200D80846A84200D32846C00020
:104C30001649401800B205210DF010FCAC300349B4
:104C400069440853A41CE5E71C060000501100004D
:104C5000D8100000D01B0000E2040000DC050000BA
:104C600018FCFFFFE41B000017FCFFFF9C10000076
:104C70003408000000110000080B0020EE180000AE
:104C8000DC0700001C11000000000020C0E0FFFF56
:104C9000FD4D6D447598C469EC70FC486844838888
:104CA0009908A97142895108A972C1897891CE08E1
:104CB0006E73240A4688F1002143297171099C0111
:104CC0000C436C71990AC3885C000C43EC71759EAF
:104CD000716A0C01DB0923432B720909D3010B43D1
:104CE0006B72B16A8B00520A1A43EA728909789A88
:104CF00052010A432A73F46AAC73838A990869746F
:104D0000428B51086975C18B7891CE082E76240AA2
:104D1000468AF1002143E97371097E9E9C010C4390
:104D20002C74990AC08A43000B43AB74C009759C6C
:104D3000616B0B010343EB740809D1010143297531
:104D4000500AA16B8A000243AA7588097899490123
:104D50000143E975172130980BF0C8FB68761A21DA
:104D600028460BF0FBFA0025CC4A1068010701D554
:104D700008215160800600D469E29068C0B2C84939
:104D80004C69002C09D0012C12D1811E3D2900D381
:104D900088E0C449487002236AE1C82804D0EE289C
:104DA00002D0EA2800D065E1BE49087001235FE126
:104DB000BC494E78B11C00238C4200D358E13F2CF3
:104DC00001D903F067FBB74A1055601CB44A506123
:104DD000B24A884200D04DE17893B2480CF024F8F2
:104DE00037918C4201D303F059FB015D71915490CE
:104DF000801C711E55900BF079FBC0B271998142F5
:104E000000D033E1559908780828A44A789B06D049
:104E10002B2849D029287AD0142800D028E10E4622
:104E20003799032900D123E1719054984478A01C4C
:104E3000884200D91CE1022C00D219E154980019D3
:104E400040783790611E30460BF050FBC0B2379966
:104E5000814200D00AE1719E082E00D1E3E0142EB9
:104E600000D003E10B2C8D4A789B00D800E18C48E0
:104E70003030549B5979017499794174D97981748E
:104E8000197AC174D9784942817319794942C17339
:104E9000587A401EC0B2072800D9CFE140008249AD
:104EA000085ACCE10023E3E0022C01D103F0DEFA42
:104EB000072E00D2DCE054998879379048795590D4
:104EC000C91CB21E042630460BF03AFE0246769804
:104ED00080007190032900D273E10B4673487199E9
:104EE0004058082800D36CE11D9650787F2101407E
:104EF0001C911178022623921A915493B34256D0F2
:104F0000905D002854D0112E52D8761CF6E7022C62
:104F100001D103F0ABFA052E00D2A9E0549BD81CB6
:104F20005590B01E78907F20800019795F4A115407
:104F3000301F5E1D0021884207D08C1C725C002A45
:104F400004D0152C02D8491CF5E7789C69984001DB
:104F500056490918A01E142271900BF0E8FD789AAA
:104F6000944201D903F087FA3246719E33460CF021
:104F700050F82898FE304D490E540D3478988442EC
:104F800002D25598005D00E00A2033994902289B1F
:104F90001A460432454C6252590060546E98C00063
:104FA000002323507698800023503C4A60E01E4640
:104FB000002462988466C46604674467B11E3C4856
:104FC000684421910BF078FF549B9E4201D903F075
:104FD00056FA239A921C219B0CF01BF82E48684429
:104FE000242118910CF08FFC711C549881422046AA
:104FF00022462E4E559B00D387E000241C980D2896
:105000003ED0092844D1339B10910E462399549ADF
:1050100096424FD2885D3B2802D000284BD000E05A
:105020005B1C761CF4E7092C20D91D4B1846303048
:10503000549A917A0175D0790004117A09020818FE
:10504000517A40181863D07811790902081800BA0B
:10505000000C642148435887507992791202101845
:1050600000BA000C484398870C4AEAE00B4A789B48
:105070000B4843616D1C412D7E9E00D075E6E6E035
:10508000204622463FE0C046E41B000050110000CD
:105090002046224639E0C046E41B00001C44004084
:1050A000080B0020F00600201C2A0108FC08002044
:1050B000D01B000016460F931098301A2428189A17
:1050C00000D310462290CD4969440BF030FD189072
:1050D0001098229A1218549B9A4201D903F0D8F9D9
:1050E000239A12181898229B0BF093FF0F98C0B2C6
:1050F000411E02468A41801A711C549A9142C04E48
:10510000559B229A01D2239C645C5490719831582B
:10511000092901D303F0B8F9229223943C20484393
:1051200034183C3E002816D07022B25C3C383C3625
:105130009A42F7D148982399315430461030AF49FC
:10514000694424220CF02EFC3A2022993154392053
:105150005499315434E0082932D0AA486844109058
:10516000A949694418910F94109C4DCC4DC1A34995
:10517000694424220C980CF015FC34260F9C204620
:10518000189932460CF00EFC0020249960543A2005
:105190002299215439205499215448982399215413
:1051A00037202199215436201C99215435201A99F1
:1051B00021545598A0559249719A8858401C88509E
:1051C0001D9E37980028914A789B00D050E7289878
:1051D00040008B4C205C559981422BD2719820580D
:1051E000082827D200217891894821545598411CDC
:1051F0007191884821543398400203212154092198
:105200000E980DF0CFF87F208000205C7E4E6E441B
:105210007199789C224633460BF044F908213046B8
:105220000BF09CF82346794A6E98C0007299744C32
:1052300021501DE733984002265419E70020764B91
:105240001887452001211954729858630FE74520AB
:10525000714B195C002908D0596B729A511A6C9ADB
:10526000D432914201D900211954012040026449ED
:10527000085C03286D9C1BD001283BD16E98C000B0
:105280000958729A511A7B9A2B32914232D95C4951
:10529000729A0A5000207599C861086225465A4CD6
:1052A0006C4420460BF0ECF8062120462C461FE00B
:1052B0006E98C0000958729A511A7B9A5D329142D9
:1052C00018D94F4D7299295052482C5C09212998C0
:1052D0000DF068F84E482A5C7F208000285C4A4D1B
:1052E0006D4421462B460BF0DDF8082128466D9CC5
:1052F0000BF034F8529809F0DBFC474B184630307D
:10530000417D464A6A44D172007C9072588F108168
:105310000020206778906067414A6A44158A0095AA
:10532000404969443D4B6B44729809F0B5FF689859
:1053300044990840411E04468C4100280DD07899BC
:1053400000291BD03046F830689E30404142414130
:105350005098084209D052986FE0789900290DD0F2
:105360003046F830689E064266D0002009F01CFDE9
:105370002D48684408F080FF50945FE02B49694451
:10538000097E4E9A1278D2B20A430021002A1FD118
:10539000002824D0439A5C9812185299244C01D3C7
:1053A0000020C24334988242689E439222D9429898
:1053B000C0071ED108460C4609F0F6FC1A4868449E
:1053C0009622669908F062FF42945094184C12E0BD
:1053D0004291439150941748154C689E30E0429892
:1053E000C00700210028124C4398689E00D146E176
:1053F0004391429150910F4822E0C046E41B0000C7
:10540000FC080020D01B0000501100001C4400408C
:10541000FF01000001020000080B00201C11000029
:10542000D81000000011000010060000AC100000B1
:10543000002C01400000002000205090E548E64C80
:10544000EFF3108172B6569A825C8398024005D0C1
:105450000020FD4B569C1855FC4C586981F3108870
:10546000002A31D0411E0122D24391422CD2F84968
:105470006944097A132900D31321C901519A51189B
:10548000CA68824220D0C860F14868440AF04CFEE5
:10549000F0486844322101818199C18066998180F8
:1054A000022181726799FD4A0A60C07A01280BD1F6
:1054B0007B989F30E06232996163616A814201D9D1
:1054C000002060625E982060F5486844007E0028F5
:1054D0003AD0539820285A9D71D9F44868440390D3
:1054E000F448684402903A980190F3486844009068
:1054F000EF4C6C4484A9E84B6B442046324604F0E0
:10550000A5F8A07E002809D0EC486844E749694422
:1055100008F022FEE648684400218176E4486844A9
:10552000C07E002801D100F01DFF529809F03CFC1C
:10553000DF4868440021C176DC48684496226699B9
:1055400008F0A4FE00F00EFF4E98007800283AD034
:10555000539920295C9900D88CE089B214296D9D5B
:1055600000D8142179914E9949783C9A164204D179
:10557000CA0702D000214E9A5170629AD2687C927A
:10558000CE4B6B449E84CE4B6B441A8CCD4C6C44FA
:1055900059926281DA8B5892228132462E462D6CC6
:1055A000766CE680DE8AA68065805B8A2380CC07E5
:1055B00033D17C998A437E995A9D164630E05B9898
:1055C0007290FEF79BFE3C9806425C984BD080B2EE
:1055D000399989B20918BC488142084600D3BA48B3
:1055E0000146BA48399181423FD9B14C6C44839A03
:1055F0002277002161824D9820826D980160416080
:105600008160C160399141618261A848684408F0B5
:1056100033FE207E002828D05BE700267E995A9D25
:10562000F83131403C9A164001283ED0022848D13A
:1056300000293DD17A982430002800D1A2E09F496A
:10564000694409180B8B9F4A6A44121892899A423E
:10565000144600D31C460C838B8C9A4200D81A4601
:105660008A84801CE8E7002039905398202801D9CB
:1056700000F07AFC5B9872905A9DFEF73FFE002185
:10568000282871480DD392496431884868441E2205
:1056900008F0FCFD2B99491C709801402B916A4839
:1056A0000021439142915091CAE6002900D1D3E0F4
:1056B00000204E9908707D48684408F0DDFD00F038
:1056C00051FE839EB10284AD28460CF01CF97098FF
:1056D00001027C917F48684401811221759C7E4AB9
:1056E000A2627E4AE2627E4A226361636199A1639B
:1056F0002E99E16364217891E66121622946FCF7E5
:105700008DFA744868447C9901812621724AA2620C
:10571000724AE262734A22632C9A62634C9AA263D1
:10572000E163E661789921622946FCF777FA6348DC
:105730006844C08C799988421BD9401A5F496944F2
:10574000C88400F00EFE684B6B445B895C4D6D4471
:105750002D8CEB1ADD176B405B1B282B0ED800231A
:105760000DE05548684400210181C1808672FEF732
:105770002FFE00204E99087000F0F3FD0123529E89
:10578000FEF76BFE002175988160579148004B4AE7
:105790006A4410184B1E032B20D019460488058B31
:1057A0002A1B0023A54200D21A468589641B00D219
:1057B0001C46801C4B1CFA2CEDD392B2FA2AEAD379
:1057C000891C4A486844839AC2545798401C579091
:1057D000DCE7C04600000020002C0140002E00D174
:1057E000B2E05798C0B2042800D04BE36798404914
:1057F000C16026990161314868442C99302900D153
:1058000048E385890288541B0023AA4200D21C4623
:105810006E9D6C43A409141B00D21C46150425433D
:105820001D4C6C446550058BAD1A00D21D466E9B15
:105830005D43AB09D218244B9A4200D3224A631825
:105840005A600831801CD9E700000020002C01407C
:105850001C06000010060000002E00D172E219485C
:10586000684416496944024638CA38C101461F9A3D
:1058700038C938C220991CC81CC15E9840004E9996
:1058800008800A4868443222669900E3202005A176
:10589000085C40008744C0461C06000046003200F9
:1058A000AC1000002E45393D35494E411006000030
:1058B000AC100000001100009C100000501B000004
:1058C000D8100000D01B0000FFFF0000AF04000054
:1058D0003408000050110000CC2D01080202010222
:1058E000063C01083C2A0108CC1000003C110000D5
:1058F000594B5346B34868440121B34B6B440A46A5
:105900001EE0B0486844032117E0AE486844022115
:1059100013E0AC48684402210AE0AA486844042124
:1059200006E0A8486844012102E0A6486844032133
:10593000FF2203E0A348684404210122A24B6B44E8
:1059400008F0BEFBFEF744FD839EB10284AC204606
:105950000BF0D9FF709801029C4868447191018155
:10596000759D9B49A9629B49E9629B4929632D99D1
:1059700069634B99A9632799E9636421EE61689192
:1059800029622146FCF74AF97F2100205B90E861FB
:105990006598286255916962A8627498E8628F4898
:1059A00028638A4868442146FCF778FC5F980660C3
:1059B0008B49416086608B49C16006618A494161BB
:1059C000866162988949C1671325894B6B44894870
:1059D00068447990884868447890332D00D115E167
:1059E0007A486844719901813246759E7849B1625E
:1059F000F56302215C91B163F26168993162754986
:105A0000F1627E49694449190A460F3A1268726385
:105A100013390968316384A973917793FCF7FEF811
:105A2000A91F7C916198F06131626E98706236981E
:105A3000B062749CF4626948306364486844739946
:105A4000FCF75AFD6F98F0617C99316270627C9529
:105A5000B562F462614830635C4868447399FCF74E
:105A60001DFC779B1C88188B061B00D25B9E64492B
:105A70000D4664357C9A2B2A284600D00846132A06
:105A800000D0054698897394201A00D25B981E2492
:105A90006043854218D87C99C91E759A9162749B9F
:105AA000D3624E4B1363116229460CF0AFFB1E28E4
:105AB00000D3204675996F9A4A62101AC86143480C
:105AC000684484A9FCF7EAFBB0B21E246043854217
:105AD00018D87C99C91E759A9162749BD3623F4B0A
