:020000040800F2
:1000000000400020C100000837F00008A7010108E7
:1000100000000000000000000000000000000000E0
:1000200000000000000000000000000037F00008A1
:10003000000000000000000037F000084105000843
:1000400037F0000837F0000837F0000837F00008F4
:1000500037F0000837F00008FD00000837F000080E
:1000600037F0000837F0000837F0000837F00008D4
:1000700037F0000837F0000837F0000837F00008C4
:1000800037F0000837F0000837F0000837F00008B4
:1000900037F000085505000837F0000837F0000871
:1000A00037F0000837F0000837F0000837F0000894
:1000B00037F0000837F0000837F00008DD0A0008C4
:1000C0000EF0BCFF084809490022814201D004C05B
:1000D000FBE707480749084A814202D008CA08C01E
:1000E000FAE70EF008FE00DEF00600204C090020C2
:1000F00000000020F00600208C1A0108F0B503AFC4
:1001000093B009AEE6484169490700D40AE20422E7
:1001100042614923E34DE95C022900D102E2016812
:10012000914301604524295D002900D19EE0012909
:1001300000D0F7E104960193089202200290059402
:100140002855002420460DF055FF01221103079188
:10015000039212078006D44ED44BD54D284600D5C5
:10016000AEE106920498401C049009A825210FF0E6
:1001700040FA28463168090603D5411C0028084684
:10018000F8D1CA4B069A1A6000BF00BF28463168F2
:10019000090603D5411C00280846F8D128463168D5
:1001A000890703D4411C00280846F8D1F02030719B
:1001B00028463168C90703D1411C00280846F8D1F8
:1001C000307928463168090603D5411C00280846C5
:1001D000F8D100BF00BF0798186000BF00BF2846D5
:1001E0003168090603D5411C00280846F8D11A6079
:1001F00000BF00BF28463168090603D5411C00280E
:100200000846F8D128463168890703D4411C0028E4
:100210000846F8D10598307128463168C90703D1DE
:10022000411C00280846F8D13079252C284630D0CA
:100230003168090603D5411C00280846F8D1284634
:100240003168890703D4411C00280846F8D10020F2
:10025000307128463168C90703D1411C002808467F
:10026000F8D1307909A90855641CDEE7089201220B
:100270002A5547216B5CAE49002B3BD0AE4B0B603F
:100280004323EC5C042C37D2032C00D0621CEA54CC
:1002900032E028463168090603D5411C002808468B
:1002A000F8D100BF00BF0798186000BF00BF47200B
:1002B0009D49095C09A8007800295AD009A9BC28E1
:1002C00000D0FBE0487A012800D0F7E0442000216C
:1002D000954C2154432008992154049A107951795E
:1002E0000902081891790904D279120651180818E0
:1002F0006061E3E0914A0A608C4A8E4B1C461568A7
:100300002D0603D5651C002C2C46F8D101242507A9
:100310000D6000BF00BF1D461668360603D56E1C73
:10032000002D3546F8D11D461668B60703D46E1C5D
:10033000002D3546F8D1C02515711D461668F60703
:1003400003D16E1C002D3546F8D1157915682D06A0
:1003500003D55D1C002B2B46F8D100BF00BF220344
:100360000A6000BF00BF089A426101681143016042
:10037000D8E0AA2802D0AC2800D09FE0049B1978CE
:100380005A78120251189A781204DB781B069A18D0
:10039000674B5118644A1269914200D08EE062495D
:1003A0004B695A1C022A01D30021039108931A0CAD
:1003B000531E5A425A4103990A4304990B794C79C6
:1003C0002402E3188C792404C97909060919CB1889
:1003D000591E029CE443A14208D8002A06D00121FC
:1003E000514A019C11555361514B06E00899591A25
:1003F0004B424B4113434E4B60D0482101244A4AA3
:100400005454AA2807D109A8407AFC2852D0FD28C4
:1004100001D1029A4FE03F2043490C5440200894F8
:1004200000240C52886B401C88631D200DF0E2FDF7
:10043000C0B2C00005210FF00EFD08990902091A8B
:10044000C8178143642900DB64213E20364A1154D9
:10045000374B21460A31212930D809A90A19117BC5
:10046000537B1B025918927AFE2A0ED0032A07D01A
:10047000002A2F4B11D10A224A432B498A870CE0CC
:100480000A224A4328498A8706E089B26422511A1F
:1004900000D20021244A1154254B241DD9E7C0461F
:1004A00000040140000000200830014018100048FE
:1004B000F0D8FFFF224646201B490A542846069AD8
:1004C0003168090603D5411C00280846F8D11A6096
:1004D00000BF00BF28463168090603D5411C00282B
:1004E0000846F8D128463168890703D4411C002802
:1004F0000846F8D1A020307128463168C90703D1D9
:10050000411C00280846F8D130793068000603D530
:10051000681C002D0546F8D100BF00BF0798186081
:1005200000BF00BF13B0F0BD000000200830014044
:1005300018100048F0D8FFFF00030003000200037A
:1005400080B500AF02480168491C016080BDC0460B
:10055000FC080020F0B503AF91B0CF480024046040
:10056000CE4D2878C00700D0A9E24920CC4E305C9F
:10057000022800D1A3E230461830CA495E311C225D
:100580000FF086F84021705A401CC74A904200D3B1
:1005900010467052C54A11680423049399431160B0
:1005A000716B0591491C7163352801D30020F087D8
:1005B00006A826210FF01DF84720305C012815D130
:1005C00006AC01250522204629460EF00FFB3269B4
:1005D000109210AA04230EF092FB00200290A07249
:1005E0000598C00712D07320C04310E04220315C50
:1005F0004A1C0F231A4032541940705C03900F2993
:100600003DD02879002834D1A94933E00D2003904A
:100610004321A3480591405C0128019500D1A5E044
:1006200002280FD0032800D0B8E006AEBC203070FE
:100630000521092230460EF0D9FAFF220FF046FDBF
:1006400075720CE006AEBC203070052109223046E0
:100650000EF0CCFAFF220FF039FD029870720B21D8
:100660001B2230460EF0C2FA8D4A10230EF047FBD3
:10067000ADE09049904A116001214840287146251B
:10068000705D022800D1D7E0012837D1059506AD6D
:10069000AA202870012102910524884B2846224671
:1006A00098473269109210AA042633460EF027FBB1
:1006B000092228462146814B9847794A526910926F
:1006C00010AA33460EF01BFB0026AE730298A881D9
:1006D0007B486881FD2068720F2125242846224628
:1006E000764B9847FF220FF0F1FC2E556C48059988
:1006F00046547448A88274486882EFE0706B73496E
:100700000FF040FD002900D194E006AD582028707C
:1007100001210526284632460EF068FAE94A126998
:10072000109210AA042305930EF0E9FA0922284634
:100730003146E44D0EF05AFA6A69109210AA059BF0
:100740000EF0DDFA1C2C70D02819008B7D21CA0018
:10075000904200D810460901884200D3084606A9F5
:1007600009194872000A8872A41CEBE72C4606ADF2
:10077000BB2028700521092228460EF037FAFF22F7
:100780000FF0A4FC6C720B211B24284622460EF0AD
:100790002DFACC4A10230EF0B2FA1CE006AEBC20B3
:1007A00030700521092230460EF020FAC54A526900
:1007B000109210AA04230EF0A2FA022070720B21EC
:1007C0001B2230460EF012FAFF220FF07FFC802031
:1007D0003077F5761D2406AD25262846214632467B
:1007E0000EF004FAFF2422460FF070FC0298A85580
:1007F000B44A0598105C042870D14420115C491C4F
:10080000FF2900D3214611540429019966D3029B84
:1008100013544620135242201152FF200230482127
:1008200050521F200DF044FC58E0252006A900225C
:100830000A5453E002207055059506AD56202870E5
:1008400001210526284632460EF0D0F99D4A12694C
:10085000109210AA042423460EF051FA09222846C9
:100860003146984D0EF0C2F96A69109210AA2346DB
:100870000EF045FA0320C143182929D0002904D0DD
:1008800006AA5218FF23937302E006AA9073E82386
:100890005373891CF0E7C04610440140040900204E
:1008A0000000002074060020FFFF0000000401404B
:1008B000000400080008000418100048EDEB0008D0
:1008C000FF90000005DE000005DC000021060000AE
:1008D000002005996854252106AA50547C4C7D4D72
:1008E00028462168090603D5411C00280846F8D18E
:1008F00001200207754905920A6000BF00BF294622
:100900002268120603D54A1C00291146F8D129464F
:100910002268920703D44A1C00291146F8D1A0216D
:10092000217129462268D20703D14A1C00291146A9
:10093000F8D1217929462268120603D54A1C0029DC
:100940001146F8D100BF00BF060360490E6000BF2A
:1009500000BF6148086028462168090603D5411C8C
:1009600000280846F8D159480599016000BF00BF2A
:1009700028462168090603D5411C00280846F8D1FD
:1009800028462168890703D4411C00280846F8D16D
:10099000E020207128462168C90703D1411C0028A6
:1009A0000846F8D1207928462168090603D5411C5C
:1009B00000280846F8D128462168890703D4411C3D
:1009C00000280846F8D10520207128462168C9076B
:1009D00003D1411C00280846F8D10020217926289F
:1009E0001CD006A9095C2A4623681B0603D5531CA4
:1009F000002A1A46F8D12A4623689B0703D4531CC1
:100A0000002A1A46F8D1217129462268D20703D15B
:100A10004A1C00291146F8D1401CDFE7284621680E
:100A2000090603D5411C00280846F8D100BF00BFC5
:100A30002648066000BF00BF0F2003990DF040FB61
:100A400028462168090603D5411C00280846F8D12C
:100A50001E480599016000BF00BF284621680906AD
:100A600003D5411C00280846F8D12846216889078B
:100A700003D4411C00280846F8D1D0202071284614
:100A80002168C90703D1411C00280846F8D1207904
:100A90002068000603D5681C002D0546F8D100BF6C
:100AA00000BF0A48066000BF00BF45200021054A7C
:100AB00011540549049A4A6108681043086011B04E
:100AC000F0BDC0460000002000040140181000489E
:100AD00008300140F0D8FFFF00010003F0B503AF7C
:100AE00085B021480088214988423BD00225224C0C
:100AF000204E002D36D01E488078C04678440079BC
:100B0000400087442F010E17207802282AD01C4865
:100B10000290019401A8012106F0C6F9002821D015
:100B20001EE03068401C1DD014480290019601A8B8
:100B300001210DE02078022814D03068401C11D02B
:100B40000E48049003960E480290019401A80221D9
:100B500006F0AAF9044600F083FB002C064C01D0F5
:100B60006D1EC6E705B0F0BD2C030020FFFF00009E
:100B7000040900204C000020C005002008160108D0
:100B8000CC150108F0B503AF87B005468068012891
:100B900047D106916C69E868A04246D22A69115C87
:100BA000491C1154AB69981C0226A0423AD8012175
:100BB000090205935918A14200D321460492234605
:100BC0000EF089FC05292DD30246069B98791070FA
:100BD000988802900391597A187A01920BF014FACE
:100BE000029B190A019AD1709370C0B25070069896
:100BF000C0791071114605200690039A0DF057FE3A
:100C00000598C11DA1420DD8A0420ED20723049A17
:100C10001354401CA04208D2069B1354A961FF261E
:100C200000E00726304607B0F0BD21460EF0EEF991
:100C3000F0B503AF85B01C4603920E460546084644
:100C400008300BF0B3FD0491B968029400940C468F
:100C500001918021039A0B460DF080FEC00702D05F
:100C60002970FF2006E0F868E871A971AC80F436BD
:100C70002E600298287204990868401C086005B02C
:100C8000F0BDF0B503AF87B01C4605920E46054691
:100C9000084608300BF08AFD0691B9680494009468
:100CA0000391019100242146059A23460DF056FE3A
:100CB000C00702D02970FF2006E0EC71A9710398EB
:100CC000A880F4362E600498287206990868401CA3
:100CD000086007B0F0BDD4D4B0B502AF86B004460A
:100CE000009101920748011D03AD0022062328460A
:100CF000FFF79EFF0F222046294605F0C7FF06B0EA
:100D0000B0BDC04630070020F0B503AFC9B01446EF
:100D1000089105900AADC021284604910EF069FCA7
:100D2000002108262846079132460DF073FFF84A45
:100D300033460DF0E4FFA0B209907D21CD00294695
:100D40000FF089F8029506904543651BA8B264260A
:100D500031460FF080F8044603964643A81BC0B204
:100D60000A2631460FF077F8EA49099A8A421ED9D5
:100D700046AA2E2191703025284310712C43D4703F
:100D800014460698C0B20A210FF0FCF9294361709D
:100D9000E14909980FF05FF82843207025460AA81A
:100DA00008210D2422460DF035FF052311E0DB4913
:100DB00046913021084346ADE8700C43AC7006986C
:100DC000303028700AA808210C2422460DF022FF9A
:100DD00004232A460DF093FF254608350AA80694F9
:100DE00021462A460DF016FFCD4A08230DF087FF55
:100DF0003AA8079901813B913A910898847A002C8E
:100E00002BD009950925002C10D00A2D00D30DE216
:100E1000204631460FF01FF831464143611A302217
:100E20000A433AA94A556D1E0446ECE7691C3AA8E4
:100E30000DF0B5FE0E4609997518C12D09D204466C
:100E40000AA82A460DF0E6FE224633460DF057FF6B
:100E50002946029DB9290DD317E0069C09340AA83A
:100E6000294622460DF0D6FEF54A01230DF047FF34
:100E70002146029D0C4608340AA822460DF0CAFEFF
:100E8000F04A08230DF03BFF21460691089804899B
:100E90000194204629460EF0DEFF02904543661B72
:100EA000B0B2039C21460EF0D6FF05464443301BEA
:100EB000C0B20A2109910EF0CEFF019ADD498A42A3
:100EC00023D946AE2E21B170302420433071254302
:100ED000F570DA4910460EF0BEFF204330700298DC
:100EE000C0B20A210FF04EF921437170069DBC2D4E
:100EF00009D229466D1D0AA82A460DF08BFE46AA86
:100F000005230DF0FCFE079C18E0CB4946913021EB
:100F1000084346AAD0700D43957002983030107087
:100F2000069DBD2D079C09D229462D1D0AA82A46DB
:100F30000DF070FE46AA04230DF0E1FEBB2D0AD28F
:100F4000AA1D0AA8294606920DF064FEBE4A062391
:100F50000DF0D5FE00E006953DA804813E943D9439
:100F600008980568002D039526D00924002D10D07F
:100F70000A2C00D35AE12846099E31460EF06BFF39
:100F80004643A91B30220A433DA90A55641E054663
:100F9000ECE7611C3DA80DF002FE0C4606996518B1
:100FA000C12D16D206460AA82A460DF033FE324657
:100FB00023460DF0A4FE0DE00699BF2919D84D1C5B
:100FC0000AA82A460DF026FE9D4A01230DF097FE41
:100FD00001E00D46079CAA1DC12A09D20AA829468C
:100FE00004920DF017FE994A06230DF088FE00E0EA
:100FF000049540A8048141944094089840680028D2
:10100000089027D004460925002C10D00A2D00D3C3
:101010000CE12046099E31460EF01DFF4643A11B00
:1010200030220A4340A94A556D1E0446ECE7691C6C
:1010300040A80DF0B4FD0C4604996518C12D16D2D8
:1010400006460AA82A460DF0E5FD324623460DF075
:1010500056FE0DE00499BF290CD84D1C0AA82A465B
:101060000DF0D8FD764A01230DF049FE03E00D4650
:10107000079C00E00D46EA1DC12A09D20AA82946AC
:1010800006920DF0C7FD724A07230DF038FE00E00E
:10109000069543A804814494439403980899884290
:1010A00014D9451A0924002D1DD00A2C00D3BFE005
:1010B0002846099E31460EF0CEFE4643A91B30223B
:1010C0000A4343A90A55641E0546ECE70699BF2961
:1010D0001CD84D1C0AA82A460DF09CFD584A012335
:1010E0000DF00DFE20E0611C43A80DF058FD0E46EA
:1010F00006997518C12D15D204460AA82A460DF086
:1011000089FD224633460DF0FAFD0CE00D460BE05A
:10111000760301080F27000010270000302E303022
:101120000E0301080D46079CEA1DC12A08D20AA831
:10113000294615460DF06EFD464A07230DF0DFFDEA
:10114000294626461C2C53D00598055B002E0BD053
:101150004A1CC02A08D80AA808920DF05BFD01239A
:101160003D4A0DF0CCFD00E0089146A80021018128
:1011700047914691002D2BD004910696079409269D
:10118000002D0FD00A2E48D22846099C21460EF089
:1011900062FE4443291B30220A4346A98A55761E23
:1011A0000546EDE7711C46A80DF0F9FC0D460899BF
:1011B0006A18C12A09D206460AA814460DF02AFD6B
:1011C00032462B460DF09BFD2146079C069E0CE007
:1011D00008994A1CC02A08D80AA815460DF01AFD1D
:1011E0000123174A0DF08BFD2946761CA41CA9E7A4
:1011F0000C1DC02C08D80AA822460DF00BFD174A7A
:1012000004230DF07CFD02E0C1290BD20C460AA894
:10121000214600F013F949B0F0BD0498C0430A21FB
:101220000DF0F4FE0020C0220DF0E8FE0798F5E76F
:101230000020F3E70F270000302E30301027000089
:101240007E050108460301087F05010885050108A0
:101250008B050108920501085D020108E002010802
:10126000F0B503AF97B005A8402101910EF0C1F988
:101270004D4DD4224B4B98588026311A1C8FA142D9
:1012800029D20496D02103915E58311A8031A142AF
:1012900001D2324640E0802E029203D1049E009695
:1012A00003990FE031467F2E049E77D8421A1846E4
:1012B000503041180EF08FFD3A4B029818580399A0
:1012C0005A58009200225A500099401A029A985097
:1012D000311AA1425BD3164601191A4650321C46F8
:1012E00080230EF0F8F802460B462146343115AC47
:1012F00020460BF07BF82078012804D16178002982
:1013000001D1002002E000283AD11698254B9959C6
:1013100008189851D0215A58904231D0861A402E40
:1013200000D3019EB1182DD281292BD2039105A99A
:10133000049140243046029222461C460DF0A3FA46
:10134000029AA218503233460DF0D9FCD0200399EE
:101350002150049831460DF001FC002989D0C023AA
:10136000EA58561C7F243440C426AE59B44204D0F7
:101370007F2A0FD80678AE54EC50401C491EECE78B
:1013800017B0F0BD802310461A460DF037FE4520F9
:101390000DF038FE802110460DF038FE0846802101
:1013A0000DF034FE4C0000202C08002080B500AF6A
:1013B000EFF3108172B60248006881F3108880BD97
:1013C000FC080020FEB506AF024603684068834271
:1013D0002AD0581C106019784CB20120002C2BD553
:1013E0009C1C14605E783F24019426401F240C400E
:1013F000E0291BD30094DD1C15609C780294019DAC
:10140000029C2C400294B601029C3619F02910D39C
:10141000191D1160D978019A1140B2015118009A32
:101420005207D20A891807E0002005E0A1018919B6
:1014300002E000990903711803B0F0BDF0B503AFE5
:1014400089B00A46069001200290400208900026CA
:101450000591964257D2304606990DF01DFA079035
:101460000C46B72085002B4B585908990A1A94420C
:101470002AD95B21C90004915958029B5B02994209
:1014800004D00029089B07D1224B1DE00899039145
:101490002946204D049B0EE00195994235D2421A0F
:1014A0001C4D2846D83041180EF095FC019968581B
:1014B000049BEA5803920022EA50039A801A68506B
:1014C000089A121A2B460D46944200D31446002C5B
:1014D0000DD02118D8331A46089B0DF0FCFF079A4F
:1014E00023460DF00CFC0B4B585900195851184667
:1014F0000BF098F8002C059A05D0A619401EC0B232
:1015000040087E28A5D809B0F0BD084608990DF01E
:101510007DFDC0464C000020F8B504AF0091456841
:1015200001220021402D164600D30E460368802B71
:10153000144600D30C463440382129400901009E4E
:10154000711807262E40B240D5430095057A2846EB
:10155000EDB2022D0BD00225002CF8D0CE5CC007D6
:1015600002D10098064000E01643CE54EFE7F8BDE4
:10157000F0B503AFE1B01F914268E7498A420C928F
:10158000079200D30791417C0691017C0E9101687E
:101590000B91017A12914EA90A461C320A9224310B
:1015A000149140A924310391C1682291C17C1E91FC
:1015B000817C1691417A119141691B918169189141
:1015C000C1691091006A1D9007200F90C0010D9015
:1015D0000026012020901C9615961598C00700D073
:1015E00002E3189C1C9819968442054666D31B9802
:1015F0004019611B072907D80023994258D0C25CC3
:101600000A2A44D05B1CF8E7C21C03239A43121A2F
:1016100005D11C951A9108392191002210E0002370
:10162000C45C0A2C07D05B1C9A42F9D11C951A9114
:101630000839219102E0189C199E28E08A4213D8AB
:1016400084186468B5494C40B54B1D1B254384582C
:1016500026464E409E1B2643B2490E402E408E42E7
:1016600002D108322199E9E71A99914229D08018CC
:101670001899891A1C9D4B1B0021199E445C0A2C49
:1016800003D0491C8B42F9D11CE08B18189CED1833
:101690000020691CA8D0A1420846A5D81B98405D2F
:1016A0000A280846A0D10020159017911C910EE041
:1016B00017961C9420981590254608E01C951796BF
:1016C000F8E7199E1796189D1C95209815901B9861
:1016D00080191A90AE1B129800281D9C109829D0D2
:1016E0001298012816D10096119801904EA82299BF
:1016F0000E9A1A9B0DF0EBF95398C10F4018401049
:101700001D990C1A5298401EC10F40184010109994
:10171000081A0FE00096119801904EA822990E9A8F
:101720001A9B0DF0D4F953981D990C1A52981099E0
:10173000081A401C21902298C0690C9948436421E2
:101740000EF089FB01460B98002800D107991998E3
:101750008542139101D1002505E0751E1A98405D60
:101760000D2800D03546229811990AF0E5FA201A82
:101770001990169802280FD11E98022800D099E0DF
:1017800022998869096A0C181A9841190CF091FD80
:10179000604321994518EAE11E98022800D031E102
:1017A0002298026A8169199800901A98019002950E
:1017B00040A8219B0AF0A3FA5EA840A90CF094FD72
:1017C000609A501C00D1D1E15748101A00D2002075
:1017D0005E9D002802D00128EED0C8E15F981A90E3
:1017E00033A822990DF02DFC369C60426041379E53
:1017F000002E209900D001460029DDD13498002820
:10180000DAD4359B002BD7D4339A01190992926808
:1018100008929142D0D89A190999C9688A42CBD8BE
:10182000099A11680491516805910899C91D0F9A88
:1018300091430A1B4B43181800960190029223A86B
:1018400009900499059A23460AF092FD3196309446
:101850001A982F902E952BAC169820704EA82EAA71
:1018600009990CF001FD5C943AAC4EA920460DF0AC
:1018700011F9207A0028F7D002289DD03A997F29C3
:10188000F2D83B9B3F2BEFD818010F9A134001224F
:101890009A400D9B184008435C990978002904D0B0
:1018A0001F9B195C11431954DEE71F9B195C914380
:1018B0001954D9E72298026A8169199800901A98F8
:1018C0000190029540A8219B0AF019FA5EA840A950
:1018D0000CF00AFD609A501C00D147E1C348101A71
:1018E00000D200205F995E9D00281FD0012800D003
:1018F0003DE12298006A0028E8D050904F914E9523
:101900002298C069519001221E9802404EA91F984A
:101910000DF0C1F9DAE7C046FFFFFF7F0A0A0A0AA5
:101920000001010180808080FFFF10001A9133A820
:1019300022990DF086FB369C60426041379E002E56
:10194000209900D001460029C0D134980028BDD488
:10195000359B002BBAD4339A0119099292680892E8
:101960009142B3D89A190999C9688A42AED8099A9E
:1019700011680491516805910899C91D0F9A914306
:101980000A1B4B43181800960190029223A8099055
:101990000499059A23460AF0EBFC319630941A9884
:1019A0002F902E952BAC1E9820704EA82EAA099928
:1019B0000CF05AFC5C943AAC4EA920460DF06AF843
:1019C000207A002802D00228F5D17FE73A997F29B2
:1019D000F1D83B9B3F2BEED818010F9A1340012200
:1019E0009A400D9B184008435C990978002904D05F
:1019F0001F9B195C11431954DDE71F9B195C914330
:101A00001954D8E72298026A8169199800901A98A7
:101A10000190029523A8219B0AF071F92BA823A914
:101A20000CF062FC2D9A501C00D19FE06F48101AF8
:101A300000D200202C992B9D002814D0012800D022
:101A400095E02298006A0028E8D050904F914E957A
:101A50002298C069519001221E9802404EA91F98F9
:101A60000DF019F9DAE71A912EA822990DF0E9FA8A
:101A7000319C60426041329E002E209900D0014688
:101A80000029CBD12F980028C8D4309B002BC5D477
:101A90002E9A01190992926808929142BED89A1919
:101AA0000999C9688A42B9D8099A1168049151689C
:101AB00005910899C91D0F9A91430A1B4B431818A9
:101AC00000960190029233A809900499059A234642
:101AD0000AF04EFC3D963C941A983B903A953EADE8
:101AE000169828703FAE1E9830703AA903980DF0F2
:101AF000CDFC40AC1C22204609990DF0C9FD48954B
:101B000047964EA8382221460DF0C2FD00205D9078
:101B10005C905EA814990DF004F85E98012800D03E
:101B20007CE7609D5F9C4EA80CF084FEC1B2022948
:101B300000D173E77F2CECD83F2DEAD828010F9A0B
:101B400015400122AA400D9B1840204389000A9BA2
:101B500059580978002904D01F9B195C1143195466
:101B6000D7E71F9B195C91431954D2E7219D179E1B
:101B7000139A1D9810181D902198854200DC2CE5C1
:101B80002C1A0698169905F08CF8C2B2022A0FD0CA
:101B9000509421984E902299886AC96A5191199956
:101BA00040184F90012002404EA91F980DF073F885
:101BB0000E98169905F075F8C2B2022A179D2E46A6
:101BC000219800D109E550944E902299086B496BF9
:101BD0005191199940184F90012002404EA91F9829
:101BE0000DF059F82E46F8E461B0F0BDFFFF10008B
:101BF000F0B503AFD5B00191036842688568C46849
:101C000021460A9251402A465A400A430B931094A7
:101C10000F9501D0064600E08A4E417D0D91046982
:101C200031A831460DF03CFA32687068B368F1684B
:101C30001646529051921193D21A121854920D1ABC
:101C4000A819539012A851A90DF02AFA0B980F99D0
:101C5000081AC1174840411A0A98109A101AC21758
:101C60005040801A884200DC0846002C01D1022135
:101C70000D91119A74498C4200D30C46401C0E9071
:101C8000640012AB743338A86030089001201090C3
:101C9000C00702D064430020FAE7961B1098C007E3
:101CA00002D076430020FAE71098C00702D06D43B7
:101CB0000020FAE7359807903698069032980490FD
:101CC00015980590149803903198029038A80C90BC
:101CD00031A91C2211920F930DF0DAFC0C981C30E4
:101CE00012A9119A0DF0D4FC01201190089B987054
:101CF00000200990187002984042039948400499C6
:101D00004942059A51400143484248415870A81938
:101D100044434794079806994018C10F4018401053
:101D20004690099D4F954E950A9E4D960B9C4C945E
:101D30004B954A954996489451A80C992A460DF01E
:101D4000D7F916950E98159014951396129412A81B
:101D5000143064220E900C990EF042F82B460F9A24
:101D60000D99117128460D91C9B2022967D000283A
:101D70002FD125981099C90702D040430021FAE7D6
:101D8000269988425BDC927831A80E990DF0B0F963
:101D90003198C10701D1442100E0402112AA5158D5
:101DA000259A51182591349B339E329C0F9A1178B5
:101DB000002905D191781D46119B59402B46917001
:101DC000149313961294119908401599081A1690B5
:101DD000CDE7401E16901D998B4206DD1C995B1ABB
:101DE0001A997118199AA51801E0314625461A4624
:101DF000189B5E181396179B5C1912941B9BD318A3
:101E000014937F2D18D8402916D209930B940724D8
:101E10000C40119BA34038240C40210129430D9A0A
:101E2000D20703D0019C625C1A4302E0019C625C11
:101E30009A4362540B9C099B0F9A117993E755B012
:101E4000F0BDC0467C0D0108FFFFFF7FF0B503AF7A
:101E50009DB00D460646847D002C08D0012C0CD187
:101E60003069401C01D30020C043400806E03069BF
:101E70003F49884202D3084600E00020424205A8BC
:101E800031460DF03CFA327D022A05D00120024095
:101E900005A928460CF0FFFE707D022865D0316947
:101EA000002962D0002C03910495029008D0022CE6
:101EB00005D12F4881420C4602D3044600E04C086D
:101EC00009A8314622460DF01AFA0B9C0F940A9E7F
:101ED0000E96099B0D930C984508039AAA4200D8C8
:101EE0001546109513941193411B914200D311464E
:101EF000009401931491401A00D20020801912908E
:101F00000120029C04400DA90296049E3046224600
:101F10000CF0C1FE11A93046264622460CF0BBFE4D
:101F20000898002821D01890029969181691039AF0
:101F30005300009C621C9A4200D31A465208179222
:101F4000019B15931C901B921A91A01A049C00D21D
:101F50000020C018199015A9204632460CF09BFEAF
:101F600019A9204632460CF096FE1DB0F0BDC046C1
:101F7000FFFFFF7FF0B503AF87B00291054680B247
:101F800003907D21CE0031460DF065FF0190464360
:101F9000AC1BA0B2642631460DF05DFF05464643FA
:101FA000A01BC0B20A210DF056FF2049039A8A42B5
:101FB0001DD95621029C61712E21A170302630431B
:101FC00020713543E5700198C0B20A210EF0DAF8AD
:101FD00031436170174903980DF03DFF3043207085
:101FE00004A8062221460CF04DFF052511E05622DB
:101FF00002990A712E224A7030221043C87015438C
:102000008D7001983030087004A805252A460CF020
:1020100039FF0498002802D1059802D002E0044854
:1020200000D1069D294607B0F0BDC0460F2700002D
:10203000BB05010810270000F0B503AF85B004917F
:1020400004462849884200D30846039026490DF0EB
:1020500002FF3026202225498C42019402960092EC
:1020600001D8104600E03043049D28700A24039EE6
:10207000304621460DF0EFFE21464143711A029E83
:102080003143297121460EF07DF8019D092D02D8BA
:10209000009E314601E03143009E0498C1706421E6
:1020A00003980DF0D8FE21460EF06CF8632D01D890
:1020B000314601E002980143049881707D20C100FF
:1020C00003980DF0C8FE21460EF05CF8E8087C2865
:1020D00001D8314601E0029801430498417005B0EF
:1020E000F0BDC0469F860100102700000F270000AA
:1020F000FEB506AF0C4600B2092801DC202100E045
:102100002B210822D243904200DA2D2121700A258A
:1021100029460DF0C8FF01B2C9134840461AB1B2B2
:10212000632907D9252020713020E070A07031206C
:10213000607017E02020607009290DD925202071DA
:10214000F0B229460DF087FE302145430843A070C8
:10215000701B0843E07005E025212171A07030203C
:102160000643E6706846052221460CF08BFE0321EB
:102170000098002802D1019802D002E0024800D164
:10218000029903B0F0BDC046C0050108F0B503AF29
:10219000844EB544844868446A90844868445590A5
:1021A000834868445D908348684441900B202890A0
:1021B000C004814A5169014351613F203E900003B0
:1021C0007E4B1968814315221003081818600125F9
:1021D00028023790C0309861794B186879490840D7
:1021E0001860D8680840552109064018D86076491B
:1021F00008683023469398430860C8681023729398
:102200001843202324939843C860704868442830BA
:102210004E906F48002802D000BF401EFAE77D2094
:102220006C9000014090002426462592052C0ED08B
:102230000BF0E6F84099002902D000BF491EFAE7EA
:10224000C0434221084200D1761C641CEEE7032EF5
:1022500001DB0BF039F95F48401C574E31680143F0
:1022600031606A045C4C214608463168114202D153
:10227000411C0028F8D16492002828D05748112129
:1022800001607068564A02400804101870604D489A
:10229000401C31680143316020463168890103D414
:1022A000411C00280846F8D1706802210143A94367
:1022B0007160204671680C220A40082A03D0411C34
:1022C00000280846F6D1306B802101433163454830
:1022D00001683C4A114003224F929207891801601D
:1022E00041484249416000217591816007212D914B
:1022F00001607395A90276A80DF07BF91F20800478
:102300007169014371613A4A10683A4908403A4993
:1023100040181060394B186839490840394940184D
:102320005E301860264E306837490140374808183B
:102330003060254A116840200D90014380200546F9
:10234000814311603249B161324999613248411C7F
:1023500099613799F431002902D000BF491EFAE78C
:10236000729898613799F431002902D000BF491E54
:10237000FAE7739EF104279199611D484169E222B1
:102380000A431D210B918A4342610D48856100BFBC
:10239000F1056991816121490A46002A40D000BFB8
:1023A000521EFAE7B4E3FFFFC8110000101100004D
:1023B0008C100000D8050000001002400008004802
:1023C000000C0048FFFFFF000014004874100000DC
:1023D000409C0000FFFF00006079FEFF00200240EB
:1023E000FCFFC0FF20ED00E010E000E07FBB00003C
:1023F000001000480000FFFF555500000004004891
:102400003FF0FFFFE2040000CF3FFFFF104000005D
:102410008000040018002000FFFF0F0010270000BC
:10242000279E9E61D7484269AE23134351229343AE
:1024300043610346D44A2846956100BF699D956172
:10244000D24A96615A69A42313435B229343CD4A2F
:1024500053611346CC4A906100BF9561CB4A9661A7
:102460005A69A32313435C221E929343C54A5361C6
:10247000C54A906100BF9561C44A9661C14A5269DC
:10248000C0235F931A433E9B9A43BE4B5A61BE4A98
:10249000906100BF9561BD4A96615A69A1231343BB
:1024A0005E229343B74A5361B74A906100BF95617A
:1024B000B64A9661B34A52692F236B931A43D023CD
:1024C00029939A43AF4B5A61AF4A906100BF95611F
:1024D000AE4A96615A6923233C931A43DC239A43FC
:1024E000A84B5A61A84A906100BF9561A74A9661BE
:1024F0005A6981232C931A437E239A43A14B5A6134
:10250000A14A906100BF9561A04A96615A6925234E
:102510001343DA2293439B4A53619B4A906100BF65
:1025200095619A4A9661974A52690D9B1A43BF2357
:102530009A43944B5A61944A906100BF9561934AC3
:1025400096615A69B02313434F2293438D4A5361D6
:102550008D4A906100BF95618C4A9661894A5269A3
:1025600004231C931A43FB239A43864B5A61864AE1
:10257000906100BF9561854A96615A69729B1A43C2
:10258000EF239A437F4B5A617F4A906100BF956168
:102590007E4A96617E4E5A69AF231343502262925F
:1025A0009343784A5361784A906100BF956100294E
:1025B00002D000BF491EFAE7F06902210143F16130
:1025C0004F9A9004734E31688143279801433160DC
:1025D000706AF021884370626F496B988862C520E9
:1025E000669083003593D333CB620B640D20099042
:1025F000C002C86173980503086A70952843086291
:10260000739848612C98086008256448479585614F
:10261000739D2A930B645E4B58696149014359616C
:10262000680299690143996109201D90C3061868E1
:102630005C4908431860D8685B4908406393D860D8
:10264000524908680F2318430860C868719398437B
:10265000C860306810433060F0689043F060E9076C
:1026600052480161056085600168C90703D1611C9A
:10267000002C0C46F8D140992F3181622D9941618F
:10268000C5604B49759A8A60024640320A61494AE0
:1026900018324A61289ACA60474A8A6083681C9C3B
:1026A00023438360454B0C68A40703D45C1C002BB8
:1026B0002346F8D14823424D5E2B06D03D4CE4180A
:1026C000303C2488EC529B1CF6E7719B4B6018232E
:1026D00023930360759E8E60289BCB608A6081681F
:1026E0001C9A11438160374C6C4420460BF06EFA03
:1026F00020460BF019F9749630463546102E17D047
:102700007590314C6C4420460AF042F92F48431C26
:10271000E28861882088002B02D000BF5B1EFAE7A8
:10272000749B9B1874936D1875990818761CE5E7CF
:1027300003092748181884B229096C98C0007590BD
:10274000401C244A84421E4D00D2EB80749B1B091E
:102750008C18A4B284426A9C0D4E00D269829918EA
:1027600089B2814201D242202B5200202060606059
:10277000A06019490C2831D0425C124B6B441A54AA
:10278000401CF7E700100048000C00480004004817
:1027900000100240000800480004004000140048F7
:1027A00001000E00FFFF00000000FFFF00240140B9
:1027B000000002400409002081250000C0F2FCFF57
:1027C00074060020C8110000E4050000B70B0000EB
:1027D00024FAFFFF24FA0000ACF7FF1F9648684474
:1027E000C17A7491817A6F91417A6D91017A6E917B
:1027F000C1796791817965914179609101796191A0
:10280000C1785C9181785B91457804780AF0F8FD95
:1028100068901D988004716901437161B0698749AE
:102820000143B161864A106880B286494018106041
:102830003E988006916801439160506A8249084041
:102840008249401850627098906181489061814837
:102850009061814A1068469988431060D0687299E7
:10286000084324998843D0607C4AC0327C48016880
:102870001140379A114301607A4801681C9A11434C
:1028800001608260784E00213160359830601722F7
:102890005E92120208927260403030607198C043BC
:1028A0004290B268D20704D0002802D0327B401C8C
:1028B000F7E7280200195B9A120480185C9A120646
:1028C0008018609A1202619BD218659B1B04D21873
:1028D000679B1B06D21842406D9800026E9BC01881
:1028E0006F9B1B04C018749B1B06C018504065905A
:1028F0005E48401C689A43900240519273980007CA
:1029000072905B4D052900D1B6E00A462846B168B1
:10291000090603D5411C00280846F8D14848729999
:10292000816100BF00BF2846B168090603D5411C7C
:1029300000280846F8D16F922846B168890703D469
:10294000411C00280846F8D1A02434732846B168F9
:10295000C90703D1411C00280846F8D1307B28461E
:10296000B168090603D5411C00280846F8D100BF0C
:1029700000BF33487099816100BF00BF40980028B4
:1029800002D000BF401EFAE7002001460BF098FB82
:102990006C98C001002802D000BF401EFAE70B204F
:1029A00019210BF08DFB0C2001210BF089FB244831
:1029B0002749816110200BF01DFB2E4948712946E3
:1029C000B268120603D54A1C00291146F8D11C49E9
:1029D000729A8A6100BF00BF2946B268120603D509
:1029E0004A1C00291146F8D12946B268920703D43F
:1029F0004A1C00291146F8D134732946B268D2071F
:102A000003D14A1C00291146F8D1317B29466F9B1E
:102A1000B268120603D54A1C00291146F8D100BF3E
:102A200000BF0749709A8A6100BF00BF591CC0B23D
:102A30009E2822D066E7C046C8110000011002009F
:102A400000100048000055A9FFFF0F000000101102
:102A50000003000300040008000400483FF0FFFFEB
:102A6000080001400C04014000300140FF0F00004D
:102A7000F0D8FFFF0409002005232846B1680906A5
:102A800003D5411C00280846F8D1E64872998161B7
:102A900000BF00BF2846B168090603D5411C0028C5
:102AA0000846F8D12846B168890703D4411C00289C
:102AB0000846F8D106200A9030732846B168C90745
:102AC00003D1411C00280846F8D1307B2846B16864
:102AD000090603D5411C00280846F8D12846B168EC
:102AE000890703D4411C00280846F8D154200790D8
:102AF00030732846B168C90703D1411C0028084635
:102B0000F8D1307B2846B168090603D5411C00285E
:102B10000846F8D12846B168890703D4411C00282B
:102B20000846F8D1752030732846B168C90703D12B
:102B3000411C00280846F8D1307B2846B1680906B8
:102B400003D5411C00280846F8D12846B1688907FA
:102B500003D4411C00280846F8D1669830732846F3
:102B6000B168C90703D1411C00280846F8D1307B61
:102B70002846B168090603D5411C00280846F8D14B
:102B80002846B168890703D4411C00280846F8D1BB
:102B90002A203B9030732846B168C90703D1411CF5
:102BA00000280846F8D16F93307B2846B1680906A3
:102BB00003D5411C00280846F8D100BF00BF994842
:102BC0007099816100BF00BF0024322C08D0964864
:102BD000015DFF2902D020460BF072FA641CF4E775
:102BE0002846B168090603D5411C00280846F8D1DB
:102BF0008C487299816100BF00BF2846B168090600
:102C000003D5411C00280846F8D12846B168890739
:102C100003D4411C00280846F8D1A0203073284670
:102C2000B168C90703D1411C00280846F8D1307BA0
:102C30002846B168090603D5411C00280846F8D18A
:102C400000BF00BF77487099816100BF00BF0220BC
:102C5000012161910BF034FA2C4602200BF0CAF9E5
:102C6000C00703D0601C002C0446F6D12420132199
:102C70006E4C3A906091A04726203B2139901B91E1
:102C8000A0470F2000217391A04702200146A047D2
:102C90002C4602200BF0AEF9800703D5601C002CF7
:102CA0000446F6D10F20A021749071910BF008FA20
:102CB000022001460BF004FA2C4602206D900BF026
:102CC00099F9800703D5601C002C0446F5D1252016
:102CD0000A21389067910BF0F3F955485149886102
:102CE0001F2011900BF0E4F92846B168090603D5BE
:102CF000411C00280846F8D14A487299816100BFFA
:102D000000BF2846B168090603D5411C00280846C3
:102D1000F8D12846B168890703D4411C0028084629
:102D2000F8D1719830732846B168C90703D1411CA6
:102D300000280846F8D1307BB068000603D5681C2F
:102D4000002D0546F8D100BF00BF3648709981615B
:102D500000BF00BF102021900BF04CF90146354810
:102D60005C9141714198739AC260026142618261D3
:102D7000659B190E6E9114466000A107C90F0818D3
:102D80006E9940184F99084029214D914843401CA5
:102D900071900F2C2FD8521CC82A01D8052600E0AC
:102DA00003263798F4308242739200D901262248D4
:102DB0004343224818187290E04029210DF0E2F9AF
:102DC00071980818C1B2002294420DD01C4B6B447C
:102DD0009B5CCB1ADD176B405B1BDBB2521C9E4227
:102DE000F2D9739A729BD4E7154969440855641C5B
:102DF000739A729BC0E7134C6C4420460AF0FAFEAB
:102E0000207A132800D36098C00120188C214458E0
:102E100000200D4A1C2819D00A4969440A52801C16
:102E2000F8E7C04600100048D9160108C1E00008C4
:102E300000010003040900200D6619005FF36E3CD9
:102E4000E4050000C8110000DC050000A348684448
:102E5000A3496CC86CC16598A1490861619DE843AC
:102E6000611E814201D3429C0F349D4E74613046F5
:102E700018309C4969441C2260920CF009FC3046D1
:102E80003430112122910CF0B4FB492100205991DA
:102E90007054611C4A1E914148220592B15446214A
:102EA0002F91705245226D990692B1548E49086057
:102EB00088606B9A8A62709AF73ACA620861CD603C
:102EC000FF222E921304894A14689C43699B1C4379
:102ED0001460874CFF3413692340EC0323431361D0
:102EE000844B2833844A13600D606F990529294665
:102EF00000D3014673915C98C0B29E384142414173
:102F00005C91519800287D4E02D0284609F0E8FCDB
:102F10007069649A1043706140983030B169014320
:102F2000B1614F9E3004639B19688143114319605E
:102F3000586A6D990843099DA843586270496B9877
:102F40008862682088610E624C64644C6C44204640
:102F50000AF050FEA17A481E81416A486844C17255
:102F600008F0BCFEE07B09F0B7FD6804634A5169D4
:102F700001435161B006644B1968814301229006F8
:102F800008181860549250079861604868440026F9
:102F900046810681C6808680617A4A1E914101730E
:102FA000217A132900D313215C9A739B1A435C92F4
:102FB000C90122468032539251180A8A02804A8AF5
:102FC0004280C86809F0C4FC419880696799484309
:102FD00008F000FFA07B08F0D5FEE1203390C00090
:102FE00052904B4A0C2E06D05298F8304949694409
:102FF0008853B61CF6E700200C2804D039496944F0
:103000000A52801CF8E700244E9804705D9EB4605C
:10301000746034603F48684473903F4969441A9132
:1030200073982CC82CC11A990C312E4868441991F8
:103030002CC82CC14E9844703849F1603848684417
:1030400004777461B461F46134627162B462F462F1
:103050007598183034906899014205D02E4868441C
:103060002849694408F0AAFD1A9818301A90E043DC
:103070004C90619E0C2C06D05298F8302949694436
:103080000853A41CF6E74B202B90400136904E9835
:103090000078002800D0B3E1002072907190FEF714
:1030A00085F905460F4C6C4420460AF05FFC529EA1
:1030B000F8360AF0A5F93040217866786F966E915F
:1030C0000E43A3781E43E27816430821645E164936
:1030D0008C422BDD00282FD08AE1C046E405000099
:1030E00000000020C81100000044014004E400E09A
:1030F0000000FFFF1800200000E100E00010024087
:10310000002C0140D80500000008004864100000B1
:10311000FF0F00004811000074100000FFFF0000C6
:10312000A0100000C01000007CFCFFFF002800D0B1
:103130005EE1002E00D15BE1709469936B92739510
:10314000FC4D284609F040FBFB4C6C44204609F03E
:103150009FFB6A9800690090F84A6A447398294670
:10316000739D234609F034FE7198281A35990B3166
:103170008842F34A1DD9F34868443221018162999B
:10318000C180F1498180022181724199EF4B0B602E
:10319000C07A012871950CD137987F30D0625F9941
:1031A0005163516A814201D9002050622C9810600D
:1031B00071957298291A212900D270E76420642938
:1031C00000D301466890DF48684408F057FD549DDD
:1031D000A90276A864900CF00CFA03200102D648EC
:1031E00068447291018109211022559CD84B636477
:1031F000D84BA364D84BE364749B23656265A165D7
:10320000A5636899E163649D2946FEF7B1F97F21C2
:1032100000206890A0632898E06365912164606451
:103220005498A064CD48E064C34868442946FEF73A
:10323000DFFCCB487099814217DDBF486844729922
:103240000181022164220123559CA363E263C04AE9
:103250006264C04AA264C34AE264259A2265616539
:103260005E99A16576A9FEF783F9002E559D00D1E0
:1032700091E0B148684472990181222102246422BC
:1032800001236493AB637092EA63B14A6A64B14A02
:10329000AA64B54AEA64749A2A6563946C65A96560
:1032A00076A9FEF765F95D98B049016441648164CF
:1032B000C1646E980028689D0ED0AD4C6C4400210E
:1032C000042520462A460BF087FCAA4A2B460BF021
:1032D00016FD2020207105256F9800280ED02C1D8A
:1032E000A34E6E443046294622460BF075FC04235B
:1032F000A14A0BF004FD202030556D1D699800286F
:103300000ED02C1D9A4E6E443046294622460BF0B4
:1033100063FC0423F84A0BF0F2FC202030556D1DAD
:103320008C4E6B9800280DD00D2D0BD22C1D904883
:103330006844294622460BF04FFC0423F34A0BF065
:10334000DEFC00E02C467C486844894969442246FA
:103350000BF098FD559DAC6BE96B2A6C7648684480
:10336000729B03817A4B6B64AE642C23639E6E6503
:10337000AB650E23002C00D11346559A1365E44A21
:1033800000D10A46559DEA646499A9637099E9637E
:1033900076A9FEF7EDF837206899A963E863659987
:1033A00029646864549EAE646C48E864624868446A
:1033B00076AC2146FEF71CFC5F4868447299018197
:1033C0003E210222D34B6B64624BAB64D24BEB6465
:1033D000609B2B656A65A9656421AE63E96321463C
:1033E000FEF7C6F8204608F013FD7398729056E673
:1033F0003699C83953486844282208F079FC619E00
:103400005199481E81415191C448401C4590C4487F
:1034100068442030129048486844801C26905448E4
:10342000684412303190C3486844801D32902E9811
:1034300090302E90002264200F90F8485C99C94388
:103440000E9163926592649262926B92189250927E
:1034500044921092139214903D923F921F925F9269
:1034600030924C9815905F9C6B985E90FDF79EFF94
:1034700005463F4868440AF079FA6B95281B642892
:1034800000D36420609009F0BBFF69906B98A04264
:103490005F947AD02B486844609908F0EFFBDE48CF
:1034A0006844808800280ED060998DB2421BDA49AA
:1034B00069440023A84200D21A468A8003D8D6481D
:1034C00068440021C172699AD0434221084255D014
:1034D000100653D0D0486844807AD1B2884200D0D8
:1034E000EDE0609880B2CC4A6A44D1880918D04B8C
:1034F000994200D3CE49D1802E9A323A92B291426B
:103500006B995F9141D9C44969440A891018F44AFA
:10351000904200D3F24808815A286B985F9034D3C8
:10352000BD486844002101816999002900D0D6E096
:103530002020DBE0440A010848110000C811000007
:10354000002C0140D8050000280A0000500032007D
:10355000B408010802020102600A01080201010028
:103560007CFCFFFF6F0A0108840A0108202020204C
:10357000CC10000070020108CC0201080020329932
:103580000871488008806B985F90DA486844018829
:10359000D94A6A44508A411ACB175940CB1A918AAA
:1035A0001F2B03D3D44A6A44D28A2EE0D14A6A44FC
:1035B00052888A1AD3175A40D31ACF4A6A44D28AF9
:1035C0001E2B22D8CB4B6B449B88D31ADD176B4044
:1035D0005B1B1E2B19D8C74B6B44DB88C64D6D4453
:1035E0002D8BEB1ADD176B405B1B1E2B0DD8C14BCF
:1035F0006B441B89C04D6D44ED8BEB1ADD176B409E
:103600005B1B282B01D800F05AFF3346B94D6D449F
:10361000AA80698028805D99886DE880086E68813D
:10362000B5496944C88B28810878639A904230462E
:1036300011D14878659A904230460CD188786499C7
:103640008842304607D16298C0B2AB496944C97814
:10365000081A411E884169990904314600D119466A
:10366000002900D10646A5486844C07A5D9A126CCC
:103670007292002E12D0401EC0B200210328509139
:1036800002D28000F749095845910A214198806982
:10369000484308F09FFB509844906CE0002808D005
:1036A0006B98A04267D04599609A914244D9891A93
:1036B00048E06B98A0425ED04599609A42E011467E
:1036C0008143080601D100F009FF534868440022F5
:1036D0000281C280699A82720029249806D04842E9
:1036E0000840EA494843C00EE9A1085C03A1400034
:1036F000085A40008744C046600201081600C90706
:10370000BD07C107B907CD07D207C5079802010851
:10371000930A01080C0A0108A10A01082F7500008C
:10372000741000003C4868440121E14B6B440A4698
:1037300000F0BAFF64100000DE4827998161002183
:10374000DD480164449884180025844200D2EC438B
:10375000DA48844245910DD9D9485099814207D918
:10376000D3486844FA22529908F0C2FA509501E011
:10377000501850904494614868447190007A13281E
:1037800000D31320C1015398739140186890027EB2
:10379000501E8241584D6D444798285E7599489057
:1037A0004618B0B2C00B301800B24010884200D3A7
:1037B0007598729B190C1B0A36B24C9CA64200DA13
:1037C0000020729E340E6294F4B26394C9B2649184
:1037D000D9B26591689CE17D2346193309F09EFFBB
:1037E00080B27290A07D401E0E214B91695E6E9159
:1037F0000C214A91695E6F917199497A5891698952
:103800005C91E9885B91A9885A9103281CD804A18E
:10381000085C40008744C04664100000581B00004C
:10382000060E080A639806E0649804E0629802E0D5
:10383000FFFF00006598002806D02D212C222B20A8
:103840002724389B399D05E0282022233C9D3A9C63
:103850004D9A3B99689E715C7191315D7091B15C3C
:103860005791755D325CF15C5A98964B98470446C7
:103870005B982946579A934B984705465C987099F0
:10388000719A904B9847904B6B445790D88072999F
:1038900049008E4A5118491C7191998070955D803C
:1038A00025461C808A48684438210BF0A2FE3E2041
:1038B0004990305C7290042801D3002072906B987C
:1038C0005E99401A5690834A739B7298800005A1B6
:1038D00008582EB257990DB270990CB28746C0465F
:1038E000FFFF000001390008A33900080F39000864
:1038F00047390008C0100000CC100000E4050000AB
:103900006A980660446071998160C56063E06A9856
:10391000719981600660611B6F48814200DC6E49CD
:103920006C98C000814200DB01466A9AD160291977
:10393000694A914200DC68498142664A00DB0146DF
:103940006A98416047E035206899085C604969449D
:1039500001916249694400915B4969446F9A6E9B89
:103960000AF0E2F86A9B5C6071999960DD60C10FB2
:10397000401841108A1B5848824200DC564A6C9815
:10398000C000824200DB02465A618919524A9142C4
:1039900000DC514981424F4A00DB01461960739BAC
:1039A00019E06A9A71989060D560A1194A488142DD
:1039B00000DC49496C98C000814200DB014651603F
:1039C000A11B454B994200DC43498142739B00DBBC
:1039D000014611603F4A42486844C0187190002176
:1039E000B425BE2D20D04E1C0C1D0E2C19D2719862
:1039F000405D7299032902D1052C6D9912D034498A
:103A00006944709101913549694400912E49694496
:103A10006F9A6E9B0AF088F8739B2E4AA100709CE7
:103A2000605031466D1CDCE7469D2E4E2C486844A4
:103A3000002D00D1CAE0C018C0300478002C01D09D
:103A40000E2C02D99B1DAD1FF0E725486844C01815
:103A5000C421405C401E092853D803A1085C4000E3
:103A60008744C046141A010807420D0F0946481141
:103A70004C0B639843E0659837E0629835E06598B1
:103A80003DE0659837E064982FE0C04631B57C078B
:103A900000011C021D0E18031E16140F1911040834
:103AA0001F1B0D17151310071A0C12060B050A0918
:103AB000D80500000014004800040040BF2709009A
:103AC0002F750000A1DA00083811000017FCFFFF75
:103AD000C8110000DC05000018FCFFFFCC1000003E
:103AE000E4050000E204000063980228AAD108E07F
:103AF000649804E064980128A4D102E06298002848
:103B0000A0D1C54868447393C618C120305CC3492E
:103B100069440191C24969440091C24969446F9A5C
:103B20006E9B0AF001F8C2217156484364210CF0E3
:103B3000BAFAC3217156679A514340186699725C6C
:103B4000611EC9B2002A2ED0012A14D0022AB64E14
:103B5000B64A739B00D075E7B54A904200DCB44882
:103B60006C9AD200904200DB10468900AB4A6A444E
:103B70005050AE4A66E78900A84E6E447291715863
:103B800048436C99CC0021460CF08DFAA849884234
:103B900000DCA748A042A54A739B00DB204672992F
:103BA0007050A14E4EE789009C4A6A445358181839
:103BB0009F4B984200DC9E486C9BDB0098429A4EDB
:103BC00000DB18465050994A739B3BE700206C9DE0
:103BD0001C2804D0974969440A52801CF8E7002049
:103BE00094496944382814D08C4A6A441258D30F37
:103BF000D3185B10F318FA332C01A34200D32346E9
:103C00008D4CA242759A00DB1A460A80891C001D61
:103C1000E8E700248948684401578900559A926B67
:103C200089182A460DB2D1008D4200DC0D466C9AEF
:103C30001201954200DB15467E4B6B441D80012529
:103C400073954557AD005E88AD192DB28D4200DCED
:103C50000D46954200DB15465D809D88807840B218
:103C6000589901290ED0022928D18000401905B2A7
:103C70006C98C000854200DC05466C9800018542C6
:103C800025DA25E06C4949194A1C6C99C9008A1A41
:103C900000D20022759B9D4201D2359AD432424314
:103CA00090000CF000FA451933988000854200DC42
:103CB0000546634885420BDB614D09E06C98C00006
:103CC000854200D805466C980001854200D3054620
:103CD000584868448580594969444F9A89568900F3
:103CE000C288891809B26C9BDA00914200DC114647
:103CF0001A019142534D00DB1146C1806898808AB9
:103D000021461C290ED02246749B1A400346D340FC
:103D1000DA0704D0474A6A44535AEB1A5352641CD8
:103D2000891CEEE748486844424969441C22709265
:103D30000BF0AEFC7220689E355C08F059FE04461C
:103D40007195012D2CD17320315C012520466840EE
:103D500009F0F0FB002C3D4C619E00D0B1E1E07811
:103D6000012800D0ADE120696B99081A0A28234682
:103D7000729500D2F3E06B9818612E4969441620C1
:103D800088703348088000204876324D324E202813
:103D900027D075990839214A6A441152801CF6E7E8
:103DA0000020014609F0C6FB204608F01DFD002C4E
:103DB00003D12548684408F007FD2848684408F006
:103DC00067FDEFF3108072B64721254A515C599B7D
:103DD000D25C80F31088951E681E85410D40619E5F
:103DE00080E100241C2C3DD017486844005BF7217B
:103DF0008900884200D80846A84200D32846C0005F
:103E0000801900B205210CF04EF9AC300349694429
:103E10000853A41CE6E7C046E4050000C8110000F2
:103E2000CC10000038110000E2040000DC050000A6
:103E300018FCFFFF4811000017FCFFFF6410000092
:103E400034080000B80B0000F41000000409002042
:103E5000EE180000DC070000C0E0FFFF10110000BA
:103E600000000020CA4C6C446A980568E570C94897
:103E7000684483889908A17142895108A172C18957
:103E80006891CE0866732D0A4688F1002943217196
:103E900071099D010D436571990AC3885D000D4349
:103EA000E5716A9989680D01DB092B4323720909C1
:103EB000D3010B4363726A99C9688B00520A1A4393
:103EC000E2728909689A52010A4322736A990D695C
:103ED000A573838A99086174428B51086175C18BFF
:103EE0006891CE0826762D0A468AF1002943E173AF
:103EF0007109619E9D010D4325746A9D990AC08ACE
:103F000043000B43A374C009A9690B010343E37485
:103F10000809D10101432175500AE9698A00024369
:103F2000A2758809689949010143E175172126980E
:103F30000AF088F960760020729D1A280ED0944904
:103F40006944095C401C944A944B1B681B0602D4CC
:103F5000521CF9D302E0914AD160EEE7904B412424
:103F60008E480068010702D508218C4A51608006FE
:103F700000D498E089488068C2B25869002808D007
:103F8000012810D1901E3D2825D286484270022675
:103F900022E0C82A03D0EE2A01D0EA2A1DD18148A6
:103FA00002702E4618E07F494978891C0026884215
:103FB00012D23F2801D902F03AFD7A4D2A54729D5F
:103FC000401C5861884208D176480AF0C7FD042990
:103FD00007D2734B00E000265E61641E619EBFD174
:103FE00061E002464578A81C88426D4B30D8022D0E
:103FF0002ED3501940786890901C691E58920AF090
:1040000021F9C0B26899814221D1589A9078082844
:10401000634B1FD014281BD10B2D19D918463030F3
:104020005179017491794174D1798174117AC17493
:10403000D1784942817311794942C173507A401E47
:10404000C0B2072827D840005749085A24E0544BEB
:10405000729DC1E7092DFBD918463030917A017560
:10406000D0790004117A09020818517A40181863AF
:10407000D07811790902081800BA000C642148436D
:104080005887507992791202101800BA000C4843F0
:104090009887729D02E00020729D188745201D546C
:1040A0006B98586398E74520195C00291C4608D096
:1040B000616B6B9A511A359AD432914201D9002121
:1040C0002154304608F090FB20463030417D374A7D
:1040D0006A44D172007C9072608F108100255598DF
:1040E00005604560324A6A44108A729000903149F6
:1040F00069442E4B6B446B9808F06AFE699A10462F
:1041000043990840411E04468C4100280AD0002DE6
:1041100017D05298F830104041424141519808421E
:1041200007D032E0002D0CD05298F830024200D176
:1041300040E1002008F0D4FB1F48684407F0CEFDA2
:1041400040E01E496944097E4E9A1278D2B20A4371
:104150000021002A34D1002800D11DE13F99609848
:10416000091801D30020C1432A9881423F910CD9FC
:104170003D98C00708D1304608F0B2FB0E486844AD
:104180009622369907F0B4FD3D9651961BE0C04645
:1041900048110000C81100003CF6FFFF1C4400401D
:1041A00004090020F00600208C0D01081011000009
:1041B000CC100000F4100000D8050000A010000092
:1041C0003D913F915194EFF3108172B6E748599AAF
:1041D000825C7398024004D00020E44B599C18552F
:1041E000586981F31088002A32D0411E0122D2433F
:1041F00091422DD2FC496944097A132900D3132135
:10420000C901539A5118CA68824221D0C860F64841
:10421000684409F099FEF5486844322101812F99DC
:10422000C18036998180022181724199F04A0A60E9
:10423000C07A01280CD137989F30EE4AD062299974
:104240005163516A814201D9002050622C9810605C
:10425000E9486844007E00283AD0699A5698202898
:1042600000D8DBE0E14868440390E44868440290E9
:1042700031980190E24868440090DF4C6C4476A984
:10428000D94B6B44204603F0B1FCA07E002809D036
:10429000DC486844D549694407F090FCD648684436
:1042A00000218176D4486844C07E002801D100F006
:1042B000BAFD304608F014FBCF4868440021C176AF
:1042C000CA4868449622369907F012FD00F0ABFD0B
:1042D0004E9800780028699932D056992029609923
:1042E00000D89BE089B2142900D8142171914E990D
:1042F0004978349A699B134204D1CA0702D000213D
:104300004E9A51705D9EF2687292BE4B6B44699AF0
:104310009A84BD4B6B441D8CBC4C6C445B95658191
:10432000DD8B5A952581756DB66DE680DE8AA68097
:1043300065805B8A2380CD073FD172998A433DE037
:1043400034980142609862D080B2309989B20918DD
:10435000AF488142084600D3AD4801467598C73042
:104360003091814255D9A44C6C44739A2277002134
:1043700061824C9820825D9841618161C1610162D6
:1043800030918162C2629948684407F0A7FC699A3B
:10439000207E00283DD061E73D98C007002100281D
:1043A0003F9803D10021282800D3A7E03F913D91F9
:1043B000519108E70020519005E70022619E699223
:1043C0005299F8311140349A699B13406993699A64
:1043D000012827D0022831D1002926D14298001D7A
:1043E000002800D19AE08749694409180B8B874A55
:1043F0006A44121892899A42144600D31C460C83D0
:104400008B8C9A4200D81A468A84801CE8E70020E8
:1044100030905698202801D900F066FC5E986B9089
:10442000FFF721F8002900D106E100204E9908701D
:104430006E48684407F052FC00F0F5FC739DA90239
:1044400076A872900BF0D5F84F98010270917148E0
:104450006844018112216A9C6F4AE2606F4A2261BE
:104460006F4A6261A1616799E161239921626426C3
:1044700060C4729D2946083CFDF77AF86548684497
:10448000709901812621644AE260644A2261654A8A
:104490006261219AA2614B9AE2612162739942C4DE
:1044A0002946FDF765F857486844C08C71998842E1
:1044B0001CD9401A53496944C88400F0B3FC5A4BD4
:1044C0006B445B89504D6D442D8CEB1ADD176B40AE
:1044D0005B1B282B0FD80023FFF798F84848684447
:1044E00000210181C1808272FFF74DF800204E99B2
:1044F000087000F097FC0123FFF788F83699C83957
:104500003A4868441E2207F0F3FB1F99491C4F9854
:1045100001401F9100203F903D904CE700215598AD
:10452000816158914800374A6A4410184B1E032B8A
:104530001ED019460488058B2A1B0023A54200D2F1
:104540001A468589641B00D21C46801C4B1CFA2C21
:10455000EDD392B2FA2AEAD3891C34486844739A9C
:10456000C2545898401C5890DCE7C0460000002018
:104570006998002800D19BE05898C0B2042800D068
:1045800035E32B48684409F021FB5598294981639C
:104590001C99C1631B4868442199302900D12DE33F
:1045A00085890288541B0023AA4200D21C463E9DE6
:1045B0006C43A409141B00D21C46150425431C4C53
:1045C0006C446550058BAD1A00D21D463E9B5D4381
:1045D000AB09D2180E4B9A4200D30D4A63185A60A9
:1045E0000831801CD9E7C046E4050000D80500006A
:1045F00046003200002C0140A0100000F410000022
:104600006410000074100000CC100000381100008D
:10461000FFFF0000C8110000B408010802020102F7
:10462000BA1501089C0D0108C010000028110000F7
:1046300048110000594B5346002A00D136E2BA48CF
:104640006844BA496944024638CA38C119990246D1
:1046500038CA38C11A991CC81CC12C9840004E9900
:104660000880B348684432222DE6B24868440321EA
:1046700017E0B0486844022113E0AE4868440221C4
:104680000AE0AC486844042106E0AA4868440121D5
:1046900002E0A84868440321FF2203E0A5486844DB
:1046A00004210122A24B6B4407F03CFAFEF76BFF9A
:1046B000739CA10276A872900AF09BFF4F980102AA
:1046C0009D4868446E9101816A9D9C49E9609C4EB9
:1046D0002E619C4969612299A9614A99E9611D99F4
:1046E000296264212C60699169607299FCF740FF2E
:1046F0007F2100205C902860289868605791A9600D
:10470000E86054982861904868618B4868447299C1
:10471000FDF76EFA55988D498163C4638C49016435
:1047200044648C498164C4648B49016544651325E4
:104730007E4A6A447C486844729088486844719014
:10474000332D00D114E17C4868446E9901812C46D8
:104750006A9D7A49E9602C6202216091E96173994E
:104760002960699969602E617D49694409197092CF
:104770000A460F3A1268AA6113390968696176A975
:104780006F91FCF7F5FEA11F6891679803C53E98ED
:1047900028602D986860549EAE606B48E86066485B
:1047A00068446F99083DFDF751FB4D982860689962
:1047B0006960A8606894EC602E61634868615E4837
:1047C00068446F99FDF714FA709A1388108BC01A19
:1047D00000D25C985E9063490C466434689D2B2D32
:1047E000204600D00846132D00D004469089181AA0
:1047F00000D25C981E26704384426F9318D8E91E3D
:104800006A9AD160549B13614F4B536151602146AA
:104810000BF021FB1E2800D330466A994D9A8A601E
:10482000101A08604448684476A9FDF7E1F96F9BC7
:104830005E9880B21E267043844218D8E91E6A9A98
:10484000D160549B1361404B53614D9B1360516089
:1048500021460BF000FB1E2800D3304629306A9910
:1048600088603548684476A9FDF7C2F96F9B729855
:104870000088C01A0AD41E26704321460BF0EBFABA
:104880001E2800D3304629302D4E0CE042990E39B7
:104890004143084621460BF0DEFA1E28284E00D37D
:1048A0001E204D99081A691E6A1F6A9C05C4206063
:1048B00061605498A0602448E0601F48684476A96D
:1048C000083CFDF795F97198007800280CD01A483B
:1048D00068446E99018173992160699961601749F3
:1048E000E160266120490BE0134868446E9901811C
:1048F00073992160699961601049E16026611B49E3
:1049000061616099A1612B99E161256276A9FCF74B
:104910002FFE7198401C71907298801C7290709A52
:10492000921C08350CE7C0463811000074100000D6
:10493000D805000064100000C8110000B408010888
:10494000020201026A15010802010100D90A0108E8
:10495000DA0A0108DB0A0108DC0A01082811000054
:1049600048110000E2040000B8150108B61501085E
:10497000CC486844018C7291828A0189CA48684493
:104980006E9B03816A9BC94CDC601E611325052464
:1049900070949C611E9CDC6160951D62739C1C6020
:1049A000699C5C608C1A00237191914200D21C4674
:1049B000719A7299891A00D219466F9168940919EF
:1049C00089B22E9A9142BA4900D8BA496A9E716159
:1049D00076AC2146FCF7CCFD1E983060259D7560B5
:1049E0003C98B0602D98F06054983061B248706186
:1049F000AD4868442146FDF729FA1B206D2122C6E7
:104A00007291316070605498B060AB48F060A64815
:104A100068442146FDF7ECF8689A382A1AD96A9852
:104A200023994160C16054990161A3494161339860
:104A3000810090B200010BF00EFA102800D3102074
:104A40006A99729A8A60101A08609748684476A931
:104A5000FDF7CEF86F9880B239286A9D17D3729906
:104A6000296023996960E9605499296192496961D3
:104A70003399890000010BF0EEF9102800D31020C3
:104A80006D30A8608848684476A9FDF7B1F85A9857
:104A90007199401A00D5CBE10001339989000BF0E0
:104AA000DAF9102800D310206D30CCE1739CA102FC
:104AB00076A870900AF09DFD4F98010272917A4895
:104AC000684401816A9E7949F1607C4931617C4981
:104AD00071612299B1614A99F1611D993162642134
:104AE000719134607160709C2146764A90477F21B5
:104AF0006E9100206990306028987060B160F0601D
:104B0000549830616C487061674868442146FDF7ED
:104B10006FF8654868446090729901811623689324
:104B200002206F901421614AF260644A3261664A41
:104B30007261B161F061336273983060719C74602E
:104B4000609870995F4A904757486844729901810C
:104B50002021564AF260594A32615C4A7261229AB7
:104B6000B2616F9AF2613162739912C6709C2146EC
:104B7000544A083E90474C486844729901812B2161
:104B80004A4AF2604D4A3261514A7261689AB26192
:104B90006F9AF26131627399316071997160214647
:104BA000484A904730206999316070606E99B160D1
:104BB000F06054983061404870613B486844214639
:104BC000FDF716F8002D00D115E1374868447299B9
:104BD00001811321739A3260719A7260334AF260D4
:104BE000364A32613B4A7261B1611C9914E1759990
:104BF0006431394868446422FFF766FB302012991B
:104C000040282DD00A880B460C3B1D88531B00D230
:104C100000232E9CA34220D90B46183B1B885E1B09
:104C20000024AB4200D226463E9D6E43B5095D1B73
:104C300000D225461E042E43284D6D442E50D21A14
:104C400000D222463E9C624392099A18244B9A4213
:104C5000619E00D3224A2B185A600830891CCFE786
:104C60001E4C6C44204608F05FFE0F4D6D442846F4
:104C700008F0C0FF8022284621460BF0B1F82846F4
:104C800009F062F91749C83113486844962207F0C1
:104C90002FF87598C83003496944C8844E984F99D5
:104CA0000170C0E074100000C8110000B4080108D1
:104CB000801501087B1501080201010002020102B2
:104CC000F614010871150008071501081B150108E5
:104CD0002C15010857150108D805000048110000DF
:104CE000FFFF0000280A0000739EB10276A86090C2
:104CF0000AF07FFCFB486844047A132C204600D35A
:104D00001320C00153990918F7486844679A0AF0BC
:104D1000B9F800216A9800680028304601D16A98E5
:104D20004068179501D16A99896801F03FFF589052
:104D30006A9E5E91641C2046679D29460BF08BF8A5
:104D40004543621B302169910A43E84969448A70EE
:104D5000303048704D2056900870E34868444F9CAE
:104D600022460AF08FF80ACE306857902402DE48B7
:104D700068440481DE4C7460DE4CB46002257561C9
:104D80001D9CB4616422739C083E3460689272601A
:104D90000029D94900D119464F9B00D1579B209536
:104DA0005E9A002A00D013466A9DAB6100D05899E4
:104DB00069616099FCF7DCFB7198401E411E8841D7
:104DC0000E99014200D03EE11798002800D1B1E1D0
:104DD00003200102C44868440181092144220423BC
:104DE00064242E46012535607460C14CF460C14CCA
:104DF0003461C24CB6E1BC48684472990181739930
:104E0000316071997160BA49F160BA493161BC4948
:104E100071612599B1616F99F1611B99316276A930
:104E2000FCF7A6FB619E76A806F0F2FFFEF71BFBDF
:104E300042994843339989000BF00DF8102800D3AC
:104E400010207299081A1A21162205C52860696077
:104E50005498A860AB48E860A348684476A90C461B
:104E6000083DFCF7C5FEA8486844418C4689C38AC2
:104E70009D4868446E9A02819D4AEA609D4A2A6173
:104E8000709AAA611E9AEA613C9A2A62739A2A6011
:104E9000699A6A60F51A002271969E4200D2154600
:104EA000719BC91A00D2114670916F95491989B248
:104EB0002E9A9142954900D895496A9D6961264686
:104EC0002146FCF755FB252168911E9803C53C98A7
:104ED00028602D986860549CAC608A48E8608248DD
:104EE00068443146083DFCF7B1FF2B2072992960D8
:104EF000689A6A60A960E8602C61824868617A48B3
:104F000068443146FCF774FE6F9A382A619E1AD9BC
:104F100028206A994860C8605498086179484861B7
:104F20003398810090B200010AF095FF102800D359
:104F300010206A99729A8A60101A08606A48684458
:104F400076A9FCF755FE709880B239286A9D17D370
:104F50002821729A2A606960E96054992961694937
:104F600069613399890000010AF075FF102800D3A8
:104F700010206D30A8605C48684476A9FCF738FEC4
:104F80005B987199401A09D40001339989000AF09D
:104F900062FF102800D310206D300AE04299484388
:104FA000339989000AF057FF102800D31020729916
:104FB000081A262103C528603B986860549CAC60A1
:104FC0005048E8604848684476A97291083DFCF76B
:104FD0000FFE30200021296068605799A960E860C1
:104FE0002C6148486861404868447299FCF700FEAB
:104FF0004E984078002811D03B4868446E99018152
:1050000073992960699969603949E9603949296169
:10501000404969616099A9611C995CE05898C0B2E7
:10502000042847D1304868446E9901810221739A5F
:105030002A60699A6A602E4AEA602E4A2A61364AD4
:105040006A61259A46E0354840795599344A8A6321
:105050000146749A1140334B5A5C33496944CA7013
:105060000009185C8870204868441C9E324609F08C
:1050700009FF2B686968AA68032004021A4868447B
:1050800004811B4CEC601B4C2C614424EC611D9C86
:105090002C62002B00D11646AE61244A00D10A468C
:1050A0006A6101212960689969600D4676A9FCF75B
:1050B0005FFA5FE00C4868446E9901810221122278
:1050C000739B2B60699B6B60094BEB60094B2B61F9
:1050D000174B6B61AA61E9611B99296276A9FCF7FC
:1050E00047FAA0E6E4050000C81100001C1100000A
:1050F000B408010802020102BD0A01088402010885
:105100004215010802010100741000008A1501080F
:105110008515010857150108A1150108040900208B
:10512000453A30305C0D0108481100008802010842
:105130008F15010807F05CFC002801D100F0F8FD94
:10514000032001026E4868440181092141220523A0
:1051500064242E460125356074606A4CF4606A4C04
:1051600034616A4C7461B361F261316276A9FCF713
:10517000FFF9689DFB496944002073904871729C57
:105180002046FCF7F7FE0646FE486844407B68432D
:10519000844222D2149B98097C28609101D900F0A6
:1051A00041FC213314931898C00631D40320010226
:1051B000EB486844018109216222642301246A9D2D
:1051C0002C606B60ED4BEB60ED4B2B616E61609B77
:1051D000AB61EA61296276A941E003200C46010235
:1051E000DF4868440181622101222B466A9D0CC57B
:1051F000E24A6A60E24AAA60EE602C6169611D9928
:10520000A96176A9083DFCF7B3F9DF48149028E0BE
:1052100000200A2161226A9D2A606860119AAA60B2
:10522000E9602861D9486861CD48684476AC214678
:10523000FCF70CFE03200102C948684401810921E2
:105240006222CE4BEB60D24B2B616E61609BAB61F7
:10525000EA612962642101222A6069602146FCF723
:1052600087F9CC486844C47A002C619E60D0C94854
:105270006844807A1099C907159B12D00F99C9B25A
:1052800088420F9000D30F919BB2C24969440A89AA
:105290009A42114600D31946002A159B08D00B46A6
:1052A00006E0BC4969440989002900D00B460F90EB
:1052B000142815932CD2B8481399814200D87AE368
:1052C000B6486844282101813221C18002218172BF
:1052D000B349C83181804199B24A0A60C07A012835
:1052E00025D137986430B04AD062B2215163516AF7
:1052F000814201D9002050622C98106017E0C0460E
:10530000C8110000B408010802020102D40A010811
:1053100028280CD208986F301399814200D84AE3AC
:105320005299C8319D486844502206F0E1FC10961D
:10533000739813907F212860289868601691A9605F
:10534000E86054982861994868618548684476A95E
:10535000FCF74EFC1F98002800D17AE1022800D10A
:1053600036E1012800D0A4E200200121904A6A44DD
:105370000346022B00D1EEE24B93002B209C00D081
:105380004224234625335C9323460E335A935E947E
:1053900023460D335B93229E5692739257910C468F
:1053A000589072900A2120466F910AF054FD3B2ECE
:1053B00000D1D9E06E9442998A1D42437D496944E7
:1053C0007D4808803A208870729D284631308218C6
:1053D00031232024082D00D823460B706A9D00D865
:1053E00002464A705E4868440324224609F04AFD9A
:1053F0002B6868687190AA6825025948684405813D
:105400006A9D6E49E9605E4929615E99E961002BF8
:1054100000D11446AC616A4A00D1719A6A61642174
:10542000012268922A60719169602E6276AC2146F1
:10543000FCF79EF82B467398058805201621709678
:10544000321F5B9E1E605A609960D8605498186144
:1054500056485861424868442146FCF7F7FC6C986E
:10546000C00085422C4600D804466C980001844256
:1054700000D3044675983230854218D300200321AA
:105480006A9DE9602861414868617098C01E5A9918
:10549000296068604B480019DE3080B232210AF082
:1054A000DAFCA8602E48684476A9FCF7CFFC6C981B
:1054B000C10020460AF0CFFC69990843424D6D4473
:1054C0002870204660946F9E31460AF0C4FC314635
:1054D0004143611A699C2143E970C0B231460AF028
:1054E00051FE2143A970609871990AF0B4FCC0B2D2
:1054F00031460AF047FE2143697019486844042484
:105500002946224609F0BEFC6A9E33687168B2687B
:10551000032005021248684405813546274EEE6097
:10552000174E2E615C9EEE61002B00D11446AC61DB
:10553000264A709E00D10A466A616899296071996D
:1055400069602E6276A9FCF713F87398801C73903B
:105550006E9C641C7298401C7290B61D22E7C04677
:10556000C811000020110000569A0E325799C91D2B
:105570005898C01D4B9B5B1C619EFAE6B40801085D
:1055800002020102E4050000581B000001020100B4
:105590000202000210110000B70B0000D805000045
:1055A000280A000032002800002C014002010100FE
:1055B000F410000038110000202000000C0A01083F
:1055C000200B01083AFBFFFF48110000E802010828
:1055D0006094FC486844007A132800D31320C0016B
:1055E00053990918F84868440A226891589209F0BA
:1055F00049FC2C686968AA68032057900302F248A6
:10560000684473930381F14BEB60F14E2E610223EA
:105610006E93EB61259B2B620523002C00D1134672
:10562000AB61EC4A00D10A466A616424012172919F
:1056300012C576A9083DFBF79BFF6898807A03287E
:1056400000D311E241000822511A8000E24A1258A8
:105650000CE2E24868446890002101715598589125
:10566000016203200C9001027291D74868440181C5
:1056700013245794022270920123D449E960D4493B
:105680002961D7496961AB61EA612C626421739138
:105690002B601C467193696076AE5E963146D14AA6
:1056A0009047D1486844609003780D2130464B9173
:1056B0005A9E3246209301F0E7F930466899FCF78C
:1056C00017FDC14A6A44729B1381C04BEB60C04B0B
:1056D0002B616861A9611E98E861579828622C6067
:1056E000739C6C6010465E9E3146BE4A9047B64839
:1056F0006844729901811B235A93B449E960B44903
:105700002961BA496961719AAA617099E9612B624C
:1057100014C53146B34A083D904760984378152137
:10572000304634465B9E3246579301F0ADF9304621
:105730006899FCF7DDFCA44A6A44729B1381A34B71
:10574000EB60A34B2B616861A9611E98E8615A98D0
:105750002862719E2E607398686010462146A14AA7
:10576000904799486844729901819849E96098493D
:1057700029619F496961AE617099E9613C9929622B
:105780002E60739969602146964A904760988478A4
:105790008C486844467A07204C214A9A2A600B9A22
:1057A0006A60A960E86054982861924868618648F8
:1057B00068445E99FCF74AFB002E5B9400D13446A6
:1057C0003598489BC018D4306C990901884200D3A1
:1057D00008464A25884ADE329342589E01DB6843D8
:1057E000064630460AF037FB72904098864211D345
:1057F000002005211E226A9B4B9E1E605A60729AF1
:105800009A60D96018617D4858616F48684476A9EC
:10581000FCF71CFB002C489E21D022206A9AD06005
:105820001E20506060B24543FA21284614460AF013
:105830003AFC00B2C117884301460D31A1602160D6
:10584000729981426E4800D86A486061719800D8A8
:10585000549820615C48684476A9FCF7C9F9739CA8
:1058600020467043674940186C9909015E910AF01F
:105870001AFC0546642800D325465F48CB30864293
:1058800000DA00255598632D00D879E25E4901625F
:105890004D486844514969440422154609F0F2FA1A
:1058A0006A9C20680028594900D161682A4600F0A6
:1058B00056FD002C00D1C3E255486844719055490B
:1058C0000CC90CC00978017053486844857A64207B
:1058D000642D2C4600D3044673900A262046314698
:1058E0000AF0B9FA4643A31B699A10432022092DF6
:1058F00000D81046719948716A9D354E00D82346EC
:10590000699803438B7130486844092209F0BAFA58
:105910002B686968AA68032004022B486844048144
:105920002A4CEC602E61209CEC61259C2C62002BA3
:10593000479B00D11346AB61384A00D10A466A61E1
:10594000012129607399696076A9FBF711FE4799D7
:10595000334A1E4C8EE235200D9929604A9A6A60BE
:10596000A960E860549C2C6122486861164868442C
:1059700076A97391FCF73CF9372000212960686013
:105980001699A960E8602C611A4868610E4868445D
:105990007399FCF72DF91798002800D15EE30320D6
:1059A00001020948684401811A211122642301245B
:1059B0002C6000F0E9FD0846213013901096739892
:1059C000B8E4C046E4050000C8110000B4080108AE
:1059D00002020102230B0108201A01083011000005
:1059E000D90A01087115000864100000DA0A0108DC
:1059F000DB0A0108020101003AFBFFFF010201007E
:105A000002000100A086010031303025A402010807
:105A100048110000700B0108101100002E0301084E
:105A20004E030108E9486844322101812F99C18061
:105A300036998180012181724199E54A0A60C07AD4
:105A400000230128E34A01D0FFF7ACFB37989F30D1
:105A5000D06229995163516A814201D90020506274
:105A60002C981060FFF79EFB0421DB4ADB4868445A
:105A7000739B03814A26729B2B6070946C60D84B99
:105A8000EB60D84B2B616A61A9615E96EE61259946
:105A9000296276A9FBF76CFD5598D3498162C162F2
:105AA0006898C06800212D9A20290BD00346CB406E
:105AB000749C2340CD4CE35CCD4C6C44A354091D35
:105AC000521EF1E7C5486844C949694408225A9200
:105AD00009F0D8F928685B9068685690A8684B90E0
