:020000040800F2
:1000000000400020C10000085B1101086B230108BB
:1000100000000000000000000000000000000000E0
:100020000000000000000000000000005B1101085B
:1000300000000000000000005B11010841050008FD
:100040005B1101085B1101085B1101085B110108DC
:100050005B1101085B110108FD0000085B1101083C
:100060005B1101085B1101085B1101085B110108BC
:100070005B1101085B1101085B1101085B110108AC
:100080005B1101085B1101085B1101085B1101089C
:100090005B110108550500085B1101085B1101089F
:1000A0005B1101085B1101085B1101085B1101087C
:1000B0005B1101085B1101085B110108DD0A0008F2
:1000C00011F04EF8084809490022814201D004C0CD
:1000D000FBE707480749084A814202D008CA08C01E
:1000E000FAE710F09AFE00DE740A0020D00C00201F
:1000F00000000020740A0020AC3F0108F0B503AFF7
:1001000093B009AEE6484169490700D40AE20422E7
:1001100042614923E34DE95C022900D102E2016812
:10012000914301604524295D002900D19EE0012909
:1001300000D0F7E104960193089202200290059402
:100140002855002420460FF04DFF0122110307918E
:10015000039212078006D44ED44BD54D284600D5C5
:10016000AEE106920498401C049009A8252111F0E4
:10017000D2FA28463168090603D5411C00280846F2
:10018000F8D1CA4B069A1A6000BF00BF28463168F2
:10019000090603D5411C00280846F8D128463168D5
:1001A000890703D4411C00280846F8D1F02030719B
:1001B00028463168C90703D1411C00280846F8D1F8
:1001C000307928463168090603D5411C00280846C5
:1001D000F8D100BF00BF0798186000BF00BF2846D5
:1001E0003168090603D5411C00280846F8D11A6079
:1001F00000BF00BF28463168090603D5411C00280E
:100200000846F8D128463168890703D4411C0028E4
:100210000846F8D10598307128463168C90703D1DE
:10022000411C00280846F8D13079252C284630D0CA
:100230003168090603D5411C00280846F8D1284634
:100240003168890703D4411C00280846F8D10020F2
:10025000307128463168C90703D1411C002808467F
:10026000F8D1307909A90855641CDEE7089201220B
:100270002A5547216B5CAE49002B3BD0AE4B0B603F
:100280004323EC5C042C37D2032C00D0621CEA54CC
:1002900032E028463168090603D5411C002808468B
:1002A000F8D100BF00BF0798186000BF00BF47200B
:1002B0009D49095C09A8007800295AD009A9BC28E1
:1002C00000D0FBE0487A012800D0F7E0442000216C
:1002D000954C2154432008992154049A107951795E
:1002E0000902081891790904D279120651180818E0
:1002F0006061E3E0914A0A608C4A8E4B1C461568A7
:100300002D0603D5651C002C2C46F8D101242507A9
:100310000D6000BF00BF1D461668360603D56E1C73
:10032000002D3546F8D11D461668B60703D46E1C5D
:10033000002D3546F8D1C02515711D461668F60703
:1003400003D16E1C002D3546F8D1157915682D06A0
:1003500003D55D1C002B2B46F8D100BF00BF220344
:100360000A6000BF00BF089A426101681143016042
:10037000D8E0AA2802D0AC2800D09FE0049B1978CE
:100380005A78120251189A781204DB781B069A18D0
:10039000674B5118644A1269914200D08EE062495D
:1003A0004B695A1C022A01D30021039108931A0CAD
:1003B000531E5A425A4103990A4304990B794C79C6
:1003C0002402E3188C792404C97909060919CB1889
:1003D000591E029CE443A14208D8002A06D00121FC
:1003E000514A019C11555361514B06E00899591A25
:1003F0004B424B4113434E4B60D0482101244A4AA3
:100400005454AA2807D109A8407AFC2852D0FD28C4
:1004100001D1029A4FE03F2043490C5440200894F8
:1004200000240C52886B401C88631D200FF0DAFDFD
:10043000C0B2C000052111F0F1FD08990902091AA6
:10044000C8178143642900DB64213E20364A1154D9
:10045000374B21460A31212930D809A90A19117BC5
:10046000537B1B025918927AFE2A0ED0032A07D01A
:10047000002A2F4B11D10A224A432B498A870CE0CC
:100480000A224A4328498A8706E089B26422511A1F
:1004900000D20021244A1154254B241DD9E7C0461F
:1004A00000040140000000200830014018100048FE
:1004B000F0D8FFFF224646201B490A542846069AD8
:1004C0003168090603D5411C00280846F8D11A6096
:1004D00000BF00BF28463168090603D5411C00282B
:1004E0000846F8D128463168890703D4411C002802
:1004F0000846F8D1A020307128463168C90703D1D9
:10050000411C00280846F8D130793068000603D530
:10051000681C002D0546F8D100BF00BF0798186081
:1005200000BF00BF13B0F0BD000000200830014044
:1005300018100048F0D8FFFF00030003000200037A
:1005400080B500AF02480168491C016080BDC0460B
:10055000800C0020F0B503AF91B0CF4800240460B8
:10056000CE4D2878C00700D0A9E24920CC4E305C9F
:10057000022800D1A3E230461830CA4962311C2259
:1005800011F018F94021705A401CC74A904200D31C
:1005900010467052C54A11680423049399431160B0
:1005A000716B0591491C7163352801D30020F087D8
:1005B00006A8262111F0AFF84720305C012815D19C
:1005C00006AC012505222046294610F0ABFB326916
:1005D000109210AA042310F024FC00200290A072B4
:1005E0000598C00712D07320C04310E04220315C50
:1005F0004A1C0F231A4032541940705C03900F2993
:100600003DD02879002834D1A94933E00D2003904A
:100610004321A3480591405C0128019500D1A5E044
:1006200002280FD0032800D0B8E006AEBC203070FE
:1006300005210922304610F075FBFF2211F028FE3B
:1006400075720CE006AEBC203070052109223046E0
:1006500010F068FBFF2211F01BFE029870720B2154
:100660001B22304610F05EFB8D4A102310F0D9FBA0
:10067000ADE09049904A116001214840287146251B
:10068000705D022800D1D7E0012837D1059506AD6D
:10069000AA202870012102910524884B2846224671
:1006A00098473269109210AA0426334610F0B9FB1D
:1006B000092228462146814B9847794A526910926F
:1006C00010AA334610F0ADFB0026AE730298A88145
:1006D0007B486881FD2068720F2125242846224628
:1006E000764B9847FF2211F0D3FD2E556C480599A3
:1006F00046547448A88274486882EFE0706B73496E
:1007000011F022FE002900D194E006AD5820287097
:10071000012105262846324610F004FBE94A1269F9
:10072000109210AA0423059310F07BFB092228469F
:100730003146E44D10F0F6FA6A69109210AA059B52
:1007400010F06FFB1C2C70D02819008B7D21CA0083
:10075000904200D810460901884200D3084606A9F5
:1007600009194872000A8872A41CEBE72C4606ADF2
:10077000BB20287005210922284610F0D3FAFF2259
:1007800011F086FD6C720B211B242846224610F0C6
:10079000C9FACC4A102310F044FB1CE006AEBC2082
:1007A000307005210922304610F0BCFAC54A526962
:1007B000109210AA042310F034FB022070720B2157
:1007C0001B22304610F0AEFAFF2211F061FD8020AE
:1007D0003077F5761D2406AD25262846214632467B
:1007E00010F0A0FAFF24224611F052FD0298A855FD
:1007F000B44A0598105C042870D14420115C491C4F
:10080000FF2900D3214611540429019966D3029B84
:1008100013544620135242201152FF200230482127
:1008200050521F200FF03CFC58E0252006A9002262
:100830000A5453E002207055059506AD56202870E5
:10084000012105262846324610F06CFA9D4A1269AD
:10085000109210AA0424234610F0E3FA0922284635
:100860003146984D10F05EFA6A69109210AA23463C
:1008700010F0D7FA0320C143182929D0002904D049
:1008800006AA5218FF23937302E006AA9073E82386
:100890005373891CF0E7C04610440140880C0020C7
:1008A00000000020F4090020FFFF000000040140C8
:1008B000000400080008000418100048250D010875
:1008C000FF90000005DE000005DC000021060000AE
:1008D000002005996854252106AA50547C4C7D4D72
:1008E00028462168090603D5411C00280846F8D18E
:1008F00001200207754905920A6000BF00BF294622
:100900002268120603D54A1C00291146F8D129464F
:100910002268920703D44A1C00291146F8D1A0216D
:10092000217129462268D20703D14A1C00291146A9
:10093000F8D1217929462268120603D54A1C0029DC
:100940001146F8D100BF00BF060360490E6000BF2A
:1009500000BF6148086028462168090603D5411C8C
:1009600000280846F8D159480599016000BF00BF2A
:1009700028462168090603D5411C00280846F8D1FD
:1009800028462168890703D4411C00280846F8D16D
:10099000E020207128462168C90703D1411C0028A6
:1009A0000846F8D1207928462168090603D5411C5C
:1009B00000280846F8D128462168890703D4411C3D
:1009C00000280846F8D10520207128462168C9076B
:1009D00003D1411C00280846F8D10020217926289F
:1009E0001CD006A9095C2A4623681B0603D5531CA4
:1009F000002A1A46F8D12A4623689B0703D4531CC1
:100A0000002A1A46F8D1217129462268D20703D15B
:100A10004A1C00291146F8D1401CDFE7284621680E
:100A2000090603D5411C00280846F8D100BF00BFC5
:100A30002648066000BF00BF0F2003990FF038FB67
:100A400028462168090603D5411C00280846F8D12C
:100A50001E480599016000BF00BF284621680906AD
:100A600003D5411C00280846F8D12846216889078B
:100A700003D4411C00280846F8D1D0202071284614
:100A80002168C90703D1411C00280846F8D1207904
:100A90002068000603D5681C002D0546F8D100BF6C
:100AA00000BF0A48066000BF00BF45200021054A7C
:100AB00011540549049A4A6108681043086011B04E
:100AC000F0BDC0460000002000040140181000489E
:100AD00008300140F0D8FFFF00010003F0B503AF7C
:100AE00085B021480088214988423BD00225224C0C
:100AF000204E002D36D01E488078C04678440079BC
:100B0000400087442F010E17207802282AD01C4865
:100B10000290019401A8012107F066FB002821D072
:100B20001EE03068401C1DD014480290019601A8B8
:100B300001210DE02078022814D03068401C11D02B
:100B40000E48049003960E480290019401A80221D9
:100B500007F04AFB044600F0D9FE002C064C01D0F9
:100B60006D1EC6E705B0F0BD2C030020FFFF00009E
:100B7000880C00204C000020C0050020903A01089D
:100B8000543A0108F0B503AF87B0054680680128E4
:100B900047D106916C69E868A04246D22A69115C87
:100BA000491C1154AB69981C0226A0423AD8012175
:100BB000090205935918A14200D321460492234605
:100BC00010F01BFD05292DD30246069B9879107065
:100BD000988802900391597A187A01920DF0C8F919
:100BE000029B190A019AD1709370C0B25070069896
:100BF000C0791071114605200690039A0FF0B3FEDC
:100C00000598C11DA1420DD8A0420ED20723049A17
:100C10001354401CA04208D2069B1354A961FF261E
:100C200000E00726304607B0F0BD214610F080FAFC
:100C3000F0B503AF85B01C4603920E460546084644
:100C400008300DF067FD0491B968029400940C46D9
:100C500001918021039A0B460FF0DCFEC00702D001
:100C60002970FF2006E0F868E871A971AC80F436BD
:100C70002E600298287204990868401C086005B02C
:100C8000F0BDF0B503AF87B01C4605920E46054691
:100C9000084608300DF03EFD0691B96804940094B2
:100CA0000391019100242146059A23460FF0B2FEDC
:100CB000C00702D02970FF2006E0EC71A9710398EB
:100CC000A880F4362E600498287206990868401CA3
:100CD000086007B0F0BDD4D4B0B502AF86B004460A
:100CE000009101920748011D03AD0022062328460A
:100CF000FFF79EFF0F222046294607F067F906B04E
:100D0000B0BDC046B40A0020F0B503AFF9B0144638
:100D10000C910890052081010EAD284610F0FBFCD7
:100D2000002108262846099132460FF0E0FFFB4AD1
:100D3000334610F076F8A0B20D907D21CD00294603
:100D400011F06CF907950B904543651BA8B264261A
:100D5000314611F063F904460A964643A81BC0B217
:100D60000A26314611F05AF9ED490D9A8A421ED9E8
:100D700076AA2E2191703025284310712C43D4700F
:100D800014460B98C0B20A2111F0DEFA29436170B3
:100D9000E4490D9811F042F92843207025460EA829
:100DA00008210D2422460FF0A2FF052311E0DE49A1
:100DB00076913021084376ADE8700C43AC700B9807
:100DC000303028700EA808210C2422460FF08FFF27
:100DD00004232A4610F025F8254608350EA821469A
:100DE0002A460FF084FFD14A082310F01AF85EA8B3
:100DF000099901815F915E91FF203A3006900C982D
:100E00002246847A002C2CD00D950925002C11D077
:100E10000A2D01D300F064FD2046314611F0FEF8A2
:100E200031464143611A30220A435EA94A556D1E7C
:100E30000446EBE7691C5EA80FF01FFF04460D4651
:100E40000D996E1806980830864216D20EA83246C2
:100E50000FF04DFF22462B460FF0E3FF079D34466F
:100E60000DE009320EA8294614460FF040FFB04AA3
:100E700001230FF0D6FF079D04E00C46079D06985E
:100E8000844209D2214608340EA822460FF02FFFD3
:100E9000A84A08230FF0C5FF0B940C980489059409
:100EA0002046294611F0BAF807904543651BA8B2C1
:100EB0000A9E314611F0B2F804464643A81BC0B260
:100EC0000A210D9111F0AAF8059A95498A4221D973
:100ED00076AD2E21A9703026304328713443EC7052
:100EE0009049104611F09AF8304328700798C0B224
:100EF0000A2111F029FA314369700698C01C0B9938
:100F0000814221D24E1D0EA832460FF0F0FE76AA85
:100F1000052316E0844976913021084376AAD070E3
:100F20000C4394700798303010700698001D0B9990
:100F3000814209D20E1D0EA832460FF0D8FE76AAC5
:100F400004230FF06EFF00E00E460698801C079009
:100F500086420AD2B21D0EA831460A920FF0C7FE91
:100F6000754A06230FF05DFF00E00A9661A8099913
:100F70000181629161910C980468002C0B9427D038
:100F80000926002C11D00A2E01D300F0A9FC20461E
:100F90000D9D294611F042F84543611B30220A435A
:100FA00061A98A55761E0446EBE7711C61A80FF013
:100FB00064FE05460C460A99661806980830864273
:100FC00015D20EA832460FF092FE2A4623460BE0B9
:100FD0000698C51D0A99A9421BD24E1C0EA832467E
:100FE0000FF085FE524A01230FF01BFF00E00E4672
:100FF000B51D06980830854209D20EA831462A460A
:101000000FF075FE4D4A06230FF00BFF00E035464A
:101010000B9C64A809990181659164910C984668BC
:10102000002E2CD00A95354609260C95002D11D09E
:101030000A2E01D300F054FC28460D9C214610F0E6
:10104000EDFF4443291B30220A4364A98A55761ECA
:101050000546EBE7711C64A80FF00FFE04460E4630
:101060000A99751806980830854217D20EA82A46A4
:101070000FF03DFE224633460FF0D3FE0FE00698F8
:10108000C01D85420DD229466D1C0EA82A460FF0C0
:101090002EFE274A01230FF0C4FE02E00D460B9CF2
:1010A0000C9EEA1D069808300A90824209D20EA8CA
:1010B00029460C920FF01BFE214A07230FF0B1FEC8
:1010C00000E00C9567A8099D058168956795B44275
:1010D00015D9A51B0926002D34D00A2E01D300F006
:1010E00001FC28460D9C214610F098FF4443291B23
:1010F00030220A4367A98A55761E0546EBE7069813
:10110000C01D0C99814231D24A1C0EA814460FF022
:10111000EEFD074A01230FF084FE2BE08225010833
:101120000F27000010270000302E3030FA2401086D
:10113000E82701084A250108E9270108EF270108E7
:10114000F5270108711C67A80FF097FD05460E46AC
:101150000C9972180A9882420AD20EA814460FF00F
:10116000C6FD2A4633460FF05CFE02E00C4601E065
:101170000C46099DF848C17800292FD0014630312E
:1011800011228A560B920E228A560592428F038FA5
:101190000393006B00904E7DC87C0190887C049086
:1011A0000D7C214610340A988442029208D20EA87F
:1011B00022460FF09CFDF14A10230FF032FE21462B
:1011C000F0070DD00698001D814224D20E1D0EA8F6
:1011D00032460FF08CFDEA4A04230CE02146EFE290
:1011E0000698C01C814216D24E1D0EA832460FF042
:1011F0007EFDE44A05230FF014FE079886420CD2C8
:10120000B21D0EA8314607920FF071FDDE4A06238B
:101210000FF007FE02E0079100E007966AA80021A0
:1012200001816B910C916A91002D25D00926002D2A
:1012300010D00A2E00D351E328460D9C214610F011
:10124000EDFE4443291B30220A436AA98A55761EC3
:101250000546ECE7711C6AA80FF00FFD04460D4629
:1012600007996E180A98864215D20EA832460FF0DA
:101270003EFD22462B460BE00698C01D0799814291
:1012800009D24E1C0EA832460FF031FDBF4A012391
:101290000FF0C7FD00E00E46059C31460C310A9860
:1012A00081420AD20EA80A46314607920FF01FFD6E
:1012B000B74A0C230FF0B5FD00E00796002C2FD4A1
:1012C00076A80C99018177917691002C37D0092668
:1012D000002C10D00A2E00D300E320460D9D294695
:1012E00010F09CFE4543611B30220A4376A98A55C3
:1012F000761E0446ECE7711C76A80FF0BEFC04468F
:101300000E46079975180A98854254D20EA82A46A7
:101310000FF0EDFC224633460FF083FD2E464BE0E6
:101320000698C01D0799814216D24A1C0EA8079242
:101330000FF0DDFC974A01230FF073FD0DE00698D6
:10134000C01D0799814236D24E1C0EA832460FF0BE
:10135000CEFC8E4A01232BE0079176A80C990181DF
:101360007791769164420925002C10D00A2D00D384
:10137000B4E220460D9E314610F050FE4643A11BBC
:1013800030220A4376A94A556D1E0446ECE7691CD3
:1013900076A80FF072FC04460D4607996E180A985D
:1013A000864208D20EA832460FF0A1FC22462B46F8
:1013B0000FF037FD00E00E4635460A350A988542A3
:1013C00009D20EA831462A460FF091FC724A0A2330
:1013D0000FF027FD00E035460B9C002C23D476A8A7
:1013E0000C99018177917691002C2CD00B950925D1
:1013F000002C10D00A2D00D370E220460D9E3146FD
:1014000010F00CFE4643A11B30220A4376A94A5530
:101410006D1E0446ECE7691C76A80FF02EFC04460E
:101420000E460B993EE00698C01D854218D26A1CF4
:101430000EA8294607920FF05AFC564A01230FF0D6
:10144000F0FC0B9C0DE00698C01D854238D2294661
:101450006D1C0EA82A460FF04AFC4C4A01232BE0D3
:10146000079576A80C9901817791769164420925B8
:10147000002C10D00A2D00D330E220460D9E3146BC
:1014800010F0CCFD4643A11B30220A4376A94A55F1
:101490006D1E0446ECE7691C76A80FF0EEFB0446CF
:1014A0000E46079975180A98854208D20EA82A4652
:1014B0000FF01DFC224633460FF0B3FC00E00D4652
:1014C000EA1D0A98824209D20EA829460B920FF013
:1014D0000EFC324A07230FF0A4FC00E00B956DA828
:1014E0000C9901816E916D91049C002C25D00925E9
:1014F000002C10D00A2D00D3F0E120460D9E31467D
:1015000010F08CFD4643A11B30220A436DA94A55B9
:101510006D1E0446ECE7691C6DA80FF0AEFB044697
:101520000E460B9975180A98854217D20EA82A46BE
:101530000FF0DDFB224633460BE00698C01D0B99E9
:1015400081420BD24D1C0EA82A460FF0D0FBE64A72
:1015500001230FF066FC02E0880C00200D462A46AD
:101560000A320A9882421BD20EA829460B920FF02B
:10157000BEFBDE4A0A230FF054FC12E03C280108AF
:10158000742401085C28010861280108E827010883
:101590006728010873280108742801087E280108BB
:1015A0000B95039870AA0C99118171917091002884
:1015B00024D0092500280FD00A2D00D38EE10D9EDE
:1015C0003146044610F02AFD4643A11B30220A434F
:1015D00070A94A556D1EEDE7691C70A80FF04DFB10
:1015E00004460E460B9975180A98854215D20EA826
:1015F0002A460FF07CFB224633460BE00698C01DBE
:101600000B99814209D24D1C0EA82A460FF06FFBA0
:10161000B54A01230FF005FC00E00D462C460C34C2
:101620000A98844209D20EA8294622460FF05FFB91
:10163000AF4A0C230FF0F5FB00E02C4601980EF0AA
:1016400011FE02460D190A9885420BD20E460EA8CD
:10165000214614462A460FF04AFB224633460FF035
:10166000E0FB00E025462A460F320A98824209D262
:101670000EA829460B920FF03AFB9E4A0F230FF05B
:10168000D0FB00E00B95029873AA0C99118174911C
:101690007391002824D0092500280FD00A2D00D3EB
:1016A0001CE10D9E3146044610F0B8FC4643A11BD8
:1016B00030220A4373A94A556D1EEDE7691C73A8D1
:1016C0000FF0DBFA04460E460B9975180A9885420E
:1016D00015D20EA82A460FF00AFB224633460BE02D
:1016E0000698C01D0B99814209D24D1C0EA82A46AE
:1016F0000FF0FDFA7C4A01230FF093FB00E00D464A
:1017000029460E310A9881420AD20EA80A46294675
:101710000B920FF0ECFA784A0E230FF082FB00E0F8
:101720000B9576A80C99018177917691009C002CFD
:1017300025D00925002C10D00A2D00D3CEE020465C
:101740000D9E314610F06AFC4643A11B30220A432D
:1017500076A94A556D1E0446ECE7691C76A80FF081
:101760008CFA04460E460B9975180A98854215D2D4
:101770000EA82A460FF0BBFA224633460BE0069825
:10178000C01D0B99814209D24D1C0EA82A460FF0AC
:10179000AEFA554A01230FF044FB00E00D466A1CE7
:1017A0000A9882420AD20EA8294614460FF09FFAE0
:1017B000524A01230FF035FB214600E02946099DDE
:1017C000CC1D0A98844208D20EA822460FF08FFA48
:1017D0004B4A07230FF025FB00E00C460C951C2D0F
:1017E0005AD00898465B0C9800280DD0621C0A98C5
:1017F000824209D20EA821460B920FF078FA0123FB
:10180000404A0FF00EFB00E00B9476A80021018106
:1018100077917691002E28D0079109950925002E01
:101820000FD00A2D51D230460D9C214610F0F6FB08
:101830004443311B30220A4376A94A556D1E0646A1
:10184000EDE7691C76A80FF018FA05460E460B99CD
:1018500074180A98844216D20EA822460FF047FA4E
:101860002A4633460FF0DDFA0EE00B994C1C0A981D
:1018700084420BD20EA822460FF039FA01231A4AED
:101880000FF0CFFA03E00C46099D00E00C460C98DF
:10189000401C0C90AD1CA2E7251D0A98854209D278
:1018A0000EA821462A460FF022FA174A04230FF009
:1018B000B8FA04E00698C21D94420BD825460EA83B
:1018C000294600F011F979B0F0BD0798C0430A210C
:1018D0000FF02EFC002021460FF022FC0C98F5E7BB
:1018E0000998F3E70020F1E7E827010885280108B7
:1018F0008F2801089B280108AA280108B828010898
:10190000B928010821240108C8240108F0B503AF53
:1019100097B005A8402101910FF0FDFE4D4DD42256
:101920004B4B98588026311A1C8FA14229D204961D
:10193000D02103915E58311A8031A14201D2324642
:1019400040E0802E029203D1049E009603990FE09E
:1019500031467F2E049E77D8421A184650304118DF
:1019600010F0CBFA3A4B0298185803995A58009243
:1019700000225A500099401A029A9850311AA142F6
:101980005BD3164601191A4650321C4680230FF0CD
:1019900034FE02460B462146343115AC20460CF08D
:1019A000D9FC2078012804D16178002901D10020D8
:1019B00002E000283AD11698254B995908189851F9
:1019C000D0215A58904231D0861A402E00D3019E21
:1019D000B1182DD281292BD2039105A9049140245D
:1019E0003046029222461C460EF0A9FF029AA21827
:1019F000503233460FF015FAD02003992150049845
:101A000031460FF019F9002989D0C023EA58561C35
:101A10007F243440C426AE59B44204D07F2A0FD864
:101A20000678AE54EC50401C491EECE717B0F0BDF0
:101A3000802310461A460FF073FB45200FF074FB0D
:101A4000802110460FF074FB084680210FF070FBD8
:101A50004C000020B00B002080B500AFEFF31081E8
:101A600072B60248006881F3108880BD800C0020A7
:101A7000FEB506AF02460368406883422AD0581C70
:101A8000106019784CB20120002C2BD59C1C1460DE
:101A90005E783F24019426401F240C40E0291BD38C
:101AA0000094DD1C15609C780294019D029C2C40E2
:101AB0000294B601029C3619F02910D3191D116049
:101AC000D978019A1140B2015118009A5207D20AEE
:101AD000891807E0002005E0A101891902E00099BA
:101AE0000903711803B0F0BDF0B503AF89B00A4621
:101AF000069001200290400208900026059196422F
:101B000057D2304606990EF023FF07900C46B720B7
:101B100085002B4B585908990A1A94422AD95B21FF
:101B2000C90004915958029B5B02994204D00029D4
:101B3000089B07D1224B1DE0089903912946204DAF
:101B4000049B0EE00195994235D2421A1C4D28465D
:101B5000D830411810F0D1F901996858049BEA581F
:101B600003920022EA50039A801A6850089A121AC7
:101B70002B460D46944200D31446002C0DD021185C
:101B8000D8331A46089B0FF038FD079A23460FF00A
:101B900048F90B4B58590019585118460CF0F6FCEF
:101BA000002C059A05D0A619401EC0B240087E2818
:101BB000A5D809B0F0BD084608990FF0B9FAC0469B
:101BC0004C000020F8B504AF0091456801220021C7
:101BD000402D164600D30E460368802B144600D3D2
:101BE0000C463440382129400901009E711807260F
:101BF0002E40B240D5430095057A2846EDB2022D1D
:101C00000BD00225002CF8D0CE5CC00702D1009882
:101C1000064000E01643CE54EFE7F8BDF0B503AF41
:101C2000E1B01F914268E7498A420C92079200D3C3
:101C30000791417C0691017C0E9101680B91017A1C
:101C400012914EA90A461C320A922431149140A9DD
:101C500024310391C1682291C17C1E91817C16912F
:101C6000417A119141691B9181691891C169109163
:101C7000006A1D9007200F90C0010D9000260120E2
:101C800020901C9615961598C00700D002E3189C6A
:101C90001C9819968442054666D31B984019611B0F
:101CA000072907D80023994258D0C25C0A2A44D099
:101CB0005B1CF8E7C21C03239A43121A05D11C953A
:101CC0001A9108392191002210E00023C45C0A2CEB
:101CD00007D05B1C9A42F9D11C951A9108392191C1
:101CE00002E0189C199E28E08A4213D88418646880
:101CF000B5494C40B54B1D1B2543845826464E40E4
:101D00009E1B2643B2490E402E408E4202D108321D
:101D10002199E9E71A99914229D080181899891ACE
:101D20001C9D4B1B0021199E445C0A2C03D0491CAE
:101D30008B42F9D11CE08B18189CED180020691C0F
:101D4000A8D0A1420846A5D81B98405D0A2808469D
:101D5000A0D10020159017911C910EE017961C94AD
:101D600020981590254608E01C951796F8E7199ECF
:101D70001796189D1C95209815901B9880191A90FD
:101D8000AE1B129800281D9C109829D0129801288B
:101D900016D10096119801904EA822990E9A1A9B7E
:101DA0000EF0F1FE5398C10F401840101D990C1A07
:101DB0005298401EC10F401840101099081A0FE0A9
:101DC0000096119801904EA822990E9A1A9B0EF037
:101DD000DAFE53981D990C1A52981099081A401C53
:101DE00021902298C0690C994843642110F016F99B
:101DF00001460B98002800D1079919988542139144
:101E000001D1002505E0751E1A98405D0D2800D00F
:101E10003546229811990BF041FF201A1990169817
:101E200002280FD11E98022800D099E022998869D3
:101E3000096A0C181A9841190EF097FA6043219913
:101E40004518EAE11E98022800D031E12298026A82
:101E50008169199800901A980190029540A8219BD9
:101E60000BF0FFFE5EA840A90EF09AFA609A501C93
:101E700000D1D1E15748101A00D200205E9D002801
:101E800002D00128EED0C8E15F981A9033A82299B9
:101E90000FF069F9369C60426041379E002E209910
:101EA00000D001460029DDD134980028DAD4359BD2
:101EB000002BD7D4339A0119099292680892914263
:101EC000D0D89A190999C9688A42CBD8099A116859
:101ED0000491516805910899C91D0F9A91430A1BF5
:101EE0004B43181800960190029223A80990049978
:101EF000059A23460CF0F0F9319630941A982F90F9
:101F00002E952BAC169820704EA82EAA09990EF08B
:101F100007FA5C943AAC4EA920460EF017FE207AE0
:101F20000028F7D002289DD03A997F29F2D83B9B10
:101F30003F2BEFD818010F9A134001229A400D9BB6
:101F4000184008435C990978002904D01F9B195C4C
:101F500011431954DEE71F9B195C91431954D9E7CB
:101F60002298026A8169199800901A980190029546
:101F700040A8219B0BF075FE5EA840A90EF010FA58
:101F8000609A501C00D147E1C348101A00D20020CB
:101F90005F995E9D00281FD0012800D03DE1229866
:101FA000006A0028E8D050904F914E952298C06961
:101FB000519001221E9802404EA91F980EF0FDFE7E
:101FC000DAE7C046FFFFFF7F0A0A0A0A00010101A3
:101FD00080808080FFFF10001A9133A822990FF0B3
:101FE000C2F8369C60426041379E002E209900D096
:101FF00001460029C0D134980028BDD4359B002B60
:10200000BAD4339A01190992926808929142B3D8CE
:102010009A190999C9688A42AED8099A1168049137
:10202000516805910899C91D0F9A91430A1B4B43AA
:10203000181800960190029223A809900499059A15
:1020400023460CF049F9319630941A982F902E952A
:102050002BAC1E9820704EA82EAA09990EF060F99C
:102060005C943AAC4EA920460EF070FD207A002810
:1020700002D00228F5D17FE73A997F29F1D83B9B1E
:102080003F2BEED818010F9A134001229A400D9B66
:10209000184008435C990978002904D01F9B195CFB
:1020A00011431954DDE71F9B195C91431954D8E77C
:1020B0002298026A8169199800901A9801900295F5
:1020C00023A8219B0BF0CDFD2BA823A90EF068F9C6
:1020D0002D9A501C00D19FE06F48101A00D20020AA
:1020E0002C992B9D002814D0012800D095E022982F
:1020F000006A0028E8D050904F914E952298C06910
:10210000519001221E9802404EA91F980EF055FED4
:10211000DAE71A912EA822990FF025F8319C604237
:102120006041329E002E209900D001460029CBD17B
:102130002F980028C8D4309B002BC5D42E9A0119A3
:102140000992926808929142BED89A190999C96871
:102150008A42B9D8099A1168049151680591089981
:10216000C91D0F9A91430A1B4B4318180096019002
:10217000029233A809900499059A23460CF0ACF812
:102180003D963C941A983B903A953EAD169828702F
:102190003FAE1E9830703AA903980FF009FA40AC90
:1021A0001C22204609990FF005FB489547964EA83A
:1021B000382221460FF0FEFA00205D905C905EA868
:1021C00014990EF00AFD5E98012800D07CE7609D0E
:1021D0005F9C4EA80EF08AFBC1B2022900D173E7C2
:1021E0007F2CECD83F2DEAD828010F9A1540012208
:1021F000AA400D9B1840204389000A9B5958097832
:10220000002904D01F9B195C11431954D7E71F9B69
:10221000195C91431954D2E7219D179E139A1D987A
:1022200010181D902198854200DC2CE52C1A069888
:10223000169905F0D6FEC2B2022A0FD0509421980A
:102240004E902299886AC96A5191199940184F9005
:10225000012002404EA91F980EF0AFFD0E9816996E
:1022600005F0BFFEC2B2022A179D2E46219800D16A
:1022700009E550944E902299086B496B5191199938
:1022800040184F90012002404EA91F980EF095FD76
:102290002E46F8E461B0F0BDFFFF1000F0B503AFCB
:1022A000D5B00191036842688568C46821460A92E6
:1022B00051402A465A400A430B9310940F9501D07F
:1022C000064600E08A4E417D0D91046931A83146F1
:1022D0000EF078FF32687068B368F1681646529065
:1022E00051921193D21A121854920D1AA8195390A0
:1022F00012A851A90EF066FF0B980F99081AC11782
:102300004840411A0A98109A101AC2175040801A71
:10231000884200DC0846002C01D102210D91119A5F
:1023200074498C4200D30C46401C0E90640012ABE2
:10233000743338A86030089001201090C00702D094
:1023400064430020FAE7961B1098C00702D076433A
:102350000020FAE71098C00702D06D430020FAE78A
:102360003598079036980690329804901598059005
:10237000149803903198029038A80C9031A91C222F
:1023800011920F930FF016FA0C981C3012A9119AA3
:102390000FF010FA01201190089B9870002009900E
:1023A0001870029840420399484004994942059A9E
:1023B00051400143484248415870A819444347944A
:1023C000079806994018C10F401840104690099D83
:1023D0004F954E950A9E4D960B9C4C944B954A9565
:1023E0004996489451A80C992A460EF013FF169569
:1023F0000E98159014951396129412A81430642216
:102400000E900C990FF07EFD2B460F9A0D991171CD
:1024100028460D91C9B2022967D000282FD12598EE
:102420001099C90702D040430021FAE72699884253
:102430005BDC927831A80E990EF0ECFE3198C10762
:1024400001D1442100E0402112AA5158259A511887
:102450002591349B339E329C0F9A1178002905D127
:1024600091781D46119B59402B46917014931396F9
:102470001294119908401599081A1690CDE7401E3C
:1024800016901D998B4206DD1C995B1A1A997118DA
:10249000199AA51801E0314625461A46189B5E1880
:1024A0001396179B5C1912941B9BD31814937F2DC2
:1024B00018D8402916D209930B9407240C40119B7D
:1024C000A34038240C40210129430D9AD20703D0A0
:1024D000019C625C1A4302E0019C625C9A43625474
:1024E0000B9C099B0F9A117993E755B0F0BDC0463C
:1024F0001C280108FFFFFF7FF0B503AF9DB00D461C
:102500000646847D002C08D0012C0CD13069401C7B
:1025100001D30020C043400806E030693F498842AB
:1025200002D3084600E00020424205A831460EF0E2
:1025300078FF327D022A05D00120024005A92846F5
:102540000EF03BFC707D022865D03169002962D015
:10255000002C03910495029008D0022C05D12F483D
:1025600081420C4602D3044600E04C0809A83146DB
:1025700022460EF056FF0B9C0F940A9E0E96099B66
:102580000D930C984508039AAA4200D81546109559
:1025900013941193411B914200D31146009401936F
:1025A0001491401A00D20020801912900120029C40
:1025B00004400DA90296049E304622460EF0FDFB13
:1025C00011A93046264622460EF0F7FB089800284F
:1025D00021D01890029969181691039A5300009C13
:1025E000621C9A4200D31A4652081792019B159317
:1025F0001C901B921A91A01A049C00D20020C018B3
:10260000199015A9204632460EF0D7FB19A920468D
:1026100032460EF0D2FB1DB0F0BDC046FFFFFF7F7B
:10262000F0B503AF87B00291054680B203907D21DB
:10263000CE0031460FF0F2FC01904643AC1BA0B235
:10264000642631460FF0EAFC05464643A01BC0B2A3
:102650000A210FF0E3FC2049039A8A421DD9562132
:10266000029C61712E21A1703026304320713543C8
:10267000E5700198C0B20A210FF066FE3143617027
:10268000174903980FF0CAFC3043207004A80622B3
:1026900021460EF089FC052511E0562202990A71A7
:1026A0002E224A7030221043C87015438D70019855
:1026B0003030087004A805252A460EF075FC0498F1
:1026C000002802D1059802D002E0044800D1069DFE
:1026D000294607B0F0BDC0460F270000E2280108D8
:1026E00010270000F0B503AF85B0049104462849D7
:1026F000884200D30846039026490FF08FFC30260D
:10270000202225498C4201940296009201D810465D
:1027100000E03043049D28700A24039E3046214681
:102720000FF07CFC21464143711A029E314329710E
:1027300021460FF009FE019D092D02D8009E314669
:1027400001E03143009E0498C170642103980FF0AA
:1027500065FC21460FF0F8FD632D01D8314601E0FC
:1027600002980143049881707D20C10003980FF006
:1027700055FC21460FF0E8FDE8087C2801D83146D9
:1027800001E0029801430498417005B0F0BDC046D5
:102790009F860100102700000F270000FEB506AF3E
:1027A0000C4600B2092801DC202100E02B21082280
:1027B000D243904200DA2D2121700A2529460FF0DC
:1027C00055FD01B2C9134840461AB1B2632907D971
:1027D000252020713020E070A0703120607017E05B
:1027E0002020607009290DD925202071F0B22946DA
:1027F0000FF014FC302145430843A070701B0843C0
:10280000E07005E025212171A07030200643E670BC
:102810006846052221460EF0C7FB032100980028D8
:1028200002D1019802D002E0024800D1029903B01F
:10283000F0BDC046E7280108F0B503AF854EB544AA
:10284000854868447790854868446F908448684418
:1028500063908448684467900B206690C004824A65
:102860005169014351613F20449000037F4B196837
:102870008143152210030818186001252802799059
:10288000C03098617A4B18687A4908401860D86857
:102890000840552109064018D86077490868302358
:1028A0004A9398430860C86810237B9318432023F9
:1028B0002D939843C86071486844283051907048FF
:1028C000002802D000BF401EFAE75F927D207F9073
:1028D0000001809000242646052C0ED00CF05AFDF5
:1028E0008099002902D000BF491EFAE7C043422167
:1028F000084200D1761C641CEEE7032E01DB0CF0CD
:10290000ADFD6048401C584E3168014331606A0497
:102910005D4C214608463168114202D1411C002815
:10292000F8D17092002828D05848112101607068B1
:10293000574A02400804101870604E48401C316825
:102940000143316020463168890103D4411C0028CD
:102950000846F8D1706802210143A94371602046FE
:1029600071680C220A40082A03D0411C002808463E
:10297000F6D1306B802101433163464801683D4AFE
:10298000114003226D929207891801604248434921
:10299000416000217D9181600721349101607C9527
:1029A000A90281A80EF0B7FE1F20769080047169FD
:1029B000014371613A4A10683A4908403A4940185F
:1029C00010603A4B18683A4908403A4940185E305E
:1029D0001860274E30683849014038480818306080
:1029E000254A11684020119001438020054681430B
:1029F00011603349B161334999613348411C996190
:102A00007999F431002902D000BF491EFAE77B987A
:102A100098617999F431002902D000BF491EFAE784
:102A20007C9EF1042F9199611D484169E2220A437D
:102A30001D2109918A4342610D48856100BFF1055E
:102A40007391816121490A46002A41D000BF521E7C
:102A5000FAE7C0467CE3FFFF001200003C110000D3
:102A6000B8100000040600000010024000080048F2
:102A7000000C0048FFFFFF0000140048A0100000F9
:102A8000409C0000FFFF00006079FEFF0020024034
:102A9000FCFFC0FF20ED00E010E000E07FBB000085
:102AA000001000480000FFFF5555000000040048DA
:102AB0003FF0FFFFE2040000CF3FFFFF10400000A7
:102AC0008000040018002000FFFF0F001027000006
:102AD0002F9E9E61D7484269AE23134351229343F0
:102AE00043610346D44A2846956100BF739D9561B2
:102AF000D24A96615A69A42313435B229343CD4A79
:102B000053611346CC4A906100BF9561CB4A9661F0
:102B10005A69A32313435C2228929343C54A536105
:102B2000C54A906100BF9561C44A9661C14A526925
:102B3000C0235E931A43449B9A43BE4B5A61BE4ADC
:102B4000906100BF9561BD4A96615A69A123134304
:102B50005E229343B74A5361B74A906100BF9561C3
:102B6000B64A9661B34A52692F2374931A43D0230D
:102B700030939A43AF4B5A61AF4A906100BF956161
:102B8000AE4A96615A69232342931A43DC239A433F
:102B9000A84B5A61A84A906100BF9561A74A966107
:102BA0005A69812360931A437E239A43A14B5A6149
:102BB000A14A906100BF9561A04A96615A69252398
:102BC0001343DA2293439B4A53619B4A906100BFAF
:102BD00095619A4A9661974A5269119B1A43BF239D
:102BE0009A43944B5A61944A906100BF9561934A0D
:102BF00096615A69B02313434F2293438D4A536120
:102C00008D4A906100BF95618C4A9661894A5269EC
:102C1000042325931A43FB239A43864B5A61864A21
:102C2000906100BF9561854A96615A697B9B1A4302
:102C3000EF239A437F4B5A617F4A906100BF9561B1
:102C40007E4A96617E4E5A69AF23134350226592A5
:102C50009343784A5361784A906100BF9561002997
:102C600002D000BF491EFAE7F06902210143F16179
:102C70006D9A9004734E316881432F9801433160FF
:102C8000706AF021884370626F4974988862C52029
:102C9000619083006B93D333CB620B640D2008905B
:102CA000C002C8617C980503086A789528430862C9
:102CB0007C98486160980860082564484B95856158
:102CC0007C9D32930B645E4B5869614901435961A5
:102CD000680299690143996109202690C306186822
:102CE0005C4908431860D8685B4908406C93D86019
:102CF000524908680F2318430860C8687A939843BC
:102D0000C860306810433060F0689043F060E907B5
:102D100052480161056085600168C90703D1611CE3
:102D2000002C0C46F8D180992F3181623499416191
:102D3000C5604B497D9A8A60024640320A61494D1E
:102D40002A4618324A61669ACA60474A8A6083688E
:102D5000259C23438360454B0C68A40703D45C1C6B
:102D6000002B2346F8D14C23414E622B05D0EC18A2
:102D7000343C2488F4529B1CF7E77A9B4B60182361
:102D80002C9303607D9E8E60669BCB608A60816819
:102D9000259A11438160374C6C4420460CF006FFA5
:102DA00020460CF0B1FD7E9630463546102E17D0E9
:102DB0007D90314C6C4420460BF09EFD2F48431C07
:102DC000E28861882088002B02D000BF5B1EFAE7F2
:102DD0007E9B9B187E936D187D990818761CE5E7FD
:102DE00003092748181884B229097698400175907C
:102DF0000930244A84421E4D00D26B817E9B1B0900
:102E00008C18A4B2844200D2E982991889B2814216
:102E100001D246202B5200207799086048608860D4
:102E200019490C2832D0425C124B6B441A54401C96
:102E3000F7E7C04600100048000C004800040048B6
:102E40000010024000080048000400400014004840
:102E500001000E00FFFF00000000FFFF0024014002
:102E600000000240880C002081250000C0F2FCFF19
:102E7000F40900200012000010060000B70B00004B
:102E800024FAFFFF24FA0000ACF7FF1F96486844BD
:102E9000C47A817A7E91417A7691017A7D91C17965
:102EA000719181796E914179699101796A91C178C5
:102EB0006891817864914178629106780CF06AFAA1
:102EC000729026988004894A516901435161906942
:102ED000874901439161874A106880B2864940184A
:102EE000106044988006916801439160506A83495C
:102EF00008408349401850627898906181489061F9
:102F000081489061814A10684A9988431060D0686E
:102F10007B9908432D998843D0607D4AC0327D4813
:102F200001681140799A114301607B480168259A34
:102F3000114301608260794D002129606B982860FF
:102F400017225D92120207926A60403028607A98D8
:102F5000C0434690AA68D20704D0002802D02A7B3A
:102F6000401CF7E7629800028019649A12048018E6
:102F7000689A12068018699A12026A9BD2186E9B90
:102F80001B04D218719B1B06D2184240769800028F
:102F90007D9BC0187E9B1B04C0182306C0185040A0
:102FA00071905F48401C729A4790024053927C98FF
:102FB00000077D90052900D1B8E00C46594B184612
:102FC000A968090603D5411C00280846F8D14948DC
:102FD0007D99816100BF00BF1846A968090603D525
:102FE000411C00280846F8D11846A968890703D46F
:102FF000411C00280846F8D1A0262E731846A9685F
:10300000C90703D1411C00280846F8D1287B18467F
:10301000A968090603D5411C00280846F8D100BF5D
:1030200000BF34487899816100BF00BF80980028B4
:1030300002D000BF401EFAE7002001460DF038F82C
:103040007F98C001002802D000BF401EFAE70B2085
:1030500019210DF02DF80C2001210DF029F825483B
:103060002849816110200CF0BDFF2F4948712D4B7C
:103070001946AA68120603D54A1C00291146F8D140
:103080001C497D9A8A6100BF00BF1946AA681206D2
:1030900003D54A1C00291146F8D11946AA6892079F
:1030A00003D44A1C00291146F8D12E731946AA6888
:1030B000D20703D14A1C00291146F8D1297B1946B1
:1030C000AA68120603D54A1C00291146F8D100BF90
:1030D00000BF0849789A8A6100BF00BF611CC0B276
:1030E0009E2824D066E7C04600120000001002406F
:1030F0000110020000100048000055A9FFFF0F005A
:103100000000101100030003000400080004004840
:103110003FF0FFFF080001400C0401400030014077
:10312000FF0F0000F0D8FFFF880C00200524EB48BB
:10313000A968090603D5411C00280846F8D1E848CB
:103140007D99816100BF00BFE448A968090603D5E5
:10315000411C00280846F8D1E048A968890703D433
:10316000411C00280846F8D106200B902873DB4844
:10317000A968C90703D1411C00280846F8D1287B5B
:10318000D648A968090603D5411C00280846F8D18D
:10319000D248A968890703D4411C00280846F8D101
:1031A000542006902873CD48A968C90703D1411C53
:1031B00000280846F8D1287BC848A968090603D525
:1031C000411C00280846F8D1C448A968890703D4DF
:1031D000411C00280846F8D175202873BF48A9680B
:1031E000C90703D1411C00280846F8D1287BBB48F9
:1031F000A968090603D5411C00280846F8D1B7483C
:10320000A968890703D4411C00280846F8D16198B1
:103210002873B248A968C90703D1411C0028084691
:10322000F8D1287BAD48A968090603D5411C0028C0
:103230000846F8D1A948A968890703D4411C002889
:103240000846F8D12A2041902873A448A968C907E4
:1032500003D1411C00280846F8D16A94287B9F4A74
:103260001046A968090603D5411C00280846F8D174
:1032700000BF00BF9A487899816100BF00BF002459
:10328000984E322C08D0315DFF2903D020460CF037
:103290000FFF924A641CF4E71046A968090603D59B
:1032A000411C00280846F8D18D487D99816100BFF6
:1032B00000BF1046A968090603D5411C002808462E
:1032C000F8D11046A968890703D4411C0028084694
:1032D000F8D1A02028731046A968C90703D1411C62
:1032E00000280846F8D1287B1046A968090603D5AE
:1032F000411C00280846F8D100BF00BF78487899E3
:10330000816100BF00BF0220012631460CF0D0FED3
:10331000724C02200CF066FEC00703D0601C002C2B
:103320000446F6D15596242013216F4C40906891A5
:10333000A04726203B213F902491A0470F20002149
:103340007E91A04702200146A047644C02200CF069
:1033500049FE800703D5601C002C0446F6D10F20DF
:10336000A0267C9031460CF0A3FE022001460CF012
:103370009FFE5A4C02207A900CF034FE800703D551
:10338000601C002C0446F5D125200A213E90629154
:103390000CF08EFE5548524988611F2013900CF0A6
:1033A0007FFE4E4A1046A968090603D5411C002835
:1033B0000846F8D14A487D99816100BF00BF104698
:1033C000A968090603D5411C00280846F8D1104613
:1033D000A968890703D4411C00280846F8D12E7338
:1033E0001046A968C90703D1411C00280846F8D136
:1033F000287B3F4CA868000603D5501C002A0246D3
:10340000F8D100BF00BF36487899816100BF00BF86
:1034100010202A900CF0E6FD6990607167987E9A02
:10342000C260026142618261719B190E76911646FB
:103430007000B107C90F0818769940186D990840B7
:1034400029216E914843401C7B900F2E2FD8521C8F
:10345000C82A01D8052400E003247998F430824278
:103460007E9200D9012423484343234818187D90B5
:10347000F04029210EF068FF7B980818C1B20022A5
:1034800096420DD01D4B6B449B5CCB1ADD176B40F5
:103490005B1BDBB2521C9C42F2D97E9A7D9BD4E727
:1034A000164969448855761C7E9A7D9BC0E7144E68
:1034B0006E4430460CF08EFB307A132800D36898A7
:1034C000C00130188C21445800200E4A1C281BD003
:1034D0000B4969440A52801CF8E7C046F0D8FFFF48
:1034E00000100048613B0108B10001080001000321
:1034F000880C00200D6619005FF36E3C100600007A
:1035000000120000DC050000AC486844AC496CC8FF
:103510006CC17198AA490861559DE843611E8142BA
:1035200001D3469C0F34A64E746130461830A5492D
:1035300069441C2264920EF03DF93046343011216A
:103540002B910EF0E8F84921002059917054611C2C
:103550004A1E914148221592B1544621379170522A
:1035600045227A990592B154974908608860749A07
:103570008A62789AF73ACA620861CD60FF221C928B
:103580001304924A14689C43739B1C431460904C30
:10359000FF3413692340EC03234313618D4B28331D
:1035A0008D4A13600D606A990529294600D30146AA
:1035B0007E916998C0B29E38414241415C915398D6
:1035C0000028864E02D028460BF03EF97069709AAA
:1035D0001043706180983030B1690143B1616D9DD5
:1035E00028046C9B1968814311431960586A7A99C1
:1035F000084308998843586279497498886268201A
:1036000088610D624C646D4C6C4420460CF0E2FA0B
:10361000A17A481E814173486844C1720AF010FBC8
:10362000E07B0BF00DFA334600266F488671119847
:10363000205C414241416D4A5170089949045A69E0
:103640000A435A61A9066A4D2A688A4301239906EA
:103650005118296067490028789302D00846C13084
:1036600000E05807624988616348684446810681E2
:10367000C6808680617A4A1E91410173217A13299E
:1036800000D313215C9A7E9B1A435C92C9012246A7
:103690008032549251180A8A02804A8A4280C8684D
:1036A0000BF00AF967988069629948430AF044FB75
:1036B000A07B0AF019FBE1203B90C2004F4B0C2E7F
:1036C00006D01046F8304E4969448853B61CF6E7D8
:1036D00000200C2804D03B4969440B52801CF8E7B9
:1036E0006C92002451980470639EB46074603460DE
:1036F000434868447E904349694420917E982CC891
:103700002CC120990C312F4868441E912CC82CC123
:10371000519844703C49F1603C48684404777461B6
:10372000B461F46134627162B462F46275982030FD
:103730003C907299014205D0324868442949694455
:103740000AF0EEF9209818302090E0435090559BF5
:103750006C9A0C2C06D01046F8302D496944085359
:10376000A41CF6E74B20339040013D90519800781F
:1037700000281C4600D0E1E100207D907B90FEF700
:103780006BF905460F4C6C4420460CF0DFF86C9E3C
:10379000F8360BF0FFFD304021786678749673910F
:1037A0000E43A3781E43E27816430821645E19494C
:1037B0008C4231DD002835D0B8E1C046100600004B
:1037C00000000020001200000044014004E400E07A
:1037D0000000FFFF1800200000E100E000100240A0
:1037E000002C014004060000880C0020F409002091
:1037F000000800483F1F000090100000FF0F00006D
:1038000080110000A0100000FFFF0000CC1000009D
:10381000EC1000007CFCFFFF002800D086E1002EA9
:1038200000D183E17694719372927E95AC4D2846D7
:103830000AF07EFFAB4C6C4420460AF0DDFF77981F
:1038400000690090A84A6A447E9829467E9D2346D6
:103850000BF072FA7B98281A6B990B3188421ED9AB
:10386000A2486844322101816599C180A0498180C4
:103870000221817267999F4A0A60C07A01287B956C
:103880000DD179987F309C4AD0625E995163516A1C
:10389000814201D900205062609810607B957D982C
:1038A000291A212900D26AE76420642900D301463D
:1038B00070908E4868440AF093F9789CA10281A820
:1038C00069900DF028FF03200102864868447D912D
:1038D0000181092110226F9D884B2B65884B6B65F8
:1038E000884BAB657C9BEB652A6669666C64709956
:1038F000A964699C2146FEF791F97F210020709010
:1039000068646698A8646A91E9642865789868652F
:103910007D48A865734868442146FEF7BFFC7B4894
:103920007699814216DD6F4868447D9901810221B4
:10393000642201236B64AA64704A2A65704A6A652E
:10394000734AAA655F9AEA6529665D99696681A9E5
:10395000FEF764F9002E00D195E0624868447D9935
:103960000181222102246422012369936B647692EF
:10397000AA64624A2A65624A6A65664AAA657C9AAE
:10398000EA6568942C66696681A9FEF747F9639831
:103990006149016441648164C16473980028709D29
:1039A0000ED05E4C6C440021042520462A460DF0C2
:1039B00081F95B4A2B460DF034FA20202071052551
:1039C000749800280ED02C1D544E6E443046294663
:1039D00022460DF06FF90423524A0DF022FA2020FE
:1039E00030556D1D719800280ED02C1D4B4E6E4425
:1039F0003046294622460DF05DF904234A4A0DF06F
:103A000010FA202030556D1D729800280DD00D2D14
:103A10000BD22C1D41486844294622460DF04AF934
:103A20000423F74A0DF0FDF900E02C463B486844BA
:103A300021460DF0EFF802460B462A48684411462D
:103A40001A460DF0B1FA6F9D6C6CA96CEA6C2548B2
:103A500068447D9B0381294B2B65294B6B652C2387
:103A6000689E2E666B660E23002C00D11346EB6514
:103A7000E84A00D10A46AA65699969647699A964F9
:103A800081A9FEF7CBF8372070996964A8646A9918
:103A9000E9642865789E6E651B48A86511486844EE
:103AA00081AC2146FEF7FAFB0E4868447D990181FE
:103AB0003E210222D84B2B65114B6B65D74BAB6572
:103AC000649BEB652A66696664216E64A96421467D
:103AD000FEF7A4F820460AF04DF97E987D904EE658
:103AE0006C2D010880110000001200000406000087
:103AF000280A000050003200002C0140DC2B010895
:103B000002020102882D0108020101007CFCFFFF76
:103B1000972D0108AC2D010820202020F81000006E
:103B200034240108B4240108242401083D99C8392B
:103B3000F948684428220AF08DF8559C5399481E8C
:103B400081415391F748401C4890F8486844203020
:103B50001690F7486844C01D2790F8486844C01D77
:103B60000C90F648684410300A90F5486844801C70
:103B70002E90F448684412303990F3486844801D10
:103B80003A901C9890303690002564201090EF48B1
:103B90005C99C943129168956A95699565955099A4
:103BA0000F9172951D9552954995149518951A90F7
:103BB000439545952995389572985E902E46FDF768
:103BC0004BFF0546DF4868440BF0C0FE7295A81B0A
:103BD000642800D3642064900BF0DCFB7190729831
:103BE000B042354653D0CC486844649909F0F8FF98
:103BF000D5486844808800280ED064998DB2421B55
:103C0000D14969440023A84200D21A468A8003D8C9
:103C1000CD4868440021C172719AD04342210842C4
:103C20002FD010062DD0C8486844807AD1B288427F
:103C300000D0C8E0649880B2C34A6A44D1880918A9
:103C4000F34B994200D3F249D180369A323A92B27C
:103C50009142729D1BD9BC4969440A891018EC4AEB
:103C6000904200D3EA4808815A28729D0FD3B64883
:103C70006844002101817199002900D0B3E020201F
:103C8000B8E000203A99087148800880729DE148A8
:103C900068440188AB4A6A44508A411ACB1759409C
:103CA000CB1A918A1F2B5D9503D3A64A6A44D28A08
:103CB0002EE0D84A6A4452888A1AD3175A40D31A37
:103CC000A04A6A44D28A1E2B22D8D24B6B449B88CE
:103CD000D31ADD176B405B1B1E2B19D8CD4B6B44E1
:103CE000DB88984D6D442D8BEB1ADD176B405B1B09
:103CF0001E2B0DD8C74B6B441B89924D6D44ED8B29
:103D0000EB1ADD176B405B1B282B01D801F075F90E
:103D10002346C04D6D44AA80698028806399886DD0
:103D2000E880086E688187496944C88B28810878D3
:103D3000689A9042204611D148786A9A904220466B
:103D40000CD1887869998842204607D16598C0B21D
:103D50007C496944C978081A411E8841719909044F
:103D6000214600D119460029214600D10146F648D6
:103D70006844C07A639A146C002912D0401EC0B205
:103D800000210328529102D28000F049095848913D
:103D90000A2167988069484309F0CEFF52984990FC
:103DA00065E0002808D07298B04260D04899649AC3
:103DB00091423DD9891A41E07298B04257D0489952
:103DC0004998649A3BE011468143080601D101F00D
:103DD00023F95D48684400220281C280719A827290
:103DE00000292D9806D048420840E2494843C00EB9
:103DF000E1A1085C03A14000085A40008744C04686
:103E0000642401081000E709DB09DF09D709EB0981
:103E1000F009E309BB2D0108342D0108C92D010863
:103E20004948684401213C4B6B440A4601F0DEF9E5
:103E3000D9482F9981610021D84801644998861892
:103E40000025864200D2EE43D548864248910DD9DE
:103E500039485299814207D92F486844FA226C990F
:103E600009F0F8FE529501E0501852904996B64874
:103E700068447B90007A132800D31320C101549822
:103E80007E9140187090027E501E82412D4D6D44EF
:103E90004B98295E75984C914118083188B2C00B37
:103EA000081800B240107F9BDB00984200D31846F0
:103EB000230C2646240A7D9409B2509CA14200DAC4
:103EC0000020709C310E6591F1B26891D9B2699170
:103ED0007D99C9B26A91E17D234619330BF00EFC3E
:103EE00086B2A07D401E0E23E95E73910C214E9197
:103EF000695E74917B994C7A69895C91E9885B91E0
:103F0000AD8803286E9A4F935A9558947D962AD877
:103F100002A1085C4000874404060000031B070D53
:103F2000689816E02F750000699812E0A010000054
:103F30000012000065980CE02F75000000120000D0
:103F400080110000F810000090100000581B0000C5
:103F50006A98002807D02D212C222B207B90272423
:103F60003E9B3F9805E028207B9022234298409C6E
:103F70004199709E715C7691315D5791B15C56911B
:103F8000345C7B98325CF15C5A98864DA8470346B6
:103F90005B982146569A1C46A8472B4605465C98D6
:103FA0005799769A9847804B6B445790D8807D9963
:103FB00049007E4A5118491C7B91998076955D8015
:103FC00025461C807A48684438210DF0A4FB3E2029
:103FD0004D90305C7D90042801D300207D90729834
:103FE0005E99401A5690734A7E9B7D98800004A18A
:103FF00008582EB257990DB276990CB28746C04632
:1040000019400008C5440008274000085F40000828
:10401000FFFF0000EC1000007798066044607B9979
:104020008160C5604AE077987B9981600660611B7A
:104030006148814200DC60497F98C000814200DB1A
:104040000146779AD16029195B4A914200DC5A49AE
:104050008142584A00DB0146779841602EE03520C6
:104060007099085C5249694401915449694400912E
:104070004D496944749A739B0BF046FD77994C60E7
:104080007B9A8A60CD60C10F401841108A1B4A4854
:10409000824200DC484A7F98C000824200DB024630
:1040A000779B5A618919444A914200DC4249814216
:1040B000404A7E9B00DB01467798016022486844B5
:1040C000C0187B900021B425BE2D20D04E1C0C1DA5
:1040D0000E2C19D27B98405D7D99032902D1052CC5
:1040E0007A9912D0324969447691019133496944F1
:1040F00000912D496944749A739B0BF005FD7E9BDA
:104100002C4AA100769C605031466D1CDCE74A9D2C
:104110002B4E0D486844002D00D1C5E0C018C030BA
:104120000478002C01D00E2C02D99B1DAD1FF0E7A6
:1041300005486844C018C421405C401E09284ED878
:1041400003A1085C4000874410060000C43E01083B
:10415000083D0E100A414312470C68983DE06A98EA
:1041600031E065982FE06A9837E06A9831E0699805
:1041700029E0C04631B57C0700011C021D0E180362
:104180001E16140F191104081F1B0D171513100705
:104190001A0C12060B050A0900140048000400401E
:1041A000BF27090081FA00087011000017FCFFFF0B
:1041B00000120000DC05000018FCFFFFF8100000F2
:1041C000E204000068980228AFD108E0699804E092
:1041D00069980128A9D102E065980028A5D1D348A3
:1041E00068447E93C618C120305CD149694401916E
:1041F000D04969440091D0496944749A739B0BF08B
:1042000083FCC2217156484364210EF02FF8C3216C
:104210007156629A514340186199725C611EC9B22D
:10422000002A2ED0012A14D0022AC44EC44A7E9BF2
:1042300000D07AE7C34A904200DCC2487F9AD2009D
:10424000904200DB10468900B94A6A445050BC4A8B
:104250006BE78900B64E6E447D91715848437F9953
:10426000CC0021460EF002F8B649884200DCB54881
:10427000A042B34A7E9B00DB20467D997050AF4E32
:1042800053E78900AA4A6A4453581818AD4B98421C
:1042900000DCAC487F9BDB009842A84E00DB184650
:1042A0005050A74A7E9B40E700206F9D1C2804D0F9
:1042B000A54969440A52801CF8E70020A2496944D4
:1042C000382815D09A4A6A441358DA0F9A185210AF
:1042D000B218FA327F9C2401A24200D322469B4CA2
:1042E000A34201DA759A08320A80891C001DE7E7AB
:1042F000002497486844015789006A6C89180DB2F8
:104300007F99C9008D4200DC0D467F9A12019542CB
:1043100000DB15468C4B6B441D8001257E9545576F
:10432000AD005E88AD192DB28D4200DC0D46954280
:1043300000DB15465D809D88807840B25899012940
:104340000ED0022929D18000401905B27F98C00003
:10435000854200DC05467F980001854226DA26E08A
:104360007A4949194A1C7F99C9008A1A00D2002249
:10437000759B08339D4201D26B9AD4324243900020
:104380000DF074FF45193B988000854200DC05461E
:10439000704885420BDB6F4D09E07F98C000854275
:1043A00000D805467F980001854200D3054666483F
:1043B00068448580664969446D9A89568900C28837
:1043C000891809B27F9AD200914200DC11467F9A87
:1043D0001201914200DB1146C1807098808A21460B
:1043E0001C290FD022467C9B1A400346D340DA0793
:1043F00005D0554A6A44535A574EF31A5352641C17
:10440000891CEDE7554868444F4969441C263246EB
:104410000DF0D0F97220709C255C0AF09DFA0246DE
:104420007D95012D76962CD17320215C01251046B7
:10443000684014460BF048F8002C494E6F9C00D0A1
:10444000C9E3F078012800D0C5E33195306972994D
:10445000081A0A2800D2FBE04148729901613A49E2
:104460006944162088703F480880002048763E4DF9
:104470003E4E202840D02E496944759A0A52801C2D
:10448000F7E70020014614460BF01EF820460AF01C
:104490005FF9002C03D1314868440AF049F93448E7
:1044A00068440AF0A9F9EFF3108072B64721314D44
:1044B000695C599AAA5C80F31088961E701E86412A
:1044C0000E4099E377987B998160C560A1191D48DA
:1044D000814200DC1B497F98C000814200DB01461D
:1044E000779A5160A11B174A914200DC154981421D
:1044F000134A00DBDFE5DFE500241C2C3CD0174825
:104500006844005BF7218900884200D80846A84229
:1045100000D32846C000801900B205210DF0A6FE88
:10452000AC30034969440853A41CE6E710060000B8
:1045300000120000F810000070110000E2040000FA
:10454000DC05000018FCFFFF8011000017FCFFFFD6
:104550009010000034080000B80B0000201100008B
:10456000880C0020EE180000DC070000C0E0FFFF10
:104570003C11000000000020FD4C6C447798056859
:10458000E570FC48684483889908A1714289510804
:10459000A172C1897B91CE0866732D0A4688F1000D
:1045A0002943217171099D010D436571990AC388E1
:1045B0005D000D43E571779EB1680D01DB092B436A
:1045C00023720909D3010B436372F1688B00520A0D
:1045D0001A43E27289097B9A52010A4322733569B0
:1045E000A573838A99086174428B51086175C18BE8
:1045F0007B91CE0826762D0A468AF1002943E17385
:1046000071099D010D4325746F9D990AC08A43006D
:104610000B43A374C009779EB1690B010343E37494
:104620000809D10101432175500AF1698A0002434A
:10463000A27588097B9949010143E17517212E98DC
:104640000BF05CFE60761A2120462C460BF08EFDA6
:104650000026C94A1068010701D50821516080066B
:1046600000D466E29068C0B2C4494D69002D09D0FB
:10467000012D12D1811E3D2900D388E0C049487028
:10468000022367E1C82804D0EE2802D0EA2800D02F
:1046900062E1BB49087001235CE1B9494C78A11C77
:1046A00000238D4200D355E13F2D01D903F061FB7A
:1046B000B34A5055681CB14A5061AF4A884200D095
:1046C0004AE17B93AE480CF0B7FA35918D4201D3A5
:1046D00003F053FB415D70915790801C611E589010
:1046E0000BF00CFEC0B27099814200D030E15899B5
:1046F00008780828A04A7B9B06D02B2849D0292877
:1047000079D0142800D025E10D463599032900D130
:1047100020E1709057984478A01C884200D919E194
:10472000022C00D216E15798001940783590611E8E
:1047300028460BF0E3FDC0B23599814200D007E175
:10474000709D082D00D1E0E0142D00D000E10B2C6D
:10475000894A7B9B00D8FDE088483030579B5979C7
:10476000017499794174D9798174197AC174D978AD
:104770004942817319794942C173587A401EC0B2C7
:10478000072800D9CCE140007E49085AC9E100233E
:10479000E0E0022D01D103F0D8FA072C00D2D9E0D5
:1047A00057998879359048795890C91CA21E0420E1
:1047B00021900CF0CDF80246DD2080007090032996
:1047C00000D270E10B467048709940580C2800D315
:1047D00069E150787F2101401B91117802242392D6
:1047E00019915793A34255D0105D002853D0112C36
:1047F00051D8641CF6E7022D01D103F0A6FA052C6E
:1048000000D2A7E0579BD81C5890A01E7B90DF20B9
:10481000800019795C4A1154201F5D1D00218842D7
:1048200007D08C1C6A5C002A04D0152C02D8491CC5
:10483000F5E77B9C1B20400153490918A01E142258
:1048400070900CF07CF87B9A944201D903F082FAC4
:104850002A46709D2B460CF0E4FA4C484A490D5408
:104860000D347B98844202D25898005D00E00A2003
:10487000414A454B464958540720C0011C99043110
:1048800019526F20C00000211950DD2080001950FE
:104890000B465FE01C4600256F9845638563C56342
:1048A0000564A11E3B4868441F910CF00DFA579B0C
:1048B0009C4201D903F052FA239A921C1F9B0CF0E0
:1048C000B0FA2B486844302117910CF024FF641C87
:1048D0005798844229462A462B48589B00D386E0A5
:1048E00000251B990D293DD009293ED1319B0E94FD
:1048F0002399579A94424FD2085D3B2802D0002852
:104900004BD000E05B1C641CF4E7092C20D91B4B46
:1049100018463030579A917A0175D0790004117A8F
:1049200009020818517A40181863D07811790902E1
:10493000081800BA000C64214843588750799279CE
:104940001202101800BA000C484398870A4AEAE09D
:10495000094A7B9B09484361761C412E6F9C00D01D
:1049600078E6E6E029462A463FE029462A463EE028
:1049700080110000001200001C440040880C002040
:10498000740A00202C280108700600207D03000016
:104990007E0300007011000014460D930E98201A3B
:1049A0003028179A00D310462290C14969440BF071
:1049B000C6FF17900E98229A1218579B9A4201D957
:1049C00003F0D5F9239A12181798229B0CF029FAB4
:1049D0000D98C0B2411E02468A41811A641C579844
:1049E0008442B448589B229A01D2239D2D5D579151
:1049F000709941580D2901D303F0B5F922922395FE
:104A00000546159848432C18483D002816D08822A2
:104A1000AA5C483848359A42F7D144202399295452
:104A200028461030A249694430220CF0C3FE379862
:104A30002299295445205799295434E00C2932D021
:104A40009D4868440E909D49694417910D940E9CB1
:104A50002DCC2DC19649694430220A980CF0AAFE4B
:104A60000D9C20461799119D2A460CF0A3FE472065
:104A700000212154379822992154452057992154D7
:104A800044202399215443201F99215442201B99EB
:104A90002154412019992154589860558549709A9C
:104AA0008858401C885035980028854A7B9B00D048
:104AB00050E7804C8348205C589981422BD27098F3
:104AC00020580C2827D200217B917F4821545898E8
:104AD000411C70917D4821540720C00103212154BD
:104AE00009210C980DF066FBDF208000205C734DDF
:104AF0006D4470997B9C22462B460BF0DBFB082112
:104B000028460BF033FB23466D4A6F20C000729994
:104B1000684C21501EE70720C0012199215419E754
:104B200000206B4B18874520012119547298586357
:104B30000FE74520664E315C002908D0716B729AF0
:104B4000511A6B9AD432914201D900213154072075
:104B5000C0015849085C03281BD001283BD16F20B5
:104B6000C0000958729A511A799A2B32914232D95F
:104B70005049729A0A50002077990860486025468B
:104B80004E4C6C4420460BF083FB062120462C46FD
:104B90001FE06F20C0000958729A511A799A5D324D
:104BA000914218D9434D7299295048482C5C0921EB
:104BB00027980DF0FFFA44482A5CDF208000285C2B
:104BC0003E4D6D4421462B460BF074FB08212846D0
:104BD0006F9C0BF0CBFA559809F0BAFD3046303097
:104BE000417D3C4A6A44D172007C9072708F108182
:104BF000002626606660384D384A6A44108A7B90E9
:104C0000009037496944334B6B4472980AF094F82A
:104C1000719A104647990840411E04468C4100286D
:104C200058960DD0002E559E1AD06C98F830104032
:104C300041424141539808420AD03446539659E0C4
:104C4000002E559E0CD06C98F830024200D14CE1F9
:104C5000002009F0F9FD2348684408F0F1FF47E01F
:104C600021496944097E519A1278D2B20A4300213F
:104C7000002A3BD1002800D128E145996498091801
:104C8000344601D30020C1433298814245910CD96A
:104C90004398C00708D1204609F0D6FD1148684462
:104CA00096223D9908F0D6FF4394539422E0C046E3
:104CB000801100007006002070110000001200003A
:104CC0001C4400407E0300007F03000081030000BD
:104CD000880C00203C11000000000020F8100000AB
:104CE0002011000004060000CC1000004391459103
:104CF00053943446EFF3108172B659982A5C7E982B
:104D0000024003D00020599BE854686981F3108861
:104D1000002A5D9D32D0411E0122D24391422DD204
:104D2000E1496944097A132900D31321C901549A2E
:104D30005118CA68824221D0C860FA4868440BF012
:104D4000FBF8F94AF9486844322101813799C1805A
:104D50003D998180022181726799F54B0B60C07A81
:104D600001280BD179989F30D06230995163516AF4
:104D7000814201D90020506260981060ED4868447B
:104D8000007E00283CD0719A5698202800D8E2E096
:104D90002646E64868440390E748684402903998FC
:104DA0000190E64868440090E24C6C4481A9DD4BD8
:104DB0006B44204604F0BAF8A07E002809D0E048F1
:104DC0006844DA49694408F0ABFEDA4868440021D7
:104DD0008176D8486844C07E0028344601D100F06E
:104DE000CDFD204609F030FDD24868440021C1764F
:104DF000CE48684496223D9908F02CFF00F0BEFD95
:104E0000519800780028719932D0569920296499D8
:104E100000D8A0E089B2142900D814217B915199BF
:104E200049783C9A719B134204D1CA0702D00021F1
:104E3000519A5170639EF2687D92C14B6B44719A96
:104E40009A84C04B6B441D8CBF4C6C445B95658150
:104E5000DD8B5A952581756DB66DE680DE8AA6805C
:104E600065805B8A2380CD0742D17D998A4340E0EB
:104E70003C980142649867D080B2389989B2091889
:104E8000B2488142084600D3B04801467598CF30F9
:104E9000389181425AD92646A64C6C447E9A227794
:104EA0000021618250982082639841618161C161D3
:104EB000016238918162C2629C48684408F0C0FE79
:104EC000719A207E3446002840D05DE74398C007A1
:104ED000002100284598344603D10021282800D31A
:104EE000AAE045914391539104E70020539000E7D5
:104EF0000022559C71926C99F83111403C9A719B3B
:104F000013407193719A0128264628D0022832D185
:104F100000296F9D26D14698001D002800D19CE0F5
:104F20008749694409180B8B874A6A441218928989
:104F30009A42144600D31C460C838B8C9A4200D8AC
:104F40001A468A84801CE8E700203890569820286A
:104F500001D900F073FC5E987290FEF72DFE0029D7
:104F600000D107E10020519908707048684408F0AA
:104F700067FE00F002FD7E9DA90281AE30460CF076
:104F8000CAFB6D9801027D9171486844018112212C
:104F9000779C704AE260704A2261704A6261A16146
:104FA0006299E1612C9921626421769125606160AA
:104FB0003146FCF733FE664868447D99018126211D
:104FC000644AE260644A2261654A62612A9AA26187
:104FD0004F9AE26121622560769961603146FCF763
:104FE0001DFE57486844C08C7B9988421CD9401AE2
:104FF00053496944C88400F0BFFC5A4B6B445B8939
:10500000504D6D442D8CEB1ADD176B405B1B282B2C
:105010000FD80023FEF77DFE484868440021018137
:10502000C1808272FEF732FE00205199087000F0B4
:10503000A3FC0123FEF76DFE3D99C8393B48684447
:105040001E2208F007FE2999491C6D9801402991FC
:1050500000204590439053904CE6002129625891DE
:105060004800374A6A4410184B1E032B1ED01946BD
:105070000488058B2A1B0023A54200D21A46858985
:10508000641B00D21C46801C4B1CFA2C6F9DECD379
:1050900092B2FA2AE9D3891C334868447E9AC254F2
:1050A0005898401C5890DBE71006000071980028C3
:1050B00000D19FE05898C0B2042800D03BE32B48B1
:1050C00068440AF073FD2A4868642598A8641C485F
:1050D00068442A993446302900D136E3858902880C
:1050E000541B0023AA4200D21C46449D6C43A409D1
:1050F000141B00D21C46150425431C4C6C446550FF
:10510000058BAD1A00D21D46449B5D43AB09D218F6
:105110000E4B9A4200D30D4A63185A600831801C26
:10512000D8E7C04610060000002C0140040600002D
:1051300046003200CC10000020110000901000004A
:10514000A0100000F810000070110000FFFF000028
:1051500000120000DC2B010802020102423A0108A1
:105160004C280108EC1000005C11000080110000C8
:10517000594B5346002A00D13DE2BD486844BD4921
:105180006944024638CA38C11E99024638CA38C135
:1051900020991CC81CC13446609840005199088071
:1051A000B548684432223D9908F054FDE5E3B34820
:1051B0006844032117E0B1486844022113E0AF4876
:1051C000684402210AE0AD486844042106E0AB4887
:1051D0006844012102E0A94868440321FF2203E05A
:1051E000A648684404210122A34B6B4408F04CFC00
:1051F000FEF74CFD7E9EB10281AC20460CF08BFA8E
:105200006D9801029E48684473910181779D9D4984
:10521000E9609D4929619D4969612B99A9614E9970
:10522000E9612699296264212E60719169602146A5
:10523000FCF7F4FC7F2100205C9028606698686091
:105240005791A960E86078982861914868616F9DDE
:105250008B4868442146FDF721F88E486864AE64A7
:105260008D48E8642E658D486865AE658C48E865B4
:105270002E66354613227F4B6B447D4868447B90F5
:10528000884868447690332A00D115E17C48684408
:1052900073990181779E7B49F1603262022170919E
:1052A000F161356071997160774931617E49694476
:1052B000891815467D920A460F3A1268B261133971
:1052C0000968716181AC21467493FCF7A7FCA91FA2
:1052D0006491629803C64498306034987060789DF9
:1052E000B5606B48F060664868442146083EFDF7AB
:1052F00003F96E98306064997160B0607D98F060D9
:105300003561634870615E4868442146FCF7C6FF1A
:10531000749B1D88188B401B00D25C985E9063497B
:105320000C4664347D9A2B2A204600D00846132A66
:105330006E9E00D0044698896495281A00D25C9825
:105340001E256843844217D8D11E779AD160789B76
:1053500013614F4B5361516021460CF05FFE1E28D4
:1053600000D3284677998E60301A08604448684414
:1053700081A9FCF793FF7D9A5E9880B21E25684351
:10538000844216D8D11E779AD160789B1361404B26
:1053900053611660516021460CF040FE1E2800D378
:1053A00028462930779988603548684481A9FCF7F8
:1053B00075FF7B9800886499401A0AD41E256843BB
:1053C00021460CF02BFE1E2800D3284629307E9D56
:1053D0000BE046990E394143084621460CF01EFE6B
:1053E0001E287E9D00D31E20301A7D9E711E721FC6
:1053F000779C05C4206061607898A0602448E060D4
:105400001F48684481A9083CFCF748FF769800785B
:1054100000280CD01A48684473990181256071995D
:1054200061601849E1601849216121490BE0144885
:105430006844739901812560719961601149E16047
:10544000114921611B4961617099A1613399E16141
:10545000266281A9FCF7E2FB7698401C76907B9847
:10546000801C7B90749B9B1C083632460BE7C04621
:1054700070110000A0100000040600009010000051
:1054800000120000DC2B010802020102F2390108BF
:1054900002010100012E0108022E0108032E01085D
:1054A000042E01085C11000080110000E2040000DD
:1054B000403A01083E3A0108CF486844018C7D918A
:1054C000828A0189CD486844739B0381779BCC4CC9
:1054D000DC60CC4C1C611326052476949C61289CCE
:1054E000DC615E961E621D60719C5C608C1A0023FC
:1054F0007B91914200D21C467B9A7D99891A00D2F9
:10550000194674917094091989B2369A9142BE492C
:1055100000D8BE49779D696181AC2146FCF77EFBCE
:10552000289828605F9E6E604298A8603498E86072
:1055300078982861B6486861B04868442146FCF70D
:10554000DBFF1B206D2142C57D9129606860789842
:10555000A860AF48E860A94868442146FCF79EFE71
:10556000709A382A1AD977982C994160C160789935
:105570000161A74941613B98810090B200010CF0A4
:105580004DFD102800D3102077997D9A8A60101A5B
:1055900008609A48684481A9FCF780FE749880B23C
:1055A000392819D377997D9A0A602C9A4A60CA6083
:1055B000789A0A61964A4A613B99890000010CF089
:1055C0002DFD102800D310206D30779988608B480E
:1055D000684481A9FCF762FE5A987B99401A00D56D
:1055E000D1E100013B9989000CF018FD102800D38F
:1055F00010206D30D2E17E9CA10281A876900CF043
:105600008AF86D9801027D917C4868440181779EFB
:105610007B49F1607B4931617E4971612B99B161B0
:105620004E99F1612699316264217B9134607160F9
:10563000769C2146784A90477F2173910020719093
:10564000306066987060B160F06078983061704842
:1056500070616A4868442146FCF720FE6749694446
:105660007D98088116237093022074901424644A54
:10567000F260644A3261694A7261B461F061336216
:105680007E9830607B9C746008467699624A9047A9
:105690005A4868447D9901812021594AF260594A4B
:1056A00032615F4A72612B9AB261749AF26131621F
:1056B0007E9912C6769C2146574A083E90474F482D
:1056C00068447D9901812B214D4AF2604D4A326137
:1056D000544A7261709AB261749AF26131627E9931
:1056E00031607B99716021464B4A90473020719917
:1056F000316070607399B160F060789830614448AF
:1057000070613E4868442146FCF7C8FD002D00D179
:105710001BE13A4868447D99018113217E9A3260E9
:105720007B9A7260364AF260364A32613E4A726152
:10573000B16125991AE175996C313C48684464223D
:1057400008F088FA5D9D344618E130201699264607
:1057500040282ED00A880B460C3B1D88531B00D2D4
:105760000023369CA342344620D90B46183B1B88A5
:105770005E1B0024AB4200D22646449D6E43B50911
:105780005D1B00D225461E042E43294D6D442E502C
:10579000D21A00D22246449C624392099A18254BA1
:1057A0009A42559C00D3234A2B185A600830891C12
:1057B000CDE71F4C6C4420460AF0A6F80F4D6D440F
:1057C00028460AF007FA80222846214634460CF083
:1057D00099FB28460AF0B0FB1749C83113486844C2
:1057E000962208F037FA7598D03003496944C88486
:1057F00051986D990170C0E0A010000000120000E7
:10580000DC2B010802020102083A0108033A0108F0
:10581000020101007E3901081D1C00088F390108B2
:10582000A3390108B4390108DF3901080406000072
:1058300080110000FFFF0000280A00007E9881020E
:1058400081A864900BF067FFF3486844057A132D34
:10585000284600D31320C00154990918EF48684422
:10586000629A0BF0A1FB00217798006800287E98CF
:1058700001D17798406801D17799896802F036FBA9
:1058800057905E916D1C2846629C21460CF0C6FB29
:1058900044432A1B302171910A43E14969448A70CB
:1058A000303048704D2056900870DC4868446D9D3B
:1058B0002A460BF079FB779C0ACC22682D02D74848
:1058C00068440581D74D6560D74DA56002253195A7
:1058D0006561269DA56164267E9D083C60C4002903
:1058E000D24900D119466D9B00D113465E9A002A19
:1058F00000D013467096779A936100D05799779DA0
:1059000069616499FCF78AF97D98401E411E8841BF
:1059100012990142C648C74B00D048E15898002868
:1059200000D1BAE103200102BC4868440181092189
:105930004422042364240125779E35607460B94CA9
:10594000F460B94C3461BC4CBFE1B44868447D9903
:1059500001817E9931607B997160B249F160B249F1
:105960003161B64971615F99B1617499F1612499AE
:10597000316281A9FCF752F9559C5D9D81A808F020
:10598000F9F9FEF719F9469948433B9989000CF05B
:1059900045FB102800D310207D99081A1A211622E1
:1059A000779D05C5286069607898A860A448E8607C
:1059B0009A48684481A97491083DFCF76FFCA1489E
:1059C0006844418C4489C38A94486844739A02812C
:1059D000944AEA60944A2A61769AAA61289AEA610E
:1059E000429A2A627E9A2A60719A6A60E51A0022B7
:1059F0009C4200D21546091B00D211467B94769139
:105A00007095491989B2369A91428F4900D88F49C9
:105A1000779E7161749D2946FCF700F925216491F8
:105A2000289803C64298306034987060789CB460BF
:105A30008348F060794868442946083EFCF75CFDDD
:105A40002B207D993160649A7260B160F06034619E
:105A50007B487061714868442946FCF71FFC709AC6
:105A6000382A7B9C1AD9282077994860C860789892
:105A70000861734848613B98810090B200010CF0C6
:105A8000CDFA102800D3102077997D9A8A60101AD9
:105A900008606248684481A9FCF700FC769880B2EF
:105AA000392819D32821779A7D9B13605160D160E2
:105AB00078991161624951613B99890000010CF0AC
:105AC000ADFA102800D310206D30779988605348C4
:105AD000684481A9FCF7E2FB5B98001B09D4000134
