:020000040800F2
:1000000000400020C10000087F0501088F1701088B
:1000100000000000000000000000000000000000E0
:100020000000000000000000000000007F05010843
:1000300000000000000000007F05010841050008E5
:100040007F0501087F0501087F0501087F0501087C
:100050007F0501087F050108FD0000087F050108F4
:100060007F0501087F0501087F0501087F0501085C
:100070007F0501087F0501087F0501087F0501084C
:100080007F0501087F0501087F0501087F0501083C
:100090007F050108550500087F0501087F05010857
:1000A0007F0501087F0501087F0501087F0501081C
:1000B0007F0501087F0501087F050108DD0A0008AA
:1000C00010F060FA084809490022814201D004C0BA
:1000D000FBE707480749084A814202D008CA08C01E
:1000E000FAE710F0ACF800DEF0060020500B00201C
:1000F00000000020F0060020A8330108F0B503AF8F
:1001000093B009AEE6484169490700D40AE20422E7
:1001100042614923E34DE95C022900D102E2016812
:10012000914301604524295D002900D19EE0012909
:1001300000D0F7E104960193089202200290059402
:100140002855002420460EF037FF012211030791A5
:10015000039212078006D44ED44BD54D284600D5C5
:10016000AEE106920498401C049009A8252110F0E5
:10017000E4FC28463168090603D5411C00280846DE
:10018000F8D1CA4B069A1A6000BF00BF28463168F2
:10019000090603D5411C00280846F8D128463168D5
:1001A000890703D4411C00280846F8D1F02030719B
:1001B00028463168C90703D1411C00280846F8D1F8
:1001C000307928463168090603D5411C00280846C5
:1001D000F8D100BF00BF0798186000BF00BF2846D5
:1001E0003168090603D5411C00280846F8D11A6079
:1001F00000BF00BF28463168090603D5411C00280E
:100200000846F8D128463168890703D4411C0028E4
:100210000846F8D10598307128463168C90703D1DE
:10022000411C00280846F8D13079252C284630D0CA
:100230003168090603D5411C00280846F8D1284634
:100240003168890703D4411C00280846F8D10020F2
:10025000307128463168C90703D1411C002808467F
:10026000F8D1307909A90855641CDEE7089201220B
:100270002A5547216B5CAE49002B3BD0AE4B0B603F
:100280004323EC5C042C37D2032C00D0621CEA54CC
:1002900032E028463168090603D5411C002808468B
:1002A000F8D100BF00BF0798186000BF00BF47200B
:1002B0009D49095C09A8007800295AD009A9BC28E1
:1002C00000D0FBE0487A012800D0F7E0442000216C
:1002D000954C2154432008992154049A107951795E
:1002E0000902081891790904D279120651180818E0
:1002F0006061E3E0914A0A608C4A8E4B1C461568A7
:100300002D0603D5651C002C2C46F8D101242507A9
:100310000D6000BF00BF1D461668360603D56E1C73
:10032000002D3546F8D11D461668B60703D46E1C5D
:10033000002D3546F8D1C02515711D461668F60703
:1003400003D16E1C002D3546F8D1157915682D06A0
:1003500003D55D1C002B2B46F8D100BF00BF220344
:100360000A6000BF00BF089A426101681143016042
:10037000D8E0AA2802D0AC2800D09FE0049B1978CE
:100380005A78120251189A781204DB781B069A18D0
:10039000674B5118644A1269914200D08EE062495D
:1003A0004B695A1C022A01D30021039108931A0CAD
:1003B000531E5A425A4103990A4304990B794C79C6
:1003C0002402E3188C792404C97909060919CB1889
:1003D000591E029CE443A14208D8002A06D00121FC
:1003E000514A019C11555361514B06E00899591A25
:1003F0004B424B4113434E4B60D0482101244A4AA3
:100400005454AA2807D109A8407AFC2852D0FD28C4
:1004100001D1029A4FE03F2043490C5440200894F8
:1004200000240C52886B401C88631D200EF0C4FD14
:10043000C0B2C000052111F003F808990902091A99
:10044000C8178143642900DB64213E20364A1154D9
:10045000374B21460A31212930D809A90A19117BC5
:10046000537B1B025918927AFE2A0ED0032A07D01A
:10047000002A2F4B11D10A224A432B498A870CE0CC
:100480000A224A4328498A8706E089B26422511A1F
:1004900000D20021244A1154254B241DD9E7C0461F
:1004A00000040140000000200830014018100048FE
:1004B000F0D8FFFF224646201B490A542846069AD8
:1004C0003168090603D5411C00280846F8D11A6096
:1004D00000BF00BF28463168090603D5411C00282B
:1004E0000846F8D128463168890703D4411C002802
:1004F0000846F8D1A020307128463168C90703D1D9
:10050000411C00280846F8D130793068000603D530
:10051000681C002D0546F8D100BF00BF0798186081
:1005200000BF00BF13B0F0BD000000200830014044
:1005300018100048F0D8FFFF00030003000200037A
:1005400080B500AF02480168491C016080BDC0460B
:10055000000B0020F0B503AF91B0CF480024046039
:10056000CE4D2878C00700D0A9E24920CC4E305C9F
:10057000022800D1A3E230461830CA4962311C2259
:1005800010F02AFB4021705A401CC74A904200D309
:1005900010467052C54A11680423049399431160B0
:1005A000716B0591491C7163352801D30020F087D8
:1005B00006A8262110F0C1FA4720305C012815D189
:1005C00006AC01250522204629460FF0BDFD326903
:1005D000109210AA04230FF036FE00200290A072A1
:1005E0000598C00712D07320C04310E04220315C50
:1005F0004A1C0F231A4032541940705C03900F2993
:100600003DD02879002834D1A94933E00D2003904A
:100610004321A3480591405C0128019500D1A5E044
:1006200002280FD0032800D0B8E006AEBC203070FE
:100630000521092230460FF087FDFF2211F03AF81C
:1006400075720CE006AEBC203070052109223046E0
:100650000FF07AFDFF2211F02DF8029870720B2135
:100660001B2230460FF070FD8D4A10230FF0EBFD7A
:10067000ADE09049904A116001214840287146251B
:10068000705D022800D1D7E0012837D1059506AD6D
:10069000AA202870012102910524884B2846224671
:1006A00098473269109210AA042633460FF0CBFD0A
:1006B000092228462146814B9847794A526910926F
:1006C00010AA33460FF0BFFD0026AE730298A88132
:1006D0007B486881FD2068720F2125242846224628
:1006E000764B9847FF2210F0E5FF2E556C48059990
:1006F00046547448A88274486882EFE0706B73496E
:1007000011F034F8002900D194E006AD582028708B
:1007100001210526284632460FF016FDE94A1269E6
:10072000109210AA042305930FF08DFD092228468C
:100730003146E44D0FF008FD6A69109210AA059B3E
:100740000FF081FD1C2C70D02819008B7D21CA0070
:10075000904200D810460901884200D3084606A9F5
:1007600009194872000A8872A41CEBE72C4606ADF2
:10077000BB2028700521092228460FF0E5FCFF2246
:1007800010F098FF6C720B211B24284622460FF0B4
:10079000DBFCCC4A10230FF056FD1CE006AEBC205B
:1007A00030700521092230460FF0CEFCC54A52694F
:1007B000109210AA04230FF046FD022070720B2144
:1007C0001B2230460FF0C0FCFF2210F073FF802088
:1007D0003077F5761D2406AD25262846214632467B
:1007E0000FF0B2FCFF24224610F064FF0298A855D7
:1007F000B44A0598105C042870D14420115C491C4F
:10080000FF2900D3214611540429019966D3029B84
:1008100013544620135242201152FF200230482127
:1008200050521F200EF026FC58E0252006A9002279
:100830000A5453E002207055059506AD56202870E5
:1008400001210526284632460FF07EFC9D4A12699A
:10085000109210AA042423460FF0F5FC0922284622
:100860003146984D0FF070FC6A69109210AA234629
:100870000FF0E9FC0320C143182929D0002904D036
:1008800006AA5218FF23937302E006AA9073E82386
:100890005373891CF0E7C04610440140080B002048
:1008A0000000002070060020FFFF0000000401404F
:1008B000000400080008000418100048490101085D
:1008C000FF90000005DE000005DC000021060000AE
:1008D000002005996854252106AA50547C4C7D4D72
:1008E00028462168090603D5411C00280846F8D18E
:1008F00001200207754905920A6000BF00BF294622
:100900002268120603D54A1C00291146F8D129464F
:100910002268920703D44A1C00291146F8D1A0216D
:10092000217129462268D20703D14A1C00291146A9
:10093000F8D1217929462268120603D54A1C0029DC
:100940001146F8D100BF00BF060360490E6000BF2A
:1009500000BF6148086028462168090603D5411C8C
:1009600000280846F8D159480599016000BF00BF2A
:1009700028462168090603D5411C00280846F8D1FD
:1009800028462168890703D4411C00280846F8D16D
:10099000E020207128462168C90703D1411C0028A6
:1009A0000846F8D1207928462168090603D5411C5C
:1009B00000280846F8D128462168890703D4411C3D
:1009C00000280846F8D10520207128462168C9076B
:1009D00003D1411C00280846F8D10020217926289F
:1009E0001CD006A9095C2A4623681B0603D5531CA4
:1009F000002A1A46F8D12A4623689B0703D4531CC1
:100A0000002A1A46F8D1217129462268D20703D15B
:100A10004A1C00291146F8D1401CDFE7284621680E
:100A2000090603D5411C00280846F8D100BF00BFC5
:100A30002648066000BF00BF0F2003990EF022FB7E
:100A400028462168090603D5411C00280846F8D12C
:100A50001E480599016000BF00BF284621680906AD
:100A600003D5411C00280846F8D12846216889078B
:100A700003D4411C00280846F8D1D0202071284614
:100A80002168C90703D1411C00280846F8D1207904
:100A90002068000603D5681C002D0546F8D100BF6C
:100AA00000BF0A48066000BF00BF45200021054A7C
:100AB00011540549049A4A6108681043086011B04E
:100AC000F0BDC0460000002000040140181000489E
:100AD00008300140F0D8FFFF00010003F0B503AF7C
:100AE00085B021480088214988423BD00225224C0C
:100AF000204E002D36D01E488078C04678440079BC
:100B0000400087442F010E17207802282AD01C4865
:100B10000290019401A8012107F0FCFE002821D0D9
:100B20001EE03068401C1DD014480290019601A8B8
:100B300001210DE02078022814D03068401C11D02B
:100B40000E48049003960E480290019401A80221D9
:100B500007F0E0FE044600F0D9FE002C064C01D060
:100B60006D1EC6E705B0F0BD2C030020FFFF00009E
:100B7000080B00204C000020C00500209024010834
:100B800054240108F0B503AF87B0054680680128FA
:100B900047D106916C69E868A04246D22A69115C87
:100BA000491C1154AB69981C0226A0423AD8012175
:100BB000090205935918A14200D321460492234605
:100BC0000FF02DFF05292DD30246069B9879107052
:100BD000988802900391597A187A01920CF094FC4B
:100BE000029B190A019AD1709370C0B25070069896
:100BF000C0791071114605200690039A0FF0C5F8D0
:100C00000598C11DA1420DD8A0420ED20723049A17
:100C10001354401CA04208D2069B1354A961FF261E
:100C200000E00726304607B0F0BD21460FF092FCE9
:100C3000F0B503AF85B01C4603920E460546084644
:100C400008300CF0C7FF0491B968029400940C4678
:100C500001918021039A0B460FF0EEF8C00702D0F5
:100C60002970FF2006E0F868E871A971AC80F436BD
:100C70002E600298287204990868401C086005B02C
:100C8000F0BDF0B503AF87B01C4605920E46054691
:100C9000084608300CF09EFF0691B9680494009451
:100CA0000391019100242146059A23460FF0C4F8D0
:100CB000C00702D02970FF2006E0EC71A9710398EB
:100CC000A880F4362E600498287206990868401CA3
:100CD000086007B0F0BDD4D4B0B502AF86B004460A
:100CE000009101920748011D03AD0022062328460A
:100CF000FFF79EFF0F222046294607F0FDFC06B0B5
:100D0000B0BDC04630070020F0B503AFF9B01446BF
:100D10000C910890052081010EAD28460FF00DFFC3
:100D2000002108262846099132460FF0F2F9FB4AC5
:100D300033460FF088FAA0B20D907D21CD002946F0
:100D400010F07EFB07950B904543651BA8B2642607
:100D5000314610F075FB04460A964643A81BC0B204
:100D60000A26314610F06CFBED490D9A8A421ED9D5
:100D700076AA2E2191703025284310712C43D4700F
:100D800014460B98C0B20A2110F0F0FC29436170A0
:100D9000E4490D9810F054FB2843207025460EA816
:100DA00008210D2422460FF0B4F9052311E0DE4995
:100DB00076913021084376ADE8700C43AC700B9807
:100DC000303028700EA808210C2422460FF0A1F91B
:100DD00004232A460FF037FA254608350EA8214687
:100DE0002A460FF096F9D14A08230FF02CFA5EA894
:100DF000099901815F915E91FF203A3006900C982D
:100E00002246847A002C2CD00D950925002C11D077
:100E10000A2D01D300F064FD2046314610F010FB8E
:100E200031464143611A30220A435EA94A556D1E7C
:100E30000446EBE7691C5EA80FF031F904460D4645
:100E40000D996E1806980830864216D20EA83246C2
:100E50000FF05FF922462B460FF0F5F9079D344657
:100E60000DE009320EA8294614460FF052F9B04A97
:100E700001230FF0E8F9079D04E00C46079D069852
:100E8000844209D2214608340EA822460FF041F9C7
:100E9000A84A08230FF0D7F90B940C9804890594FD
:100EA0002046294610F0CCFA07904543651BA8B2AE
:100EB0000A9E314610F0C4FA04464643A81BC0B24D
:100EC0000A210D9110F0BCFA059A95498A4221D960
:100ED00076AD2E21A9703026304328713443EC7052
:100EE0009049104610F0ACFA304328700798C0B211
:100EF0000A2110F03BFC314369700698C01C0B9925
:100F0000814221D24E1D0EA832460FF002F976AA78
:100F1000052316E0844976913021084376AAD070E3
:100F20000C4394700798303010700698001D0B9990
:100F3000814209D20E1D0EA832460FF0EAF876AAB9
:100F400004230FF080F900E00E460698801C0790FD
:100F500086420AD2B21D0EA831460A920FF0D9F885
:100F6000754A06230FF06FF900E00A9661A8099907
:100F70000181629161910C980468002C0B9427D038
:100F80000926002C11D00A2E01D300F0A9FC20461E
:100F90000D9D294610F054FA4543611B30220A4347
:100FA00061A98A55761E0446EBE7711C61A80FF013
:100FB00076F805460C460A99661806980830864267
:100FC00015D20EA832460FF0A4F82A4623460BE0AD
:100FD0000698C51D0A99A9421BD24E1C0EA832467E
:100FE0000FF097F8524A01230FF02DF900E00E465A
:100FF000B51D06980830854209D20EA831462A460A
:101000000FF087F84D4A06230FF01DF900E0354632
:101010000B9C64A809990181659164910C984668BC
:10102000002E2CD00A95354609260C95002D11D09E
:101030000A2E01D300F054FC28460D9C214610F0E6
:10104000FFF94443291B30220A4364A98A55761EBE
:101050000546EBE7711C64A80FF021F804460E4624
:101060000A99751806980830854217D20EA82A46A4
:101070000FF04FF8224633460FF0E5F80FE00698E0
:10108000C01D85420DD229466D1C0EA82A460FF0C0
:1010900040F8274A01230FF0D6F802E00D460B9CDA
:1010A0000C9EEA1D069808300A90824209D20EA8CA
:1010B00029460C920FF02DF8214A07230FF0C3F8B0
:1010C00000E00C9567A8099D058168956795B44275
:1010D00015D9A51B0926002D34D00A2E01D300F006
:1010E00001FC28460D9C214610F0AAF94443291B17
:1010F00030220A4367A98A55761E0546EBE7069813
:10110000C01D0C99814231D24A1C0EA814460FF022
:1011100000F8074A01230FF096F82BE0A619010802
:101120000F27000010270000302E30301E19010854
:101130000C1C01086E1901080D1C0108131C010884
:10114000191C0108711C67A80EF0A9FF05460E4680
:101150000C9972180A9882420AD20EA814460EF010
:10116000D8FF2A4633460FF06EF802E00C4601E045
:101170000C46099DF848C17800292FD0014630312E
:1011800011228A560B920E228A560592428F038FA5
:101190000393006B00904E7DC87C0190887C049086
:1011A0000D7C214610340A988442029208D20EA87F
:1011B00022460EF0AEFFF14A10230FF044F821460C
:1011C000F0070DD00698001D814224D20E1D0EA8F6
:1011D00032460EF09EFFEA4A04230CE02146EFE27D
:1011E0000698C01C814216D24E1D0EA832460EF043
:1011F00090FFE44A05230FF026F8079886420CD2A8
:10120000B21D0EA8314607920EF083FFDE4A062378
:101210000FF019F802E0079100E007966AA8002194
:1012200001816B910C916A91002D25D00926002D2A
:1012300010D00A2E00D351E328460D9C214610F011
:10124000FFF84443291B30220A436AA98A55761EB7
:101250000546ECE7711C6AA80EF021FF04460D4616
:1012600007996E180A98864215D20EA832460EF0DB
:1012700050FF22462B460BE00698C01D079981427D
:1012800009D24E1C0EA832460EF043FFBF4A01237E
:101290000EF0D9FF00E00E46059C31460C310A984D
:1012A00081420AD20EA80A46314607920EF031FF5B
:1012B000B74A0C230EF0C7FF00E00796002C2FD48E
:1012C00076A80C99018177917691002C37D0092668
:1012D000002C10D00A2E00D300E320460D9D294695
:1012E00010F0AEF84543611B30220A4376A98A55B7
:1012F000761E0446ECE7711C76A80EF0D0FE04467C
:101300000E46079975180A98854254D20EA82A46A7
:101310000EF0FFFE224633460EF095FF2E464BE0C0
:101320000698C01D0799814216D24A1C0EA8079242
:101330000EF0EFFE974A01230EF085FF0DE00698B0
:10134000C01D0799814236D24E1C0EA832460EF0BF
:10135000E0FE8E4A01232BE0079176A80C990181CB
:101360007791769164420925002C10D00A2D00D384
:10137000B4E220460D9E314610F062F84643A11BB0
:1013800030220A4376A94A556D1E0446ECE7691CD3
:1013900076A80EF084FE04460D4607996E180A984A
:1013A000864208D20EA832460EF0B3FE22462B46E5
:1013B0000EF049FF00E00E4635460A350A98854290
:1013C00009D20EA831462A460EF0A3FE724A0A231D
:1013D0000EF039FF00E035460B9C002C23D476A894
:1013E0000C99018177917691002C2CD00B950925D1
:1013F000002C10D00A2D00D370E220460D9E3146FD
:1014000010F01EF84643A11B30220A4376A94A5524
:101410006D1E0446ECE7691C76A80EF040FE0446FB
:101420000E460B993EE00698C01D854218D26A1CF4
:101430000EA8294607920EF06CFE564A01230EF0C4
:1014400002FF0B9C0DE00698C01D854238D229464C
:101450006D1C0EA82A460EF05CFE4C4A01232BE0C0
:10146000079576A80C9901817791769164420925B8
:10147000002C10D00A2D00D330E220460D9E3146BC
:101480000FF0DEFF4643A11B30220A4376A94A55DE
:101490006D1E0446ECE7691C76A80EF000FE0446BB
:1014A0000E46079975180A98854208D20EA82A4652
:1014B0000EF02FFE224633460EF0C5FE00E00D462C
:1014C000EA1D0A98824209D20EA829460B920EF014
:1014D00020FE324A07230EF0B6FE00E00B956DA801
:1014E0000C9901816E916D91049C002C25D00925E9
:1014F000002C10D00A2D00D3F0E120460D9E31467D
:101500000FF09EFF4643A11B30220A436DA94A55A6
:101510006D1E0446ECE7691C6DA80EF0C0FD044684
:101520000E460B9975180A98854217D20EA82A46BE
:101530000EF0EFFD224633460BE00698C01D0B99D6
:1015400081420BD24D1C0EA82A460EF0E2FDE64A5F
:1015500001230EF078FE02E0080B00200D462A461B
:101560000A320A9882421BD20EA829460B920EF02C
:10157000D0FDDE4A0A230EF066FE12E0601C010870
:1015800098180108801C0108851C01080C1C010822
:101590008B1C0108971C0108981C0108A21C01085B
:1015A0000B95039870AA0C99118171917091002884
:1015B00024D0092500280FD00A2D00D38EE10D9EDE
:1015C000314604460FF03CFF4643A11B30220A433C
:1015D00070A94A556D1EEDE7691C70A80EF05FFDFD
:1015E00004460E460B9975180A98854215D20EA826
:1015F0002A460EF08EFD224633460BE00698C01DAB
:101600000B99814209D24D1C0EA82A460EF081FD8D
:10161000B54A01230EF017FE00E00D462C460C34AF
:101620000A98844209D20EA8294622460EF071FD7E
:10163000AF4A0C230EF007FE00E02C4601980DF097
:10164000FBFD02460D190A9885420BD20E460EA8E4
:10165000214614462A460EF05CFD224633460EF023
:10166000F2FD00E025462A460F320A98824209D24E
:101670000EA829460B920EF04CFD9E4A0F230EF049
:10168000E2FD00E00B95029873AA0C991181749108
:101690007391002824D0092500280FD00A2D00D3EB
:1016A0001CE10D9E314604460FF0CAFE4643A11BC5
:1016B00030220A4373A94A556D1EEDE7691C73A8D1
:1016C0000EF0EDFC04460E460B9975180A988542FB
:1016D00015D20EA82A460EF01CFD224633460BE01A
:1016E0000698C01D0B99814209D24D1C0EA82A46AE
:1016F0000EF00FFD7C4A01230EF0A5FD00E00D4623
:1017000029460E310A9881420AD20EA80A46294675
:101710000B920EF0FEFC784A0E230EF094FD00E0D2
:101720000B9576A80C99018177917691009C002CFD
:1017300025D00925002C10D00A2D00D3CEE020465C
:101740000D9E31460FF07CFE4643A11B30220A431A
:1017500076A94A556D1E0446ECE7691C76A80EF082
:101760009EFC04460E460B9975180A98854215D2C0
:101770000EA82A460EF0CDFC224633460BE0069812
:10178000C01D0B99814209D24D1C0EA82A460EF0AD
:10179000C0FC554A01230EF056FD00E00D466A1CC0
:1017A0000A9882420AD20EA8294614460EF0B1FCCD
:1017B000524A01230EF047FD214600E02946099DCB
:1017C000CC1D0A98844208D20EA822460EF0A1FC35
:1017D0004B4A07230EF037FD00E00C460C951C2DFC
:1017E0005AD00898465B0C9800280DD0621C0A98C5
:1017F000824209D20EA821460B920EF08AFC0123E8
:10180000404A0EF020FD00E00B9476A800210181F3
:1018100077917691002E28D0079109950925002E01
:101820000FD00A2D51D230460D9C21460FF008FEF4
:101830004443311B30220A4376A94A556D1E0646A1
:10184000EDE7691C76A80EF02AFC05460E460B99BA
:1018500074180A98844216D20EA822460EF059FC3B
:101860002A4633460EF0EFFC0EE00B994C1C0A980A
:1018700084420BD20EA822460EF04BFC01231A4ADA
:101880000EF0E1FC03E00C46099D00E00C460C98CC
:10189000401C0C90AD1CA2E7251D0A98854209D278
:1018A0000EA821462A460EF034FC174A04230EF0F7
:1018B000CAFC04E00698C21D94420BD825460EA827
:1018C000294600F011F979B0F0BD0798C0430A210C
:1018D0000EF040FE002021460EF034FE0C98F5E795
:1018E0000998F3E70020F1E70C1C0108A91C010886
:1018F000B31C0108BF1C0108CE1C0108DC1C010838
:10190000DD1C010845180108EC180108F0B503AF0B
:1019100097B005A8402101910FF00FF94D4DD42249
:101920004B4B98588026311A1C8FA14229D204961D
:10193000D02103915E58311A8031A14201D2324642
:1019400040E0802E029203D1049E009603990FE09E
:1019500031467F2E049E77D8421A184650304118DF
:101960000FF0DDFC3A4B0298185803995A58009230
:1019700000225A500099401A029A9850311AA142F6
:101980005BD3164601191A4650321C4680230FF0CD
:1019900046F802460B462146343115AC20460BF082
:1019A00039FF2078012804D16178002901D1002075
:1019B00002E000283AD11698254B995908189851F9
:1019C000D0215A58904231D0861A402E00D3019E21
:1019D000B1182DD281292BD2039105A9049140245D
:1019E0003046029222461C460EF0BBF9029AA2181B
:1019F000503233460EF027FCD02003992150049832
:101A000031460EF02BFB002989D0C023EA58561C22
:101A10007F243440C426AE59B44204D07F2A0FD864
:101A20000678AE54EC50401C491EECE717B0F0BDF0
:101A3000802310461A460EF085FD45200EF086FDE7
:101A4000802110460EF086FD084680210EF082FDB2
:101A50004C0000202C08002080B500AFEFF310816F
:101A600072B60248006881F3108880BD000B002028
:101A7000FEB506AF02460368406883422AD0581C70
:101A8000106019784CB20120002C2BD59C1C1460DE
:101A90005E783F24019426401F240C40E0291BD38C
:101AA0000094DD1C15609C780294019D029C2C40E2
:101AB0000294B601029C3619F02910D3191D116049
:101AC000D978019A1140B2015118009A5207D20AEE
:101AD000891807E0002005E0A101891902E00099BA
:101AE0000903711803B0F0BDF0B503AF89B00A4621
:101AF000069001200290400208900026059196422F
:101B000057D2304606990EF035F907900C46B720AB
:101B100085002B4B585908990A1A94422AD95B21FF
:101B2000C90004915958029B5B02994204D00029D4
:101B3000089B07D1224B1DE0089903912946204DAF
:101B4000049B0EE00195994235D2421A1C4D28465D
:101B5000D83041180FF0E3FB01996858049BEA580C
:101B600003920022EA50039A801A6850089A121AC7
:101B70002B460D46944200D31446002C0DD021185C
:101B8000D8331A46089B0EF04AFF079A23460EF0F8
:101B90005AFB0B4B58590019585118460BF056FF79
:101BA000002C059A05D0A619401EC0B240087E2818
:101BB000A5D809B0F0BD084608990EF0CBFCC04688
:101BC0004C000020F8B504AF0091456801220021C7
:101BD000402D164600D30E460368802B144600D3D2
:101BE0000C463440382129400901009E711807260F
:101BF0002E40B240D5430095057A2846EDB2022D1D
:101C00000BD00225002CF8D0CE5CC00702D1009882
:101C1000064000E01643CE54EFE7F8BDF0B503AF41
:101C2000E1B01F914268E7498A420C92079200D3C3
:101C30000791417C0691017C0E9101680B91017A1C
:101C400012914EA90A461C320A922431149140A9DD
:101C500024310391C1682291C17C1E91817C16912F
:101C6000417A119141691B9181691891C169109163
:101C7000006A1D9007200F90C0010D9000260120E2
:101C800020901C9615961598C00700D002E3189C6A
:101C90001C9819968442054666D31B984019611B0F
:101CA000072907D80023994258D0C25C0A2A44D099
:101CB0005B1CF8E7C21C03239A43121A05D11C953A
:101CC0001A9108392191002210E00023C45C0A2CEB
:101CD00007D05B1C9A42F9D11C951A9108392191C1
:101CE00002E0189C199E28E08A4213D88418646880
:101CF000B5494C40B54B1D1B2543845826464E40E4
:101D00009E1B2643B2490E402E408E4202D108321D
:101D10002199E9E71A99914229D080181899891ACE
:101D20001C9D4B1B0021199E445C0A2C03D0491CAE
:101D30008B42F9D11CE08B18189CED180020691C0F
:101D4000A8D0A1420846A5D81B98405D0A2808469D
:101D5000A0D10020159017911C910EE017961C94AD
:101D600020981590254608E01C951796F8E7199ECF
:101D70001796189D1C95209815901B9880191A90FD
:101D8000AE1B129800281D9C109829D0129801288B
:101D900016D10096119801904EA822990E9A1A9B7E
:101DA0000EF003F95398C10F401840101D990C1AFA
:101DB0005298401EC10F401840101099081A0FE0A9
:101DC0000096119801904EA822990E9A1A9B0EF037
:101DD000ECF853981D990C1A52981099081A401C47
:101DE00021902298C0690C99484364210FF028FB88
:101DF00001460B98002800D1079919988542139144
:101E000001D1002505E0751E1A98405D0D2800D00F
:101E10003546229811990BF00DFA201A1990169850
:101E200002280FD11E98022800D099E022998869D3
:101E3000096A0C181A9841190DF0A9FC6043219900
:101E40004518EAE11E98022800D031E12298026A82
:101E50008169199800901A980190029540A8219BD9
:101E60000BF0CBF95EA840A90DF0ACFC609A501CB9
:101E700000D1D1E15748101A00D200205E9D002801
:101E800002D00128EED0C8E15F981A9033A82299B9
:101E90000EF07BFB369C60426041379E002E2099FD
:101EA00000D001460029DDD134980028DAD4359BD2
:101EB000002BD7D4339A0119099292680892914263
:101EC000D0D89A190999C9688A42CBD8099A116859
:101ED0000491516805910899C91D0F9A91430A1BF5
:101EE0004B43181800960190029223A80990049978
:101EF000059A23460BF050FC319630941A982F9097
:101F00002E952BAC169820704EA82EAA09990DF08C
:101F100019FC5C943AAC4EA920460EF029F8207AC0
:101F20000028F7D002289DD03A997F29F2D83B9B10
:101F30003F2BEFD818010F9A134001229A400D9BB6
:101F4000184008435C990978002904D01F9B195C4C
:101F500011431954DEE71F9B195C91431954D9E7CB
:101F60002298026A8169199800901A980190029546
:101F700040A8219B0BF041F95EA840A90DF022FC7E
:101F8000609A501C00D147E1C348101A00D20020CB
:101F90005F995E9D00281FD0012800D03DE1229866
:101FA000006A0028E8D050904F914E952298C06961
:101FB000519001221E9802404EA91F980EF00FF971
:101FC000DAE7C046FFFFFF7F0A0A0A0A00010101A3
:101FD00080808080FFFF10001A9133A822990EF0B4
:101FE000D4FA369C60426041379E002E209900D082
:101FF00001460029C0D134980028BDD4359B002B60
:10200000BAD4339A01190992926808929142B3D8CE
:102010009A190999C9688A42AED8099A1168049137
:10202000516805910899C91D0F9A91430A1B4B43AA
:10203000181800960190029223A809900499059A15
:1020400023460BF0A9FB319630941A982F902E95C9
:102050002BAC1E9820704EA82EAA09990DF072FB89
:102060005C943AAC4EA920460DF082FF207A0028FD
:1020700002D00228F5D17FE73A997F29F1D83B9B1E
:102080003F2BEED818010F9A134001229A400D9B66
:10209000184008435C990978002904D01F9B195CFB
:1020A00011431954DDE71F9B195C91431954D8E77C
:1020B0002298026A8169199800901A9801900295F5
:1020C00023A8219B0BF099F82BA823A90DF07AFBEC
:1020D0002D9A501C00D19FE06F48101A00D20020AA
:1020E0002C992B9D002814D0012800D095E022982F
:1020F000006A0028E8D050904F914E952298C06910
:10210000519001221E9802404EA91F980EF067F8C8
:10211000DAE71A912EA822990EF037FA319C604224
:102120006041329E002E209900D001460029CBD17B
:102130002F980028C8D4309B002BC5D42E9A0119A3
:102140000992926808929142BED89A190999C96871
:102150008A42B9D8099A1168049151680591089981
:10216000C91D0F9A91430A1B4B4318180096019002
:10217000029233A809900499059A23460BF00CFBB0
:102180003D963C941A983B903A953EAD169828702F
:102190003FAE1E9830703AA903980EF01BFC40AC7D
:1021A0001C22204609990EF017FD489547964EA827
:1021B000382221460EF010FD00205D905C905EA854
:1021C00014990DF01CFF5E98012800D07CE7609DFB
:1021D0005F9C4EA80DF09CFDC1B2022900D173E7AF
:1021E0007F2CECD83F2DEAD828010F9A1540012208
:1021F000AA400D9B1840204389000A9B5958097832
:10220000002904D01F9B195C11431954D7E71F9B69
:10221000195C91431954D2E7219D179E139A1D987A
:1022200010181D902198854200DC2CE52C1A069888
:10223000169906F06CFAC2B2022A0FD05094219877
:102240004E902299886AC96A5191199940184F9005
:10225000012002404EA91F980DF0C1FF0E9816995B
:1022600006F055FAC2B2022A179D2E46219800D1D7
:1022700009E550944E902299086B496B5191199938
:1022800040184F90012002404EA91F980DF0A7FF63
:102290002E46F8E461B0F0BDFFFF1000F0B503AFCB
:1022A000D5B00191036842688568C46821460A92E6
:1022B00051402A465A400A430B9310940F9501D07F
:1022C000064600E08A4E417D0D91046931A83146F1
:1022D0000EF08AF932687068B368F1681646529059
:1022E00051921193D21A121854920D1AA8195390A0
:1022F00012A851A90EF078F90B980F99081AC11776
:102300004840411A0A98109A101AC2175040801A71
:10231000884200DC0846002C01D102210D91119A5F
:1023200074498C4200D30C46401C0E90640012ABE2
:10233000743338A86030089001201090C00702D094
:1023400064430020FAE7961B1098C00702D076433A
:102350000020FAE71098C00702D06D430020FAE78A
:102360003598079036980690329804901598059005
:10237000149803903198029038A80C9031A91C222F
:1023800011920F930EF028FC0C981C3012A9119A90
:102390000EF022FC01201190089B987000200990FB
:1023A0001870029840420399484004994942059A9E
:1023B00051400143484248415870A819444347944A
:1023C000079806994018C10F401840104690099D83
:1023D0004F954E950A9E4D960B9C4C944B954A9565
:1023E0004996489451A80C992A460EF025F916955D
:1023F0000E98159014951396129412A81430642216
:102400000E900C990EF090FF2B460F9A0D991171BA
:1024100028460D91C9B2022967D000282FD12598EE
:102420001099C90702D040430021FAE72699884253
:102430005BDC927831A80E990EF0FEF83198C10756
:1024400001D1442100E0402112AA5158259A511887
:102450002591349B339E329C0F9A1178002905D127
:1024600091781D46119B59402B46917014931396F9
:102470001294119908401599081A1690CDE7401E3C
:1024800016901D998B4206DD1C995B1A1A997118DA
:10249000199AA51801E0314625461A46189B5E1880
:1024A0001396179B5C1912941B9BD31814937F2DC2
:1024B00018D8402916D209930B9407240C40119B7D
:1024C000A34038240C40210129430D9AD20703D0A0
:1024D000019C625C1A4302E0019C625C9A43625474
:1024E0000B9C099B0F9A117993E755B0F0BDC0463C
:1024F000401C0108FFFFFF7FF0B503AF9DB00D4604
:102500000646847D002C08D0012C0CD13069401C7B
:1025100001D30020C043400806E030693F498842AB
:1025200002D3084600E00020424205A831460EF0E2
:102530008AF9327D022A05D00120024005A92846E9
:102540000DF04DFE707D022865D03169002962D002
:10255000002C03910495029008D0022C05D12F483D
:1025600081420C4602D3044600E04C0809A83146DB
:1025700022460EF068F90B9C0F940A9E0E96099B5A
:102580000D930C984508039AAA4200D81546109559
:1025900013941193411B914200D31146009401936F
:1025A0001491401A00D20020801912900120029C40
:1025B00004400DA90296049E304622460DF00FFEFF
:1025C00011A93046264622460DF009FE089800283B
:1025D00021D01890029969181691039A5300009C13
:1025E000621C9A4200D31A4652081792019B159317
:1025F0001C901B921A91A01A049C00D20020C018B3
:10260000199015A9204632460DF0E9FD19A920467A
:1026100032460DF0E4FD1DB0F0BDC046FFFFFF7F68
:10262000F0B503AF87B00291054680B203907D21DB
:10263000CE0031460EF004FF01904643AC1BA0B221
:10264000642631460EF0FCFE05464643A01BC0B290
:102650000A210EF0F5FE2049039A8A421DD956211F
:10266000029C61712E21A1703026304320713543C8
:10267000E5700198C0B20A210FF078F8314361701B
:10268000174903980EF0DCFE3043207004A80622A0
:1026900021460DF09BFE052511E0562202990A7194
:1026A0002E224A7030221043C87015438D70019855
:1026B0003030087004A805252A460DF087FE0498DE
:1026C000002802D1059802D002E0044800D1069DFE
:1026D000294607B0F0BDC0460F270000061D0108BF
:1026E00010270000F0B503AF85B0049104462849D7
:1026F000884200D30846039026490EF0A1FE3026FA
:10270000202225498C4201940296009201D810465D
:1027100000E03043049D28700A24039E3046214681
:102720000EF08EFE21464143711A029E31432971FB
:1027300021460FF01BF8019D092D02D8009E31465D
:1027400001E03143009E0498C170642103980EF0AB
:1027500077FE21460FF00AF8632D01D8314601E0DB
:1027600002980143049881707D20C10003980EF007
:1027700067FE21460EF0FAFFE8087C2801D83146B2
:1027800001E0029801430498417005B0F0BDC046D5
:102790009F860100102700000F270000FEB506AF3E
:1027A0000C4600B2092801DC202100E02B21082280
:1027B000D243904200DA2D2121700A2529460EF0DD
:1027C00067FF01B2C9134840461AB1B2632907D95D
:1027D000252020713020E070A0703120607017E05B
:1027E0002020607009290DD925202071F0B22946DA
:1027F0000EF026FE302145430843A070701B0843AD
:10280000E07005E025212171A07030200643E670BC
:102810006846052221460DF0D9FD032100980028C5
:1028200002D1019802D002E0024800D1029903B01F
:10283000F0BDC0460B1D0108F0B503AF8C4EB5448A
:102840008C48684461908C48684462908B48684426
:1028500078908B4A6A448B48684469900B20679053
:10286000C004894B5969014359613F206F900003AF
:10287000864B1968814315205F9000030818186083
:102880000120809000027D90C0309861804B1868D4
:10289000804908401860D86808405521090640184A
:1028A000D8607D4908683024A0430860C8681023B8
:1028B0007F931843202331939843C8607749694434
:1028C0000846403075908C316D91754868442830C9
:1028D00050907448002802D000BF401EFAE7729260
:1028E0007D2077900001829000263546052E0ED07F
:1028F0000BF0B0FF8299002902D000BF491EFAE711
:10290000C0434221084200D16D1C761CEEE7032D26
:1029100001DB0CF003F86448401C5B4B1968014371
:10292000196080984204614E314608461968114288
:1029300002D1411C0028F8D16C920028554D28D0B6
:102940005B481121016058685A4A02400804101877
:102950005860681C1968014319603046196889017C
:1029600003D4411C00280846F8D1586802210143CD
:10297000809881435960304659680C220A40082AE1
:1029800003D0411C00280846F6D1186B8021014372
:1029900019634948016829400322719292078918F6
:1029A000016046484649416000258560072137910E
:1029B00001608098810286A80EF0BFF81F20800475
:1029C000314A5169014351613E4A10683E4908400D
:1029D0003E49401810603E4B18683E4908403E4949
:1029E00040185E3018602A4A10683C4901403C4853
:1029F00008181060284908684022859210438022F8
:102A00007A92904308603748214988613648986136
:102A10003648401C98617D98F430002802D000BFF1
:102A2000401EFAE77F982A4988617D98F430002893
:102A300002D000BF401EFAE7809BD804339024499F
:102A40008861204A5069E22101431D200B90814397
:102A500051617A980E49886100BFD80579908861E4
:102A600023480146002945D000BF491EFAE7C04669
:102A7000ECE3FFFFF01B0000701B00003C110000A6
:102A8000B4100000180600000010024000080048C2
:102A9000000C0048FFFFFF0000140048240600005F
:102AA000581B0000409C0000FFFF00006079FEFF03
:102AB00000200240FCFFC0FF20ED00E010E000E03D
:102AC0007FBB0000001000480000FFFF55550000CC
:102AD000000400483FF0FFFFE2040000CF3FFFFF8B
:102AE000104000008000040018002000FFFF0F00CD
:102AF00010270000339BE2498B61E2494969AE220D
:102B00008492114351229143DE4A5161DE497A9AFF
:102B10008A6100BF799A8A61D9498B61D94B596919
:102B2000A4220A435B218A435A617A99D64A916169
:102B300000BF799B93613399D14A9161D149496929
:102B4000A3220A435C212C918A43CE494A617A9997
:102B5000CD4A916100BF93613399C94A9161C94BD4
:102B60005969C0225E9211436F9A914359617A9BD1
:102B7000C54A936100BF799991613399C04A9161C7
:102B8000C0494969A1220A435E218A43BD494A617D
:102B9000BD498B6100BF799A8A61B949339B8B61CA
:102BA000B84949692F2276921143D0223492914339
:102BB000B44A51617A99B44A916100BF799991619F
:102BC000AF498B61AF4B5969232243921143DC22F9
:102BD00091435961AC497A9B8B6100BF799B8B61B2
:102BE000A749339A8A61A7494969812260921143B2
:102BF0007E229143A34A51617A99A34A916100BF11
:102C000093619F49339B8B619E4B596925220A43EF
:102C1000DA218A435A619C497A9B8B6100BF799A79
:102C20008A619749339A8A6196494969859A11431D
:102C3000BF229143934A5161934A936100BF7999AE
:102C40009161339B8E498B618E494969B0220A4359
:102C50004F218A438B494A618B497A9A8A6100BF26
:102C6000799A8A6186498B61864B59690422279239
:102C70001143FB229143596183497A9B8B6100BFC9
:102C8000799B8B6133997E4A91617E4949697F9A2C
:102C90001143EF2291437B4A51617A997A4A9161BB
:102CA00000BF93613399764A916176494969AF22B1
:102CB0005C921143502266929143724A51617A9913
:102CC000714A916100BF9361002802D000BF401E8D
:102CD000FAE76E4AD06902210143D16171988004FC
:102CE0006B4A11688143339801431160506AF021A7
:102CF00088435062674976988862C5206390830054
:102D00006E93D333CB620B640D200990C002C8616F
:102D100080980203086A7E92104308628098486196
:102D20006098086008225C484992826135930B6480
:102D3000564A5069594901435161809B5802916933
:102D40000143916109202A90C20610685449084342
:102D50001060D068534908406A92D06048480168C2
:102D60000F2211430160C16883929143C160484AB8
:102D70001168719801431160D1688143D160DA070D
:102D800049490A610B608B600A68D20703D1721C43
:102D9000002E1646F8D1829A2F328A62379A4A61FB
:102DA0008098C860414A95600B4640331361404BA0
:102DB00018335361679BD3603E4890608E68279BB1
:102DC0001E438E603C4E13689B0703D4731C002E79
:102DD0001E46F8D14C263948622E06D0344B9B193A
:102DE000343B1B888353B61CF6E783985060182049
:102DF0003090086095606798D0602E489060886831
:102E0000279A104388602E48016840682D4E2E4A4C
:102E1000914269D1C01E022866D22C4C6C442046D7
:102E200041303F210EF0D8FB002085996054699C09
:102E30002749E1622749216327496163274AA26341
:102E4000274AE26326646264A664264E809A1204CE
:102E500004231D4DE56023616261A661E1611F49A4
:102E600021621B4961621B49A162802800D197E061
:102E700013490958154A6A441150001DF5E7C04628
:102E80000004004800100048000C004800100240F8
:102E900000080048000400400014004801000E0033
:102EA000FFFF00000000FFFF00240140000002407F
:102EB000080B002081250000C0F2FCFF70060020F6
:102EC00000F001089E0F0000594B534624060000F5
:102ED000D40100082C0E00007A010008860E0000C4
:102EE000620000080A2C2500EC48016883914068C4
:102EF0008190EB4E6E44304641303F210EF06CFB2A
:102F000085983554699AE748D062E7481063E748E6
:102F10005063E7489063E748D063E7491164506421
:102F2000916480980104E548D060279B1361819BE0
:102F30005161E3499161DD49D161DD491162D949AE
:102F40005162D94991628399814229D1581E012841
:102F500026D81036202D08D0D0484019C1687151AC
:102F60007119006948600835F4E7CC4A402C0AD052
:102F70001019001F0068CA496944085108191159FD
:102F800041600834F2E7022B0AD1CE480178C44AE6
:102F90006A445172417891728178D172C07810730D
:102FA000BF4868440BF054FE0025859528462E4600
:102FB000102D17D08390C44C6C4420460AF0FCFEC0
:102FC000C248431CE28861882088002B02D000BFE1
:102FD0005B1EFAE7859B9B188593761883990818E2
:102FE0006D1CE5E70309BA48181884B23109E120DD
:102FF0006890800081906530B64A844201D2B64C18
:103000006381859B1B098C18A4B2844201D2B24C07
:10301000E182991889B2814202D24620AE490B5210
:1030200000206999C86008614861AC490C2805D046
:10303000425C9B4B6B441A54401CF7E79848684429
:10304000C47A817A8591417A7B91017A8391C179A1
:103050007391817970914179659101796B91C17812
:10306000649181785B9141785A9105780BF0F2FB7D
:1030700074902A9880049A4A516901435161906979
:10308000984901439161984A106880B29749401865
:1030900010606F988006916801439160506A94496E
:1030A00008409449401850627E989061924890611F
:1030B00092489061924A106830215791884310607D
:1030C000D0687F99084331998843D0608D4AC032D7
:1030D0008D48016811407D9A114301608B48016859
:1030E000279A114301608260894E002131606E98F9
:1030F000306017225D921202089272604030306098
:103100007698C0437C902030B268D20704D0002863
:1031100002D0327B401CF7E75A98000240195B9AB4
:1031200012048018649A12068018659A12026B9B2A
:10313000D218709B1B04D218739B1B06D2184240F6
:103140007B980002839BC018859B1B04C018230634
:10315000C0185040739058486230749A46900240AC
:103160005292809800078390052900D1D6E00C4642
:10317000684B1846B168090603D5411C002808466B
:10318000F8D159488399816100BF00BF1846B168E2
:10319000090603D5411C00280846F8D11846B16835
:1031A000890703D4411C00280846F8D1A0253573AF
:1031B0001846B168C90703D1411C00280846F8D158
:1031C000307B1846B168090603D5411C0028084623
:1031D000F8D100BF00BF44487E99816100BF00BFA5
:1031E0008298002802D000BF401EFAE70020014666
:1031F0000BF048FF7798C001002802D000BF401EA6
:10320000FAE70B2019210BF03DFF0C2001210BF0F8
:1032100039FF35483849816110200BF0CDFE3E4919
:1032200048713C4B1946B268120603D54A1C002966
:103230001146F8D12C49839A8A6100BF00BF194614
:10324000B268120603D54A1C00291146F8D1194666
:10325000B268920703D44A1C00291146F8D135738D
:103260001946B268D20703D14A1C00291146F8D189
:10327000317B1946B268120603D54A1C0029114653
:10328000F8D100BF00BF18497E9A8A6100BF00BF15
:10329000611CC0B29E2842D066E7C04600F8010813
:1032A00024060000D40100082C0E00007A0100085A
:1032B000860E0000620000089E0F0000594B534626
:1032C0000A2C25003CF8010858110000B70B00003B
:1032D00024FAFFFF24FA000070060020ACF7FF1F5D
:1032E000001002400110020000100048000055A923
:1032F000FFFF0F000000101100030003000400088E
:10330000000400483FF0FFFF080001400C040140AA
:1033100000300140F0D8FFFF080B00200524E048F2
:10332000B168090603D5411C00280846F8D1DD48DC
:103330008399816100BF00BFD948B168090603D5F0
:10334000411C00280846F8D1D548B168890703D444
:10335000411C00280846F8D106200E903073D04852
:10336000B168C90703D1411C00280846F8D1307B59
:10337000CB48B168090603D5411C00280846F8D19E
:10338000C748B168890703D4411C00280846F8D112
:10339000542007903073C248B168C90703D1411C5B
:1033A00000280846F8D1307BBD48B168090603D52E
:1033B000411C00280846F8D1B948B168890703D4F0
:1033C000411C00280846F8D175203073B448B16814
:1033D000C90703D1411C00280846F8D1307BB0480A
:1033E000B168090603D5411C00280846F8D1AC484D
:1033F000B168890703D4411C00280846F8D16398B6
:103400003073A748B168C90703D1411C002808469A
:10341000F8D1307BA248B168090603D5411C0028C9
:103420000846F8D19E48B168890703D4411C00289A
:103430000846F8D12A20429030739948B168C907EC
:1034400003D1411C00280846F8D15B94307B944A94
:103450001046B168090603D5411C00280846F8D17A
:1034600000BF00BF8F487E99816100BF00BF00246C
:103470008D4D322C08D0295DFF2903D020460BF05A
:1034800001FE874A641CF4E71046B168090603D5BB
:10349000411C00280846F8D182488399816100BF09
:1034A00000BF1046B168090603D5411C0028084634
:1034B000F8D11046B168890703D4411C002808469A
:1034C000F8D1A02030731046B168C90703D1411C60
:1034D00000280846F8D1307B1046B168090603D5AC
:1034E000411C00280846F8D100BF00BF6D487E99F6
:1034F000816100BF00BF0220012154910BF0C2FD89
:10350000674C02200BF058FDC00703D0601C002C54
:103510000446F6D124201321644C41905991A047D0
:1035200026203B2140902691A0470F200021859125
:10353000A04702200146A047594C02200BF03CFD59
:10354000800703D5601C002C0446F6D10F20A0256F
:103550006B9029460BF096FD022001460BF092FD80
:103560004F4C022080900BF027FD800703D5601C94
:10357000002C0446F5D125200A213F9064910BF0E0
:1035800081FD4B48474988611F2016900BF072FD62
:10359000434A1046B168090603D5411C0028084675
:1035A000F8D140488399816100BF00BF1046B168DF
:1035B000090603D5411C00280846F8D11046B16819
:1035C000890703D4411C00280846F8D135731046FA
:1035D000B168C90703D1411C00280846F8D1307BE7
:1035E000B068000603D5501C002A0246F8D100BF7F
:1035F00000BF2C487E99816100BF00BF10202E9033
:103600000BF0DAFC01462B485A9141717898859A63
:10361000C261026242628262739B190E7B911546FF
:103620006800A907C90F08187B99401871990840CC
:10363000292170914843401C7F900F2D42D8521C85
:10364000C82A01D8052400E003247D98F430824282
:10365000859200D9012418484343184818188390CC
:10366000E84029210EF082F87F980818C1B20022A4
:1036700095420DD0124B6B449B5CCB1ADE17734006
:103680009B1BDBB2521C9C42F2D9859A839BD4E7E8
:103690000B49694448556D1C859A839BC0E7C04619
:1036A000F0D8FFFF001000485C25010885F00008F5
:1036B00000010003080B00200D6619005FF36E3C4B
:1036C00058110000FB4801684068FB4A9142FB4BDF
:1036D00011D1C01E02280ED2F648007A132800D35A
:1036E0001320C001F34908187A994458601E01213B
:1036F000C943884210D37C9C2F3419685868914282
:103700000AD1401E0228549806D2C0439C68611E0C
:10371000814201D37C9C2F340020E94A1C2804D02C
:10372000E84969440A52801CF8E7E7486844E749D9
:103730006CC86CC1E54D739828616C6128461830DF
:10374000E04969441C2265920DF046FA284634305F
:1037500011212F910DF0F1F9492100205891685461
:10376000611C4A1E914148220592A9544621839129
:103770006852452280990692A954D549086088600C
:10378000769A8A627E9AF73ACA620861549ACA6047
:10379000FF2229921304CF4A14689C43799B1C434F
:1037A0001460CD4CFF3413692340549CE40323433D
:1037B0001361CA4B2833CA4A1360549D0D605B994C
:1037C000052900D305465A98C0B29E38414241416E
:1037D0005298002804D054980E460AF095FA3146C3
:1037E00029435B91BF4A50696C9B18435061829892
:1037F0003030916901439161719A10046A9D296882
:10380000814319432960686A80990843099988436C
:103810006862B54976988862682088610A624C645B
:10382000002501207690000669990D604D60886042
:10383000AE486844294609F0B7FEA34C6C441426F0
:10384000002E08D0A9496944802220460DF06CFD65
:10385000761E8034F4E76998A54BC362A54A0263DB
:10386000A54B4363A54E8663A54CC463A54901647B
:103870004464816476990A048F4CC460279901617D
:103880007E924261A049024618324AC2984941627A
:10389000984981624021759811910DF04EF989483F
:1038A000684485908030052128914A028649694400
:1038B00053900DF039FD6898C0007F907D490868ED
:1038C0004968A04211D1C81E01280ED873915F9893
:1038D000C0017B9000207B9981427CD075490958BA
:1038E000784A6A441150001DF5E78598103085909C
:1038F000724801687B914068849069987C4BC362F0
:103900007C4901637C4E46637C4C84637C4AC26381
:103910007C490164426481646749C16027990161FF
:103920007E99416178498161C6610462436271494F
:103930008162402175980DF000F9539C142D0DD033
:10394000614E6E443046294609F02EFE8022204604
:1039500031460DF0E9FC80346D1CEFE756487B9949
:1039600081427F9E00D0ECE18498401E022800D363
:10397000E7E18098C143514B9868421E8A4201D8C2
:103980006D9908600020579C859D202811D019183A
:103990000A69C968295029184A600830F5E718599A
:1039A0001919091F0968474A6A44115111194860D9
:1039B0000834402CF3D18498022800D0BDE153484C
:1039C0000178404A6A445172417891728178D1728B
:1039D000C0781073B1E104206999374ACA60086160
:1039E00038486844407B232801D33C2803D9354814
:1039F00068442C21417333486844007A132803D962
:103A000030486844002101722E486844007B002839
:103A100001D00B2803D32B4868440A21017329489D
:103A20006844807B0F2801D3372803D92548684490
:103A30002521817323486844C07B032803D921488A
:103A400068440021C17375980078022802D30020D1
:103A50007599087000201B4A6A4420285AD02C49C6
:103A6000C93118280B4601D0154BC833002800D0A7
:103A700019461218134B6B441B185E8A148AB44201
:103A80000BD2104D6D442D18AD8AAE4205D2322CAA
:103A900003D31C4C3434A54209D97F9CF8345C8292
:103AA000631A1382074A6A4412180C43948208303E
:103AB000D1E7C04600F00108594B534600F8010811
:103AC000DC05000024060000581100000000002062
:103AD0000044014004E400E00000FFFF1800200063
:103AE00000E100E000100240002C0140581B0000E3
:103AF000D40100082C0E00007A010008860E000098
:103B0000620000089E0F00000A2C25003CF8010806
:103B1000AF0400007C9820307F9EF2496944002861
:103B200025D009184031EF4A6A4412184223D55A69
:103B30000B88AB420DD2EB4C6C4424184426A45B9A
:103B40007F9EA54205D2322B03D3E74B34339C42F0
:103B50000BD94232E34B6B441B184424E24D1D53F6
:103B600062230B803146F83111800830D5E7002000
:103B7000DC4E6E447E9080300246DA4969447B9880
:103B8000824200D1D5E07A928D187221695C0229B7
:103B900003D32946723100220A707321695C04291B
:103BA00003D32946733100220A707E98401C799015
:103BB0007C992D3100292BD07218A520135C1E2B67
:103BC00001D3652B03D31046A53064230370A820CE
:103BD000135C1E2B01D3652B03D31046A830839BA7
:103BE0000370AB2014566320C3439C4201DB652C59
:103BF00003DB1046AB3000240470849814569C42BA
:103C000001DB652C02DBAE3200201070491CD1E7CD
:103C1000A97D052901D30021A9753E21695C0429EC
:103C200003D329463E3100220A706F982956632239
:103C3000D243914201DB642903DD29463F31002252
:103C40000A70698E8198814202D3A848814202D9C4
:103C5000819964316986298F6A6B0A430CD12946A0
:103C6000343135220823AB540022AA87A048A86328
:103C7000A048E88607220A70B421BE2906D0725CEB
:103C8000192A01D900207054491CF6E77C980028B5
:103C900022D033181A46F03214780E2C0BD8F124A7
:103CA0001C5D192C07D8F5241C5D022C03D8F424C4
:103CB0001C5D0B2C0ED3F424859000201853F224A5
:103CC00031462E4664251D5335460E46F1241855BF
:103CD00010708598801DDAE7E97D09290AD0052949
:103CE00008D0002129848448E86184486883697683
:103CF0000521E9752978491EFE2915D380482881B8
:103D00008048A880804828607E98401C8590C0B27A
:103D10000A2421460DF094FB44433030A871859865
:103D2000001B30210143E971803679987E907A98A2
:103D300021E7739803287F9E03D16A4868440BF0FB
:103D4000E5F8684D6D44A97A481E81416F48684482
:103D5000C17209F041FAE87B0AF0D2F800246C48FD
:103D6000847175980078414241416A4A51700999BD
:103D70004904694B5A690A435A6171998906674A2D
:103D800012688A43769B99065118644A1160644907
:103D9000002802D00846C13000E058075F4988611A
:103DA0006048684444810481C4808480697A4A1EE2
:103DB00091410173297A132900D35999C901539A62
:103DC00051180A8A02804A8A4280C86809F0D4FFE2
:103DD000699880696499484309F07AFAA87B09F0E8
:103DE0004FFA0C2C06D03046F8304F49694408533E
:103DF000A41CF6E700203C4B0C2806D01946613184
:103E00004A4A6A441152801CF6E700245098047014
:103E100062988460446004604348684485904448E4
:103E200068440146859E2CCE2CC1249001460C315D
:103E30003E48684423912CC82CC1509844703D4999
:103E40006298C1603C48684404777298046044609A
:103E50008460C46001614461846181987C303E90DB
:103E60007499014205D0324868442849694409F0F0
:103E700023F9249818302490E0434F90299A7F9D8D
:103E80000C2C06D02846F8302C4969440853A41C51
:103E9000F6E74B2036904001689050980078002853
:103EA00000D0EBE1002084907E90FDF7D5FD859059
:103EB0001E4C6C4420460AF0F9FEF8350AF0CAFCA4
:103EC0002840217865782E467A910E43A3781E43C8
:103ED000E27816430821645E19498C4232DD0028DD
:103EE00036D0C3E1240600009E0F00003408000015
:103EF000090A0000050600004B64000019320000AA
:103F0000202000004C2000004D4F444518060000C2
:103F1000080B002070060020001002400008004836
:103F20003F1F0000A4100000E01000005811000026
:103F3000581B0000FFFF0000B4100000D410000068
:103F40007CFCFFFF002800D090E1002E00D18DE125
:103F50007B94739575937992AE4809F049FEAE4C07
:103F60006C44204609F0A8FE7898C06A0090AB4ADD
:103F70006A44859D2846A74923460AF03DF97E9864
:103F8000281A6E990B3188421FD9A54868443221FE
:103F900001816699C180022181726899C83181804E
:103FA0006999A04A0A60C07A01287E950DD17D9852
:103FB0007F309D4AD0625E995163516A814201D936
:103FC00000205062609810607E958498291A2129FB
:103FD00000D21CE16420642900D30146749090480B
:103FE000684409F0C9F8769CA10286A86C900CF090
:103FF000A4FD0320010288486844849101810921BD
:104000001022729B894D9D63894DDD63894D1D642E
:104010006B9D5D649A64D964DC62749919631D4672
:104020006C9C2146FDF7FAFD7F2100207490E86228
:10403000679828636D916963A8637698E8637E4802
:104040002864754868442146FEF728F97B487B9927
:10405000814216DD704868448499018102216422FE
:104060000123EB622A63714AAA63714AEA63744AC4
:104070002A645F9A6A64A9645D99E96486A9FDF778
:10408000CDFD002E00D196E06348684484990181FB
:1040900022210224642201236C93EB627B922A6327
:1040A000624AAA63624AEA63664A2A646B9A6A644D
:1040B0006A94AC64E96486A9FDF7B0FD6198624931
:1040C0000160416081606298C1677A980028749CA1
:1040D0000ED05E4C6C440021042520462A460BF08D
:1040E000FBFF5B4A2B460CF0AEF820202071052424
:1040F000739800280ED0251D544E6E44304621463C
:104100002A460BF0E9FF0423524A0CF09CF82020C9
:104110007055641D759800280ED0251D4B4E6E44B9
:10412000304621462A460BF0D7FF04234A4A0CF0BA
:104130008AF820207055641D799800280DD00D2C28
:104140000BD2251D4148684421462A460BF0C4FF86
:104150000423424A0CF077F800E025463B486844C7
:1041600029460BF069FF02460B462B48684411466E
:104170001A460CF02BF9729DEC6A296B6A6B264883
:104180006844849B0381294BAB63294BEB632C234D
:104190006A9EAE64EB640E23002C00D113466B6460
:1041A0002F4A00D10A462A646C99E9627B992963F7
:1041B00086A9FDF733FD37207499E96228636D996C
:1041C0006963A863769EEE631B48286412486844BE
:1041D00086AC2146FEF762F80F4868448499018155
:1041E0003E2102221F4BAB63114BEB631E4B2B6432
:1041F000659B6B64AA64E9646421EE6229632146CD
:10420000FDF70CFD204609F081F8859884907F9D8C
:104210004BE6C04690210108E01000005811000054
:104220001806000050003200002C01400020010858
:1042300002020102AC210108020101007CFCFFFF27
:10424000BB210108D021010820202020EC1B000008
:1042500058180108D81801084818010888180108DA
:10426000DF21010858210108ED210108FA496431D4
:10427000FA486844282208F0B9FF299A5299481E42
:1042800081415291F648401C4790F64868442030DE
:104290001A90F5486844C01D2B90F3486844C01D2F
:1042A0001D90F1486844C01D0D90EF486844C01D42
:1042B0001990ED48684410300A90EC486844801C1E
:1042C0003290EB48684412303C90EA486844801DC4
:1042D0003D9090323A925C980001849000246420D2
:1042E0001290E0485B99C943139166946D946C9465
:1042F00065944F9910917494229451944894159414
:104300001B941C90449445942D943B9474985C9019
:10431000FDF7A2FB0546D64868440AF0C7FC749531
:10432000281B642800D364205E900AF093FA0646A6
:104330007498A0425D9456D0C84868445E9908F0CD
:104340001BFFCC486844808800280ED05E998DB24F
:10435000421BC84969440023A84200D21A468A80F9
:1043600003D8C44868440021C172F0434221084286
:1043700032D0300630D0BF486844807AF1B28842EB
:1043800000D0D2E05E9880B2BA4A6A44D188091857
:10439000E84B994200D3E749D1803A9A323A92B237
:1043A000914274995D911ED9B24969440A891018E5
:1043B000E04A904200D3DF4808815A2874985D9003
:1043C00011D3AC48684400210181002E01D101F0D5
:1043D00086FA70423040BBE000203D990871488069
:1043E000088074985D90D44868440188A04A6A4463
:1043F000508A411ACB175940CB1A918A1F2B6A96C3
:1044000003D39B4A6A44D28A2EE0CB4A6A4452883C
:104410008A1AD3175A40D31A954A6A44D28A1E2B55
:1044200022D8C54B6B449B88D31ADD176B405B1BAE
:104430001E2B19D8C04B6B44DB888D4D6D442D8BE2
:10444000EB1ADD176B405B1B1E2B0DD8BA4B6B4470
:104450001B89874D6D44ED8BEB1ADD176B405B1BA1
:10446000282B01D801F093F9549E3346B24D6D4488
:10447000AA80698028807299486CE880C86C68813D
:104480007B496944C88B28810878669A90423046F7
:10449000324611D148786D9DA84210460CD18878DB
:1044A0006C998842104607D16598C0B2704969443A
:1044B000C978081A411E88416A99090411467F9EED
:1044C00000D11946234600291146729A00D10146AF
:1044D000EF486844C07AD46A002912D0401EC0B2A6
:1044E00000210328519102D28000EA4909584791DE
:1044F0000A2169988069484308F0EAFE519848907B
:104500004DE0002809D07498984248D047995E9AA7
:1045100091427A9423D9891A27E0749898423ED020
:104520007A94479948985E9A20E03146814308067C
:1045300001D101F03AF94F48684400220281C2805B
:1045400086720029319801D101F0CAF94842084029
:10455000D1494843C00ED1A1085C01F0C1F9D74848
:10456000339981610021D648016448988418002558
:10457000844200D2EC43D348844247910DD9384855
:104580005199814207D935486844FA22314608F0EA
:104590002DFE519501E05018519048947A9CBC48EA
:1045A00068447B90007A132800D31320C1015398EC
:1045B000859140187390027E501E82412C4E6E44AD
:1045C0004998315E81984A914118643188B2C00B94
:1045D000081800B24010779BDB00984200D31846C1
:1045E000230C2546240A7E9409B24F9CA14200DA8E
:1045F0000020290E6591E9B26691D9B26C917E993D
:10460000C9B26D91739CE17D234619330AF01AFA01
:1046100085B2A07D401E0E22B15E75910C214D9198
:10462000715E79917B994B7A71895B91F1885A918E
:10463000B48803284E92599457937E9526D8C04645
:10464000784400794000874401170305669814E018
:104650006C9812E0659810E034080000180600001D
:104660002F750000581B000058110000EC1B0000C3
:10467000E0100000A41000006D98002806D02D2145
:104680002C222B2027243F9B409E05E0282022231C
:10469000439E419C709A4299739D695C7B91295D10
:1046A0007A91A95C5691AE5D2A5CE95C5998864C7A
:1046B000A04703465A983146569A1E46A0472346BD
:1046C00004465B987A997B9A9847804B6B44569046
:1046D000D8807E9949007E4A5118491C7B91998067
:1046E0007A945C8034461E807A48684438214B9125
:1046F0000CF023FA3E204C90285C7E90042801D3D5
:1047000000207E9074985C99401A5590724A859B5F
:104710007E98800003A1085825B256990CB27A9968
:104720000EB287463D470008D14B00084B470008B2
:1047300083470008FFFF0000D41000007898C5618F
:1047400006627B99416284624AE078987B99416273
:10475000C561311B6148814200DC60497798C00027
:10476000814200DB0146789A9162A1195B4A91422D
:1047700000DC5A498142584A00DB014678980162C0
:104780002EE035207399085C5249694401915449DF
:10479000694400914D496944799A759B0AF064FB1C
:1047A00078990E627B9A4A628C62C10F4018411060
:1047B0004A1B4A48824200DC484A7798C00082423D
:1047C00000DB0246789B1A634919444A914200DC97
:1047D00042498142404A859B00DB01467898C1618D
:1047E0002B486844C0187B900021B424BE2C20D0F4
:1047F0004D1C0E1D0E2E19D27B98005D7E9903294B
:1048000002D1052E809912D0324969447A910191E2
:104810003349694400912D496944799A759B0AF09E
:1048200023FB859B2C4AB1007A9E70502946641C5C
:10483000DCE7302616486844002E00D1C1E0C018DD
:10484000C0300478002C01D00E2C02D99B1DB61F5D
:10485000F0E70F486844C018C421405C401E092896
:104860004DD8C0467844007940008744043B0A0C88
:10487000063F410E450866983FE06D9833E0659825
:1048800031E06D9839E06D9833E06C982BE0C046CC
:1048900024060000C032010831B57C0700011C026B
:1048A0001D0E18031E16140F191104081F1B0D17D7
:1048B000151310071A0C12060B050A0900140048FC
:1048C00000040040BF270900E1ED0008D81B0000EC
:1048D00017FCFFFF58110000DC05000018FCFFFF6B
:1048E000E010000066980228B0D108E06C9804E05F
:1048F0006C980128AAD102E065980028A6D1CF487B
:1049000068448593C518C120285CCD49694401914C
:10491000CC4969440091CC496944799A759B0AF065
:10492000A3FAC2216956484364210CF0B1FEC321A9
:104930006956649A5143401863996A5C611EC9B212
:10494000002A2CD0012A13D0022AC04A859B00D00D
:104950007CE7BF4A904200DCBD48779AD200904283
:1049600000DB10468900B64A6A445050B74A6DE7EA
:104970008900B34D6D447E91695848437799CC00C6
:1049800021460CF085FEB249884200DCB048A042C6
:10499000AE4A859B00DB20467E99685056E7890029
:1049A000A74A6A4453581818A94B984200DCA848F3
:1049B000779BDB00984200DB18465050A34A859B4A
:1049C00044E70020779E1C2804D0A24969440A527B
:1049D000801CF8E700209F496944382815D0984A80
:1049E0006A441358DA0F9A1852109B4CA218FA32E4
:1049F0003401A24200D32246984CA34201DA819AA4
:104A000064320A80891C001DE7E70024944868444A
:104A100001578900629AD26F89180DB2F1008D4258
:104A200000DC0D463201954200DB1546894B6B4494
:104A30001D80012585954557AD005E88AD192DB2C5
:104A40008D4200DC0D46954200DB15465D809D8859
:104A5000807840B257990129779E0CD0022925D140
:104A60008000401905B2F000854200DC05463001A7
:104A7000854222DA22E0794949194A1CF1008A1A52
:104A800000D20022819B64339D4201D26E9AD432BF
:104A9000424390000CF0FCFD45198198854200DCF2
:104AA000819D7048854209DB6E4D07E0F00085422C
:104AB00000D805463001854200D305466548684464
:104AC000858067496944719A89568900C288891826
:104AD00009B2F200914200DC11463201914200DB42
:104AE0001146C1807398808A21466B9E1C290FD085
:104AF000224632400346D340DA0706D0554A6A447C
:104B0000535A849DEB1AC8335352641C891CEDE739
:104B1000554868444F4969441C227A920CF05CF86D
:104B20007220739E355C09F077F904467E95012D5D
:104B30002ED17320315C012220467B92504009F037
:104B400023FF002C494E729C01D000F01FFC484806
:104B5000C078012801D000F019FC4548006974991B
:104B6000081A0A2800D2F8E04148749901613949CD
:104B70006944162088703F48088000204876202825
:104B800040D081995C312E4A6A441152801CF6E76C
:104B90000020014609F0F8FE204609F039F8002C03
:104BA000324E03D13048684409F022F83248684454
:104BB00009F082F8EFF3108072B64721715C589AC1
:104BC000B25C80F31088951E681E85410D40EEE3AF
:104BD00078987B994162846271191D48814200DC9A
:104BE0001B497798C000814200DB0146789A116228
:104BF000711B174A914200DC15498142134A00DBC0
:104C0000EBE5EBE500241C2C3CD017486844005B26
:104C1000F7218900884200D808461849884200D305
:104C20001648C0001649401800B205210CF030FDAE
:104C3000AC30034969440853A41CE4E7240600008F
:104C400058110000E0100000D81B0000DC05000037
:104C500018FCFFFFEC1B0000E204000017FCFFFF44
:104C6000A41000003408000008110000000000201B
:104C7000080B0020EE18000024110000DC070000E3
:104C8000C0E0FFFFE14D6D447898C469EC70E048E6
:104C9000684483889908A97142895108A972C18919
:104CA0007391CE086E73240A4688F100214329715E
:104CB00071099C010C436C71990AC3885C000C4318
:104CC000EC71789E716A0C01DB0923432B72090990
:104CD000D3010B436B72B16A8B00520A1A43EA721A
:104CE0008909739A52010A432A73F46AAC73838A5E
:104CF00099086974428B51086975C18B7391CE080C
:104D00002E76240A468AF1002143E97371099C0139
:104D10000C432C74990AC08A43000B43AB74C0093E
:104D2000789C616B0B010343EB740809D1010143CB
:104D30002975500AA16B8A000243AA7588097399E4
:104D400049010143E975172132980AF0C7FA6876DC
:104D50001A212846729C0AF0F3F90026D34A1068FB
:104D6000010701D508215160800600D4BBE290689C
:104D7000C0B2CF494C69002C09D0012C11D1811E41
:104D80003D2900D385E0CB494870022382E0C82842
:104D900003D0EE2801D0EA287ED1C649087001234D
:104DA00078E0C4494D78A91C00238C4272D23F2C74
:104DB00001D903F071FBBF4A1055601CBC4A506119
:104DC000BA4A884268D17393BA480BF047F93891D0
:104DD0008C4201D303F068FB015D5791399029465D
:104DE000851C5691491E28460AF078FAC0B2579998
:104DF000814200D069E2579529780829AC48AB4A2E
:104E0000739B09D02E294DD0292900D183E02B296D
:104E1000569D50D014293ED10D46389903293AD0D9
:104E200039984478A01C884234D8022C32D339985F
:104E3000001940785690611E57980AF04FFAC0B298
:104E40005699814200D040E2082D994800D13BE1BB
:104E5000142D00D03AE20B2C944A739B1BD93030AE
:104E6000399B5979017499794174D9798174197A86
:104E7000C174D9784942817319794942C173587A0A
:104E8000401EC0B2072800D923E240008A49085AD0
:104E900020E2002386484361761C412E729C00D09C
:104EA0005DE720E245200121814A11547F4A804874
:104EB00074994163EFE7022C01D103F0DFFA072D6B
:104EC000E9D339998879389048795790C91CAA1E36
:104ED000042528460AF04EFF0246779883000329EE
:104EE000299C00D2A0E17548C058082800D39BE156
:104EF000219550787F2404401E941478022518943C
:104F000025923991A94200D184E0505D002800D15A
:104F100081E06D1CF6E7022C569D01D103F0AEFA3C
:104F2000052DB8D3399AD01C2590AC1E7F20830064
:104F300010796249C854281F551D00213893739475
:104F4000884205D06A5C002A01D0491CF8E78C1C15
:104F50005794A41E594900D200241422142C00D3C3
:104F600014466B984001091820460AF0FAFEA21C6C
:104F7000739B9A4201D903F086FA2A461D462346BE
:104F80000BF061F9299A1046FE304C4B1C5457998E
:104F90000D31A94210D22598405C51005854002888
:104FA00019460DD17798800000230B500120400254
:104FB0000A460421115426E050000A2119541946CA
:104FC00000243F480C54779880000C5001207390C7
:104FD00040020D461146043129526F98C000749961
:104FE000295009211D980CF0F7FA3898285C2E4DAD
:104FF0006D44739922462B460AF047F9082128464A
:105000000AF09EF823462A48284A44E7EC1B000091
:10501000581100000D46002062998866C86608672E
:105020004867AC1E00D204465693102C00D31024BF
:105030002448684421460BF059F8A21C399B9A4237
:1050400001D903F020FA259A921C179423460BF0FD
:10505000FAF814486844242114910BF06EFD6D1C7D
:10506000399CA54216D200221E990D291348579B40
:105070004DD009291F924ED17B9A0F952599A542B3
:105080004CD2485D3B2802D0002848D000E0521C9A
:105090006D1CF4E7002004461F9020900748579BA2
:1050A00065E0C046EC1B0000581100001C440040A5
:1050B000080B0020F0060020501C0108FC0800200E
:1050C000FF010000D81B0000092C00D8FEE00346B9
:1050D0003030399A917A0175D0790004117A090239
:1050E0000818517A40181863D07811790902081805
:1050F00000BA000C64214843588750799279120213
:10510000101800BA000C48439887DE4AE4E01446C1
:105110002092259929E01446209228E025460C92F9
:105120000F98281A2428149A00D310462090D649A4
:1051300069440AF016FE209B14900F981A18A24298
:1051400001D903F0ADF9259C221814980BF07BF8D7
:105150000C98C0B2411E02468A412146841A6D1C39
:1051600039988542C948579B01D2495D1F91054630
:1051700056982958092901D303F08AF939943C201B
:1051800048432C183C3D002816D07022AA5C3C38BD
:105190003C359A42F7D14B981F9929542846103034
:1051A000B949694424220BF017FD3A20209929546B
:1051B00039203999295434E0082932D0B448684458
:1051C0001490B449694425910F94149C2DCC2DC1A1
:1051D000AD49694424220A980BF0FEFC34250F9C4B
:1051E000204625992A460BF0F7FC002026996054AA
:1051F0003A20209921543920399921544B981F99EC
:10520000215437201799215436201E9921543520D6
:1052100018992154579860559C49569A8858401CB3
:105220008850299C219D569B389800281CD0974D6A
:105230009949685C441C6C54092119980CF0CCF90C
:105240007F208000285C934D6D44579922462B4661
:105250000AF01BF80821284609F072FF6F98C00079
:1052600074998A4A115030E060008849085C579A66
:10527000824227D2C858082824D2002486480C54D9
:10528000521C739285480A547B9840020D460321B4
:10529000295409210D980CF09FF97F208000285C8B
:1052A0007C4D6D44739922462B4609F0EEFF082190
:1052B000284609F045FF23466F98C0007499734A49
:1052C0001150A0E67B9840020D5475486D4A739BBF
:1052D000E1E50020724B188745200121195474988C
:1052E00058631846F3E745206D4B195C002908D038
:1052F000596B749A511A6E9AD432914201D9002195
:105300001954012040026149085C0328654E1BD0F6
:1053100001283BD16F98C0000958749A511A7D9AA0
:105320002B32914232D95949749A0A500020789907
:10533000C86108622546574C6C44204609F092FF2C
:10534000062120462C461FE06F98C0000958749A29
:10535000511A7D9A5D32914218D94C4D7499295059
:105360004E482C5C09212B980CF036F94A482A5CEF
:105370007F208000285C474D6D4421462B4609F074
:1053800084FF08212846729C09F0DAFE549808F040
:105390003FFC434B18463030417D434A6A44D1724A
:1053A000007C9072588F10810025256765673F4A01
:1053B0006A44108A7B9000903D4969443A4B6B44A3
:1053C000749808F019FF6A9846990840411E0446EF
:1053D0008C4100280CD0002D19D07F98F8306A99A4
:1053E0000840414241415298084208D0549868E030
:1053F000002D0CD07F98F8306A99014260D00020CF
:1054000008F082FC2B48684407F0E6FE28E02A49B1
:105410006944097E509A1278D2B20A430021002AC8
:105420001CD100281ED0459A5E9812185499234C1E
:1054300001D30020C2433598824245921FD9449837
:10544000C0071BD108460C4608F05EFC19486844AA
:105450009622689907F0CAFE449401E04491459170
:1054600052942FE04498C00700210028134C45981F
:1054700003D10021282800D3A8E1459144915291FD
:1054800021E0C0461C440040EC1B0000FC0800204A
:10549000D81B000058110000FF01000001020000AD
:1054A000080B00200000002024110000E010000084
:1054B0000811000018060000B4100000002C014084
:1054C00000205290F84CEFF3108172B65898325C7D
:1054D0008598024003D00020589BF054706981F3F6
:1054E0001088002A6A9E31D0411E0122D243914287
:1054F0002CD2FD496944097A132900D31321C9012B
:10550000539A5118CA68824220D0C860F64868444D
:1055100009F0FCFCF5486844322101818399C1807F
:1055200068998180022181726999F54A0A60C07A7E
:1055300001280BD17D989F30E06234996163616AE4
:10554000814201D90020606260982060ED48684483
:10555000007E00283AD05598202800D8C5E0E748BA
:1055600068440390E848684402903C980190E748FA
:1055700068440090E34C6C4486A9DF4B6B442046A2
:10558000324604F069F8A07E002809D0E04868445B
:10559000DA49694407F090FDDA48684400218176D1
:1055A000D8486844C07E002801D102F042FF5498D8
:1055B00008F0AAFBD34868440021C176CF4868446C
:1055C0009622689907F012FE02F033FF5098007897
:1055D000002834D0559920295E9900D885E08BB2F7
:1055E000142B00D81423509949783E9A16427B9385
:1055F00004D1CA0702D00021509A5170629AD26831
:105600007E92C34B6B449E84C24B6B441A8CC24C3B
:105610006C445B926281DA8B5A9222813246729E8E
:10562000356C766CE680DE8AA68065805B8A238096
:10563000CC072ED17E998A437F9916462BE03E985F
:1056400006425E984AD080B23B9989B20918B348A5
:105650008142084600D3B1480146B1483B9181429E
:105660003ED9A84C6C44859A2277002161824F98DC
:1056700020827298016041608160C1603B9141610C
:1056800082619E48684407F0A7FD207E002827D04D
:1056900061E700267F99F83131403E9A1640012893
:1056A00027D0022831D1002926D17C982430002827
:1056B00000D19CE09649694409180B8B964A6A44CC
:1056C000121892899A42144600D31C460C838B8C84
:1056D0009A4200D81A468A84801CE8E700203B9052
:1056E0005598202801D900F06BFC5C98749002F06A
:1056F000A3FE002900D1D9E00020509908707F480E
:10570000684407F069FD02F094FE859EB10286AD03
:1057100028460BF012FA719801027E918148684484
:1057200001811221789C804AA262804AE262804A0A
:10573000226361636499A1633099E16364217A9182
:10574000E66121622946FCF769FA764868447E9949
:1057500001812621744AA262744AE262754A226378
:105760002E9A62634E9AA263E163E6617A9921629E
:105770002946FCF753FA66486844C08C7B998842F6
:105780001BD9401A62496944C88402F052FE6A4B30
:105790006B445B895F4D6D442D8CEB1ADD176B40BC
:1057A0005B1B282B0ED800230DE0584868440021CD
:1057B0000181C1808672FEF714FE002050990870A6
:1057C00002F037FE0123549EFEF750FE5B49643120
:1057D0004A4868441E2207F009FD2D99491C71981A
:1057E00001402D9100204590449052906BE600219D
:1057F0007898816059914800454A6A4410184B1EB8
:10580000032B1BD019460488058B2A1B0023A542B5
:1058100000D21A468589641B00D21C46801C4B1C92
:10582000FA2CEDD392B2FA2AEAD3891C4448684490
:10583000859AC2545998401C5990DCE7002E00D13B
:10584000ACE05998C0B2042800D047E369983D49BC
:10585000C160279901612E4868442E99302900D1F2
:1058600043E385890288541B0023AA4200D21C46C8
:105870006F9D6C43A409141B00D21C4615042543DC
:105880001D4C6C446550058BAD1A00D21D466F9BB4
:105890005D43AB09D218214B9A4200D31F4A6318CB
:1058A0005A600831801CD9E7002C0140002E00D13D
:1058B00074E21948684416496944024638CA38C136
:1058C0000146239A38C938C224991CC81CC1609863
:1058D00040005099088009486844322271E620202F
:1058E00003A1085C4000874424060000180600005D
:1058F0002F463A3E364A4F42240600001806000062
:1059000046003200B410000008110000A41000008E
:10591000581B0000E0100000D81B0000FFFF000033
:10592000AF0400005811000000200108020201022B
:1059300041240108701C0108D41000003408000044
:1059400044110000594B5346B44868440121B44BFC
:105950006B440A461EE0B1486844032117E0AF4893
:105960006844022113E0AD48684402210AE0AB48D4
:105970006844042106E0A9486844012102E0A748E0
:1059800068440321FF2203E0A44868440421012263
:10599000A34B6B4407F044FBFEF723FD859EB10249
:1059A00086AC20460BF0C9F8719801029D48684406
:1059B00073910181789D9C49A9629C49E9629C4947
:1059C00029632F9969634D99A9632A99E963642131
:1059D000EE616A9129622146FCF720F97F210020BF
:1059E0005C90E8616798286257916962A86276982E
:1059F000E862904828638B4868442146FCF74EFCD7
:105A0000619806608C49416086608C49C16006617E
:105A10008B494161866162988A49C16713258A4A28
:105A20006A448A4868447B90894868447A90332D58
:105A300000D117E17B48684473990181799232461D
:105A4000789E7949B162F56302215E91B163F2619A
:105A50006A9931627549F1627E49694449190A4679
:105A60000F3A1268726313390968316386A9759118
:105A7000FCF7D4F8A91F7E916498F06131626F98A9
:105A800070623798B062769CF4626A483063654809
:105A900068447599FCF730FD7098F0617E99316229
:105AA00070627E95B562F462624830635D48684416
:105AB0007599FCF7F3FB799A1388108BC61A00D2FC
:105AC0005C9E654D64357E992B29284600D062483E
:105AD0001329859900D005469089181A00D25C9840
