:020000040800F2
:1000000000400020C1000008670601085B180108D5
:1000100000000000000000000000000000000000E0
:10002000000000000000000000000000670601085A
:1000300000000000000000006706010841050008FC
:1000400067060108670601086706010867060108D8
:100050006706010867060108FD0000086706010839
:1000600067060108670601086706010867060108B8
:1000700067060108670601086706010867060108A8
:100080006706010867060108670601086706010898
:10009000670601085505000867060108670601089C
:1000A0006706010867060108670601086706010878
:1000B000670601086706010867060108DD0A0008EF
:1000C00010F0D4FA084809490022814201D004C046
:1000D000FBE707480749084A814202D008CA08C01E
:1000E000FAE710F020F900DEF00600205C0B00209B
:1000F00000000020F0060020B0350108F0B503AF85
:1001000093B009AEE6484169490700D40AE20422E7
:1001100042614923E34DE95C022900D102E2016812
:10012000914301604524295D002900D19EE0012909
:1001300000D0F7E104960193089202200290059402
:100140002855002420460EF029FE012211030791B4
:10015000039212078006D44ED44BD54D284600D5C5
:10016000AEE106920498401C049009A8252110F0E5
:100170004BFD28463168090603D5411C0028084676
:10018000F8D1CA4B069A1A6000BF00BF28463168F2
:10019000090603D5411C00280846F8D128463168D5
:1001A000890703D4411C00280846F8D1F02030719B
:1001B00028463168C90703D1411C00280846F8D1F8
:1001C000307928463168090603D5411C00280846C5
:1001D000F8D100BF00BF0798186000BF00BF2846D5
:1001E0003168090603D5411C00280846F8D11A6079
:1001F00000BF00BF28463168090603D5411C00280E
:100200000846F8D128463168890703D4411C0028E4
:100210000846F8D10598307128463168C90703D1DE
:10022000411C00280846F8D13079252C284630D0CA
:100230003168090603D5411C00280846F8D1284634
:100240003168890703D4411C00280846F8D10020F2
:10025000307128463168C90703D1411C002808467F
:10026000F8D1307909A90855641CDEE7089201220B
:100270002A5547216B5CAE49002B3BD0AE4B0B603F
:100280004323EC5C042C37D2032C00D0621CEA54CC
:1002900032E028463168090603D5411C002808468B
:1002A000F8D100BF00BF0798186000BF00BF47200B
:1002B0009D49095C09A8007800295AD009A9BC28E1
:1002C00000D0FBE0487A012800D0F7E0442000216C
:1002D000954C2154432008992154049A107951795E
:1002E0000902081891790904D279120651180818E0
:1002F0006061E3E0914A0A608C4A8E4B1C461568A7
:100300002D0603D5651C002C2C46F8D101242507A9
:100310000D6000BF00BF1D461668360603D56E1C73
:10032000002D3546F8D11D461668B60703D46E1C5D
:10033000002D3546F8D1C02515711D461668F60703
:1003400003D16E1C002D3546F8D1157915682D06A0
:1003500003D55D1C002B2B46F8D100BF00BF220344
:100360000A6000BF00BF089A426101681143016042
:10037000D8E0AA2802D0AC2800D09FE0049B1978CE
:100380005A78120251189A781204DB781B069A18D0
:10039000674B5118644A1269914200D08EE062495D
:1003A0004B695A1C022A01D30021039108931A0CAD
:1003B000531E5A425A4103990A4304990B794C79C6
:1003C0002402E3188C792404C97909060919CB1889
:1003D000591E029CE443A14208D8002A06D00121FC
:1003E000514A019C11555361514B06E00899591A25
:1003F0004B424B4113434E4B60D0482101244A4AA3
:100400005454AA2807D109A8407AFC2852D0FD28C4
:1004100001D1029A4FE03F2043490C5440200894F8
:1004200000240C52886B401C88631D200EF0B6FC23
:10043000C0B2C000052111F069F808990902091A33
:10044000C8178143642900DB64213E20364A1154D9
:10045000374B21460A31212930D809A90A19117BC5
:10046000537B1B025918927AFE2A0ED0032A07D01A
:10047000002A2F4B11D10A224A432B498A870CE0CC
:100480000A224A4328498A8706E089B26422511A1F
:1004900000D20021244A1154254B241DD9E7C0461F
:1004A00000040140000000200830014018100048FE
:1004B000F0D8FFFF224646201B490A542846069AD8
:1004C0003168090603D5411C00280846F8D11A6096
:1004D00000BF00BF28463168090603D5411C00282B
:1004E0000846F8D128463168890703D4411C002802
:1004F0000846F8D1A020307128463168C90703D1D9
:10050000411C00280846F8D130793068000603D530
:10051000681C002D0546F8D100BF00BF0798186081
:1005200000BF00BF13B0F0BD000000200830014044
:1005300018100048F0D8FFFF00030003000200037A
:1005400080B500AF02480168491C016080BDC0460B
:100550000C0B0020F0B503AF91B0CF48002404602D
:10056000CE4D2878C00700D0A9E24920CC4E305C9F
:10057000022800D1A3E230461830CA4962311C2259
:1005800010F091FB4021705A401CC74A904200D3A2
:1005900010467052C54A11680423049399431160B0
:1005A000716B0591491C7163352801D30020F087D8
:1005B00006A8262110F028FB4720305C012815D121
:1005C00006AC01250522204629460FF031FE32698E
:1005D000109210AA04230FF0AAFE00200290A0722D
:1005E0000598C00712D07320C04310E04220315C50
:1005F0004A1C0F231A4032541940705C03900F2993
:100600003DD02879002834D1A94933E00D2003904A
:100610004321A3480591405C0128019500D1A5E044
:1006200002280FD0032800D0B8E006AEBC203070FE
:100630000521092230460FF0FBFDFF2211F0A0F842
:1006400075720CE006AEBC203070052109223046E0
:100650000FF0EEFDFF2211F093F8029870720B215B
:100660001B2230460FF0E4FD8D4A10230FF05FFE91
:10067000ADE09049904A116001214840287146251B
:10068000705D022800D1D7E0012837D1059506AD6D
:10069000AA202870012102910524884B2846224671
:1006A00098473269109210AA042633460FF03FFE95
:1006B000092228462146814B9847794A526910926F
:1006C00010AA33460FF033FE0026AE730298A881BD
:1006D0007B486881FD2068720F2125242846224628
:1006E000764B9847FF2211F04BF82E556C48059930
:1006F00046547448A88274486882EFE0706B73496E
:1007000011F09AF8002900D194E006AD5820287025
:1007100001210526284632460FF08AFDE94A126972
:10072000109210AA042305930FF001FE0922284617
:100730003146E44D0FF07CFD6A69109210AA059BCA
:100740000FF0F5FD1C2C70D02819008B7D21CA00FC
:10075000904200D810460901884200D3084606A9F5
:1007600009194872000A8872A41CEBE72C4606ADF2
:10077000BB2028700521092228460FF059FDFF22D1
:1007800010F0FEFF6C720B211B24284622460FF04E
:100790004FFDCC4A10230FF0CAFD1CE006AEBC2072
:1007A00030700521092230460FF042FDC54A5269DA
:1007B000109210AA04230FF0BAFD022070720B21D0
:1007C0001B2230460FF034FDFF2210F0D9FF8020AD
:1007D0003077F5761D2406AD25262846214632467B
:1007E0000FF026FDFF24224610F0CAFF0298A855FC
:1007F000B44A0598105C042870D14420115C491C4F
:10080000FF2900D3214611540429019966D3029B84
:1008100013544620135242201152FF200230482127
:1008200050521F200EF018FB58E0252006A9002288
:100830000A5453E002207055059506AD56202870E5
:1008400001210526284632460FF0F2FC9D4A126926
:10085000109210AA042423460FF069FD09222846AD
:100860003146984D0FF0E4FC6A69109210AA2346B5
:100870000FF05DFD0320C143182929D0002904D0C1
:1008800006AA5218FF23937302E006AA9073E82386
:100890005373891CF0E7C04610440140140B00203C
:1008A0000000002070060020FFFF0000000401404F
:1008B0000004000800080004181000483102010874
:1008C000FF90000005DE000005DC000021060000AE
:1008D000002005996854252106AA50547C4C7D4D72
:1008E00028462168090603D5411C00280846F8D18E
:1008F00001200207754905920A6000BF00BF294622
:100900002268120603D54A1C00291146F8D129464F
:100910002268920703D44A1C00291146F8D1A0216D
:10092000217129462268D20703D14A1C00291146A9
:10093000F8D1217929462268120603D54A1C0029DC
:100940001146F8D100BF00BF060360490E6000BF2A
:1009500000BF6148086028462168090603D5411C8C
:1009600000280846F8D159480599016000BF00BF2A
:1009700028462168090603D5411C00280846F8D1FD
:1009800028462168890703D4411C00280846F8D16D
:10099000E020207128462168C90703D1411C0028A6
:1009A0000846F8D1207928462168090603D5411C5C
:1009B00000280846F8D128462168890703D4411C3D
:1009C00000280846F8D10520207128462168C9076B
:1009D00003D1411C00280846F8D10020217926289F
:1009E0001CD006A9095C2A4623681B0603D5531CA4
:1009F000002A1A46F8D12A4623689B0703D4531CC1
:100A0000002A1A46F8D1217129462268D20703D15B
:100A10004A1C00291146F8D1401CDFE7284621680E
:100A2000090603D5411C00280846F8D100BF00BFC5
:100A30002648066000BF00BF0F2003990EF014FA8D
:100A400028462168090603D5411C00280846F8D12C
:100A50001E480599016000BF00BF284621680906AD
:100A600003D5411C00280846F8D12846216889078B
:100A700003D4411C00280846F8D1D0202071284614
:100A80002168C90703D1411C00280846F8D1207904
:100A90002068000603D5681C002D0546F8D100BF6C
:100AA00000BF0A48066000BF00BF45200021054A7C
:100AB00011540549049A4A6108681043086011B04E
:100AC000F0BDC0460000002000040140181000489E
:100AD00008300140F0D8FFFF00010003F0B503AF7C
:100AE00085B021480088214988423BD00225224C0C
:100AF000204E002D36D01E488078C04678440079BC
:100B0000400087442F010E17207802282AD01C4865
:100B10000290019401A8012107F026FD002821D0B0
:100B20001EE03068401C1DD014480290019601A8B8
:100B300001210DE02078022814D03068401C11D02B
:100B40000E48049003960E480290019401A80221D9
:100B500007F00AFD044600F0D9FE002C064C01D037
:100B60006D1EC6E705B0F0BD2C030020FFFF00009E
:100B7000140B00204C000020C0050020C0240108F8
:100B800084240108F0B503AF87B0054680680128CA
:100B900047D106916C69E868A04246D22A69115C87
:100BA000491C1154AB69981C0226A0423AD8012175
:100BB000090205935918A14200D321460492234605
:100BC0000FF0D4F805292DD30246069B98791070B2
:100BD000988802900391597A187A019208F0C8FD1A
:100BE000029B190A019AD1709370C0B25070069896
:100BF000C0791071114605200690039A0FF031F963
:100C00000598C11DA1420DD8A0420ED20723049A17
:100C10001354401CA04208D2069B1354A961FF261E
:100C200000E00726304607B0F0BD21460FF006FD74
:100C3000F0B503AF85B01C4603920E460546084644
:100C400008300CF005FE0491B968029400940C463B
:100C500001918021039A0B460FF05AF9C00702D088
:100C60002970FF2006E0F868E871A971AC80F436BD
:100C70002E600298287204990868401C086005B02C
:100C8000F0BDF0B503AF87B01C4605920E46054691
:100C9000084608300CF0DCFD0691B9680494009415
:100CA0000391019100242146059A23460FF030F963
:100CB000C00702D02970FF2006E0EC71A9710398EB
:100CC000A880F4362E600498287206990868401CA3
:100CD000086007B0F0BDD4D4B0B502AF86B004460A
:100CE000009101920748011D03AD0022062328460A
:100CF000FFF79EFF0F222046294607F027FB06B08C
:100D0000B0BDC04630070020F0B503AFF9B01446BF
:100D10000C910890052081010EAD28460FF074FF5C
:100D2000002108262846099132460FF066FAFB4A50
:100D300033460FF0FCFAA0B20D907D21CD0029467C
:100D400010F0E4FB07950B904543651BA8B26426A1
:100D5000314610F0DBFB04460A964643A81BC0B29E
:100D60000A26314610F0D2FBED490D9A8A421ED96F
:100D700076AA2E2191703025284310712C43D4700F
:100D800014460B98C0B20A2110F056FD2943617039
:100D9000E4490D9810F0BAFB2843207025460EA8B0
:100DA00008210D2422460FF028FA052311E0DE4920
:100DB00076913021084376ADE8700C43AC700B9807
:100DC000303028700EA808210C2422460FF015FAA6
:100DD00004232A460FF0ABFA254608350EA8214613
:100DE0002A460FF00AFAD14A08230FF0A0FA5EA8AB
:100DF000099901815F915E91FF203A3006900C982D
:100E00002246847A002C2CD00D950925002C11D077
:100E10000A2D01D300F064FD2046314610F076FB28
:100E200031464143611A30220A435EA94A556D1E7C
:100E30000446EBE7691C5EA80FF09DF904460D46D9
:100E40000D996E1806980830864216D20EA83246C2
:100E50000FF0D3F922462B460FF069FA079D34466E
:100E60000DE009320EA8294614460FF0C6F9B04A23
:100E700001230FF05CFA079D04E00C46079D0698DD
:100E8000844209D2214608340EA822460FF0B5F953
:100E9000A84A08230FF04BFA0B940C980489059488
:100EA0002046294610F032FB07904543651BA8B247
:100EB0000A9E314610F02AFB04464643A81BC0B2E6
:100EC0000A210D9110F022FB059A95498A4221D9F9
:100ED00076AD2E21A9703026304328713443EC7052
:100EE0009049104610F012FB304328700798C0B2AA
:100EF0000A2110F0A1FC314369700698C01C0B99BF
:100F0000814221D24E1D0EA832460FF076F976AA04
:100F1000052316E0844976913021084376AAD070E3
:100F20000C4394700798303010700698001D0B9990
:100F3000814209D20E1D0EA832460FF05EF976AA44
:100F400004230FF0F4F900E00E460698801C079089
:100F500086420AD2B21D0EA831460A920FF04DF910
:100F6000754A06230FF0E3F900E00A9661A8099993
:100F70000181629161910C980468002C0B9427D038
:100F80000926002C11D00A2E01D300F0A9FC20461E
:100F90000D9D294610F0BAFA4543611B30220A43E1
:100FA00061A98A55761E0446EBE7711C61A80FF013
:100FB000E2F805460C460A996618069808308642FB
:100FC00015D20EA832460FF018F92A4623460BE038
:100FD0000698C51D0A99A9421BD24E1C0EA832467E
:100FE0000FF00BF9524A01230FF0A1F900E00E4671
:100FF000B51D06980830854209D20EA831462A460A
:101000000FF0FBF84D4A06230FF091F900E035464A
:101010000B9C64A809990181659164910C984668BC
:10102000002E2CD00A95354609260C95002D11D09E
:101030000A2E01D300F054FC28460D9C214610F0E6
:1010400065FA4443291B30220A4364A98A55761E57
:101050000546EBE7711C64A80FF08DF804460E46B8
:101060000A99751806980830854217D20EA82A46A4
:101070000FF0C3F8224633460FF059F90FE00698F7
:10108000C01D85420DD229466D1C0EA82A460FF0C0
:10109000B4F8274A01230FF04AF902E00D460B9CF1
:1010A0000C9EEA1D069808300A90824209D20EA8CA
:1010B00029460C920FF0A1F8214A07230FF037F9C7
:1010C00000E00C9567A8099D058168956795B44275
:1010D00015D9A51B0926002D34D00A2E01D300F006
:1010E00001FC28460D9C214610F010FA4443291BB0
:1010F00030220A4367A98A55761E0546EBE7069813
:10110000C01D0C99814231D24A1C0EA814460FF022
:1011100074F8074A01230FF00AF92BE0861A010838
:101120000F27000010270000302E3030F61901087C
:10113000F11C01084E1A0108F21C0108F81C0108F4
:10114000FE1C0108711C67A80FF015F805460E4635
:101150000C9972180A9882420AD20EA814460FF00F
:101160004CF82A4633460FF0E2F802E00C4601E064
:101170000C46099DF848C17800292FD0014630312E
:1011800011228A560B920E228A560592428F038FA5
:101190000393006B00904E7DC87C0190887C049086
:1011A0000D7C214610340A988442029208D20EA87F
:1011B00022460FF022F8F14A10230FF0B8F821462A
:1011C000F0070DD00698001D814224D20E1D0EA8F6
:1011D00032460FF012F8EA4A04230CE02146EFE20F
:1011E0000698C01C814216D24E1D0EA832460FF042
:1011F00004F8E44A05230FF09AF8079886420CD2C7
:10120000B21D0EA8314607920EF0F7FFDE4A062304
:101210000FF08DF802E0079100E007966AA8002120
:1012200001816B910C916A91002D25D00926002D2A
:1012300010D00A2E00D351E328460D9C214610F011
:1012400065F94443291B30220A436AA98A55761E50
:101250000546ECE7711C6AA80EF08DFF04460D46AA
:1012600007996E180A98864215D20EA832460EF0DB
:10127000C4FF22462B460BE00698C01D0799814209
:1012800009D24E1C0EA832460EF0B7FFBF4A01230A
:101290000FF04DF800E00E46059C31460C310A98DF
:1012A00081420AD20EA80A46314607920EF0A5FFE7
:1012B000B74A0C230FF03BF800E00796002C2FD420
:1012C00076A80C99018177917691002C37D0092668
:1012D000002C10D00A2E00D300E320460D9D294695
:1012E00010F014F94543611B30220A4376A98A5550
:1012F000761E0446ECE7711C76A80EF03CFF04460F
:101300000E46079975180A98854254D20EA82A46A7
:101310000EF073FF224633460FF009F82E464BE0DD
:101320000698C01D0799814216D24A1C0EA8079242
:101330000EF063FF974A01230EF0F9FF0DE00698C7
:10134000C01D0799814236D24E1C0EA832460EF0BF
:1013500054FF8E4A01232BE0079176A80C99018156
:101360007791769164420925002C10D00A2D00D384
:10137000B4E220460D9E314610F0C8F84643A11B4A
:1013800030220A4376A94A556D1E0446ECE7691CD3
:1013900076A80EF0F0FE04460D4607996E180A98DE
:1013A000864208D20EA832460EF027FF22462B4670
:1013B0000EF0BDFF00E00E4635460A350A9885421C
:1013C00009D20EA831462A460EF017FF724A0A23A8
:1013D0000EF0ADFF00E035460B9C002C23D476A820
:1013E0000C99018177917691002C2CD00B950925D1
:1013F000002C10D00A2D00D370E220460D9E3146FD
:1014000010F084F84643A11B30220A4376A94A55BE
:101410006D1E0446ECE7691C76A80EF0ACFE04468F
:101420000E460B993EE00698C01D854218D26A1CF4
:101430000EA8294607920EF0E0FE564A01230EF050
:1014400076FF0B9C0DE00698C01D854238D22946D8
:101450006D1C0EA82A460EF0D0FE4C4A01232BE04C
:10146000079576A80C9901817791769164420925B8
:10147000002C10D00A2D00D330E220460D9E3146BC
:1014800010F044F84643A11B30220A4376A94A557E
:101490006D1E0446ECE7691C76A80EF06CFE04464F
:1014A0000E46079975180A98854208D20EA82A4652
:1014B0000EF0A3FE224633460EF039FF00E00D4643
:1014C000EA1D0A98824209D20EA829460B920EF014
:1014D00094FE324A07230EF02AFF00E00B956DA818
:1014E0000C9901816E916D91049C002C25D00925E9
:1014F000002C10D00A2D00D3F0E120460D9E31467D
:1015000010F004F84643A11B30220A436DA94A5546
:101510006D1E0446ECE7691C6DA80EF02CFE044617
:101520000E460B9975180A98854217D20EA82A46BE
:101530000EF063FE224633460BE00698C01D0B9961
:1015400081420BD24D1C0EA82A460EF056FEE64AEA
:1015500001230EF0ECFE02E0140B00200D462A469B
:101560000A320A9882421BD20EA829460B920EF02C
:1015700044FEDE4A0A230EF0DAFE12E0481D01089E
:101580006C190108681D01086D1D0108F11C010896
:10159000731D01087F1D0108801D01088A1D0108B7
:1015A0000B95039870AA0C99118171917091002884
:1015B00024D0092500280FD00A2D00D38EE10D9EDE
:1015C000314604460FF0A2FF4643A11B30220A43D6
:1015D00070A94A556D1EEDE7691C70A80EF0CBFD91
:1015E00004460E460B9975180A98854215D20EA826
:1015F0002A460EF002FE224633460BE00698C01D36
:101600000B99814209D24D1C0EA82A460EF0F5FD19
:10161000B54A01230EF08BFE00E00D462C460C343B
:101620000A98844209D20EA8294622460EF0E5FD0A
:10163000AF4A0C230EF07BFE00E02C4601980EF022
:10164000A3F802460D190A9885420BD20E460EA841
:10165000214614462A460EF0D0FD224633460EF0AF
:1016600066FE00E025462A460F320A98824209D2D9
:101670000EA829460B920EF0C0FD9E4A0F230EF0D5
:1016800056FE00E00B95029873AA0C991181749193
:101690007391002824D0092500280FD00A2D00D3EB
:1016A0001CE10D9E314604460FF030FF4643A11B5E
:1016B00030220A4373A94A556D1EEDE7691C73A8D1
:1016C0000EF059FD04460E460B9975180A9885428E
:1016D00015D20EA82A460EF090FD224633460BE0A6
:1016E0000698C01D0B99814209D24D1C0EA82A46AE
:1016F0000EF083FD7C4A01230EF019FE00E00D463A
:1017000029460E310A9881420AD20EA80A46294675
:101710000B920EF072FD784A0E230EF008FE00E0E8
:101720000B9576A80C99018177917691009C002CFD
:1017300025D00925002C10D00A2D00D3CEE020465C
:101740000D9E31460FF0E2FE4643A11B30220A43B4
:1017500076A94A556D1E0446ECE7691C76A80EF082
:101760000AFD04460E460B9975180A98854215D253
:101770000EA82A460EF041FD224633460BE006989D
:10178000C01D0B99814209D24D1C0EA82A460EF0AD
:1017900034FD554A01230EF0CAFD00E00D466A1CD7
:1017A0000A9882420AD20EA8294614460EF025FD58
:1017B000524A01230EF0BBFD214600E02946099D57
:1017C000CC1D0A98844208D20EA822460EF015FDC0
:1017D0004B4A07230EF0ABFD00E00C460C951C2D88
:1017E0005AD00898465B0C9800280DD0621C0A98C5
:1017F000824209D20EA821460B920EF0FEFC012374
:10180000404A0EF094FD00E00B9476A8002101817F
:1018100077917691002E28D0079109950925002E01
:101820000FD00A2D51D230460D9C21460FF06EFE8E
:101830004443311B30220A4376A94A556D1E0646A1
:10184000EDE7691C76A80EF096FC05460E460B994E
:1018500074180A98844216D20EA822460EF0CDFCC7
:101860002A4633460EF063FD0EE00B994C1C0A9895
:1018700084420BD20EA822460EF0BFFC01231A4A66
:101880000EF055FD03E00C46099D00E00C460C9857
:10189000401C0C90AD1CA2E7251D0A98854209D278
:1018A0000EA821462A460EF0A8FC174A04230EF083
:1018B0003EFD04E00698C21D94420BD825460EA8B2
:1018C000294600F0D5F879B0F0BD0798C0430A2149
:1018D0000EF0B4FE002021460EF0A8FE0C98F5E7AD
:1018E0000998F3E70020F1E7F11C0108911D0108B8
:1018F0009B1D0108A71D0108B61D0108C41D010894
:10190000C51D010816190108C4190108F0B503AF77
:1019100097B005A8402101910FF076F94D4DD422E2
:101920004B4B98588026311A1C8FA14229D204961D
:10193000D02103915E58311A8031A14201D2324642
:1019400040E0802E029203D1049E009603990FE09E
:1019500031467F2E049E77D8421A184650304118DF
:101960000FF044FD3A4B0298185803995A580092C8
:1019700000225A500099401A029A9850311AA142F6
:101980005BD3164601191A4650321C4680230EF0CE
:10199000EDF902460B462146343115AC204608F0DD
:1019A00071F82078012804D16178002901D1002044
:1019B00002E000283AD11698254B995908189851F9
:1019C000D0215A58904231D0861A402E00D3019E21
:1019D000B1182DD281292BD2039105A9049140245D
:1019E0003046029222461C460EF027FA029AA218AE
:1019F000503233460EF09BFCD020039921500498BE
:101A000031460EF097FB002989D0C023EA58561CB6
:101A10007F243440C426AE59B44204D07F2A0FD864
:101A20000678AE54EC50401C491EECE717B0F0BDF0
:101A3000802310461A460EF0F9FD45200EF0FAFDFF
:101A4000802110460EF0FAFD084680210EF0F6FDCA
:101A50004C0000202C08002080B500AFEFF310816F
:101A600072B60248006881F3108880BD0C0B00201C
:101A7000F0B503AF89B00A460690012002904002FB
:101A8000089000260591964257D2304606990EF0EE
:101A9000DDF907900C46B72085002B4B5859089963
:101AA0000A1A94422AD95B21C90004915958029B11
:101AB0005B02994204D00029089B07D1224B1DE00C
:101AC000089903912946204D049B0EE00195994207
:101AD00035D2421A1C4D2846D83041180FF086FCEA
:101AE00001996858049BEA5803920022EA50039A2D
:101AF000801A6850089A121A2B460D46944200D359
:101B00001446002C0DD02118D8331A46089B0EF02D
:101B10002DF9079A23460EF00AFC0B4B5859001971
:101B20005851184608F00CF9002C059A05D0A61952
:101B3000401EC0B240087E28A5D809B0F0BD0846B6
:101B400008990EF07BFDC0464C000020FEB506AFA4
:101B500002460368406883422AD0581C10601978F6
:101B60004CB20120002C2BD59C1C14605E783F24C5
:101B7000019426401F240C40E0291BD30094DD1C57
:101B800015609C780294019D029C2C400294B60141
:101B9000029C3619F02910D3191D1160D978019AC9
:101BA0001140B2015118009A5207D20A891807E071
:101BB000002005E0A101891902E0009909037118CC
:101BC00003B0F0BDF8B504AF0091456801220021D3
:101BD000402D164600D30E460368802B144600D3D2
:101BE0000C463440382129400901009E711807260F
:101BF0002E40B240D5430095057A2846EDB2022D1D
:101C00000BD00225002CF8D0CE5CC00702D1009882
:101C1000064000E01643CE54EFE7F8BDF0B503AF41
:101C2000E1B01F914268E7498A420C92079200D3C3
:101C30000791417C0691017C0E9101680B91017A1C
:101C400012914EA90A461C320A922431149140A9DD
:101C500024310391C1682291C17C1E91817C16912F
:101C6000417A119141691B9181691891C169109163
:101C7000006A1D9007200F90C0010D9000260120E2
:101C800020901C9615961598C00700D002E3189C6A
:101C90001C9819968442054666D31B984019611B0F
:101CA000072907D80023994258D0C25C0A2A44D099
:101CB0005B1CF8E7C21C03239A43121A05D11C953A
:101CC0001A9108392191002210E00023C45C0A2CEB
:101CD00007D05B1C9A42F9D11C951A9108392191C1
:101CE00002E0189C199E28E08A4213D88418646880
:101CF000B5494C40B54B1D1B2543845826464E40E4
:101D00009E1B2643B2490E402E408E4202D108321D
:101D10002199E9E71A99914229D080181899891ACE
:101D20001C9D4B1B0021199E445C0A2C03D0491CAE
:101D30008B42F9D11CE08B18189CED180020691C0F
:101D4000A8D0A1420846A5D81B98405D0A2808469D
:101D5000A0D10020159017911C910EE017961C94AD
:101D600020981590254608E01C951796F8E7199ECF
:101D70001796189D1C95209815901B9880191A90FD
:101D8000AE1B129800281D9C109829D0129801288B
:101D900016D10096119801904EA822990E9A1A9B7E
:101DA0000EF06FF95398C10F401840101D990C1A8E
:101DB0005298401EC10F401840101099081A0FE0A9
:101DC0000096119801904EA822990E9A1A9B0EF037
:101DD00058F953981D990C1A52981099081A401CDA
:101DE00021902298C0690C99484364210FF08EFB22
:101DF00001460B98002800D1079919988542139144
:101E000001D1002505E0751E1A98405D0D2800D00F
:101E100035462298119907F0DFFA201A1990169882
:101E200002280FD11E98022800D099E022998869D3
:101E3000096A0C181A9841190DF007FD60432199A1
:101E40004518EAE11E98022800D031E12298026A82
:101E50008169199800901A980190029540A8219BD9
:101E600007F09EFA5EA840A90DF00AFD609A501C8A
:101E700000D1D1E15748101A00D200205E9D002801
:101E800002D00128EED0C8E15F981A9033A82299B9
:101E90000EF0EFFB369C60426041379E002E209989
:101EA00000D001460029DDD134980028DAD4359BD2
:101EB000002BD7D4339A0119099292680892914263
:101EC000D0D89A190999C9688A42CBD8099A116859
:101ED0000491516805910899C91D0F9A91430A1BF5
:101EE0004B43181800960190029223A80990049978
:101EF000059A234607F088FD319630941A982F9062
:101F00002E952BAC169820704EA82EAA09990DF08C
:101F100077FC5C943AAC4EA920460EF095F8207AF6
:101F20000028F7D002289DD03A997F29F2D83B9B10
:101F30003F2BEFD818010F9A134001229A400D9BB6
:101F4000184008435C990978002904D01F9B195C4C
:101F500011431954DEE71F9B195C91431954D9E7CB
:101F60002298026A8169199800901A980190029546
:101F700040A8219B07F014FA5EA840A90DF080FC50
:101F8000609A501C00D147E1C348101A00D20020CB
:101F90005F995E9D00281FD0012800D03DE1229866
:101FA000006A0028E8D050904F914E952298C06961
:101FB000519001221E9802404EA91F980EF083F9FD
:101FC000DAE7C046FFFFFF7F0A0A0A0A00010101A3
:101FD00080808080FFFF10001A9133A822990EF0B4
:101FE00048FB369C60426041379E002E209900D00D
:101FF00001460029C0D134980028BDD4359B002B60
:10200000BAD4339A01190992926808929142B3D8CE
:102010009A190999C9688A42AED8099A1168049137
:10202000516805910899C91D0F9A91430A1B4B43AA
:10203000181800960190029223A809900499059A15
:10204000234607F0E1FC319630941A982F902E9594
:102050002BAC1E9820704EA82EAA09990DF0D0FB2B
:102060005C943AAC4EA920460DF0EEFF207A002891
:1020700002D00228F5D17FE73A997F29F1D83B9B1E
:102080003F2BEED818010F9A134001229A400D9B66
:10209000184008435C990978002904D01F9B195CFB
:1020A00011431954DDE71F9B195C91431954D8E77C
:1020B0002298026A8169199800901A9801900295F5
:1020C00023A8219B07F06CF92BA823A90DF0D8FBBE
:1020D0002D9A501C00D19FE06F48101A00D20020AA
:1020E0002C992B9D002814D0012800D095E022982F
:1020F000006A0028E8D050904F914E952298C06910
:10210000519001221E9802404EA91F980EF0DBF854
:10211000DAE71A912EA822990EF0ABFA319C6042B0
:102120006041329E002E209900D001460029CBD17B
:102130002F980028C8D4309B002BC5D42E9A0119A3
:102140000992926808929142BED89A190999C96871
:102150008A42B9D8099A1168049151680591089981
:10216000C91D0F9A91430A1B4B4318180096019002
:10217000029233A809900499059A234607F044FC7B
:102180003D963C941A983B903A953EAD169828702F
:102190003FAE1E9830703AA903980EF08FFC40AC09
:1021A0001C22204609990EF07EFD489547964EA8C0
:1021B000382221460EF077FD00205D905C905EA8ED
:1021C00014990DF088FF5E98012800D07CE7609D8F
:1021D0005F9C4EA80DF008FEC1B2022900D173E742
:1021E0007F2CECD83F2DEAD828010F9A1540012208
:1021F000AA400D9B1840204389000A9B5958097832
:10220000002904D01F9B195C11431954D7E71F9B69
:10221000195C91431954D2E7219D179E139A1D987A
:1022200010181D902198854200DC2CE52C1A069888
:10223000169906F096F8C2B2022A0FD0509421984F
:102240004E902299886AC96A5191199940184F9005
:10225000012002404EA91F980EF035F80E981699ED
:1022600006F07FF8C2B2022A179D2E46219800D1AF
:1022700009E550944E902299086B496B5191199938
:1022800040184F90012002404EA91F980EF01BF8F5
:102290002E46F8E461B0F0BDFFFF1000F0B503AFCB
:1022A000D5B00191036842688568C46821460A92E6
:1022B00051402A465A400A430B9310940F9501D07F
:1022C000064600E08A4E417D0D91046931A83146F1
:1022D0000EF0FEF932687068B368F16816465290E5
:1022E00051921193D21A121854920D1AA8195390A0
:1022F00012A851A90EF0ECF90B980F99081AC11702
:102300004840411A0A98109A101AC2175040801A71
:10231000884200DC0846002C01D102210D91119A5F
:1023200074498C4200D30C46401C0E90640012ABE2
:10233000743338A86030089001201090C00702D094
:1023400064430020FAE7961B1098C00702D076433A
:102350000020FAE71098C00702D06D430020FAE78A
:102360003598079036980690329804901598059005
:10237000149803903198029038A80C9031A91C222F
:1023800011920F930EF08FFC0C981C3012A9119A29
:102390000EF089FC01201190089B98700020099094
:1023A0001870029840420399484004994942059A9E
:1023B00051400143484248415870A819444347944A
:1023C000079806994018C10F401840104690099D83
:1023D0004F954E950A9E4D960B9C4C944B954A9565
:1023E0004996489451A80C992A460EF099F91695E9
:1023F0000E98159014951396129412A81430642216
:102400000E900C990EF0F7FF2B460F9A0D99117153
:1024100028460D91C9B2022967D000282FD12598EE
:102420001099C90702D040430021FAE72699884253
:102430005BDC927831A80E990EF072F93198C107E1
:1024400001D1442100E0402112AA5158259A511887
:102450002591349B339E329C0F9A1178002905D127
:1024600091781D46119B59402B46917014931396F9
:102470001294119908401599081A1690CDE7401E3C
:1024800016901D998B4206DD1C995B1A1A997118DA
:10249000199AA51801E0314625461A46189B5E1880
:1024A0001396179B5C1912941B9BD31814937F2DC2
:1024B00018D8402916D209930B9407240C40119B7D
:1024C000A34038240C40210129430D9AD20703D0A0
:1024D000019C625C1A4302E0019C625C9A43625474
:1024E0000B9C099B0F9A117993E755B0F0BDC0463C
:1024F000281D0108FFFFFF7FF0B503AF9DB00D461B
:102500000646847D002C08D0012C0CD13069401C7B
:1025100001D30020C043400806E030693F498842AB
:1025200002D3084600E00020424205A831460EF0E2
:10253000FEF9327D022A05D00120024005A9284675
:102540000DF0C1FE707D022865D03169002962D08E
:10255000002C03910495029008D0022C05D12F483D
:1025600081420C4602D3044600E04C0809A83146DB
:1025700022460EF0DCF90B9C0F940A9E0E96099BE6
:102580000D930C984508039AAA4200D81546109559
:1025900013941193411B914200D31146009401936F
:1025A0001491401A00D20020801912900120029C40
:1025B00004400DA90296049E304622460DF083FE8B
:1025C00011A93046264622460DF07DFE08980028C7
:1025D00021D01890029969181691039A5300009C13
:1025E000621C9A4200D31A4652081792019B159317
:1025F0001C901B921A91A01A049C00D20020C018B3
:10260000199015A9204632460DF05DFE19A9204605
:1026100032460DF058FE1DB0F0BDC046FFFFFF7FF3
:10262000F0B503AF904EB544904868442790904869
:1026300068444A908F48684473908F4A6A448F4830
:1026400068445A900B205D90C0048D4B596901433A
:1026500059613F20669000038A4B19688143152019
:1026600057900003081818600120799000027590B7
:10267000C0309861844B1868844908401860D86855
:102680000840552109064018D8608149086830245F
:10269000A0430860C86810237893184320232E9322
:1026A0009843C8607B4868443A305F907A496944EF
:1026B000084640306C908C316491784868442830EA
:1026C00058907548684440307E907548002802D084
:1026D00000BF401EFAE769927D20769000017B9052
:1026E00000252E46052D0ED00BF0F4FE7B99002917
:1026F00002D000BF491EFAE7C0434221084200D180
:10270000761C6D1CEEE7032E01DB0BF047FF799979
:102710000A045B4B18687C92104318604A04614EAF
:10272000314608461968114202D1411C0028F8D1EF
:102730006392002829D05C481121016058685B4AE7
:1027400002400804101858605048401C19680143A2
:10275000196030461968890103D4411C00280846D5
:10276000F8D1586802210143799881435960304675
:1027700059680C220A40082A03D0411C0028084648
:10278000F6D1186B802101431963494801683F4A1B
:102790001140032268929207891801604548464912
:1027A00041600025856007215B9101607998810275
:1027B0007FA80EF029FA1F208004314A5169014395
:1027C00051613E4A10683E4908403E494018106039
:1027D0003D4B18683D4908403D4940185E3018603F
:1027E000294A10683B4901403B48081810602849B5
:1027F0000868402210921043802270929043086033
:10280000364821498861364898613648401C9861AD
:102810007598F430002802D000BF401EFAE778987F
:10282000294988617598F430002802D000BF401E05
:10283000FAE7799BD8043190234988611F4A50698F
:10284000E22101431D200D908143516170980E4992
:10285000886100BFD8056F90886123480146002930
:1028600044D000BF491EFAE7BCE3FFFF081C00008C
:10287000881B000064110000CC1000002C06000032
:102880000010024000080048000C0048FFFFFF0055
:1028900000140048FC0500003C060000701B00000E
:1028A000409C00006079FEFF00200240FCFFC0FF5A
:1028B00020ED00E010E000E07FBB000000100048C9
:1028C0000000FFFF55550000000400483FF0FFFFE7
:1028D000E2040000CF3FFFFF104000008000040032
:1028E00018002000FFFF0F0010270000319BE24975
:1028F0008B61E2494969AE227D9211435122914395
:10290000DE4A5161DE49709A8A6100BF6F9A8A611E
:10291000D9498B61D94B5969A4220A435B218A4367
:102920005A617099D64A916100BF6F9B936131994A
:10293000D14A9161D1494969A3220A435C21289176
:102940008A43CE494A617099CD4A916100BF936133
:102950003199C94A9161C94B5969C02253921143B7
:10296000669A91435961709BC54A936100BF6F9904
:1029700091613199C04A9161C0494969A1220A43D4
:102980005E218A43BD494A61BD498B6100BF6F9A90
:102990008A61B949319B8B61B84949692F226B9291
:1029A0001143D02232929143B44A51617099B44A92
:1029B000916100BF6F999161AF498B61AF4B5969CC
:1029C000232240921143DC2291435961AC49709B10
:1029D0008B6100BF6F9B8B61A749319A8A61A749C0
:1029E00049698122489211437E229143A34A516151
:1029F0007099A34A916100BF93619F49319B8B619C
:102A00009E4B596925220A43DA218A435A619C491F
:102A1000709B8B6100BF6F9A8A619749319A8A6176
:102A200096494969109A1143BF229143934A5161D3
:102A3000934A936100BF6F999161319B8E498B617D
:102A40008E494969B0220A434F218A438B494A6122
:102A50008B49709A8A6100BF6F9A8A6186498B613F
:102A6000864B5969042223921143FB2291435961F9
:102A70008349709B8B6100BF6F9B8B6131997E4A4C
:102A800091617E494969789A1143EF2291437B4ACB
:102A9000516170997A4A916100BF93613199764A88
:102AA000916176494969AF22529211435022549262
:102AB0009143724A51617099714A916100BF93616B
:102AC000002802D000BF401EFAE76E4AD0690221FA
:102AD0000143D161689880046B4A11688143319841
:102AE00001431160506AF02188435062674B6B9834
:102AF0009862C5205E9080006590D330D8621864DB
:102B00000D210B91C902D96179990A03196A77924B
:102B100011431962799959614899196008225C49F1
:102B20000A928A611864574A50695A4901435161AF
:102B300079984002916901439161FF210A020920BD
:102B40002690C3061868359210431D9108431860FB
:102B5000D868514908406193D860474801680F22FE
:102B600011430160C1687A929143C160464A11687D
:102B7000689801431160D1688143D1607998C20798
:102B800046490A61086088600A68D20703D1721C4E
:102B9000002E1646F8D17B9A2F328A625B9A4A61E0
:102BA0007998C8603E4A95600B46403313613D4BAF
:102BB000183353615D9BD3603B4890608E68239BC4
:102BC0001E438E60394E13689B0703D4731C002E7E
:102BD0001E46F8D14C263648622E06D0314B9B1942
:102BE000343B1B888353B61CF6E77A985060182054
:102BF0002D90086095605D98D0602B489060886843
:102C0000239A104388602B48016840682A4E2B4A5B
:102C1000914263D1C01E022860D2294868444230E4
:102C20003E210EF03FFD75987E9908805A9A254DF9
:102C30001563254C5463254C94632548D06325497E
:102C4000116456649164D664234E04211B4B1361B6
:102C500051617C999161D6611462506295621A4803
:102C6000D0620020802800D193E012490958144A0C
:102C70006A441150001DF5E70004004800100048A8
:102C8000000C00480010024000080048000400400A
:102C90000014004801000E000000FFFF0024014066
:102CA00000000240140B002081250000C0F2FCFF50
:102CB0007006002000F001089E0F0000594B53469B
:102CC0003C060000D40100082C0E00007A01000828
:102CD000860E0000620000080A2C2500EB480168FF
:102CE000749140687A90EA4E6E44304642303E21FC
:102CF0000EF0D8FC75987E9908805A99E5480863CB
:102D0000E5484863E5488863E54ACA63E54A0A64DA
:102D1000E54B4B648A64CB64E44B0B61239A4A61B4
:102D20007C9A8A61E24ACA610862DD484862D948F1
:102D30008862D948C862749898427A9B29D1581EF3
:102D4000012826D81036202D08D0D0484019C16857
:102D500071517119006948600835F4E7CB4A402C7D
:102D60000AD01019001F0068C949694408510819A0
:102D7000115941600834F2E7022B0AD1CD4801789D
:102D8000C34A6A445172417891728178D172C07895
:102D90001073BF4868440BF023FE00257E9528463B
:102DA0002E46102D17D07C90C34C6C4420460AF060
:102DB00041FEC248431CE28861882088002B02D073
:102DC00000BF5B1EFAE77E9B9B187E9376187C996A
:102DD00008186D1CE5E70309B948181884B23109D1
:102DE000E120569080007A906530B64A844201D244
:102DF000B54C63817E9B1B098C18A4B2844201D21E
:102E0000B14CE182991889B2814202D24620AE4982
:102E10000B5200205A99086148618861AB490C281F
:102E200005D0425C9A4B6B441A54401CF7E7984813
:102E30006844C17A7E91817A7C91417A7191017A5C
:102E40007291C1796E9181796D9141796291017927
:102E50006791C178609181785C91457804780BF036
:102E600039FB6A9026988004994A5169014351615F
:102E70009069984901439161974A106880B29749D7
:102E80004018106066988006916801439160506A0E
:102E9000934908409349401850627798906192484E
:102EA000906192489061924A106830218843106086
:102EB000D068789908432E998843D0608D4AC032F3
:102EC0008D4801681140759A114301608B48016873
:102ED000239A114301608260894E00213160659818
:102EE00030601722599212020992726040303060AD
:102EF0006B98C04374902030B268D20704D0002889
:102F000002D0327B401CF7E7280200195C9A1204B9
:102F10008018609A12068018629A1202679BD21873
:102F20006D9B1B04D2186E9B1B06D21842407198F1
:102F30000002729BC0187C9B1B04C0187E9B1B0662
:102F4000C01850406E90584862306A9A43900240D0
:102F50004C92799800077C906A4D052900D1D5E004
:102F60000A462846B168090603D5411C00280846D0
:102F7000F8D159487C99816100BF00BF2846B168EB
:102F8000090603D5411C00280846F8D1729228464C
:102F9000B168890703D4411C00280846F8D1A02451
:102FA00034732846B168C90703D1411C002808467C
:102FB000F8D1307B2846B168090603D5411C0028AA
:102FC0000846F8D100BF00BF43487799816100BF30
:102FD00000BF7B98002802D000BF401EFAE7002007
:102FE00001460BF041FF7698C001002802D000BFD7
:102FF000401EFAE70B2019210BF036FF0C200121AF
:103000000BF032FF34483849816110200BF0C6FEC6
:103010003D4948712946B268120603D54A1C002969
:103020001146F8D12C497C9A8A6100BF00BF29461D
:10303000B268120603D54A1C00291146F8D1294668
:10304000B268920703D44A1C00291146F8D13473A0
:103050002946B268D20703D14A1C00291146F8D18B
:10306000317B2946729BB268120603D54A1C00299F
:103070001146F8D100BF00BF1749779A8A6100BF97
:1030800000BF591CC0B29E2841D066E700F8010875
:103090003C060000D40100082C0E00007A01000854
:1030A000860E0000620000089E0F0000594B534638
:1030B0000A2C25003CF8010870110000B70B000035
:1030C00024FAFFFF24FA000070060020ACF7FF1F6F
:1030D000001002400110020000100048000055A935
:1030E000FFFF0F00000010110003000300040008A0
:1030F000000400483FF0FFFF080001400C040140BD
:1031000000300140F0D8FFFF140B002005232846B3
:10311000B168090603D5411C00280846F8D1DB48F0
:103120007C99816100BF00BF2846B168090603D5BC
:10313000411C00280846F8D12846B168890703D405
:10314000411C00280846F8D106200E90307328460E
:10315000B168C90703D1411C00280846F8D1307B6B
:103160002846B168090603D5411C00280846F8D155
:103170002846B168890703D4411C00280846F8D1C5
:103180005420089030732846B168C90703D1411C08
:1031900000280846F8D1307B2846B168090603D5D7
:1031A000411C00280846F8D12846B168890703D495
:1031B000411C00280846F8D1752030732846B168B4
:1031C000C90703D1411C00280846F8D1307B2846A6
:1031D000B168090603D5411C00280846F8D12846E5
:1031E000B168890703D4411C00280846F8D15E98CD
:1031F00030732846B168C90703D1411C002808462E
:10320000F8D1307B2846B168090603D5411C002857
:103210000846F8D12846B168890703D4411C002824
:103220000846F8D12A203F9030732846B168C90774
:1032300003D1411C00280846F8D17293307B284600
:10324000B168090603D5411C00280846F8D100BF23
:1032500000BF8E487799816100BF00BF0024322CE7
:1032600008D08B48015DFF2902D020460BF0FCFD01
:10327000641CF4E72846B168090603D5411C002800
:103280000846F8D181487C99816100BF00BF28467B
:10329000B168090603D5411C00280846F8D1284624
:1032A000B168890703D4411C00280846F8D1A02042
:1032B00030732846B168C90703D1411C002808466D
:1032C000F8D1307B2846B168090603D5411C002897
:1032D0000846F8D100BF00BF6C487799816100BFF4
:1032E00000BF022001216D910BF0BEFD2C46022093
:1032F0000BF054FDC00703D0601C002C0446F6D12F
:1033000024201321634C3E905091A04726203B215E
:103310003C902591A0470F2000217E91A0470220DC
:103320000146A0472C4602200BF038FD800703D54C
:10333000601C002C0446F6D10F20A02162907891E9
:103340000BF092FD022001460BF08EFD2C46022070
:1033500079900BF023FD800703D5601C002C0446F8
:10336000F5D125200A213B9060910BF07DFD4A4864
:10337000464988611F2014900BF06EFD2846B16805
:10338000090603D5411C00280846F8D13F487C991E
:10339000816100BF00BF2846B168090603D5411C02
:1033A00000280846F8D12846B168890703D4411C93
:1033B00000280846F8D1789830732846B168C907C4
:1033C00003D1411C00280846F8D1307BB0680006C4
:1033D00003D5681C002D0546F8D100BF00BF2B485F
:1033E0007799816100BF00BF10202B900BF0D6FCB5
:1033F00001462A485191417173987E9AC2600261D8
:10340000426182616E9B190E719114466000A107A2
:10341000C90F0818719940186899084029216791C7
:103420004843401C78900F2C40D8521CC82A01D821
:10343000052600E003267598F43082427E9200D97A
:10344000012617484343174818187C90E04029216B
:103450000EF0F2F978980818C1B2002294420DD00B
:10346000114B6B449B5CCB1ADD176B405B1BDBB2D3
:10347000521C9E42F2D97E9A7C9BD4E70A49694449
:103480000855641C7E9A7C9BC0E7C046001000482B
:103490008C25010869EE000800010003140B0020D0
:1034A0000D6619005FF36E3C70110000D74801688B
:1034B0004068D74A914211D1C01E02280ED2D3488B
:1034C000007A132800D31320C001D049081870993E
:1034D0004358581E0121C943884212D3749B2F338D
:1034E000CC480168406891420BD1401E022808D2A6
:1034F0006D98C043C7498B68591E814201D3749BA4
:103500002F330020C44A1C2804D0C44969440A52FD
:10351000801CF8E7C2486844C24C21467E936CC8C0
:103520006CC16E9820617E9D656120461830BB4954
:1035300069441C225C920DF0B6FB20463430112108
:103540002C910DF061FB4921002055916054691CBC
:103550004A1E914148220692A15446217C91605214
:10356000452279990792A154AF49086088606B9A07
:103570008A62779AF73ACA6208616D9DCD601D9A9A
:103580001304AA4A14689C436F9B1C431460A84C04
:10359000FF3413692340EC0323431361A54B283305
:1035A000A54A13600D607299052900D3054651980C
:1035B000C0B29E384142414113914C98002802D03C
:1035C0006D980AF0DFF913982843139000203028F3
:1035D00008D09249694400220A5209188A804A8018
:1035E000801DF4E701205F9D28716E90E87093487C
:1035F000684400260687014630318E725A990E6063
:103600004E6086496944302272920DF04CFBAE70D8
:103610006E708B4A5069639B184350617B983030C1
:10362000916901439161689A1004619D2968814301
:1036300019432960686A799908430B99884368623D
:1036400080496B988862682088610A624C647E4871
:103650006844314606F0C2F8714D6D441424002CC4
:1036600008D079496944802228460DF0C4FE641EC2
:103670008035F4E76E990A026C987E9202805A981F
:10368000724D0563724B4363724C8463724DC56324
:10369000724B0364724A42648364C2640A045C49E4
:1036A000016123994161779282616E4902461C3221
:1036B00032C2664981626649C162584C6C442546F3
:1036C00042353E2128466F910DF0ECFF20468030B8
:1036D000052124914A02524969444F900DF08BFE16
:1036E0005698C0007890494908684968484A90420D
:1036F00012D1C81E01280FD86B915798C001729043
:1037000000207299814200D1B0E040490958434AF3
:103710006A441150001DF4E7103470943D4801686C
:10372000719140687D906C987E9901805A984749C4
:10373000016347494163474B8363474CC463474A2E
:103740000264474941648264C1643149016123993B
:10375000416177998161434902461C321AC23B4953
:1037600081623B49C1623E2128460DF09BFF4F9D7F
:10377000142E0DD02A4C6C442046314606F02EF80B
:103780008022284621460DF036FE8035761CEFE774
:103790001F4871998142789E7D9D00D0EBE1681EA3
:1037A000022800D3E7E17998C1431A488068421E95
:1037B0008A4201D8649908600020729B709C20287E
:1037C00013D0144909180A69C968215021184A60A0
:1037D0000830F4E70F49C858C918091F09680F4A8B
:1037E0006A44D150D11848600833402BF2D1022DE1
:1037F00000D0BCE11C480178084A6A445172417803
:1038000091728178D172C0781073B0E100F0010834
:10381000594B534600F80108DC0500003C06000047
:1038200070110000000000200044014004E400E0AA
:103830000000FFFF1800200000E100E0FC05000090
:1038400000100240002C0140701B0000D401000851
:103850002C0E00007A010008860E000062000008AD
:103860009E0F00000A2C25003CF8010804205A99FC
:10387000FC4A0A614861FC486844407B232801D324
:103880003C2803D9F84868442C214173F648684421
:10389000007A132803D9F448684400210172F248E1
:1038A0006844007B002801D00B2803D3EE4868440D
:1038B0000A210173EC486844807B0F2801D3372824
:1038C00003D9E948684425218173E7486844C07BEF
:1038D000032803D9E44868440021C1736C98007838
:1038E000022802D300206C9908700020DE4A6A4446
:1038F000202829D0DD49C93118280B4601D0DC4BDE
:10390000C833002800D019461218D74B6B441B1837
:103910005E8A148AB4420BD2D34D6D442D18AD8A01
:10392000AE4205D2322C03D3D24C3434A54209D94D
:10393000789CF8345C82631A1382CB4A6A4412186A
:103940000C4394820830D1E774982030789EC649A1
:103950006944002825D009184031C34A6A44121826
:103960004223D55A0B88AB420DD2BF4C6C4424186D
:103970004426A45B789EA54205D2322B03D3BD4BCF
:1039800034339C420BD94232B74B6B441B1844244E
:10399000B84D1D5362230B803146F8311180083039
:1039A000D5E70020B04E6E44779080300246AE4995
:1039B00069447298824200D1D5E071928D187221CB
:1039C000695C022903D32946723100220A707321EF
:1039D000695C042903D32946733100220A70779861
:1039E000401C709074992D3100292BD07218A5209D
:1039F000135C1E2B01D3652B03D31046A530642323
:103A00000370A820135C1E2B01D3652B03D3104633
:103A1000A8307C9B0370AB2014566320C3439C42A8
:103A200001DB652C03DB1046AB30002404707D986D
:103A300014569C4201DB652C02DBAE320020107074
:103A4000491CD1E7A97D052901D30021A9756F98EB
:103A5000295C042903D329463E3100220A70669866
:103A600029566322D243914201DB642903DD2946B2
:103A70003F3100220A70698E7A98814202D37E48D3
:103A8000814202D97A9964316986298F6A6B0A4327
:103A90000CD12946343135220823AB540022AA87A1
:103AA0007648A8637648E8865B980870B421BE29FA
:103AB00006D0725C192A01D900207054491CF6E71F
:103AC0007498002822D033181A46F03214780E2C3D
:103AD0000BD8F1241C5D192C07D8F5241C5D022C91
:103AE00003D8F4241C5D0B2C0ED3F4247E9000200C
:103AF0001853F22431462E4664251D5335460E4692
:103B0000F124185510707E98801DDAE7E97D0929A7
:103B10000AD0052908D0002129845A48E8615A486A
:103B2000688369760521E9752978491EFE2915D330
:103B3000564828815648A880564828607798401CE7
:103B40007E90C0B20A2421460DF0E0FC44433030A0
:103B5000A8717E98001B30210143E971803670986E
:103B60007790719821E76B980328789E03D13E489F
:103B700068440BF0BDF83C486844807A411E884197
:103B80005F9BD8706C984078411E02468A411A713A
:103B9000002806D0404868444049042205F086FCCD
:103BA00003E03D48684405F005FD2F4D6D44E87B7A
:103BB00009F0E6FF00243A4884716C98007841428D
:103BC0004141384A51700B994904374B5A690A43AD
:103BD0005A6168998906354A12688A436E9B99062C
:103BE0005118324A11603249002802D00846C130CB
:103BF00000E058072D4988612E48684444810481BB
:103C0000C4808480697A4A1E91410173297A1329FC
:103C100000D35099C9014F9A51180A8A02804A8AE2
:103C20004280C86809F0E6FE5A98C0696099484326
:103C300005F064FBA87B05F039FB0C2C06D0304660
:103C4000F8301D4969440853A41CF6E70020094BCD
:103C50000C2835D019466131184A6A441152801C2B
:103C6000F6E7C046594B53463C060000AF0400003F
:103C7000DC0500009E0F000034080000090A000067
:103C8000050600004B6400001932000020200000EF
:103C90004C2000004D4F4445FC050000FE23010868
:103CA000140B00207006002000100240000800489D
:103CB0003F1F0000BC100000201100007011000028
:103CC0000024589804704A98846044600460ED4869
:103CD00068447E90EC48684401467E9E2CCE2CC100
:103CE000229001460C31FE48684421912CC82CC119
:103CF00058984470FB494A98C160FB48684404776F
:103D0000699D2C606C60AC60EC6029616C61AC6199
:103D10007A987C303A906A99014205D0EF4868441D
:103D2000F249694404F040FA229818302290E043A6
:103D30004990789E0C2C06D03046F830EC49694406
:103D40000853A41CF6E7EB486844007A4E904B20D9
:103D500034904001569058980078002800D09FE198
:103D600000257D957795FDF777FE7E90DC4C6C44C1
:103D700020460AF063FEF8360AF0ACFB30402178AA
:103D80006678719670910E43A3781E43E2781643CD
:103D90000821645ED8498C4202DD002806D075E116
:103DA000002800D072E1002E00D16FE172946B9375
:103DB0006C92D24D284609F059FDC74C6C44204600
:103DC00009F0B8FD7398C0690090C54A6A447E98AE
:103DD0002946234604460AF04FF87798201A659939
:103DE0000B3188422CD95F9B1879002806D0BF4838
:103DF00068440322C24905F059FB20E00020987076
:103E000002211980B949694432220A87549ACA8624
:103E1000569AC8328A865A99BA4A0A60D9780129CC
:103E200077940DD175997F31B74BD962539A5A6304
:103E30005A6A8A42194600D94862489808607794BD
:103E40007D98211A212900D219E16420642900D328
:103E500001466A90A548684405F058FB6E9CA10293
:103E60007FA863900CF0D0FE032001029A486844BA
:103E70007D91018109211022699DA44B2B66A44BE1
:103E80006B66A44BAB66629BEB662A6769676C65E1
:103E90006A99A965639C2146FDF7C0FE7F21002039
:103EA0006A9068655D98A8656491E96528666E9872
:103EB00068669948A866884868442146FEF7EEF986
:103EC0008D487299814216DD834868447D9901814D
:103ED0000221642201236B65AA658C4A2A668C4AFA
:103EE0006A668E4AAA66579AEA6629675999696787
:103EF0007FA9FDF793FE002E00D194E07648684438
:103F00007D990181222102246422012363936B6540
:103F10007292AA657D4A2A667D4A6A66804AAA66C6
:103F2000629AEA6661942C6769677FA9FDF776FE5D
:103F30007C48E86228636863A863709800286A9DDB
:103F40000ED0794C6C440021042520462A460CF002
:103F50002FF9764A2B460CF0EAF92020207105252E
:103F6000719800280ED02C1D6F4E6E4430462946A5
:103F700022460CF01DF904236D4A0CF0D8F92020DC
:103F800030556D1D6B9800280ED02C1D664E6E446A
:103F90003046294622460CF00BF90423654A0CF002
:103FA000C6F9202030556D1D6C9800280DD00D2DC0
:103FB0000BD22C1D5C486844294622460CF0F8F8C8
:103FC00004235D4A0CF0B3F900E02C4656486844DF
:103FD00021460CF09DF802460B463F4868441146C6
:103FE0001A460CF067FA699D6C6DA96DEA6D3A4846
:103FF00068447D9B0381454B2B66454B6B662C23A8
:10400000619E2E676B670E23002C00D11346EB6672
:10401000F94A00D10A46AA66639969657299A96549
:104020007FA9FDF7FBFD37206A996965A86564994A
:10403000E96528666E9E6E663748A866264868441D
:104040007FAC2146FEF72AF9234868447D99018117
:104050000221EE4A2A662E4A6A66ED4AAA665C9AF0
:10406000EA6629676F99696764216E65A9652146CB
:10407000FDF7D4FD204605F05FF97E987D906D9D9B
:10408000789E70E620110000701B0000E80706D043
:10409000E049643115486844282205F095FA699D85
:1040A000214868440AF0CAFC12486844007A132880
:1040B00000D31320C0014F99081874214591405C2A
:1040C000411EC9B2EA6A0A29619237D21649694487
:1040D0000AF0E4FD33E0C04620110000701B000030
:1040E00070110000FFFF0000CC100000FC05000074
:1040F000EC1000003C0600007CFCFFFF742201086D
:104100002E24010850003200002C0140E420010858
:104110000202010290220108020101009F2201080F
:10412000B422010820202020F810000028190108DE
:10413000B0190108181901085C19010800204D90F8
:104140004C99481E81414C91B348401C4490B3485F
:10415000684420301A90B248684410300C90B1483E
:104160006844801C3090B048684412303890AF48A2
:104170006844801D39901D98903036905298000107
:10418000479000206421AA4A15903D9112912090F9
:1041900049990F911B901C922990549006464B9080
:1041A00046904190429037903390649064987D900F
:1041B0005C96549CFDF750FC05469B4868440AF009
:1041C0003DFC281B642800D33D9859900AF082F9E1
:1041D0006A90A542264651D096486844599E314679
:1041E00005F094F991486844808800280CD0B3B257
:1041F000C21A8E496944984200D2339A8A8003D801
:104200008A4868440021C1726A9AD0434221084218
:104210002ED010062CD085486844807AD1B28842CE
:1042200000D0CEE0B0B2814A6A44D1880918F94B77
:10423000994200D3F749D180369A323A92B29142EC
:104240002E461BD9794969440A891018F44A9042CC
:1042500000D3F34808815A282E460FD37348684488
:10426000002101816A99002900D0B8E02020BDE03A
:10427000002039990871488008802E46E948684432
:104280000188694A6A44508A411ACB175940CB1AAF
:10429000918A1F2B6C95549603D3634A6A44D28A41
:1042A0002DE0E04A6A4452888A1AD3175A40D31A3A
:1042B0005D4A6A44D28A1E2B21D8DA4B6B449B8814
:1042C000D31ADD176B405B1B1E2B18D8D54B6B44E4
:1042D000DB88554D6D442D8BEB1ADD176B405B1B56
:1042E0001E2B0CD8CF4B6B441B894F4D6D44ED8B6F
:1042F000EB1ADD176B405B1B282B00D8C8E06D9EC6
:104300003346C84D6D44AA80698028806999C86E7B
:10431000E880486F688144496944C88B2881619D61
:10432000E8B20A788242304613D1280A4A78C0B2ED
:104330008242619A30460CD1100C8978C0B2814219
:10434000304606D1100E38496944C978081A411E12
:1043500088416A990904314600D1194600296D99AE
:10436000699A789E00D10146E0486844C07A526D4F
:104370000029619212D0401EC0B2002103284B9147
:1043800002D28000DA49095844910A215A98C0693A
:10439000484304F0B3FF4B98469099E0002809D0B9
:1043A0006C98A04200D193E04499599881424BD92E
:1043B000091A4FE06C98A04200D189E05F984499B7
:1043C00049E011468143080673D01848684400222A
:1043D0000281C2806A9A827200292E9806D04842D1
:1043E0000840C4494843C00EC3A1085C03A1400073
:1043F000085A40008744C046C32201082000580ADA
:104400004C0A500A480A5C0A610A540A3C22010814
:10441000D1220108340800002F750000701B000035
:1044200070110000001C000020110000BC100000F2
:10443000581B0000FC050000B74868440121B74B39
:104440006B440A4601F03FFAB54831998161002179
:10445000B44801645F98469B599C1C1900259C42F6
:1044600000D2EC434491B0498C4230D9AF494B9BC8
:104470008B4209D90079002822D0A848684402223A
:10448000AB4905F013F821E05998C1184B911EE093
:10449000644B6B445B89A74D6D442D8CEB1ADD1783
:1044A0006B405B1B282B01D901F01EF9002301F0A2
:1044B0001CF99948684400210181C1808272DCE6C0
:1044C00096486844FA22314605F07EF84B954694AA
:1044D00058980078411E884197496944097E00290F
:1044E0006D99649100D1649080486844057A132DD9
:1044F000284600D313200122C1017E914F98411814
:1045000045986B910C5C601E4E99C9B28D426392C6
:104510000AD17D9B534064990B43D90704D0C0B2A4
:104520000A28699D0BD33DE0C0B209281AD88149F9
:10453000694420460AF0B2FB4D904E95699D7D4935
:10454000694420460AF0AAFB4D9B1A464240D10717
:10455000014600D11946D243649B1A43D20706D0C4
:104560004D911FE000204D904E95699D1AE0002866
:1045700005D06A48684404F069FF6D9811E05F98BF
:104580000079002806D06548684402226B4904F08F
:104590008DFF05E0614868445022314605F014F86B
:1045A00000204D90E86D7A990918643188B2C00BEB
:1045B000081800B24010769AD200904200D31046FC
:1045C00009B2499A91426B9E00DA0020327E511E58
:1045D0008A41F17D334619330AF0FCF883B243482F
:1045E0006844427A53486844C189729181897191C3
:1045F0004489C58880885290B07D401E032853921C
:104600007D937794709523D803A14000085A400009
:104610008744C046FFFF00000A00D5020E001900C3
:10462000FFFF0000EC1000006198000604D10FE0CD
:1046300061980002000E0BD02D222C232B20272462
:104640003B993C9D0AE03E48401C61998142F3D26F
:1046500028202221409D3E9C679B3F9AB25C51924C
:10466000325D5092F45C755D325C715C5298354BF2
:1046700098470646709829462246324B984704468A
:1046800077985099519A2F4B984705462E48684481
:10469000C5807D9949002D4A5118491C7D91818022
:1046A00077944480344606802948684438215191E3
:1046B0000CF0AAFA6F986B990A5C042A00D30022C6
:1046C0006C985C99401A52907E9B900003A1085808
:1046D00026B22CB277990DB27092874655470008E2
:1046E000F3470008634700089B4700083C060000AA
:1046F000C834010831B57C0700011C021D0E1803E7
:104700001E16140F191104081F1B0D17151310077F
:104710001A0C12060B050A09BC100000FC0500006B
:104720000014004800040040BF2709002F75000056
:104730004024010820110000CC10000022240108B0
:10474000FFFFFF0071EB0008F01B000017FCFFFFEC
:10475000701100007398C66005617D9941618461A4
:1047600063E073987D994161C660291BF4488142DA
:1047700000DCF3497698C000814200DB0146739A61
:1047800091616119EE4A914200DCED498142709AD3
:1047900000DB01467398016147E035206B99085CA6
:1047A000E84969440191E84969440091E74969444D
:1047B000719A729B0AF020FA73990D617D9A4A6191
:1047C0008C61C10F4018411034468A1BDC4882427C
:1047D00000DCDB4A7698C000824200DB0246739B15
:1047E0001A620919D64A914200DCD54981427E9B62
:1047F00016E073987D99416184613446A919D048C7
:10480000814200DCCE497698C000814200DB01463F
:10481000739A1161291BCA4A914200DCC84981423E
:10482000709A00DB01467398C160C9486844C0189B
:104830007D900021B424BE2C1FD04E1C0D1D0E2DCA
:1048400018D27D98005D032A02D1052D799912D0E6
:10485000BC49694477910191BB4969440091BB49C6
:104860006944719A729B0AF0C7F9709A7E9BA900FD
:10487000779D68503146641CDDE73025B54EB4485D
:104880006844002D74D0C018C0300478002C6CD05F
:104890000E2C6AD8AE486844C018C421405CAA49AE
:1048A00069447E930AF0FAF97E9B00285DD0A848FF
:1048B0006844C618C120305CA24969440191A249EC
:1048C00069440091A1496944719A729B0AF094F974
:1048D000C2217156484364210CF040FFC321715638
:1048E000609A514340185E99725C611EC9B2002AF9
:1048F0002AD0012A11D0022A964E7E9B35D1904AA9
:10490000904200DC8E48769AD200904200DB10463E
:1049100089008C4A6A44505027E08900894E6E44D1
:104920007D91715848437699CC0021460CF016FFD2
:104930008349884200DC8248A0427E9B00DB2046FF
:104940007D997050834E10E089007E4A6A44535826
:1049500018187B4B984200DC7948769BDB00984224
:104960007C4E00DB184650507E9B9B1DAD1F86E79A
:104970000020769D1C2805D077496944774A0A5261
:10498000801CF7E7002074496944382814D06D4A28
:104990006A441358DA0F9A185210B218FA322C01DE
:1049A000A24200D322466E4CA34201DA7A9A6432C4
:1049B0000A80891C001DE8E700246A486844015702
:1049C00089004A9A926F89182A460DB2D1008D4209
:1049D00000DC0D46769A1201954200DB15465E4BCF
:1049E0006B441D80639D4557AD005E88AD192DB2A7
:1049F0008D4200DC0D469542629E00DB15465D80CF
:104A00009D88807840B2539901290ED0022928D17F
:104A10008000401905B27698C000854200DC05464A
:104A200076980001854225DA25E04D4949194A1C4E
:104A30007699C9008A1A00D200227A9B64339D427B
:104A400001D2659AD432424390000CF087FE45199A
:104A50007A98854200DC7A9D434885420BDB424DC3
:104A600009E07698C000854200D805467698000196
:104A7000854200D3054638486844858039496944F1
:104A8000689A89568900C288891809B2769BDA002B
:104A9000914200DC11461A019142479D00DB11460C
:104AA000C1806B98808A21461C290ED02246324054
:104AB0000346D340DA0705D0274A6A44535AEB1A13
:104AC000C8335352641C891CEEE7284868442249C5
:104AD00069441C220CF0E7F872207E906B9E355CD6
:104AE00008F0D8FF0446012D46D17320315C012225
:104AF00020467D92504009F087FD002C789E00D022
:104B0000D6E31B48C078012800D0D1E318480069DB
:104B10006C9E301A0A2800D2DEE0154806610E4964
:104B200069441620887013480880002048762028A1
:104B30004BD07A995C31034A6A441152801CF6E7E3
:104B400018FCFFFF7011000020110000F01B000096
:104B50003C060000E2040000001C0000DC05000030
:104B600017FCFFFFBC1000003408000048110000D3
:104B7000140B0020EE1800000020014609F044FD4F
:104B8000204608F083FE002C699D789E03D1FC48E6
:104B9000684408F06BFEFB48684408F0CBFEEFF376
:104BA000108072B64721F84A515C559BD25C80F365
:104BB0001088921E501E82410A4072928CE33598F2
:104BC0006199014200D037E542E500241C2C18D041
:104BD000EB486844005BF7218900884200D808460A
:104BE000EA49884200D3E948C000E949401800B2C8
:104BF00005210CF0B3FDAC30E64969440853A41C10
:104C0000E4E7E54C6C447398C568E570E148684496
:104C100083889908A17142895108A172C18977914D
:104C2000CE0866732D0A4688F10029432171710967
:104C30009D010D436571990AC3885D000D43E571BF
:104C4000739E71690D01DB092B4323720909D3019E
:104C50000B436372B1698B00520A1A43E2728909ED
:104C6000779A52010A432273F569A573838A9908DA
:104C70006174428B51086175C18B7791CE0826769D
:104C80002D0A468AF1002943E17371096C9E9D014A
:104C90000D432574990AC08A43000B43A374C009CD
:104CA000739D696A0B010343E3740809D101014351
:104CB0002175500AA96A8A000243A275880977996A
:104CC00049010143E175172130980AF087FD6076AC
:104CD0001A2120460AF0DCFCB0488019401C509094
:104CE000FA3653960026AE4A1068010701D508210E
:104CF0005160800600D48CE29068C0B2A9494D6929
:104D0000002D09D0012D11D1811E3D2900D381E054
:104D1000A549487002237EE0C82803D0EE2801D0C0
:104D2000EA287AD1A0490870012374E09E494C78A2
:104D3000A11C00238D426ED23F2D01D903F0A2F9B0
:104D4000994A5055681C974A5061884265D17793BB
:104D500095480BF0EFF96B918D4201D303F09AF96E
:104D6000415D72917090801C611E71900AF036FD59
:104D7000C0B27299814200D027E271990A78082A5C
:104D80008848779B08D02E2A4DD0292A00D1ACE044
:104D90002B2A50D0142A3FD10D466B9903293BD0C2
:104DA00070984478A01C884235D8022C33D36B927B
:104DB0007098001940787290611E28460AF00EFD26
:104DC000C0B27299814200D0FFE16B990829754801
:104DD00000D1F7E0142900D0F8E10B2C779B1BD908
:104DE0003030709A5179017491794174D17981741C
:104DF000117AC174D1784942817311794942C173E2
:104E0000507A401EC0B2072800D9E5E1400067494A
:104E1000085AE2E1002363484361761C412E604A50
:104E200000D061E7F5E1452001215E4A11545D485B
:104E30006C994163F0E7022D01D103F01AF9072CB8
:104E4000EAD3709988796B9048797290C91CA21E38
:104E500004202A900AF0FAFF03467D9840027190E0
:104E60000329534A00D279E171981058082800D3D9
:104E700074E10D46187819905878709000244A987B
:104E80008466C466046744674A4A6A441846102325
:104E90001E9009F05DFC2F9018913F486844242132
:104EA00016910BF0B1FE2F987F21709A1140A84205
:104EB00017915FD211940D293D4A00D1A4E0092930
:104EC0001E9B00D0BCE07D9870902F9A1446AC4297
:104ED00000D3B9E0185D3B2802D0002803D1B4E02C
:104EE0007098401C7090641CF1E7022D01D103F012
:104EF000C0F8052C90D37098C21C00792C4B2E4919
:104F00005854A51E14461A460C321423204629462E
:104F100009F01EFC264A294BD1540C30A8420ED26F
:104F2000205C83218900505400280CD101204002CC
:104F3000002313504120C000042111546BE783204B
:104F400080000A21115400241D48145401214802F4
:104F500014504120C00013461D9A04321A5248983A
:104F600080006C9A1A501448185C224609F0CEFB57
:104F7000234650E72346254670941F940C4A8EE042
:104F8000481100006411000000000020DC07000050
:104F9000C0E0FFFF70110000001C00003F1F000078
:104FA0001C440040140B0020F0060020381D0108AE
:104FB000FC080020F01B00000A0200000B020000A9
:104FC0000D020000092C00D800E103463030709A31
:104FD000917A0175D0790004117A09020818517A82
:104FE00040181863D07811790902081800BA000C2B
:104FF000642148435887507992791202101800BAF8
:10500000000C48439887EAE01E982F9BC35C1078F9
:10501000032801D001283ED15078729988423AD1B4
:10502000002B119900D1E1E0022B00D1E4E0032B29
:1050300000D0EAE072985070022010700323E4E080
:1050400011980346054628E02C46A01A2428169AF3
:1050500000D310461F90DC4969440AF0EEFE1F9B06
:1050600016902F981A18AA4201D903F00FF81E9A29
:10507000121816980BF05BF97098C0B2411E0246E8
:105080008A41801A7090601CA84200D3A0E01E994B
:105090000B5C119D72E71D46119870901F907198DE
:1050A0001158092901D302F0E9FF1E952F933C20E6
:1050B0004843131820331693543200281BD015464A
:1050C0003C383C322B78729CA342F6D1343D259873
:1050D0001E99295451982F99295428461030BA49BD
:1050E000694424220BF0DFFD3A201F99295439200E
:1050F0007099295431E008292FD0B44C6C44B4493C
:10510000694411912DCC2DC1AF49694424220C98DA
:105110000BF0C9FD3425169C204611992A460BF048
:10512000C2FD25981E9921543A201F9921543920F7
:105130007099215451982F9921543720189921544E
:1051400036201799215435201999215472986055A9
:10515000A049719A8858401C88509E4A6B98002834
:105160000ED09D49505C1446421C62549B48205C02
:10517000729909F0CBFA489880006C99215024E08C
:1051800083208000105C729981421AD27198105865
:10519000082816D20025904815547298411C904852
:1051A00011544120C0001446032222548B48205C35
:1051B0002A4609F0ABFA2B46489880006C9921509A
:1051C00029E64120C0002A9911548648779B23E69E
:1051D000119803460546D1E60020824B18874520EA
:1051E000012119546C9858631846EFE70023137097
:1051F0001D4670931F9352E75398506050989060EB
:10520000729850700320107002231D4670911F91F8
:1052100045E74520734B195C002908D0596B6C9AFF
:10522000511A659AD432914201D900211954412072
:10523000C0006849085C0128789E17D0032824D153
:105240004898800009586C9A511A759A5D329142BB
:1052500060491AD96C9A0A506148095C5D485E4AF7
:10526000825C5E4BC05C09F051FA0DE0489880000A
:1052700009586C9A511A759A2B329142554904D9A2
:105280006C9A0A5009F092FA52490878012808D01D
:1052900003280DD18D686C9A501B00D539E200208F
:1052A00005E048686C99081A02D400204949087042
:1052B0006D9808F0EBFA4B4B18463030417D4A4A66
:1052C0006A44D172007C9072588F108100217398CB
:1052D000016072914160699D686E00904349694424
:1052E000434A6A44404B6B446C9808F0C5FD6A9A87
:1052F000104643990840411E04468C4100280CD0BA
:105300007299002919D03046F8301040414241418D
:105310004C98084208D06D9873E0729900290CD01F
:105320003046F83002426BD0002008F02BFB3148A9
:10533000684404F03FF94C9464E02F496944097EC5
:10534000589A1278D2B20A430021002A6C9E19D1D1
:1053500000282A4B1BD0429959980918419A01D329
:105360000020C1436598D4304291814210466D9926
:1053700000D3084600D31146C90716D041906D9856
:105380004C9041E0419142914C941C4B3CE041983F
:10539000C00700210028429803D10021282800D30B
:1053A000A6E1429141914C912EE06D9C204608F07F
:1053B000E9FA104868449622569904F005F90F4B13
:1053C00041944C9420E0C046001C0000F01B0000FB
:1053D00070110000FC0800200D0200000A0200000D
:1053E00009020000140B00206411000048110000A5
:1053F00020110000FC050000CC100000000000207F
:1054000000204C90FC4B6C9EEFF3108172B65598C7
:105410001A5C6398024003D00020559C18555869C7
:1054200081F31088002A35D0411E0122D2439142D7
:1054300030D2F2496944097A132900D31321C901F2
:105440004F9A5118CA68824224D0C860EB48684419
:1054500009F04EFC00205F9B987002211980E849FA
:10546000694432220A877C9ACA86569A8A865A9951
:10547000E44A0A60D97801290CD175999F31E24B31
:10548000D962329A5A635A6A8A42194600D94862E6
:1054900048980860DD486844007E00283AD0529859
:1054A000202800D8C9E0D64868440390D84868440A
:1054B000029038980190D74868440090D34C6C44CF
:1054C0007FA9CE4B6B4420466A9A04F0BBFCA07EB9
:1054D000002809D0D0486844C949694402F064FEF4
:1054E000CA48684400218176C8486844C07E0028C4
:1054F00001D100F0ACFE6D9808F044FAC34868444E
:105500000021C176BE4868449622569904F05CF8A2
:1055100000F09DFE58980078002833D05299202939
:1055200000D88AE059998CB2142C00D814245899C8
:1055300049783A9A6A9B13427D9404D1CA0702D0F3
:105540000021589A51704A9AD2687E92B24B6B44AD
:105550006A9A9A84B14B6B441E8CB14C6C4453963E
:105560006681DE8B529626812E46AD6EF66EE68003
:10557000DE8AA68065805B8A2380CD072DD17E9947
:105580008A432BE03A986A990142639A4ED059981F
:1055900080B2379989B20918A2488142084600D3DF
:1055A000A0480146A0483791814241D9974C6C44AC
:1055B0002277002161824998208229606960A96070
:1055C000E96037916961AA618D48684403F0F2FF90
:1055D000639A207E00282BD061E7002278996C9E88
:1055E000F831114013463A9A13406A93012827D0A4
:1055F0000228639A31D1002926D1749824300028DA
:1056000000D19AE08449694409180B8B844A6A44A2
:10561000121892899A42144600D31C460C838B8C34
:105620009A4200D81A468A84801CE8E70020379006
:105630005298202801D900F057FC5C9EFEF7B6FD79
:105640000029639A00D105E10020589908706C4840
:10565000684403F0AFFF00F0FAFD91027FA87E904E
:1056600015460BF0D1FA6898010277916F486844AB
:1056700001811221739C6E4AA2616E4AE2616E4AF8
:10568000226261626099A1622D99E1626426E560FF
:1056900026617E9D2946FCF7C1FA644868447799E3
:1056A000018126210E22624BA361624BE361634BB1
:1056B00023622B9B6362A262E1626399E1602661CF
:1056C0002946FCF7ABFA54486844C08C7D9988425F
:1056D00005D9401A50496944C88400F0B7FD00203C
:1056E0005899087000F0B2FD01236D9EFEF709FE87
:1056F00053496431424868441E2203F065FF3E4B23
:105700002999491C689801402991002042904190B4
:1057100036E64868101A00D5CAE54A4C61787D9192
:105720004948205C062209F002F853986060A560A1
:105730007D98607003202070BAE5002127984162AF
:1057400051914800344A6A4410184B1E032B1BD059
:1057500019460488058B2A1B0023A54200D21A464D
:105760008589641B00D21C46801C4B1CFA2CEDD38F
:1057700092B2FA2AEAD3891C34486844639AC25424
:105780005198401C5190DCE76A98002800D19EE0B7
:105790005198C0B2042800D037E35A982C490161CF
:1057A000239941611C4868442B99302900D133E387
:1057B00085890288541B0023AA4200D21C46669D9C
:1057C0006C43A409141B00D21C46150425430B4C42
:1057D0006C446550058BAD1A00D21D46669B5D4337
:1057E000AB09D2180F4B9A4200D30E4A63185A6085
:1057F0000831801CD9E7C046000000203C060000AC
:10580000FC05000046003200002C0140CC100000D6
:1058100048110000BC100000701B000020110000A7
:10582000F01B0000FFFF0000AF040000701100003B
:10583000E420010802020102B5230108581D0108F5
:1058400034080000FC0800200A0200002C1C0000A4
:10585000594B53466A98002800D138E2BB48684447
:10586000BB496944024638CA38C12199024638CA40
:1058700038C122991CC81CC148984000589908801A
:10588000B4486844322240E6B3486844032117E034
:10589000B1486844022113E0AF48684402210AE09D
:1058A000AD486844042106E0AB486844012102E0A9
:1058B000A94868440321FF2203E0A7486844042163
:1058C0000122A44B6B4402F017FCFEF7D6FC639E4A
:1058D000B1027FAC20460BF097F9689801029F480F
:1058E0006844719101810C21739D9D4AAA619D4A72
:1058F000EA619D4A2A622C9A6A62A9622699E96243
:105900006421EE60709129612146FCF787F97F21BF
:1059100000205C90E8605D98286150916961A86101
:105920006E98E861914828628C4868442146FCF7EB
:10593000B5FC324627988E4942C08E4901604660C8
:105940008D498160C6604A988C498167C667132675
:105950007F4D6D447D4868447E90894868447D90C1
:10596000332E00D116E17D48684471990181344697
:10597000739E7B49B161F46202216A91B162F26067
:10598000709931617749F1617E49694409190A4684
:105990000F3A126872621339096831627FA97291F5
:1059A000FCF73CF9A11F6B916098F060316166983B
:1059B00070615B98B06177956E9DF5616B48306260
:1059C000664868447299FCF797FD6798F0606B9998
:1059D000316170616B94B461F561779D63483062A9
:1059E0005E4868447299FCF759FC2A88288B831A10
:1059F00000D25C9B64490C4664346B9E2B2E20467F
:105A000000D00846132E00D00446A889101A00D2F0
:105A10005C981E256843844272921AD85993F11EED
:105A2000739A91616E9BD361504B13621161214651
:105A30000BF06CFD1E2800D328467399679A4A61C3
:105A4000101AC860454868447FA9FCF727FC729A81
:105A5000599B98B21E256843844218D8F11E739A48
:105A600091616E9BD361414B1362679BD36011615F
:105A700021460BF04BFD1E2800D328462930739990
:105A80004861364868447FA9FCF708FC729A7E9802
:105A90000088801A0AD41E25684321460BF036FD83
:105AA0001E2800D328462930779D0CE074991231C6
:105AB0004143084621460BF029FD1E28779D00D35F
:105AC0001E206799081A711E721F739CE060226184
:105AD0006061A1616E98E061244820621F486844BB
